{
	"SAAVE_Receiver.sol": {
		"SAAVE_Receiver": {
			"abi": [
				{
					"inputs": [
						{
							"internalType": "address",
							"name": "SAAVEFactory",
							"type": "address"
						}
					],
					"stateMutability": "nonpayable",
					"type": "constructor"
				},
				{
					"inputs": [
						{
							"internalType": "uint256",
							"name": "_daiAmount",
							"type": "uint256"
						},
						{
							"internalType": "uint256",
							"name": "_USDCAmount",
							"type": "uint256"
						},
						{
							"internalType": "uint256",
							"name": "_USDTAmount",
							"type": "uint256"
						}
					],
					"name": "deposit",
					"outputs": [],
					"stateMutability": "nonpayable",
					"type": "function"
				}
			],
			"devdoc": {
				"kind": "dev",
				"methods": {},
				"version": 1
			},
			"evm": {
				"assembly": "    /* \"SAAVE_Receiver.sol\":404:859  contract SAAVE_Receiver is AAVEActions, curveActions {... */\n  mstore(0x40, 0x80)\n    /* \"AAVEActions.sol\":110:152  0x2791Bca1f2de4661ED88A30C99A7a9449Aa84174 */\n  0x2791bca1f2de4661ed88a30c99a7a9449aa84174\n    /* \"AAVEActions.sol\":89:153  IERC20 USDC = IERC20(0x2791Bca1f2de4661ED88A30C99A7a9449Aa84174) */\n  0x00\n  dup1\n  0x0100\n  exp\n  dup2\n  sload\n  dup2\n  0xffffffffffffffffffffffffffffffffffffffff\n  mul\n  not\n  and\n  swap1\n  dup4\n  0xffffffffffffffffffffffffffffffffffffffff\n  and\n  mul\n  or\n  swap1\n  sstore\n  pop\n    /* \"AAVEActions.sol\":180:222  0x8f3Cf7ad23Cd3CaDbD9735AFf958023239c6A063 */\n  0x8f3cf7ad23cd3cadbd9735aff958023239c6a063\n    /* \"AAVEActions.sol\":160:223  IERC20 DAI = IERC20(0x8f3Cf7ad23Cd3CaDbD9735AFf958023239c6A063) */\n  0x01\n  exp(0x0100, 0x00)\n  dup2\n  sload\n  dup2\n  0xffffffffffffffffffffffffffffffffffffffff\n  mul\n  not\n  and\n  swap1\n  dup4\n  0xffffffffffffffffffffffffffffffffffffffff\n  and\n  mul\n  or\n  swap1\n  sstore\n  pop\n    /* \"AAVEActions.sol\":251:293  0xc2132D05D31c914a87C6611C10748AEb04B58e8F */\n  0xc2132d05d31c914a87c6611c10748aeb04b58e8f\n    /* \"AAVEActions.sol\":230:294  IERC20 USDT = IERC20(0xc2132D05D31c914a87C6611C10748AEb04B58e8F) */\n  0x02\n  exp(0x0100, 0x00)\n  dup2\n  sload\n  dup2\n  0xffffffffffffffffffffffffffffffffffffffff\n  mul\n  not\n  and\n  swap1\n  dup4\n  0xffffffffffffffffffffffffffffffffffffffff\n  and\n  mul\n  or\n  swap1\n  sstore\n  pop\n    /* \"AAVEActions.sol\":372:414  0xd05e3E715d945B59290df0ae8eF85c1BdB684744 */\n  0xd05e3e715d945b59290df0ae8ef85c1bdb684744\n    /* \"AAVEActions.sol\":342:430  ILendingPoolAddressesProvider(0xd05e3E715d945B59290df0ae8eF85c1BdB684744).getLendingPool */\n  0xffffffffffffffffffffffffffffffffffffffff\n  and\n  0x0261bf8b\n    /* \"AAVEActions.sol\":342:432  ILendingPoolAddressesProvider(0xd05e3E715d945B59290df0ae8eF85c1BdB684744).getLendingPool() */\n  mload(0x40)\n  dup2\n  0xffffffff\n  and\n  0xe0\n  shl\n  dup2\n  mstore\n  0x04\n  add\n  0x20\n  mload(0x40)\n  dup1\n  dup4\n  sub\n  dup2\n  dup7\n  gas\n  staticcall\n  iszero\n  dup1\n  iszero\n  tag_2\n  jumpi\n  returndatasize\n  0x00\n  dup1\n  returndatacopy\n  revert(0x00, returndatasize)\ntag_2:\n  pop\n  pop\n  pop\n  pop\n  mload(0x40)\n  returndatasize\n  not(0x1f)\n  0x1f\n  dup3\n  add\n  and\n  dup3\n  add\n  dup1\n  0x40\n  mstore\n  pop\n  dup2\n  add\n  swap1\n  tag_3\n  swap2\n  swap1\n  tag_4\n  jump\t// in\ntag_3:\n    /* \"AAVEActions.sol\":301:434  ILendingPool LendingPool = (ILendingPool(ILendingPoolAddressesProvider(0xd05e3E715d945B59290df0ae8eF85c1BdB684744).getLendingPool())) */\n  0x03\n  exp(0x0100, 0x00)\n  dup2\n  sload\n  dup2\n  0xffffffffffffffffffffffffffffffffffffffff\n  mul\n  not\n  and\n  swap1\n  dup4\n  0xffffffffffffffffffffffffffffffffffffffff\n  and\n  mul\n  or\n  swap1\n  sstore\n  pop\n    /* \"AAVEActions.sol\":471:472  0 */\n  0x00\n    /* \"AAVEActions.sol\":441:473  uint16 REFERRAL_CODE = uint16(0) */\n  0x03\n  exp(0x0100, 0x14)\n  dup2\n  sload\n  dup2\n  0xffff\n  mul\n  not\n  and\n  swap1\n  dup4\n  0xffff\n  and\n  mul\n  or\n  swap1\n  sstore\n  pop\n    /* \"curveActions.sol\":179:221  0x445FE580eF8d70FF569aB36e80c647af338db351 */\n  0x445fe580ef8d70ff569ab36e80c647af338db351\n    /* \"curveActions.sol\":119:222  ICurve_AAVE_Stable_Pool curvePool = ICurve_AAVE_Stable_Pool(0x445FE580eF8d70FF569aB36e80c647af338db351) */\n  0x04\n  exp(0x0100, 0x00)\n  dup2\n  sload\n  dup2\n  0xffffffffffffffffffffffffffffffffffffffff\n  mul\n  not\n  and\n  swap1\n  dup4\n  0xffffffffffffffffffffffffffffffffffffffff\n  and\n  mul\n  or\n  swap1\n  sstore\n  pop\n    /* \"SAAVE_Receiver.sol\":510:585  constructor(address SAAVEFactory) {... */\n  callvalue\n  dup1\n  iszero\n  tag_5\n  jumpi\n  0x00\n  dup1\n  revert\ntag_5:\n  pop\n  mload(0x40)\n  sub(codesize, bytecodeSize)\n  dup1\n  bytecodeSize\n  dup4\n  codecopy\n  dup2\n  dup2\n  add\n  0x40\n  mstore\n  dup2\n  add\n  swap1\n  tag_6\n  swap2\n  swap1\n  tag_4\n  jump\t// in\ntag_6:\n    /* \"SAAVE_Receiver.sol\":565:577  SAAVEFactory */\n  dup1\n    /* \"SAAVE_Receiver.sol\":555:562  factory */\n  0x05\n  0x00\n    /* \"SAAVE_Receiver.sol\":555:577  factory = SAAVEFactory */\n  0x0100\n  exp\n  dup2\n  sload\n  dup2\n  0xffffffffffffffffffffffffffffffffffffffff\n  mul\n  not\n  and\n  swap1\n  dup4\n  0xffffffffffffffffffffffffffffffffffffffff\n  and\n  mul\n  or\n  swap1\n  sstore\n  pop\n    /* \"SAAVE_Receiver.sol\":510:585  constructor(address SAAVEFactory) {... */\n  pop\n    /* \"SAAVE_Receiver.sol\":404:859  contract SAAVE_Receiver is AAVEActions, curveActions {... */\n  jump(tag_9)\n    /* \"#utility.yul\":88:205   */\ntag_11:\n    /* \"#utility.yul\":197:198   */\n  0x00\n    /* \"#utility.yul\":194:195   */\n  dup1\n    /* \"#utility.yul\":187:199   */\n  revert\n    /* \"#utility.yul\":334:460   */\ntag_13:\n    /* \"#utility.yul\":371:378   */\n  0x00\n    /* \"#utility.yul\":411:453   */\n  0xffffffffffffffffffffffffffffffffffffffff\n    /* \"#utility.yul\":404:409   */\n  dup3\n    /* \"#utility.yul\":400:454   */\n  and\n    /* \"#utility.yul\":389:454   */\n  swap1\n  pop\n    /* \"#utility.yul\":334:460   */\n  swap2\n  swap1\n  pop\n  jump\t// out\n    /* \"#utility.yul\":466:562   */\ntag_14:\n    /* \"#utility.yul\":503:510   */\n  0x00\n    /* \"#utility.yul\":532:556   */\n  tag_23\n    /* \"#utility.yul\":550:555   */\n  dup3\n    /* \"#utility.yul\":532:556   */\n  tag_13\n  jump\t// in\ntag_23:\n    /* \"#utility.yul\":521:556   */\n  swap1\n  pop\n    /* \"#utility.yul\":466:562   */\n  swap2\n  swap1\n  pop\n  jump\t// out\n    /* \"#utility.yul\":568:690   */\ntag_15:\n    /* \"#utility.yul\":641:665   */\n  tag_25\n    /* \"#utility.yul\":659:664   */\n  dup2\n    /* \"#utility.yul\":641:665   */\n  tag_14\n  jump\t// in\ntag_25:\n    /* \"#utility.yul\":634:639   */\n  dup2\n    /* \"#utility.yul\":631:666   */\n  eq\n    /* \"#utility.yul\":621:684   */\n  tag_26\n  jumpi\n    /* \"#utility.yul\":680:681   */\n  0x00\n    /* \"#utility.yul\":677:678   */\n  dup1\n    /* \"#utility.yul\":670:682   */\n  revert\n    /* \"#utility.yul\":621:684   */\ntag_26:\n    /* \"#utility.yul\":568:690   */\n  pop\n  jump\t// out\n    /* \"#utility.yul\":696:839   */\ntag_16:\n    /* \"#utility.yul\":753:758   */\n  0x00\n    /* \"#utility.yul\":784:790   */\n  dup2\n    /* \"#utility.yul\":778:791   */\n  mload\n    /* \"#utility.yul\":769:791   */\n  swap1\n  pop\n    /* \"#utility.yul\":800:833   */\n  tag_28\n    /* \"#utility.yul\":827:832   */\n  dup2\n    /* \"#utility.yul\":800:833   */\n  tag_15\n  jump\t// in\ntag_28:\n    /* \"#utility.yul\":696:839   */\n  swap3\n  swap2\n  pop\n  pop\n  jump\t// out\n    /* \"#utility.yul\":845:1196   */\ntag_4:\n    /* \"#utility.yul\":915:921   */\n  0x00\n    /* \"#utility.yul\":964:966   */\n  0x20\n    /* \"#utility.yul\":952:961   */\n  dup3\n    /* \"#utility.yul\":943:950   */\n  dup5\n    /* \"#utility.yul\":939:962   */\n  sub\n    /* \"#utility.yul\":935:967   */\n  slt\n    /* \"#utility.yul\":932:1051   */\n  iszero\n  tag_30\n  jumpi\n    /* \"#utility.yul\":970:1049   */\n  tag_31\n  tag_11\n  jump\t// in\ntag_31:\n    /* \"#utility.yul\":932:1051   */\ntag_30:\n    /* \"#utility.yul\":1090:1091   */\n  0x00\n    /* \"#utility.yul\":1115:1179   */\n  tag_32\n    /* \"#utility.yul\":1171:1178   */\n  dup5\n    /* \"#utility.yul\":1162:1168   */\n  dup3\n    /* \"#utility.yul\":1151:1160   */\n  dup6\n    /* \"#utility.yul\":1147:1169   */\n  add\n    /* \"#utility.yul\":1115:1179   */\n  tag_16\n  jump\t// in\ntag_32:\n    /* \"#utility.yul\":1105:1179   */\n  swap2\n  pop\n    /* \"#utility.yul\":1061:1189   */\n  pop\n    /* \"#utility.yul\":845:1196   */\n  swap3\n  swap2\n  pop\n  pop\n  jump\t// out\n    /* \"SAAVE_Receiver.sol\":404:859  contract SAAVE_Receiver is AAVEActions, curveActions {... */\ntag_9:\n  dataSize(sub_0)\n  dup1\n  dataOffset(sub_0)\n  0x00\n  codecopy\n  0x00\n  return\nstop\n\nsub_0: assembly {\n        /* \"SAAVE_Receiver.sol\":404:859  contract SAAVE_Receiver is AAVEActions, curveActions {... */\n      mstore(0x40, 0x80)\n      callvalue\n      dup1\n      iszero\n      tag_1\n      jumpi\n      0x00\n      dup1\n      revert\n    tag_1:\n      pop\n      jumpi(tag_2, lt(calldatasize, 0x04))\n      shr(0xe0, calldataload(0x00))\n      dup1\n      0xaeef8a\n      eq\n      tag_3\n      jumpi\n    tag_2:\n      0x00\n      dup1\n      revert\n        /* \"SAAVE_Receiver.sol\":597:856  function deposit(uint _daiAmount, uint _USDCAmount, uint _USDTAmount) external {... */\n    tag_3:\n      tag_4\n      0x04\n      dup1\n      calldatasize\n      sub\n      dup2\n      add\n      swap1\n      tag_5\n      swap2\n      swap1\n      tag_6\n      jump\t// in\n    tag_5:\n      tag_7\n      jump\t// in\n    tag_4:\n      stop\n    tag_7:\n        /* \"SAAVE_Receiver.sol\":709:716  factory */\n      0x05\n      0x00\n      swap1\n      sload\n      swap1\n      0x0100\n      exp\n      swap1\n      div\n      0xffffffffffffffffffffffffffffffffffffffff\n      and\n        /* \"SAAVE_Receiver.sol\":695:716  msg.sender == factory */\n      0xffffffffffffffffffffffffffffffffffffffff\n      and\n        /* \"SAAVE_Receiver.sol\":695:705  msg.sender */\n      caller\n        /* \"SAAVE_Receiver.sol\":695:716  msg.sender == factory */\n      0xffffffffffffffffffffffffffffffffffffffff\n      and\n      eq\n        /* \"SAAVE_Receiver.sol\":687:717  require(msg.sender == factory) */\n      tag_9\n      jumpi\n      0x00\n      dup1\n      revert\n    tag_9:\n        /* \"SAAVE_Receiver.sol\":766:812  addCurve(_daiAmount, _USDCAmount, _USDTAmount) */\n      tag_10\n        /* \"SAAVE_Receiver.sol\":775:785  _daiAmount */\n      dup4\n        /* \"SAAVE_Receiver.sol\":787:798  _USDCAmount */\n      dup4\n        /* \"SAAVE_Receiver.sol\":800:811  _USDTAmount */\n      dup4\n        /* \"SAAVE_Receiver.sol\":766:774  addCurve */\n      tag_11\n        /* \"SAAVE_Receiver.sol\":766:812  addCurve(_daiAmount, _USDCAmount, _USDTAmount) */\n      jump\t// in\n    tag_10:\n        /* \"SAAVE_Receiver.sol\":597:856  function deposit(uint _daiAmount, uint _USDCAmount, uint _USDTAmount) external {... */\n      pop\n      pop\n      pop\n      jump\t// out\n        /* \"curveActions.sol\":231:515  function addCurve(uint _daiAmount, uint _USDCAmount, uint _USDTAmount) internal {... */\n    tag_11:\n        /* \"curveActions.sol\":322:352  uint[3] memory aaveTokenAmount */\n      0x00\n        /* \"curveActions.sol\":322:393  uint[3] memory aaveTokenAmount = [_daiAmount, _USDCAmount, _USDTAmount] */\n      mload(0x40)\n      dup1\n      0x60\n      add\n      0x40\n      mstore\n      dup1\n        /* \"curveActions.sol\":356:366  _daiAmount */\n      dup6\n        /* \"curveActions.sol\":322:393  uint[3] memory aaveTokenAmount = [_daiAmount, _USDCAmount, _USDTAmount] */\n      dup2\n      mstore\n      0x20\n      add\n        /* \"curveActions.sol\":368:379  _USDCAmount */\n      dup5\n        /* \"curveActions.sol\":322:393  uint[3] memory aaveTokenAmount = [_daiAmount, _USDCAmount, _USDTAmount] */\n      dup2\n      mstore\n      0x20\n      add\n        /* \"curveActions.sol\":381:392  _USDTAmount */\n      dup4\n        /* \"curveActions.sol\":322:393  uint[3] memory aaveTokenAmount = [_daiAmount, _USDCAmount, _USDTAmount] */\n      dup2\n      mstore\n      pop\n      swap1\n      pop\n        /* \"curveActions.sol\":462:471  curvePool */\n      0x04\n      0x00\n      swap1\n      sload\n      swap1\n      0x0100\n      exp\n      swap1\n      div\n      0xffffffffffffffffffffffffffffffffffffffff\n      and\n        /* \"curveActions.sol\":462:485  curvePool.add_liquidity */\n      0xffffffffffffffffffffffffffffffffffffffff\n      and\n      0x4515cef3\n        /* \"curveActions.sol\":486:501  aaveTokenAmount */\n      dup3\n        /* \"curveActions.sol\":503:504  0 */\n      0x00\n        /* \"curveActions.sol\":462:505  curvePool.add_liquidity(aaveTokenAmount, 0) */\n      mload(0x40)\n      dup4\n      0xffffffff\n      and\n      0xe0\n      shl\n      dup2\n      mstore\n      0x04\n      add\n      tag_13\n      swap3\n      swap2\n      swap1\n      tag_14\n      jump\t// in\n    tag_13:\n      0x20\n      mload(0x40)\n      dup1\n      dup4\n      sub\n      dup2\n      0x00\n      dup8\n      gas\n      call\n      iszero\n      dup1\n      iszero\n      tag_16\n      jumpi\n      returndatasize\n      0x00\n      dup1\n      returndatacopy\n      revert(0x00, returndatasize)\n    tag_16:\n      pop\n      pop\n      pop\n      pop\n      mload(0x40)\n      returndatasize\n      not(0x1f)\n      0x1f\n      dup3\n      add\n      and\n      dup3\n      add\n      dup1\n      0x40\n      mstore\n      pop\n      dup2\n      add\n      swap1\n      tag_17\n      swap2\n      swap1\n      tag_18\n      jump\t// in\n    tag_17:\n      pop\n        /* \"curveActions.sol\":311:515  {... */\n      pop\n        /* \"curveActions.sol\":231:515  function addCurve(uint _daiAmount, uint _USDCAmount, uint _USDTAmount) internal {... */\n      pop\n      pop\n      pop\n      jump\t// out\n        /* \"#utility.yul\":88:205   */\n    tag_20:\n        /* \"#utility.yul\":197:198   */\n      0x00\n        /* \"#utility.yul\":194:195   */\n      dup1\n        /* \"#utility.yul\":187:199   */\n      revert\n        /* \"#utility.yul\":334:411   */\n    tag_22:\n        /* \"#utility.yul\":371:378   */\n      0x00\n        /* \"#utility.yul\":400:405   */\n      dup2\n        /* \"#utility.yul\":389:405   */\n      swap1\n      pop\n        /* \"#utility.yul\":334:411   */\n      swap2\n      swap1\n      pop\n      jump\t// out\n        /* \"#utility.yul\":417:539   */\n    tag_23:\n        /* \"#utility.yul\":490:514   */\n      tag_43\n        /* \"#utility.yul\":508:513   */\n      dup2\n        /* \"#utility.yul\":490:514   */\n      tag_22\n      jump\t// in\n    tag_43:\n        /* \"#utility.yul\":483:488   */\n      dup2\n        /* \"#utility.yul\":480:515   */\n      eq\n        /* \"#utility.yul\":470:533   */\n      tag_44\n      jumpi\n        /* \"#utility.yul\":529:530   */\n      0x00\n        /* \"#utility.yul\":526:527   */\n      dup1\n        /* \"#utility.yul\":519:531   */\n      revert\n        /* \"#utility.yul\":470:533   */\n    tag_44:\n        /* \"#utility.yul\":417:539   */\n      pop\n      jump\t// out\n        /* \"#utility.yul\":545:684   */\n    tag_24:\n        /* \"#utility.yul\":591:596   */\n      0x00\n        /* \"#utility.yul\":629:635   */\n      dup2\n        /* \"#utility.yul\":616:636   */\n      calldataload\n        /* \"#utility.yul\":607:636   */\n      swap1\n      pop\n        /* \"#utility.yul\":645:678   */\n      tag_46\n        /* \"#utility.yul\":672:677   */\n      dup2\n        /* \"#utility.yul\":645:678   */\n      tag_23\n      jump\t// in\n    tag_46:\n        /* \"#utility.yul\":545:684   */\n      swap3\n      swap2\n      pop\n      pop\n      jump\t// out\n        /* \"#utility.yul\":690:1309   */\n    tag_6:\n        /* \"#utility.yul\":767:773   */\n      0x00\n        /* \"#utility.yul\":775:781   */\n      dup1\n        /* \"#utility.yul\":783:789   */\n      0x00\n        /* \"#utility.yul\":832:834   */\n      0x60\n        /* \"#utility.yul\":820:829   */\n      dup5\n        /* \"#utility.yul\":811:818   */\n      dup7\n        /* \"#utility.yul\":807:830   */\n      sub\n        /* \"#utility.yul\":803:835   */\n      slt\n        /* \"#utility.yul\":800:919   */\n      iszero\n      tag_48\n      jumpi\n        /* \"#utility.yul\":838:917   */\n      tag_49\n      tag_20\n      jump\t// in\n    tag_49:\n        /* \"#utility.yul\":800:919   */\n    tag_48:\n        /* \"#utility.yul\":958:959   */\n      0x00\n        /* \"#utility.yul\":983:1036   */\n      tag_50\n        /* \"#utility.yul\":1028:1035   */\n      dup7\n        /* \"#utility.yul\":1019:1025   */\n      dup3\n        /* \"#utility.yul\":1008:1017   */\n      dup8\n        /* \"#utility.yul\":1004:1026   */\n      add\n        /* \"#utility.yul\":983:1036   */\n      tag_24\n      jump\t// in\n    tag_50:\n        /* \"#utility.yul\":973:1036   */\n      swap4\n      pop\n        /* \"#utility.yul\":929:1046   */\n      pop\n        /* \"#utility.yul\":1085:1087   */\n      0x20\n        /* \"#utility.yul\":1111:1164   */\n      tag_51\n        /* \"#utility.yul\":1156:1163   */\n      dup7\n        /* \"#utility.yul\":1147:1153   */\n      dup3\n        /* \"#utility.yul\":1136:1145   */\n      dup8\n        /* \"#utility.yul\":1132:1154   */\n      add\n        /* \"#utility.yul\":1111:1164   */\n      tag_24\n      jump\t// in\n    tag_51:\n        /* \"#utility.yul\":1101:1164   */\n      swap3\n      pop\n        /* \"#utility.yul\":1056:1174   */\n      pop\n        /* \"#utility.yul\":1213:1215   */\n      0x40\n        /* \"#utility.yul\":1239:1292   */\n      tag_52\n        /* \"#utility.yul\":1284:1291   */\n      dup7\n        /* \"#utility.yul\":1275:1281   */\n      dup3\n        /* \"#utility.yul\":1264:1273   */\n      dup8\n        /* \"#utility.yul\":1260:1282   */\n      add\n        /* \"#utility.yul\":1239:1292   */\n      tag_24\n      jump\t// in\n    tag_52:\n        /* \"#utility.yul\":1229:1292   */\n      swap2\n      pop\n        /* \"#utility.yul\":1184:1302   */\n      pop\n        /* \"#utility.yul\":690:1309   */\n      swap3\n      pop\n      swap3\n      pop\n      swap3\n      jump\t// out\n        /* \"#utility.yul\":1315:1419   */\n    tag_25:\n        /* \"#utility.yul\":1380:1386   */\n      0x00\n        /* \"#utility.yul\":1408:1412   */\n      0x03\n        /* \"#utility.yul\":1398:1412   */\n      swap1\n      pop\n        /* \"#utility.yul\":1315:1419   */\n      swap2\n      swap1\n      pop\n      jump\t// out\n        /* \"#utility.yul\":1425:1568   */\n    tag_26:\n        /* \"#utility.yul\":1522:1533   */\n      0x00\n        /* \"#utility.yul\":1559:1562   */\n      dup2\n        /* \"#utility.yul\":1544:1562   */\n      swap1\n      pop\n        /* \"#utility.yul\":1425:1568   */\n      swap3\n      swap2\n      pop\n      pop\n      jump\t// out\n        /* \"#utility.yul\":1574:1672   */\n    tag_27:\n        /* \"#utility.yul\":1639:1643   */\n      0x00\n        /* \"#utility.yul\":1662:1665   */\n      dup2\n        /* \"#utility.yul\":1654:1665   */\n      swap1\n      pop\n        /* \"#utility.yul\":1574:1672   */\n      swap2\n      swap1\n      pop\n      jump\t// out\n        /* \"#utility.yul\":1678:1786   */\n    tag_28:\n        /* \"#utility.yul\":1755:1779   */\n      tag_57\n        /* \"#utility.yul\":1773:1778   */\n      dup2\n        /* \"#utility.yul\":1755:1779   */\n      tag_22\n      jump\t// in\n    tag_57:\n        /* \"#utility.yul\":1750:1753   */\n      dup3\n        /* \"#utility.yul\":1743:1780   */\n      mstore\n        /* \"#utility.yul\":1678:1786   */\n      pop\n      pop\n      jump\t// out\n        /* \"#utility.yul\":1792:1971   */\n    tag_29:\n        /* \"#utility.yul\":1861:1871   */\n      0x00\n        /* \"#utility.yul\":1882:1928   */\n      tag_59\n        /* \"#utility.yul\":1924:1927   */\n      dup4\n        /* \"#utility.yul\":1916:1922   */\n      dup4\n        /* \"#utility.yul\":1882:1928   */\n      tag_28\n      jump\t// in\n    tag_59:\n        /* \"#utility.yul\":1960:1964   */\n      0x20\n        /* \"#utility.yul\":1955:1958   */\n      dup4\n        /* \"#utility.yul\":1951:1965   */\n      add\n        /* \"#utility.yul\":1937:1965   */\n      swap1\n      pop\n        /* \"#utility.yul\":1792:1971   */\n      swap3\n      swap2\n      pop\n      pop\n      jump\t// out\n        /* \"#utility.yul\":1977:2088   */\n    tag_30:\n        /* \"#utility.yul\":2045:2049   */\n      0x00\n        /* \"#utility.yul\":2077:2081   */\n      0x20\n        /* \"#utility.yul\":2072:2075   */\n      dup3\n        /* \"#utility.yul\":2068:2082   */\n      add\n        /* \"#utility.yul\":2060:2082   */\n      swap1\n      pop\n        /* \"#utility.yul\":1977:2088   */\n      swap2\n      swap1\n      pop\n      jump\t// out\n        /* \"#utility.yul\":2126:2820   */\n    tag_31:\n        /* \"#utility.yul\":2262:2314   */\n      tag_62\n        /* \"#utility.yul\":2308:2313   */\n      dup2\n        /* \"#utility.yul\":2262:2314   */\n      tag_25\n      jump\t// in\n    tag_62:\n        /* \"#utility.yul\":2330:2414   */\n      tag_63\n        /* \"#utility.yul\":2407:2413   */\n      dup2\n        /* \"#utility.yul\":2402:2405   */\n      dup5\n        /* \"#utility.yul\":2330:2414   */\n      tag_26\n      jump\t// in\n    tag_63:\n        /* \"#utility.yul\":2323:2414   */\n      swap3\n      pop\n        /* \"#utility.yul\":2438:2492   */\n      tag_64\n        /* \"#utility.yul\":2486:2491   */\n      dup3\n        /* \"#utility.yul\":2438:2492   */\n      tag_27\n      jump\t// in\n    tag_64:\n        /* \"#utility.yul\":2515:2522   */\n      dup1\n        /* \"#utility.yul\":2546:2547   */\n      0x00\n        /* \"#utility.yul\":2531:2813   */\n    tag_65:\n        /* \"#utility.yul\":2556:2562   */\n      dup4\n        /* \"#utility.yul\":2553:2554   */\n      dup2\n        /* \"#utility.yul\":2550:2563   */\n      lt\n        /* \"#utility.yul\":2531:2813   */\n      iszero\n      tag_67\n      jumpi\n        /* \"#utility.yul\":2632:2638   */\n      dup2\n        /* \"#utility.yul\":2626:2639   */\n      mload\n        /* \"#utility.yul\":2659:2722   */\n      tag_68\n        /* \"#utility.yul\":2718:2721   */\n      dup8\n        /* \"#utility.yul\":2703:2716   */\n      dup3\n        /* \"#utility.yul\":2659:2722   */\n      tag_29\n      jump\t// in\n    tag_68:\n        /* \"#utility.yul\":2652:2722   */\n      swap7\n      pop\n        /* \"#utility.yul\":2745:2803   */\n      tag_69\n        /* \"#utility.yul\":2796:2802   */\n      dup4\n        /* \"#utility.yul\":2745:2803   */\n      tag_30\n      jump\t// in\n    tag_69:\n        /* \"#utility.yul\":2735:2803   */\n      swap3\n      pop\n        /* \"#utility.yul\":2591:2813   */\n      pop\n        /* \"#utility.yul\":2578:2579   */\n      0x01\n        /* \"#utility.yul\":2575:2576   */\n      dup2\n        /* \"#utility.yul\":2571:2580   */\n      add\n        /* \"#utility.yul\":2566:2580   */\n      swap1\n      pop\n        /* \"#utility.yul\":2531:2813   */\n      jump(tag_65)\n    tag_67:\n        /* \"#utility.yul\":2535:2549   */\n      pop\n        /* \"#utility.yul\":2238:2820   */\n      pop\n      pop\n      pop\n        /* \"#utility.yul\":2126:2820   */\n      pop\n      pop\n      jump\t// out\n        /* \"#utility.yul\":2826:2911   */\n    tag_32:\n        /* \"#utility.yul\":2871:2878   */\n      0x00\n        /* \"#utility.yul\":2900:2905   */\n      dup2\n        /* \"#utility.yul\":2889:2905   */\n      swap1\n      pop\n        /* \"#utility.yul\":2826:2911   */\n      swap2\n      swap1\n      pop\n      jump\t// out\n        /* \"#utility.yul\":2917:2977   */\n    tag_33:\n        /* \"#utility.yul\":2945:2948   */\n      0x00\n        /* \"#utility.yul\":2966:2971   */\n      dup2\n        /* \"#utility.yul\":2959:2971   */\n      swap1\n      pop\n        /* \"#utility.yul\":2917:2977   */\n      swap2\n      swap1\n      pop\n      jump\t// out\n        /* \"#utility.yul\":2983:3141   */\n    tag_34:\n        /* \"#utility.yul\":3041:3050   */\n      0x00\n        /* \"#utility.yul\":3074:3135   */\n      tag_73\n        /* \"#utility.yul\":3092:3134   */\n      tag_74\n        /* \"#utility.yul\":3101:3133   */\n      tag_75\n        /* \"#utility.yul\":3127:3132   */\n      dup5\n        /* \"#utility.yul\":3101:3133   */\n      tag_32\n      jump\t// in\n    tag_75:\n        /* \"#utility.yul\":3092:3134   */\n      tag_33\n      jump\t// in\n    tag_74:\n        /* \"#utility.yul\":3074:3135   */\n      tag_22\n      jump\t// in\n    tag_73:\n        /* \"#utility.yul\":3061:3135   */\n      swap1\n      pop\n        /* \"#utility.yul\":2983:3141   */\n      swap2\n      swap1\n      pop\n      jump\t// out\n        /* \"#utility.yul\":3147:3294   */\n    tag_35:\n        /* \"#utility.yul\":3242:3287   */\n      tag_77\n        /* \"#utility.yul\":3281:3286   */\n      dup2\n        /* \"#utility.yul\":3242:3287   */\n      tag_34\n      jump\t// in\n    tag_77:\n        /* \"#utility.yul\":3237:3240   */\n      dup3\n        /* \"#utility.yul\":3230:3288   */\n      mstore\n        /* \"#utility.yul\":3147:3294   */\n      pop\n      pop\n      jump\t// out\n        /* \"#utility.yul\":3300:3741   */\n    tag_14:\n        /* \"#utility.yul\":3475:3479   */\n      0x00\n        /* \"#utility.yul\":3513:3516   */\n      0x80\n        /* \"#utility.yul\":3502:3511   */\n      dup3\n        /* \"#utility.yul\":3498:3517   */\n      add\n        /* \"#utility.yul\":3490:3517   */\n      swap1\n      pop\n        /* \"#utility.yul\":3527:3644   */\n      tag_79\n        /* \"#utility.yul\":3641:3642   */\n      0x00\n        /* \"#utility.yul\":3630:3639   */\n      dup4\n        /* \"#utility.yul\":3626:3643   */\n      add\n        /* \"#utility.yul\":3617:3623   */\n      dup6\n        /* \"#utility.yul\":3527:3644   */\n      tag_31\n      jump\t// in\n    tag_79:\n        /* \"#utility.yul\":3654:3734   */\n      tag_80\n        /* \"#utility.yul\":3730:3732   */\n      0x60\n        /* \"#utility.yul\":3719:3728   */\n      dup4\n        /* \"#utility.yul\":3715:3733   */\n      add\n        /* \"#utility.yul\":3706:3712   */\n      dup5\n        /* \"#utility.yul\":3654:3734   */\n      tag_35\n      jump\t// in\n    tag_80:\n        /* \"#utility.yul\":3300:3741   */\n      swap4\n      swap3\n      pop\n      pop\n      pop\n      jump\t// out\n        /* \"#utility.yul\":3747:3890   */\n    tag_36:\n        /* \"#utility.yul\":3804:3809   */\n      0x00\n        /* \"#utility.yul\":3835:3841   */\n      dup2\n        /* \"#utility.yul\":3829:3842   */\n      mload\n        /* \"#utility.yul\":3820:3842   */\n      swap1\n      pop\n        /* \"#utility.yul\":3851:3884   */\n      tag_82\n        /* \"#utility.yul\":3878:3883   */\n      dup2\n        /* \"#utility.yul\":3851:3884   */\n      tag_23\n      jump\t// in\n    tag_82:\n        /* \"#utility.yul\":3747:3890   */\n      swap3\n      swap2\n      pop\n      pop\n      jump\t// out\n        /* \"#utility.yul\":3896:4247   */\n    tag_18:\n        /* \"#utility.yul\":3966:3972   */\n      0x00\n        /* \"#utility.yul\":4015:4017   */\n      0x20\n        /* \"#utility.yul\":4003:4012   */\n      dup3\n        /* \"#utility.yul\":3994:4001   */\n      dup5\n        /* \"#utility.yul\":3990:4013   */\n      sub\n        /* \"#utility.yul\":3986:4018   */\n      slt\n        /* \"#utility.yul\":3983:4102   */\n      iszero\n      tag_84\n      jumpi\n        /* \"#utility.yul\":4021:4100   */\n      tag_85\n      tag_20\n      jump\t// in\n    tag_85:\n        /* \"#utility.yul\":3983:4102   */\n    tag_84:\n        /* \"#utility.yul\":4141:4142   */\n      0x00\n        /* \"#utility.yul\":4166:4230   */\n      tag_86\n        /* \"#utility.yul\":4222:4229   */\n      dup5\n        /* \"#utility.yul\":4213:4219   */\n      dup3\n        /* \"#utility.yul\":4202:4211   */\n      dup6\n        /* \"#utility.yul\":4198:4220   */\n      add\n        /* \"#utility.yul\":4166:4230   */\n      tag_36\n      jump\t// in\n    tag_86:\n        /* \"#utility.yul\":4156:4230   */\n      swap2\n      pop\n        /* \"#utility.yul\":4112:4240   */\n      pop\n        /* \"#utility.yul\":3896:4247   */\n      swap3\n      swap2\n      pop\n      pop\n      jump\t// out\n\n    auxdata: 0xa264697066735822122077ed3a47d2595cb5d12eac94b0a4644cba2addd89397c688d5e3804b3eff928564736f6c63430008110033\n}\n",
				"bytecode": {
					"linkReferences": {},
					"object": "6080604052732791bca1f2de4661ed88a30c99a7a9449aa841746000806101000a81548173ffffffffffffffffffffffffffffffffffffffff021916908373ffffffffffffffffffffffffffffffffffffffff160217905550738f3cf7ad23cd3cadbd9735aff958023239c6a063600160006101000a81548173ffffffffffffffffffffffffffffffffffffffff021916908373ffffffffffffffffffffffffffffffffffffffff16021790555073c2132d05d31c914a87c6611c10748aeb04b58e8f600260006101000a81548173ffffffffffffffffffffffffffffffffffffffff021916908373ffffffffffffffffffffffffffffffffffffffff16021790555073d05e3e715d945b59290df0ae8ef85c1bdb68474473ffffffffffffffffffffffffffffffffffffffff16630261bf8b6040518163ffffffff1660e01b8152600401602060405180830381865afa158015610161573d6000803e3d6000fd5b505050506040513d601f19601f820116820180604052508101906101859190610310565b600360006101000a81548173ffffffffffffffffffffffffffffffffffffffff021916908373ffffffffffffffffffffffffffffffffffffffff1602179055506000600360146101000a81548161ffff021916908361ffff16021790555073445fe580ef8d70ff569ab36e80c647af338db351600460006101000a81548173ffffffffffffffffffffffffffffffffffffffff021916908373ffffffffffffffffffffffffffffffffffffffff16021790555034801561024457600080fd5b506040516106e73803806106e783398181016040528101906102669190610310565b80600560006101000a81548173ffffffffffffffffffffffffffffffffffffffff021916908373ffffffffffffffffffffffffffffffffffffffff1602179055505061033d565b600080fd5b600073ffffffffffffffffffffffffffffffffffffffff82169050919050565b60006102dd826102b2565b9050919050565b6102ed816102d2565b81146102f857600080fd5b50565b60008151905061030a816102e4565b92915050565b600060208284031215610326576103256102ad565b5b6000610334848285016102fb565b91505092915050565b61039b8061034c6000396000f3fe608060405234801561001057600080fd5b506004361061002a5760003560e01c8062aeef8a1461002f575b600080fd5b610049600480360381019061004491906101b7565b61004b565b005b600560009054906101000a900473ffffffffffffffffffffffffffffffffffffffff1673ffffffffffffffffffffffffffffffffffffffff163373ffffffffffffffffffffffffffffffffffffffff16146100a557600080fd5b6100b08383836100b5565b505050565b60006040518060600160405280858152602001848152602001838152509050600460009054906101000a900473ffffffffffffffffffffffffffffffffffffffff1673ffffffffffffffffffffffffffffffffffffffff16634515cef38260006040518363ffffffff1660e01b81526004016101329291906102fa565b6020604051808303816000875af1158015610151573d6000803e3d6000fd5b505050506040513d601f19601f820116820180604052508101906101759190610338565b5050505050565b600080fd5b6000819050919050565b61019481610181565b811461019f57600080fd5b50565b6000813590506101b18161018b565b92915050565b6000806000606084860312156101d0576101cf61017c565b5b60006101de868287016101a2565b93505060206101ef868287016101a2565b9250506040610200868287016101a2565b9150509250925092565b600060039050919050565b600081905092915050565b6000819050919050565b61023381610181565b82525050565b6000610245838361022a565b60208301905092915050565b6000602082019050919050565b6102678161020a565b6102718184610215565b925061027c82610220565b8060005b838110156102ad5781516102948782610239565b965061029f83610251565b925050600181019050610280565b505050505050565b6000819050919050565b6000819050919050565b60006102e46102df6102da846102b5565b6102bf565b610181565b9050919050565b6102f4816102c9565b82525050565b600060808201905061030f600083018561025e565b61031c60608301846102eb565b9392505050565b6000815190506103328161018b565b92915050565b60006020828403121561034e5761034d61017c565b5b600061035c84828501610323565b9150509291505056fea264697066735822122077ed3a47d2595cb5d12eac94b0a4644cba2addd89397c688d5e3804b3eff928564736f6c63430008110033",
					"opcodes": "PUSH1 0x80 PUSH1 0x40 MSTORE PUSH20 0x2791BCA1F2DE4661ED88A30C99A7A9449AA84174 PUSH1 0x0 DUP1 PUSH2 0x100 EXP DUP2 SLOAD DUP2 PUSH20 0xFFFFFFFFFFFFFFFFFFFFFFFFFFFFFFFFFFFFFFFF MUL NOT AND SWAP1 DUP4 PUSH20 0xFFFFFFFFFFFFFFFFFFFFFFFFFFFFFFFFFFFFFFFF AND MUL OR SWAP1 SSTORE POP PUSH20 0x8F3CF7AD23CD3CADBD9735AFF958023239C6A063 PUSH1 0x1 PUSH1 0x0 PUSH2 0x100 EXP DUP2 SLOAD DUP2 PUSH20 0xFFFFFFFFFFFFFFFFFFFFFFFFFFFFFFFFFFFFFFFF MUL NOT AND SWAP1 DUP4 PUSH20 0xFFFFFFFFFFFFFFFFFFFFFFFFFFFFFFFFFFFFFFFF AND MUL OR SWAP1 SSTORE POP PUSH20 0xC2132D05D31C914A87C6611C10748AEB04B58E8F PUSH1 0x2 PUSH1 0x0 PUSH2 0x100 EXP DUP2 SLOAD DUP2 PUSH20 0xFFFFFFFFFFFFFFFFFFFFFFFFFFFFFFFFFFFFFFFF MUL NOT AND SWAP1 DUP4 PUSH20 0xFFFFFFFFFFFFFFFFFFFFFFFFFFFFFFFFFFFFFFFF AND MUL OR SWAP1 SSTORE POP PUSH20 0xD05E3E715D945B59290DF0AE8EF85C1BDB684744 PUSH20 0xFFFFFFFFFFFFFFFFFFFFFFFFFFFFFFFFFFFFFFFF AND PUSH4 0x261BF8B PUSH1 0x40 MLOAD DUP2 PUSH4 0xFFFFFFFF AND PUSH1 0xE0 SHL DUP2 MSTORE PUSH1 0x4 ADD PUSH1 0x20 PUSH1 0x40 MLOAD DUP1 DUP4 SUB DUP2 DUP7 GAS STATICCALL ISZERO DUP1 ISZERO PUSH2 0x161 JUMPI RETURNDATASIZE PUSH1 0x0 DUP1 RETURNDATACOPY RETURNDATASIZE PUSH1 0x0 REVERT JUMPDEST POP POP POP POP PUSH1 0x40 MLOAD RETURNDATASIZE PUSH1 0x1F NOT PUSH1 0x1F DUP3 ADD AND DUP3 ADD DUP1 PUSH1 0x40 MSTORE POP DUP2 ADD SWAP1 PUSH2 0x185 SWAP2 SWAP1 PUSH2 0x310 JUMP JUMPDEST PUSH1 0x3 PUSH1 0x0 PUSH2 0x100 EXP DUP2 SLOAD DUP2 PUSH20 0xFFFFFFFFFFFFFFFFFFFFFFFFFFFFFFFFFFFFFFFF MUL NOT AND SWAP1 DUP4 PUSH20 0xFFFFFFFFFFFFFFFFFFFFFFFFFFFFFFFFFFFFFFFF AND MUL OR SWAP1 SSTORE POP PUSH1 0x0 PUSH1 0x3 PUSH1 0x14 PUSH2 0x100 EXP DUP2 SLOAD DUP2 PUSH2 0xFFFF MUL NOT AND SWAP1 DUP4 PUSH2 0xFFFF AND MUL OR SWAP1 SSTORE POP PUSH20 0x445FE580EF8D70FF569AB36E80C647AF338DB351 PUSH1 0x4 PUSH1 0x0 PUSH2 0x100 EXP DUP2 SLOAD DUP2 PUSH20 0xFFFFFFFFFFFFFFFFFFFFFFFFFFFFFFFFFFFFFFFF MUL NOT AND SWAP1 DUP4 PUSH20 0xFFFFFFFFFFFFFFFFFFFFFFFFFFFFFFFFFFFFFFFF AND MUL OR SWAP1 SSTORE POP CALLVALUE DUP1 ISZERO PUSH2 0x244 JUMPI PUSH1 0x0 DUP1 REVERT JUMPDEST POP PUSH1 0x40 MLOAD PUSH2 0x6E7 CODESIZE SUB DUP1 PUSH2 0x6E7 DUP4 CODECOPY DUP2 DUP2 ADD PUSH1 0x40 MSTORE DUP2 ADD SWAP1 PUSH2 0x266 SWAP2 SWAP1 PUSH2 0x310 JUMP JUMPDEST DUP1 PUSH1 0x5 PUSH1 0x0 PUSH2 0x100 EXP DUP2 SLOAD DUP2 PUSH20 0xFFFFFFFFFFFFFFFFFFFFFFFFFFFFFFFFFFFFFFFF MUL NOT AND SWAP1 DUP4 PUSH20 0xFFFFFFFFFFFFFFFFFFFFFFFFFFFFFFFFFFFFFFFF AND MUL OR SWAP1 SSTORE POP POP PUSH2 0x33D JUMP JUMPDEST PUSH1 0x0 DUP1 REVERT JUMPDEST PUSH1 0x0 PUSH20 0xFFFFFFFFFFFFFFFFFFFFFFFFFFFFFFFFFFFFFFFF DUP3 AND SWAP1 POP SWAP2 SWAP1 POP JUMP JUMPDEST PUSH1 0x0 PUSH2 0x2DD DUP3 PUSH2 0x2B2 JUMP JUMPDEST SWAP1 POP SWAP2 SWAP1 POP JUMP JUMPDEST PUSH2 0x2ED DUP2 PUSH2 0x2D2 JUMP JUMPDEST DUP2 EQ PUSH2 0x2F8 JUMPI PUSH1 0x0 DUP1 REVERT JUMPDEST POP JUMP JUMPDEST PUSH1 0x0 DUP2 MLOAD SWAP1 POP PUSH2 0x30A DUP2 PUSH2 0x2E4 JUMP JUMPDEST SWAP3 SWAP2 POP POP JUMP JUMPDEST PUSH1 0x0 PUSH1 0x20 DUP3 DUP5 SUB SLT ISZERO PUSH2 0x326 JUMPI PUSH2 0x325 PUSH2 0x2AD JUMP JUMPDEST JUMPDEST PUSH1 0x0 PUSH2 0x334 DUP5 DUP3 DUP6 ADD PUSH2 0x2FB JUMP JUMPDEST SWAP2 POP POP SWAP3 SWAP2 POP POP JUMP JUMPDEST PUSH2 0x39B DUP1 PUSH2 0x34C PUSH1 0x0 CODECOPY PUSH1 0x0 RETURN INVALID PUSH1 0x80 PUSH1 0x40 MSTORE CALLVALUE DUP1 ISZERO PUSH2 0x10 JUMPI PUSH1 0x0 DUP1 REVERT JUMPDEST POP PUSH1 0x4 CALLDATASIZE LT PUSH2 0x2A JUMPI PUSH1 0x0 CALLDATALOAD PUSH1 0xE0 SHR DUP1 PUSH3 0xAEEF8A EQ PUSH2 0x2F JUMPI JUMPDEST PUSH1 0x0 DUP1 REVERT JUMPDEST PUSH2 0x49 PUSH1 0x4 DUP1 CALLDATASIZE SUB DUP2 ADD SWAP1 PUSH2 0x44 SWAP2 SWAP1 PUSH2 0x1B7 JUMP JUMPDEST PUSH2 0x4B JUMP JUMPDEST STOP JUMPDEST PUSH1 0x5 PUSH1 0x0 SWAP1 SLOAD SWAP1 PUSH2 0x100 EXP SWAP1 DIV PUSH20 0xFFFFFFFFFFFFFFFFFFFFFFFFFFFFFFFFFFFFFFFF AND PUSH20 0xFFFFFFFFFFFFFFFFFFFFFFFFFFFFFFFFFFFFFFFF AND CALLER PUSH20 0xFFFFFFFFFFFFFFFFFFFFFFFFFFFFFFFFFFFFFFFF AND EQ PUSH2 0xA5 JUMPI PUSH1 0x0 DUP1 REVERT JUMPDEST PUSH2 0xB0 DUP4 DUP4 DUP4 PUSH2 0xB5 JUMP JUMPDEST POP POP POP JUMP JUMPDEST PUSH1 0x0 PUSH1 0x40 MLOAD DUP1 PUSH1 0x60 ADD PUSH1 0x40 MSTORE DUP1 DUP6 DUP2 MSTORE PUSH1 0x20 ADD DUP5 DUP2 MSTORE PUSH1 0x20 ADD DUP4 DUP2 MSTORE POP SWAP1 POP PUSH1 0x4 PUSH1 0x0 SWAP1 SLOAD SWAP1 PUSH2 0x100 EXP SWAP1 DIV PUSH20 0xFFFFFFFFFFFFFFFFFFFFFFFFFFFFFFFFFFFFFFFF AND PUSH20 0xFFFFFFFFFFFFFFFFFFFFFFFFFFFFFFFFFFFFFFFF AND PUSH4 0x4515CEF3 DUP3 PUSH1 0x0 PUSH1 0x40 MLOAD DUP4 PUSH4 0xFFFFFFFF AND PUSH1 0xE0 SHL DUP2 MSTORE PUSH1 0x4 ADD PUSH2 0x132 SWAP3 SWAP2 SWAP1 PUSH2 0x2FA JUMP JUMPDEST PUSH1 0x20 PUSH1 0x40 MLOAD DUP1 DUP4 SUB DUP2 PUSH1 0x0 DUP8 GAS CALL ISZERO DUP1 ISZERO PUSH2 0x151 JUMPI RETURNDATASIZE PUSH1 0x0 DUP1 RETURNDATACOPY RETURNDATASIZE PUSH1 0x0 REVERT JUMPDEST POP POP POP POP PUSH1 0x40 MLOAD RETURNDATASIZE PUSH1 0x1F NOT PUSH1 0x1F DUP3 ADD AND DUP3 ADD DUP1 PUSH1 0x40 MSTORE POP DUP2 ADD SWAP1 PUSH2 0x175 SWAP2 SWAP1 PUSH2 0x338 JUMP JUMPDEST POP POP POP POP POP JUMP JUMPDEST PUSH1 0x0 DUP1 REVERT JUMPDEST PUSH1 0x0 DUP2 SWAP1 POP SWAP2 SWAP1 POP JUMP JUMPDEST PUSH2 0x194 DUP2 PUSH2 0x181 JUMP JUMPDEST DUP2 EQ PUSH2 0x19F JUMPI PUSH1 0x0 DUP1 REVERT JUMPDEST POP JUMP JUMPDEST PUSH1 0x0 DUP2 CALLDATALOAD SWAP1 POP PUSH2 0x1B1 DUP2 PUSH2 0x18B JUMP JUMPDEST SWAP3 SWAP2 POP POP JUMP JUMPDEST PUSH1 0x0 DUP1 PUSH1 0x0 PUSH1 0x60 DUP5 DUP7 SUB SLT ISZERO PUSH2 0x1D0 JUMPI PUSH2 0x1CF PUSH2 0x17C JUMP JUMPDEST JUMPDEST PUSH1 0x0 PUSH2 0x1DE DUP7 DUP3 DUP8 ADD PUSH2 0x1A2 JUMP JUMPDEST SWAP4 POP POP PUSH1 0x20 PUSH2 0x1EF DUP7 DUP3 DUP8 ADD PUSH2 0x1A2 JUMP JUMPDEST SWAP3 POP POP PUSH1 0x40 PUSH2 0x200 DUP7 DUP3 DUP8 ADD PUSH2 0x1A2 JUMP JUMPDEST SWAP2 POP POP SWAP3 POP SWAP3 POP SWAP3 JUMP JUMPDEST PUSH1 0x0 PUSH1 0x3 SWAP1 POP SWAP2 SWAP1 POP JUMP JUMPDEST PUSH1 0x0 DUP2 SWAP1 POP SWAP3 SWAP2 POP POP JUMP JUMPDEST PUSH1 0x0 DUP2 SWAP1 POP SWAP2 SWAP1 POP JUMP JUMPDEST PUSH2 0x233 DUP2 PUSH2 0x181 JUMP JUMPDEST DUP3 MSTORE POP POP JUMP JUMPDEST PUSH1 0x0 PUSH2 0x245 DUP4 DUP4 PUSH2 0x22A JUMP JUMPDEST PUSH1 0x20 DUP4 ADD SWAP1 POP SWAP3 SWAP2 POP POP JUMP JUMPDEST PUSH1 0x0 PUSH1 0x20 DUP3 ADD SWAP1 POP SWAP2 SWAP1 POP JUMP JUMPDEST PUSH2 0x267 DUP2 PUSH2 0x20A JUMP JUMPDEST PUSH2 0x271 DUP2 DUP5 PUSH2 0x215 JUMP JUMPDEST SWAP3 POP PUSH2 0x27C DUP3 PUSH2 0x220 JUMP JUMPDEST DUP1 PUSH1 0x0 JUMPDEST DUP4 DUP2 LT ISZERO PUSH2 0x2AD JUMPI DUP2 MLOAD PUSH2 0x294 DUP8 DUP3 PUSH2 0x239 JUMP JUMPDEST SWAP7 POP PUSH2 0x29F DUP4 PUSH2 0x251 JUMP JUMPDEST SWAP3 POP POP PUSH1 0x1 DUP2 ADD SWAP1 POP PUSH2 0x280 JUMP JUMPDEST POP POP POP POP POP POP JUMP JUMPDEST PUSH1 0x0 DUP2 SWAP1 POP SWAP2 SWAP1 POP JUMP JUMPDEST PUSH1 0x0 DUP2 SWAP1 POP SWAP2 SWAP1 POP JUMP JUMPDEST PUSH1 0x0 PUSH2 0x2E4 PUSH2 0x2DF PUSH2 0x2DA DUP5 PUSH2 0x2B5 JUMP JUMPDEST PUSH2 0x2BF JUMP JUMPDEST PUSH2 0x181 JUMP JUMPDEST SWAP1 POP SWAP2 SWAP1 POP JUMP JUMPDEST PUSH2 0x2F4 DUP2 PUSH2 0x2C9 JUMP JUMPDEST DUP3 MSTORE POP POP JUMP JUMPDEST PUSH1 0x0 PUSH1 0x80 DUP3 ADD SWAP1 POP PUSH2 0x30F PUSH1 0x0 DUP4 ADD DUP6 PUSH2 0x25E JUMP JUMPDEST PUSH2 0x31C PUSH1 0x60 DUP4 ADD DUP5 PUSH2 0x2EB JUMP JUMPDEST SWAP4 SWAP3 POP POP POP JUMP JUMPDEST PUSH1 0x0 DUP2 MLOAD SWAP1 POP PUSH2 0x332 DUP2 PUSH2 0x18B JUMP JUMPDEST SWAP3 SWAP2 POP POP JUMP JUMPDEST PUSH1 0x0 PUSH1 0x20 DUP3 DUP5 SUB SLT ISZERO PUSH2 0x34E JUMPI PUSH2 0x34D PUSH2 0x17C JUMP JUMPDEST JUMPDEST PUSH1 0x0 PUSH2 0x35C DUP5 DUP3 DUP6 ADD PUSH2 0x323 JUMP JUMPDEST SWAP2 POP POP SWAP3 SWAP2 POP POP JUMP INVALID LOG2 PUSH5 0x6970667358 0x22 SLT KECCAK256 PUSH24 0xED3A47D2595CB5D12EAC94B0A4644CBA2ADDD89397C688D5 0xE3 DUP1 0x4B RETURNDATACOPY SELFDESTRUCT SWAP3 DUP6 PUSH5 0x736F6C6343 STOP ADDMOD GT STOP CALLER "
				},
				"gasEstimates": {
					"creation": {
						"codeDepositCost": "184600",
						"executionCost": "infinite",
						"totalCost": "infinite"
					},
					"external": {
						"deposit(uint256,uint256,uint256)": "infinite"
					}
				},
				"methodIdentifiers": {
					"deposit(uint256,uint256,uint256)": "00aeef8a"
				}
			},
			"storageLayout": {
				"storage": [
					{
						"astId": 7,
						"contract": "SAAVE_Receiver.sol:SAAVE_Receiver",
						"label": "USDC",
						"offset": 0,
						"slot": "0",
						"type": "t_contract(IERC20)113"
					},
					{
						"astId": 13,
						"contract": "SAAVE_Receiver.sol:SAAVE_Receiver",
						"label": "DAI",
						"offset": 0,
						"slot": "1",
						"type": "t_contract(IERC20)113"
					},
					{
						"astId": 19,
						"contract": "SAAVE_Receiver.sol:SAAVE_Receiver",
						"label": "USDT",
						"offset": 0,
						"slot": "2",
						"type": "t_contract(IERC20)113"
					},
					{
						"astId": 30,
						"contract": "SAAVE_Receiver.sol:SAAVE_Receiver",
						"label": "LendingPool",
						"offset": 0,
						"slot": "3",
						"type": "t_contract(ILendingPool)136"
					},
					{
						"astId": 36,
						"contract": "SAAVE_Receiver.sol:SAAVE_Receiver",
						"label": "REFERRAL_CODE",
						"offset": 20,
						"slot": "3",
						"type": "t_uint16"
					},
					{
						"astId": 196,
						"contract": "SAAVE_Receiver.sol:SAAVE_Receiver",
						"label": "curvePool",
						"offset": 0,
						"slot": "4",
						"type": "t_contract(ICurve_AAVE_Stable_Pool)267"
					},
					{
						"astId": 152,
						"contract": "SAAVE_Receiver.sol:SAAVE_Receiver",
						"label": "factory",
						"offset": 0,
						"slot": "5",
						"type": "t_address"
					},
					{
						"astId": 154,
						"contract": "SAAVE_Receiver.sol:SAAVE_Receiver",
						"label": "owner",
						"offset": 0,
						"slot": "6",
						"type": "t_address"
					}
				],
				"types": {
					"t_address": {
						"encoding": "inplace",
						"label": "address",
						"numberOfBytes": "20"
					},
					"t_contract(ICurve_AAVE_Stable_Pool)267": {
						"encoding": "inplace",
						"label": "contract ICurve_AAVE_Stable_Pool",
						"numberOfBytes": "20"
					},
					"t_contract(IERC20)113": {
						"encoding": "inplace",
						"label": "contract IERC20",
						"numberOfBytes": "20"
					},
					"t_contract(ILendingPool)136": {
						"encoding": "inplace",
						"label": "contract ILendingPool",
						"numberOfBytes": "20"
					},
					"t_uint16": {
						"encoding": "inplace",
						"label": "uint16",
						"numberOfBytes": "2"
					}
				}
			},
			"userdoc": {
				"kind": "user",
				"methods": {},
				"version": 1
			}
		}
	}
}