{
	"SAAVE.sol": {
		"SAAVEFactory": {
			"abi": [
				{
					"inputs": [
						{
							"internalType": "uint256",
							"name": "daiAmount",
							"type": "uint256"
						},
						{
							"internalType": "uint256",
							"name": "USDCAmount",
							"type": "uint256"
						},
						{
							"internalType": "uint256",
							"name": "USDTAmount",
							"type": "uint256"
						}
					],
					"name": "approveDeposit",
					"outputs": [],
					"stateMutability": "nonpayable",
					"type": "function"
				},
				{
					"inputs": [],
					"name": "deposit",
					"outputs": [],
					"stateMutability": "nonpayable",
					"type": "function"
				},
				{
					"inputs": [],
					"name": "withdraw",
					"outputs": [],
					"stateMutability": "nonpayable",
					"type": "function"
				}
			],
			"devdoc": {
				"kind": "dev",
				"methods": {},
				"version": 1
			},
			"evm": {
				"assembly": "    /* \"SAAVE.sol\":93:3596  contract SAAVEFactory {... */\n  mstore(0x40, 0x80)\n  callvalue\n  dup1\n  iszero\n  tag_1\n  jumpi\n  0x00\n  dup1\n  revert\ntag_1:\n  pop\n  dataSize(sub_0)\n  dup1\n  dataOffset(sub_0)\n  0x00\n  codecopy\n  0x00\n  return\nstop\n\nsub_0: assembly {\n        /* \"SAAVE.sol\":93:3596  contract SAAVEFactory {... */\n      mstore(0x40, 0x80)\n      callvalue\n      dup1\n      iszero\n      tag_1\n      jumpi\n      0x00\n      dup1\n      revert\n    tag_1:\n      pop\n      jumpi(tag_2, lt(calldatasize, 0x04))\n      shr(0xe0, calldataload(0x00))\n      dup1\n      0x0f87bbcc\n      eq\n      tag_3\n      jumpi\n      dup1\n      0x3ccfd60b\n      eq\n      tag_4\n      jumpi\n      dup1\n      0xd0e30db0\n      eq\n      tag_5\n      jumpi\n    tag_2:\n      0x00\n      dup1\n      revert\n        /* \"SAAVE.sol\":613:1008  function approveDeposit(uint daiAmount, uint USDCAmount, uint USDTAmount) public {... */\n    tag_3:\n      tag_6\n      0x04\n      dup1\n      calldatasize\n      sub\n      dup2\n      add\n      swap1\n      tag_7\n      swap2\n      swap1\n      tag_8\n      jump\t// in\n    tag_7:\n      tag_9\n      jump\t// in\n    tag_6:\n      stop\n        /* \"SAAVE.sol\":3466:3511  function withdraw() public {... */\n    tag_4:\n      tag_10\n      tag_11\n      jump\t// in\n    tag_10:\n      stop\n        /* \"SAAVE.sol\":1923:3433  function deposit() public {... */\n    tag_5:\n      tag_12\n      tag_13\n      jump\t// in\n    tag_12:\n      stop\n        /* \"SAAVE.sol\":613:1008  function approveDeposit(uint daiAmount, uint USDCAmount, uint USDTAmount) public {... */\n    tag_9:\n        /* \"SAAVE.sol\":720:721  0 */\n      0x00\n        /* \"SAAVE.sol\":708:717  daiAmount */\n      dup4\n        /* \"SAAVE.sol\":708:721  daiAmount > 0 */\n      gt\n        /* \"SAAVE.sol\":705:794  if(daiAmount > 0){... */\n      iszero\n      tag_15\n      jumpi\n        /* \"SAAVE.sol\":189:231  0x8f3Cf7ad23Cd3CaDbD9735AFf958023239c6A063 */\n      0x8f3cf7ad23cd3cadbd9735aff958023239c6a063\n        /* \"SAAVE.sol\":737:756  IERC20(DAI).approve */\n      0xffffffffffffffffffffffffffffffffffffffff\n      and\n      0x095ea7b3\n        /* \"SAAVE.sol\":765:769  this */\n      address\n        /* \"SAAVE.sol\":772:781  daiAmount */\n      dup6\n        /* \"SAAVE.sol\":737:782  IERC20(DAI).approve(address(this), daiAmount) */\n      mload(0x40)\n      dup4\n      0xffffffff\n      and\n      0xe0\n      shl\n      dup2\n      mstore\n      0x04\n      add\n      tag_16\n      swap3\n      swap2\n      swap1\n      tag_17\n      jump\t// in\n    tag_16:\n      0x20\n      mload(0x40)\n      dup1\n      dup4\n      sub\n      dup2\n      0x00\n      dup8\n      gas\n      call\n      iszero\n      dup1\n      iszero\n      tag_19\n      jumpi\n      returndatasize\n      0x00\n      dup1\n      returndatacopy\n      revert(0x00, returndatasize)\n    tag_19:\n      pop\n      pop\n      pop\n      pop\n      mload(0x40)\n      returndatasize\n      not(0x1f)\n      0x1f\n      dup3\n      add\n      and\n      dup3\n      add\n      dup1\n      0x40\n      mstore\n      pop\n      dup2\n      add\n      swap1\n      tag_20\n      swap2\n      swap1\n      tag_21\n      jump\t// in\n    tag_20:\n      pop\n        /* \"SAAVE.sol\":705:794  if(daiAmount > 0){... */\n    tag_15:\n        /* \"SAAVE.sol\":820:821  0 */\n      0x00\n        /* \"SAAVE.sol\":807:817  USDCAmount */\n      dup3\n        /* \"SAAVE.sol\":807:821  USDCAmount > 0 */\n      gt\n        /* \"SAAVE.sol\":804:896  if(USDCAmount > 0){... */\n      iszero\n      tag_22\n      jumpi\n        /* \"SAAVE.sol\":262:304  0x2791Bca1f2de4661ED88A30C99A7a9449Aa84174 */\n      0x2791bca1f2de4661ed88a30c99a7a9449aa84174\n        /* \"SAAVE.sol\":837:857  IERC20(USDC).approve */\n      0xffffffffffffffffffffffffffffffffffffffff\n      and\n      0x095ea7b3\n        /* \"SAAVE.sol\":866:870  this */\n      address\n        /* \"SAAVE.sol\":873:883  USDCAmount */\n      dup5\n        /* \"SAAVE.sol\":837:884  IERC20(USDC).approve(address(this), USDCAmount) */\n      mload(0x40)\n      dup4\n      0xffffffff\n      and\n      0xe0\n      shl\n      dup2\n      mstore\n      0x04\n      add\n      tag_23\n      swap3\n      swap2\n      swap1\n      tag_17\n      jump\t// in\n    tag_23:\n      0x20\n      mload(0x40)\n      dup1\n      dup4\n      sub\n      dup2\n      0x00\n      dup8\n      gas\n      call\n      iszero\n      dup1\n      iszero\n      tag_25\n      jumpi\n      returndatasize\n      0x00\n      dup1\n      returndatacopy\n      revert(0x00, returndatasize)\n    tag_25:\n      pop\n      pop\n      pop\n      pop\n      mload(0x40)\n      returndatasize\n      not(0x1f)\n      0x1f\n      dup3\n      add\n      and\n      dup3\n      add\n      dup1\n      0x40\n      mstore\n      pop\n      dup2\n      add\n      swap1\n      tag_26\n      swap2\n      swap1\n      tag_21\n      jump\t// in\n    tag_26:\n      pop\n        /* \"SAAVE.sol\":804:896  if(USDCAmount > 0){... */\n    tag_22:\n        /* \"SAAVE.sol\":922:923  0 */\n      0x00\n        /* \"SAAVE.sol\":909:919  USDTAmount */\n      dup2\n        /* \"SAAVE.sol\":909:923  USDTAmount > 0 */\n      gt\n        /* \"SAAVE.sol\":906:998  if(USDTAmount > 0){... */\n      iszero\n      tag_27\n      jumpi\n        /* \"SAAVE.sol\":335:377  0xc2132D05D31c914a87C6611C10748AEb04B58e8F */\n      0xc2132d05d31c914a87c6611c10748aeb04b58e8f\n        /* \"SAAVE.sol\":939:959  IERC20(USDT).approve */\n      0xffffffffffffffffffffffffffffffffffffffff\n      and\n      0x095ea7b3\n        /* \"SAAVE.sol\":968:972  this */\n      address\n        /* \"SAAVE.sol\":975:985  USDTAmount */\n      dup4\n        /* \"SAAVE.sol\":939:986  IERC20(USDT).approve(address(this), USDTAmount) */\n      mload(0x40)\n      dup4\n      0xffffffff\n      and\n      0xe0\n      shl\n      dup2\n      mstore\n      0x04\n      add\n      tag_28\n      swap3\n      swap2\n      swap1\n      tag_17\n      jump\t// in\n    tag_28:\n      0x20\n      mload(0x40)\n      dup1\n      dup4\n      sub\n      dup2\n      0x00\n      dup8\n      gas\n      call\n      iszero\n      dup1\n      iszero\n      tag_30\n      jumpi\n      returndatasize\n      0x00\n      dup1\n      returndatacopy\n      revert(0x00, returndatasize)\n    tag_30:\n      pop\n      pop\n      pop\n      pop\n      mload(0x40)\n      returndatasize\n      not(0x1f)\n      0x1f\n      dup3\n      add\n      and\n      dup3\n      add\n      dup1\n      0x40\n      mstore\n      pop\n      dup2\n      add\n      swap1\n      tag_31\n      swap2\n      swap1\n      tag_21\n      jump\t// in\n    tag_31:\n      pop\n        /* \"SAAVE.sol\":906:998  if(USDTAmount > 0){... */\n    tag_27:\n        /* \"SAAVE.sol\":613:1008  function approveDeposit(uint daiAmount, uint USDCAmount, uint USDTAmount) public {... */\n      pop\n      pop\n      pop\n      jump\t// out\n        /* \"SAAVE.sol\":3466:3511  function withdraw() public {... */\n    tag_11:\n      jump\t// out\n        /* \"SAAVE.sol\":1923:3433  function deposit() public {... */\n    tag_13:\n        /* \"SAAVE.sol\":2080:2081  0 */\n      0x00\n        /* \"SAAVE.sol\":2030:2082  address(addressToReceiver[msg.sender]) == address(0) */\n      0xffffffffffffffffffffffffffffffffffffffff\n      and\n        /* \"SAAVE.sol\":2038:2055  addressToReceiver */\n      0x01\n        /* \"SAAVE.sol\":2038:2067  addressToReceiver[msg.sender] */\n      0x00\n        /* \"SAAVE.sol\":2056:2066  msg.sender */\n      caller\n        /* \"SAAVE.sol\":2038:2067  addressToReceiver[msg.sender] */\n      0xffffffffffffffffffffffffffffffffffffffff\n      and\n      0xffffffffffffffffffffffffffffffffffffffff\n      and\n      dup2\n      mstore\n      0x20\n      add\n      swap1\n      dup2\n      mstore\n      0x20\n      add\n      0x00\n      keccak256\n      0x00\n      swap1\n      sload\n      swap1\n      0x0100\n      exp\n      swap1\n      div\n      0xffffffffffffffffffffffffffffffffffffffff\n      and\n        /* \"SAAVE.sol\":2030:2082  address(addressToReceiver[msg.sender]) == address(0) */\n      0xffffffffffffffffffffffffffffffffffffffff\n      and\n      sub\n        /* \"SAAVE.sol\":2027:3424  if(address(addressToReceiver[msg.sender]) == address(0)) {... */\n      tag_34\n      jumpi\n        /* \"SAAVE.sol\":2151:2165  tokenDeposit() */\n      tag_35\n        /* \"SAAVE.sol\":2151:2163  tokenDeposit */\n      tag_36\n        /* \"SAAVE.sol\":2151:2165  tokenDeposit() */\n      jump\t// in\n    tag_35:\n        /* \"SAAVE.sol\":2215:2241  SAAVE_Receiver newReceiver */\n      0x00\n        /* \"SAAVE.sol\":2271:2275  this */\n      address\n        /* \"SAAVE.sol\":2244:2277  new SAAVE_Receiver(address(this)) */\n      mload(0x40)\n      tag_37\n      swap1\n      tag_38\n      jump\t// in\n    tag_37:\n      tag_39\n      swap2\n      swap1\n      tag_40\n      jump\t// in\n    tag_39:\n      mload(0x40)\n      dup1\n      swap2\n      sub\n      swap1\n      0x00\n      create\n      dup1\n      iszero\n      dup1\n      iszero\n      tag_41\n      jumpi\n      returndatasize\n      0x00\n      dup1\n      returndatacopy\n      revert(0x00, returndatasize)\n    tag_41:\n      pop\n        /* \"SAAVE.sol\":2215:2277  SAAVE_Receiver newReceiver = new SAAVE_Receiver(address(this)) */\n      swap1\n      pop\n        /* \"SAAVE.sol\":2387:2398  newReceiver */\n      dup1\n        /* \"SAAVE.sol\":2355:2372  addressToReceiver */\n      0x01\n        /* \"SAAVE.sol\":2355:2384  addressToReceiver[msg.sender] */\n      0x00\n        /* \"SAAVE.sol\":2373:2383  msg.sender */\n      caller\n        /* \"SAAVE.sol\":2355:2384  addressToReceiver[msg.sender] */\n      0xffffffffffffffffffffffffffffffffffffffff\n      and\n      0xffffffffffffffffffffffffffffffffffffffff\n      and\n      dup2\n      mstore\n      0x20\n      add\n      swap1\n      dup2\n      mstore\n      0x20\n      add\n      0x00\n      keccak256\n      0x00\n        /* \"SAAVE.sol\":2355:2398  addressToReceiver[msg.sender] = newReceiver */\n      0x0100\n      exp\n      dup2\n      sload\n      dup2\n      0xffffffffffffffffffffffffffffffffffffffff\n      mul\n      not\n      and\n      swap1\n      dup4\n      0xffffffffffffffffffffffffffffffffffffffff\n      and\n      mul\n      or\n      swap1\n      sstore\n      pop\n        /* \"SAAVE.sol\":2415:2438  address receiverAddress */\n      0x00\n        /* \"SAAVE.sol\":2449:2460  newReceiver */\n      dup2\n        /* \"SAAVE.sol\":2415:2461  address receiverAddress = address(newReceiver) */\n      swap1\n      pop\n        /* \"SAAVE.sol\":2478:2492  uint daiAmount */\n      0x00\n        /* \"SAAVE.sol\":2495:2512  addressDaiDeposit */\n      0x02\n        /* \"SAAVE.sol\":2495:2524  addressDaiDeposit[msg.sender] */\n      0x00\n        /* \"SAAVE.sol\":2513:2523  msg.sender */\n      caller\n        /* \"SAAVE.sol\":2495:2524  addressDaiDeposit[msg.sender] */\n      0xffffffffffffffffffffffffffffffffffffffff\n      and\n      0xffffffffffffffffffffffffffffffffffffffff\n      and\n      dup2\n      mstore\n      0x20\n      add\n      swap1\n      dup2\n      mstore\n      0x20\n      add\n      0x00\n      keccak256\n      sload\n        /* \"SAAVE.sol\":2478:2524  uint daiAmount = addressDaiDeposit[msg.sender] */\n      swap1\n      pop\n        /* \"SAAVE.sol\":2539:2554  uint USDCAmount */\n      0x00\n        /* \"SAAVE.sol\":2557:2575  addressUSDCDeposit */\n      0x03\n        /* \"SAAVE.sol\":2557:2587  addressUSDCDeposit[msg.sender] */\n      0x00\n        /* \"SAAVE.sol\":2576:2586  msg.sender */\n      caller\n        /* \"SAAVE.sol\":2557:2587  addressUSDCDeposit[msg.sender] */\n      0xffffffffffffffffffffffffffffffffffffffff\n      and\n      0xffffffffffffffffffffffffffffffffffffffff\n      and\n      dup2\n      mstore\n      0x20\n      add\n      swap1\n      dup2\n      mstore\n      0x20\n      add\n      0x00\n      keccak256\n      sload\n        /* \"SAAVE.sol\":2539:2587  uint USDCAmount = addressUSDCDeposit[msg.sender] */\n      swap1\n      pop\n        /* \"SAAVE.sol\":2602:2617  uint USDTAmount */\n      0x00\n        /* \"SAAVE.sol\":2620:2638  addressUSDTDeposit */\n      0x04\n        /* \"SAAVE.sol\":2620:2650  addressUSDTDeposit[msg.sender] */\n      0x00\n        /* \"SAAVE.sol\":2639:2649  msg.sender */\n      caller\n        /* \"SAAVE.sol\":2620:2650  addressUSDTDeposit[msg.sender] */\n      0xffffffffffffffffffffffffffffffffffffffff\n      and\n      0xffffffffffffffffffffffffffffffffffffffff\n      and\n      dup2\n      mstore\n      0x20\n      add\n      swap1\n      dup2\n      mstore\n      0x20\n      add\n      0x00\n      keccak256\n      sload\n        /* \"SAAVE.sol\":2602:2650  uint USDTAmount = addressUSDTDeposit[msg.sender] */\n      swap1\n      pop\n        /* \"SAAVE.sol\":2736:2737  0 */\n      0x00\n        /* \"SAAVE.sol\":2724:2733  daiAmount */\n      dup4\n        /* \"SAAVE.sol\":2724:2737  daiAmount > 0 */\n      gt\n        /* \"SAAVE.sol\":2721:2906  if(daiAmount > 0){... */\n      iszero\n      tag_42\n      jumpi\n        /* \"SAAVE.sol\":189:231  0x8f3Cf7ad23Cd3CaDbD9735AFf958023239c6A063 */\n      0x8f3cf7ad23cd3cadbd9735aff958023239c6a063\n        /* \"SAAVE.sol\":2757:2776  IERC20(DAI).approve */\n      0xffffffffffffffffffffffffffffffffffffffff\n      and\n      0x095ea7b3\n        /* \"SAAVE.sol\":2777:2792  receiverAddress */\n      dup6\n        /* \"SAAVE.sol\":2794:2803  daiAmount */\n      dup6\n        /* \"SAAVE.sol\":2757:2804  IERC20(DAI).approve(receiverAddress, daiAmount) */\n      mload(0x40)\n      dup4\n      0xffffffff\n      and\n      0xe0\n      shl\n      dup2\n      mstore\n      0x04\n      add\n      tag_43\n      swap3\n      swap2\n      swap1\n      tag_17\n      jump\t// in\n    tag_43:\n      0x20\n      mload(0x40)\n      dup1\n      dup4\n      sub\n      dup2\n      0x00\n      dup8\n      gas\n      call\n      iszero\n      dup1\n      iszero\n      tag_45\n      jumpi\n      returndatasize\n      0x00\n      dup1\n      returndatacopy\n      revert(0x00, returndatasize)\n    tag_45:\n      pop\n      pop\n      pop\n      pop\n      mload(0x40)\n      returndatasize\n      not(0x1f)\n      0x1f\n      dup3\n      add\n      and\n      dup3\n      add\n      dup1\n      0x40\n      mstore\n      pop\n      dup2\n      add\n      swap1\n      tag_46\n      swap2\n      swap1\n      tag_21\n      jump\t// in\n    tag_46:\n      pop\n        /* \"SAAVE.sol\":189:231  0x8f3Cf7ad23Cd3CaDbD9735AFf958023239c6A063 */\n      0x8f3cf7ad23cd3cadbd9735aff958023239c6a063\n        /* \"SAAVE.sol\":2823:2847  IERC20(DAI).transferFrom */\n      0xffffffffffffffffffffffffffffffffffffffff\n      and\n      0x23b872dd\n        /* \"SAAVE.sol\":2856:2860  this */\n      address\n        /* \"SAAVE.sol\":2863:2878  receiverAddress */\n      dup7\n        /* \"SAAVE.sol\":2880:2889  daiAmount */\n      dup7\n        /* \"SAAVE.sol\":2823:2890  IERC20(DAI).transferFrom(address(this), receiverAddress, daiAmount) */\n      mload(0x40)\n      dup5\n      0xffffffff\n      and\n      0xe0\n      shl\n      dup2\n      mstore\n      0x04\n      add\n      tag_47\n      swap4\n      swap3\n      swap2\n      swap1\n      tag_48\n      jump\t// in\n    tag_47:\n      0x20\n      mload(0x40)\n      dup1\n      dup4\n      sub\n      dup2\n      0x00\n      dup8\n      gas\n      call\n      iszero\n      dup1\n      iszero\n      tag_50\n      jumpi\n      returndatasize\n      0x00\n      dup1\n      returndatacopy\n      revert(0x00, returndatasize)\n    tag_50:\n      pop\n      pop\n      pop\n      pop\n      mload(0x40)\n      returndatasize\n      not(0x1f)\n      0x1f\n      dup3\n      add\n      and\n      dup3\n      add\n      dup1\n      0x40\n      mstore\n      pop\n      dup2\n      add\n      swap1\n      tag_51\n      swap2\n      swap1\n      tag_21\n      jump\t// in\n    tag_51:\n      pop\n        /* \"SAAVE.sol\":2721:2906  if(daiAmount > 0){... */\n    tag_42:\n        /* \"SAAVE.sol\":2936:2937  0 */\n      0x00\n        /* \"SAAVE.sol\":2923:2933  USDCAmount */\n      dup3\n        /* \"SAAVE.sol\":2923:2937  USDCAmount > 0 */\n      gt\n        /* \"SAAVE.sol\":2920:3110  if(USDCAmount > 0){... */\n      iszero\n      tag_52\n      jumpi\n        /* \"SAAVE.sol\":262:304  0x2791Bca1f2de4661ED88A30C99A7a9449Aa84174 */\n      0x2791bca1f2de4661ed88a30c99a7a9449aa84174\n        /* \"SAAVE.sol\":2957:2977  IERC20(USDC).approve */\n      0xffffffffffffffffffffffffffffffffffffffff\n      and\n      0x095ea7b3\n        /* \"SAAVE.sol\":2978:2993  receiverAddress */\n      dup6\n        /* \"SAAVE.sol\":2995:3005  USDCAmount */\n      dup5\n        /* \"SAAVE.sol\":2957:3006  IERC20(USDC).approve(receiverAddress, USDCAmount) */\n      mload(0x40)\n      dup4\n      0xffffffff\n      and\n      0xe0\n      shl\n      dup2\n      mstore\n      0x04\n      add\n      tag_53\n      swap3\n      swap2\n      swap1\n      tag_17\n      jump\t// in\n    tag_53:\n      0x20\n      mload(0x40)\n      dup1\n      dup4\n      sub\n      dup2\n      0x00\n      dup8\n      gas\n      call\n      iszero\n      dup1\n      iszero\n      tag_55\n      jumpi\n      returndatasize\n      0x00\n      dup1\n      returndatacopy\n      revert(0x00, returndatasize)\n    tag_55:\n      pop\n      pop\n      pop\n      pop\n      mload(0x40)\n      returndatasize\n      not(0x1f)\n      0x1f\n      dup3\n      add\n      and\n      dup3\n      add\n      dup1\n      0x40\n      mstore\n      pop\n      dup2\n      add\n      swap1\n      tag_56\n      swap2\n      swap1\n      tag_21\n      jump\t// in\n    tag_56:\n      pop\n        /* \"SAAVE.sol\":262:304  0x2791Bca1f2de4661ED88A30C99A7a9449Aa84174 */\n      0x2791bca1f2de4661ed88a30c99a7a9449aa84174\n        /* \"SAAVE.sol\":3025:3050  IERC20(USDC).transferFrom */\n      0xffffffffffffffffffffffffffffffffffffffff\n      and\n      0x23b872dd\n        /* \"SAAVE.sol\":3059:3063  this */\n      address\n        /* \"SAAVE.sol\":3066:3081  receiverAddress */\n      dup7\n        /* \"SAAVE.sol\":3083:3093  USDCAmount */\n      dup6\n        /* \"SAAVE.sol\":3025:3094  IERC20(USDC).transferFrom(address(this), receiverAddress, USDCAmount) */\n      mload(0x40)\n      dup5\n      0xffffffff\n      and\n      0xe0\n      shl\n      dup2\n      mstore\n      0x04\n      add\n      tag_57\n      swap4\n      swap3\n      swap2\n      swap1\n      tag_48\n      jump\t// in\n    tag_57:\n      0x20\n      mload(0x40)\n      dup1\n      dup4\n      sub\n      dup2\n      0x00\n      dup8\n      gas\n      call\n      iszero\n      dup1\n      iszero\n      tag_59\n      jumpi\n      returndatasize\n      0x00\n      dup1\n      returndatacopy\n      revert(0x00, returndatasize)\n    tag_59:\n      pop\n      pop\n      pop\n      pop\n      mload(0x40)\n      returndatasize\n      not(0x1f)\n      0x1f\n      dup3\n      add\n      and\n      dup3\n      add\n      dup1\n      0x40\n      mstore\n      pop\n      dup2\n      add\n      swap1\n      tag_60\n      swap2\n      swap1\n      tag_21\n      jump\t// in\n    tag_60:\n      pop\n        /* \"SAAVE.sol\":2920:3110  if(USDCAmount > 0){... */\n    tag_52:\n        /* \"SAAVE.sol\":3140:3141  0 */\n      0x00\n        /* \"SAAVE.sol\":3127:3137  USDTAmount */\n      dup2\n        /* \"SAAVE.sol\":3127:3141  USDTAmount > 0 */\n      gt\n        /* \"SAAVE.sol\":3124:3314  if(USDTAmount > 0){... */\n      iszero\n      tag_61\n      jumpi\n        /* \"SAAVE.sol\":335:377  0xc2132D05D31c914a87C6611C10748AEb04B58e8F */\n      0xc2132d05d31c914a87c6611c10748aeb04b58e8f\n        /* \"SAAVE.sol\":3161:3181  IERC20(USDT).approve */\n      0xffffffffffffffffffffffffffffffffffffffff\n      and\n      0x095ea7b3\n        /* \"SAAVE.sol\":3182:3197  receiverAddress */\n      dup6\n        /* \"SAAVE.sol\":3199:3209  USDTAmount */\n      dup4\n        /* \"SAAVE.sol\":3161:3210  IERC20(USDT).approve(receiverAddress, USDTAmount) */\n      mload(0x40)\n      dup4\n      0xffffffff\n      and\n      0xe0\n      shl\n      dup2\n      mstore\n      0x04\n      add\n      tag_62\n      swap3\n      swap2\n      swap1\n      tag_17\n      jump\t// in\n    tag_62:\n      0x20\n      mload(0x40)\n      dup1\n      dup4\n      sub\n      dup2\n      0x00\n      dup8\n      gas\n      call\n      iszero\n      dup1\n      iszero\n      tag_64\n      jumpi\n      returndatasize\n      0x00\n      dup1\n      returndatacopy\n      revert(0x00, returndatasize)\n    tag_64:\n      pop\n      pop\n      pop\n      pop\n      mload(0x40)\n      returndatasize\n      not(0x1f)\n      0x1f\n      dup3\n      add\n      and\n      dup3\n      add\n      dup1\n      0x40\n      mstore\n      pop\n      dup2\n      add\n      swap1\n      tag_65\n      swap2\n      swap1\n      tag_21\n      jump\t// in\n    tag_65:\n      pop\n        /* \"SAAVE.sol\":335:377  0xc2132D05D31c914a87C6611C10748AEb04B58e8F */\n      0xc2132d05d31c914a87c6611c10748aeb04b58e8f\n        /* \"SAAVE.sol\":3229:3254  IERC20(USDT).transferFrom */\n      0xffffffffffffffffffffffffffffffffffffffff\n      and\n      0x23b872dd\n        /* \"SAAVE.sol\":3263:3267  this */\n      address\n        /* \"SAAVE.sol\":3270:3285  receiverAddress */\n      dup7\n        /* \"SAAVE.sol\":3287:3297  USDTAmount */\n      dup5\n        /* \"SAAVE.sol\":3229:3298  IERC20(USDT).transferFrom(address(this), receiverAddress, USDTAmount) */\n      mload(0x40)\n      dup5\n      0xffffffff\n      and\n      0xe0\n      shl\n      dup2\n      mstore\n      0x04\n      add\n      tag_66\n      swap4\n      swap3\n      swap2\n      swap1\n      tag_48\n      jump\t// in\n    tag_66:\n      0x20\n      mload(0x40)\n      dup1\n      dup4\n      sub\n      dup2\n      0x00\n      dup8\n      gas\n      call\n      iszero\n      dup1\n      iszero\n      tag_68\n      jumpi\n      returndatasize\n      0x00\n      dup1\n      returndatacopy\n      revert(0x00, returndatasize)\n    tag_68:\n      pop\n      pop\n      pop\n      pop\n      mload(0x40)\n      returndatasize\n      not(0x1f)\n      0x1f\n      dup3\n      add\n      and\n      dup3\n      add\n      dup1\n      0x40\n      mstore\n      pop\n      dup2\n      add\n      swap1\n      tag_69\n      swap2\n      swap1\n      tag_21\n      jump\t// in\n    tag_69:\n      pop\n        /* \"SAAVE.sol\":3124:3314  if(USDTAmount > 0){... */\n    tag_61:\n        /* \"SAAVE.sol\":3330:3341  newReceiver */\n      dup5\n        /* \"SAAVE.sol\":3330:3349  newReceiver.deposit */\n      0xffffffffffffffffffffffffffffffffffffffff\n      and\n      0xaeef8a\n        /* \"SAAVE.sol\":3350:3359  daiAmount */\n      dup5\n        /* \"SAAVE.sol\":3361:3370  daiAmount */\n      dup6\n        /* \"SAAVE.sol\":3372:3382  USDTAmount */\n      dup5\n        /* \"SAAVE.sol\":3330:3383  newReceiver.deposit(daiAmount, daiAmount, USDTAmount) */\n      mload(0x40)\n      dup5\n      0xffffffff\n      and\n      0xe0\n      shl\n      dup2\n      mstore\n      0x04\n      add\n      tag_70\n      swap4\n      swap3\n      swap2\n      swap1\n      tag_71\n      jump\t// in\n    tag_70:\n      0x00\n      mload(0x40)\n      dup1\n      dup4\n      sub\n      dup2\n      0x00\n      dup8\n      dup1\n      extcodesize\n      iszero\n      dup1\n      iszero\n      tag_72\n      jumpi\n      0x00\n      dup1\n      revert\n    tag_72:\n      pop\n      gas\n      call\n      iszero\n      dup1\n      iszero\n      tag_74\n      jumpi\n      returndatasize\n      0x00\n      dup1\n      returndatacopy\n      revert(0x00, returndatasize)\n    tag_74:\n      pop\n      pop\n      pop\n      pop\n        /* \"SAAVE.sol\":2084:3395  {... */\n      pop\n      pop\n      pop\n      pop\n      pop\n        /* \"SAAVE.sol\":2027:3424  if(address(addressToReceiver[msg.sender]) == address(0)) {... */\n      jump(tag_75)\n    tag_34:\n    tag_75:\n        /* \"SAAVE.sol\":1923:3433  function deposit() public {... */\n      jump\t// out\n        /* \"SAAVE.sol\":1016:1858  function tokenDeposit() internal {... */\n    tag_36:\n        /* \"SAAVE.sol\":1060:1077  uint daiAllowance */\n      0x00\n        /* \"SAAVE.sol\":189:231  0x8f3Cf7ad23Cd3CaDbD9735AFf958023239c6A063 */\n      0x8f3cf7ad23cd3cadbd9735aff958023239c6a063\n        /* \"SAAVE.sol\":1080:1101  IERC20(DAI).allowance */\n      0xffffffffffffffffffffffffffffffffffffffff\n      and\n      0xdd62ed3e\n        /* \"SAAVE.sol\":1102:1112  msg.sender */\n      caller\n        /* \"SAAVE.sol\":1122:1126  this */\n      address\n        /* \"SAAVE.sol\":1080:1128  IERC20(DAI).allowance(msg.sender, address(this)) */\n      mload(0x40)\n      dup4\n      0xffffffff\n      and\n      0xe0\n      shl\n      dup2\n      mstore\n      0x04\n      add\n      tag_77\n      swap3\n      swap2\n      swap1\n      tag_78\n      jump\t// in\n    tag_77:\n      0x20\n      mload(0x40)\n      dup1\n      dup4\n      sub\n      dup2\n      dup7\n      gas\n      staticcall\n      iszero\n      dup1\n      iszero\n      tag_80\n      jumpi\n      returndatasize\n      0x00\n      dup1\n      returndatacopy\n      revert(0x00, returndatasize)\n    tag_80:\n      pop\n      pop\n      pop\n      pop\n      mload(0x40)\n      returndatasize\n      not(0x1f)\n      0x1f\n      dup3\n      add\n      and\n      dup3\n      add\n      dup1\n      0x40\n      mstore\n      pop\n      dup2\n      add\n      swap1\n      tag_81\n      swap2\n      swap1\n      tag_82\n      jump\t// in\n    tag_81:\n        /* \"SAAVE.sol\":1060:1128  uint daiAllowance = IERC20(DAI).allowance(msg.sender, address(this)) */\n      swap1\n      pop\n        /* \"SAAVE.sol\":1139:1157  uint USDCAllowance */\n      0x00\n        /* \"SAAVE.sol\":262:304  0x2791Bca1f2de4661ED88A30C99A7a9449Aa84174 */\n      0x2791bca1f2de4661ed88a30c99a7a9449aa84174\n        /* \"SAAVE.sol\":1160:1182  IERC20(USDC).allowance */\n      0xffffffffffffffffffffffffffffffffffffffff\n      and\n      0xdd62ed3e\n        /* \"SAAVE.sol\":1183:1193  msg.sender */\n      caller\n        /* \"SAAVE.sol\":1203:1207  this */\n      address\n        /* \"SAAVE.sol\":1160:1209  IERC20(USDC).allowance(msg.sender, address(this)) */\n      mload(0x40)\n      dup4\n      0xffffffff\n      and\n      0xe0\n      shl\n      dup2\n      mstore\n      0x04\n      add\n      tag_83\n      swap3\n      swap2\n      swap1\n      tag_78\n      jump\t// in\n    tag_83:\n      0x20\n      mload(0x40)\n      dup1\n      dup4\n      sub\n      dup2\n      dup7\n      gas\n      staticcall\n      iszero\n      dup1\n      iszero\n      tag_85\n      jumpi\n      returndatasize\n      0x00\n      dup1\n      returndatacopy\n      revert(0x00, returndatasize)\n    tag_85:\n      pop\n      pop\n      pop\n      pop\n      mload(0x40)\n      returndatasize\n      not(0x1f)\n      0x1f\n      dup3\n      add\n      and\n      dup3\n      add\n      dup1\n      0x40\n      mstore\n      pop\n      dup2\n      add\n      swap1\n      tag_86\n      swap2\n      swap1\n      tag_82\n      jump\t// in\n    tag_86:\n        /* \"SAAVE.sol\":1139:1209  uint USDCAllowance = IERC20(USDC).allowance(msg.sender, address(this)) */\n      swap1\n      pop\n        /* \"SAAVE.sol\":1220:1238  uint USDTAllowance */\n      0x00\n        /* \"SAAVE.sol\":335:377  0xc2132D05D31c914a87C6611C10748AEb04B58e8F */\n      0xc2132d05d31c914a87c6611c10748aeb04b58e8f\n        /* \"SAAVE.sol\":1241:1263  IERC20(USDT).allowance */\n      0xffffffffffffffffffffffffffffffffffffffff\n      and\n      0xdd62ed3e\n        /* \"SAAVE.sol\":1264:1274  msg.sender */\n      caller\n        /* \"SAAVE.sol\":1284:1288  this */\n      address\n        /* \"SAAVE.sol\":1241:1290  IERC20(USDT).allowance(msg.sender, address(this)) */\n      mload(0x40)\n      dup4\n      0xffffffff\n      and\n      0xe0\n      shl\n      dup2\n      mstore\n      0x04\n      add\n      tag_87\n      swap3\n      swap2\n      swap1\n      tag_78\n      jump\t// in\n    tag_87:\n      0x20\n      mload(0x40)\n      dup1\n      dup4\n      sub\n      dup2\n      dup7\n      gas\n      staticcall\n      iszero\n      dup1\n      iszero\n      tag_89\n      jumpi\n      returndatasize\n      0x00\n      dup1\n      returndatacopy\n      revert(0x00, returndatasize)\n    tag_89:\n      pop\n      pop\n      pop\n      pop\n      mload(0x40)\n      returndatasize\n      not(0x1f)\n      0x1f\n      dup3\n      add\n      and\n      dup3\n      add\n      dup1\n      0x40\n      mstore\n      pop\n      dup2\n      add\n      swap1\n      tag_90\n      swap2\n      swap1\n      tag_82\n      jump\t// in\n    tag_90:\n        /* \"SAAVE.sol\":1220:1290  uint USDTAllowance = IERC20(USDT).allowance(msg.sender, address(this)) */\n      swap1\n      pop\n        /* \"SAAVE.sol\":1321:1322  0 */\n      0x00\n        /* \"SAAVE.sol\":1306:1318  daiAllowance */\n      dup4\n        /* \"SAAVE.sol\":1306:1322  daiAllowance > 0 */\n      gt\n        /* \"SAAVE.sol\":1303:1475  if(daiAllowance > 0) {... */\n      iszero\n      tag_91\n      jumpi\n        /* \"SAAVE.sol\":189:231  0x8f3Cf7ad23Cd3CaDbD9735AFf958023239c6A063 */\n      0x8f3cf7ad23cd3cadbd9735aff958023239c6a063\n        /* \"SAAVE.sol\":1339:1363  IERC20(DAI).transferFrom */\n      0xffffffffffffffffffffffffffffffffffffffff\n      and\n      0x23b872dd\n        /* \"SAAVE.sol\":1364:1374  msg.sender */\n      caller\n        /* \"SAAVE.sol\":1384:1388  this */\n      address\n        /* \"SAAVE.sol\":1391:1403  daiAllowance */\n      dup7\n        /* \"SAAVE.sol\":1339:1404  IERC20(DAI).transferFrom(msg.sender, address(this), daiAllowance) */\n      mload(0x40)\n      dup5\n      0xffffffff\n      and\n      0xe0\n      shl\n      dup2\n      mstore\n      0x04\n      add\n      tag_92\n      swap4\n      swap3\n      swap2\n      swap1\n      tag_48\n      jump\t// in\n    tag_92:\n      0x20\n      mload(0x40)\n      dup1\n      dup4\n      sub\n      dup2\n      0x00\n      dup8\n      gas\n      call\n      iszero\n      dup1\n      iszero\n      tag_94\n      jumpi\n      returndatasize\n      0x00\n      dup1\n      returndatacopy\n      revert(0x00, returndatasize)\n    tag_94:\n      pop\n      pop\n      pop\n      pop\n      mload(0x40)\n      returndatasize\n      not(0x1f)\n      0x1f\n      dup3\n      add\n      and\n      dup3\n      add\n      dup1\n      0x40\n      mstore\n      pop\n      dup2\n      add\n      swap1\n      tag_95\n      swap2\n      swap1\n      tag_21\n      jump\t// in\n    tag_95:\n      pop\n        /* \"SAAVE.sol\":1451:1463  daiAllowance */\n      dup3\n        /* \"SAAVE.sol\":1419:1436  addressDaiDeposit */\n      0x02\n        /* \"SAAVE.sol\":1419:1448  addressDaiDeposit[msg.sender] */\n      0x00\n        /* \"SAAVE.sol\":1437:1447  msg.sender */\n      caller\n        /* \"SAAVE.sol\":1419:1448  addressDaiDeposit[msg.sender] */\n      0xffffffffffffffffffffffffffffffffffffffff\n      and\n      0xffffffffffffffffffffffffffffffffffffffff\n      and\n      dup2\n      mstore\n      0x20\n      add\n      swap1\n      dup2\n      mstore\n      0x20\n      add\n      0x00\n      keccak256\n        /* \"SAAVE.sol\":1419:1463  addressDaiDeposit[msg.sender] = daiAllowance */\n      dup2\n      swap1\n      sstore\n      pop\n        /* \"SAAVE.sol\":1303:1475  if(daiAllowance > 0) {... */\n    tag_91:\n        /* \"SAAVE.sol\":1504:1505  0 */\n      0x00\n        /* \"SAAVE.sol\":1488:1501  USDCAllowance */\n      dup3\n        /* \"SAAVE.sol\":1488:1505  USDCAllowance > 0 */\n      gt\n        /* \"SAAVE.sol\":1485:1662  if(USDCAllowance > 0) {... */\n      iszero\n      tag_96\n      jumpi\n        /* \"SAAVE.sol\":262:304  0x2791Bca1f2de4661ED88A30C99A7a9449Aa84174 */\n      0x2791bca1f2de4661ed88a30c99a7a9449aa84174\n        /* \"SAAVE.sol\":1522:1547  IERC20(USDC).transferFrom */\n      0xffffffffffffffffffffffffffffffffffffffff\n      and\n      0x23b872dd\n        /* \"SAAVE.sol\":1548:1558  msg.sender */\n      caller\n        /* \"SAAVE.sol\":1568:1572  this */\n      address\n        /* \"SAAVE.sol\":1575:1588  USDCAllowance */\n      dup6\n        /* \"SAAVE.sol\":1522:1589  IERC20(USDC).transferFrom(msg.sender, address(this), USDCAllowance) */\n      mload(0x40)\n      dup5\n      0xffffffff\n      and\n      0xe0\n      shl\n      dup2\n      mstore\n      0x04\n      add\n      tag_97\n      swap4\n      swap3\n      swap2\n      swap1\n      tag_48\n      jump\t// in\n    tag_97:\n      0x20\n      mload(0x40)\n      dup1\n      dup4\n      sub\n      dup2\n      0x00\n      dup8\n      gas\n      call\n      iszero\n      dup1\n      iszero\n      tag_99\n      jumpi\n      returndatasize\n      0x00\n      dup1\n      returndatacopy\n      revert(0x00, returndatasize)\n    tag_99:\n      pop\n      pop\n      pop\n      pop\n      mload(0x40)\n      returndatasize\n      not(0x1f)\n      0x1f\n      dup3\n      add\n      and\n      dup3\n      add\n      dup1\n      0x40\n      mstore\n      pop\n      dup2\n      add\n      swap1\n      tag_100\n      swap2\n      swap1\n      tag_21\n      jump\t// in\n    tag_100:\n      pop\n        /* \"SAAVE.sol\":1637:1650  USDCAllowance */\n      dup2\n        /* \"SAAVE.sol\":1604:1622  addressUSDCDeposit */\n      0x03\n        /* \"SAAVE.sol\":1604:1634  addressUSDCDeposit[msg.sender] */\n      0x00\n        /* \"SAAVE.sol\":1623:1633  msg.sender */\n      caller\n        /* \"SAAVE.sol\":1604:1634  addressUSDCDeposit[msg.sender] */\n      0xffffffffffffffffffffffffffffffffffffffff\n      and\n      0xffffffffffffffffffffffffffffffffffffffff\n      and\n      dup2\n      mstore\n      0x20\n      add\n      swap1\n      dup2\n      mstore\n      0x20\n      add\n      0x00\n      keccak256\n        /* \"SAAVE.sol\":1604:1650  addressUSDCDeposit[msg.sender] = USDCAllowance */\n      dup2\n      swap1\n      sstore\n      pop\n        /* \"SAAVE.sol\":1485:1662  if(USDCAllowance > 0) {... */\n    tag_96:\n        /* \"SAAVE.sol\":1691:1692  0 */\n      0x00\n        /* \"SAAVE.sol\":1675:1688  USDTAllowance */\n      dup2\n        /* \"SAAVE.sol\":1675:1692  USDTAllowance > 0 */\n      gt\n        /* \"SAAVE.sol\":1672:1849  if(USDTAllowance > 0) {... */\n      iszero\n      tag_101\n      jumpi\n        /* \"SAAVE.sol\":335:377  0xc2132D05D31c914a87C6611C10748AEb04B58e8F */\n      0xc2132d05d31c914a87c6611c10748aeb04b58e8f\n        /* \"SAAVE.sol\":1709:1734  IERC20(USDT).transferFrom */\n      0xffffffffffffffffffffffffffffffffffffffff\n      and\n      0x23b872dd\n        /* \"SAAVE.sol\":1735:1745  msg.sender */\n      caller\n        /* \"SAAVE.sol\":1755:1759  this */\n      address\n        /* \"SAAVE.sol\":1762:1775  USDTAllowance */\n      dup5\n        /* \"SAAVE.sol\":1709:1776  IERC20(USDT).transferFrom(msg.sender, address(this), USDTAllowance) */\n      mload(0x40)\n      dup5\n      0xffffffff\n      and\n      0xe0\n      shl\n      dup2\n      mstore\n      0x04\n      add\n      tag_102\n      swap4\n      swap3\n      swap2\n      swap1\n      tag_48\n      jump\t// in\n    tag_102:\n      0x20\n      mload(0x40)\n      dup1\n      dup4\n      sub\n      dup2\n      0x00\n      dup8\n      gas\n      call\n      iszero\n      dup1\n      iszero\n      tag_104\n      jumpi\n      returndatasize\n      0x00\n      dup1\n      returndatacopy\n      revert(0x00, returndatasize)\n    tag_104:\n      pop\n      pop\n      pop\n      pop\n      mload(0x40)\n      returndatasize\n      not(0x1f)\n      0x1f\n      dup3\n      add\n      and\n      dup3\n      add\n      dup1\n      0x40\n      mstore\n      pop\n      dup2\n      add\n      swap1\n      tag_105\n      swap2\n      swap1\n      tag_21\n      jump\t// in\n    tag_105:\n      pop\n        /* \"SAAVE.sol\":1824:1837  USDTAllowance */\n      dup1\n        /* \"SAAVE.sol\":1791:1809  addressUSDTDeposit */\n      0x04\n        /* \"SAAVE.sol\":1791:1821  addressUSDTDeposit[msg.sender] */\n      0x00\n        /* \"SAAVE.sol\":1810:1820  msg.sender */\n      caller\n        /* \"SAAVE.sol\":1791:1821  addressUSDTDeposit[msg.sender] */\n      0xffffffffffffffffffffffffffffffffffffffff\n      and\n      0xffffffffffffffffffffffffffffffffffffffff\n      and\n      dup2\n      mstore\n      0x20\n      add\n      swap1\n      dup2\n      mstore\n      0x20\n      add\n      0x00\n      keccak256\n        /* \"SAAVE.sol\":1791:1837  addressUSDTDeposit[msg.sender] = USDTAllowance */\n      dup2\n      swap1\n      sstore\n      pop\n        /* \"SAAVE.sol\":1672:1849  if(USDTAllowance > 0) {... */\n    tag_101:\n        /* \"SAAVE.sol\":1049:1858  {... */\n      pop\n      pop\n      pop\n        /* \"SAAVE.sol\":1016:1858  function tokenDeposit() internal {... */\n      jump\t// out\n    tag_38:\n      dataSize(sub_0)\n      dup1\n      dataOffset(sub_0)\n      dup4\n      codecopy\n      add\n      swap1\n      jump\t// out\n        /* \"#utility.yul\":88:205   */\n    tag_107:\n        /* \"#utility.yul\":197:198   */\n      0x00\n        /* \"#utility.yul\":194:195   */\n      dup1\n        /* \"#utility.yul\":187:199   */\n      revert\n        /* \"#utility.yul\":334:411   */\n    tag_109:\n        /* \"#utility.yul\":371:378   */\n      0x00\n        /* \"#utility.yul\":400:405   */\n      dup2\n        /* \"#utility.yul\":389:405   */\n      swap1\n      pop\n        /* \"#utility.yul\":334:411   */\n      swap2\n      swap1\n      pop\n      jump\t// out\n        /* \"#utility.yul\":417:539   */\n    tag_110:\n        /* \"#utility.yul\":490:514   */\n      tag_126\n        /* \"#utility.yul\":508:513   */\n      dup2\n        /* \"#utility.yul\":490:514   */\n      tag_109\n      jump\t// in\n    tag_126:\n        /* \"#utility.yul\":483:488   */\n      dup2\n        /* \"#utility.yul\":480:515   */\n      eq\n        /* \"#utility.yul\":470:533   */\n      tag_127\n      jumpi\n        /* \"#utility.yul\":529:530   */\n      0x00\n        /* \"#utility.yul\":526:527   */\n      dup1\n        /* \"#utility.yul\":519:531   */\n      revert\n        /* \"#utility.yul\":470:533   */\n    tag_127:\n        /* \"#utility.yul\":417:539   */\n      pop\n      jump\t// out\n        /* \"#utility.yul\":545:684   */\n    tag_111:\n        /* \"#utility.yul\":591:596   */\n      0x00\n        /* \"#utility.yul\":629:635   */\n      dup2\n        /* \"#utility.yul\":616:636   */\n      calldataload\n        /* \"#utility.yul\":607:636   */\n      swap1\n      pop\n        /* \"#utility.yul\":645:678   */\n      tag_129\n        /* \"#utility.yul\":672:677   */\n      dup2\n        /* \"#utility.yul\":645:678   */\n      tag_110\n      jump\t// in\n    tag_129:\n        /* \"#utility.yul\":545:684   */\n      swap3\n      swap2\n      pop\n      pop\n      jump\t// out\n        /* \"#utility.yul\":690:1309   */\n    tag_8:\n        /* \"#utility.yul\":767:773   */\n      0x00\n        /* \"#utility.yul\":775:781   */\n      dup1\n        /* \"#utility.yul\":783:789   */\n      0x00\n        /* \"#utility.yul\":832:834   */\n      0x60\n        /* \"#utility.yul\":820:829   */\n      dup5\n        /* \"#utility.yul\":811:818   */\n      dup7\n        /* \"#utility.yul\":807:830   */\n      sub\n        /* \"#utility.yul\":803:835   */\n      slt\n        /* \"#utility.yul\":800:919   */\n      iszero\n      tag_131\n      jumpi\n        /* \"#utility.yul\":838:917   */\n      tag_132\n      tag_107\n      jump\t// in\n    tag_132:\n        /* \"#utility.yul\":800:919   */\n    tag_131:\n        /* \"#utility.yul\":958:959   */\n      0x00\n        /* \"#utility.yul\":983:1036   */\n      tag_133\n        /* \"#utility.yul\":1028:1035   */\n      dup7\n        /* \"#utility.yul\":1019:1025   */\n      dup3\n        /* \"#utility.yul\":1008:1017   */\n      dup8\n        /* \"#utility.yul\":1004:1026   */\n      add\n        /* \"#utility.yul\":983:1036   */\n      tag_111\n      jump\t// in\n    tag_133:\n        /* \"#utility.yul\":973:1036   */\n      swap4\n      pop\n        /* \"#utility.yul\":929:1046   */\n      pop\n        /* \"#utility.yul\":1085:1087   */\n      0x20\n        /* \"#utility.yul\":1111:1164   */\n      tag_134\n        /* \"#utility.yul\":1156:1163   */\n      dup7\n        /* \"#utility.yul\":1147:1153   */\n      dup3\n        /* \"#utility.yul\":1136:1145   */\n      dup8\n        /* \"#utility.yul\":1132:1154   */\n      add\n        /* \"#utility.yul\":1111:1164   */\n      tag_111\n      jump\t// in\n    tag_134:\n        /* \"#utility.yul\":1101:1164   */\n      swap3\n      pop\n        /* \"#utility.yul\":1056:1174   */\n      pop\n        /* \"#utility.yul\":1213:1215   */\n      0x40\n        /* \"#utility.yul\":1239:1292   */\n      tag_135\n        /* \"#utility.yul\":1284:1291   */\n      dup7\n        /* \"#utility.yul\":1275:1281   */\n      dup3\n        /* \"#utility.yul\":1264:1273   */\n      dup8\n        /* \"#utility.yul\":1260:1282   */\n      add\n        /* \"#utility.yul\":1239:1292   */\n      tag_111\n      jump\t// in\n    tag_135:\n        /* \"#utility.yul\":1229:1292   */\n      swap2\n      pop\n        /* \"#utility.yul\":1184:1302   */\n      pop\n        /* \"#utility.yul\":690:1309   */\n      swap3\n      pop\n      swap3\n      pop\n      swap3\n      jump\t// out\n        /* \"#utility.yul\":1315:1441   */\n    tag_112:\n        /* \"#utility.yul\":1352:1359   */\n      0x00\n        /* \"#utility.yul\":1392:1434   */\n      0xffffffffffffffffffffffffffffffffffffffff\n        /* \"#utility.yul\":1385:1390   */\n      dup3\n        /* \"#utility.yul\":1381:1435   */\n      and\n        /* \"#utility.yul\":1370:1435   */\n      swap1\n      pop\n        /* \"#utility.yul\":1315:1441   */\n      swap2\n      swap1\n      pop\n      jump\t// out\n        /* \"#utility.yul\":1447:1543   */\n    tag_113:\n        /* \"#utility.yul\":1484:1491   */\n      0x00\n        /* \"#utility.yul\":1513:1537   */\n      tag_138\n        /* \"#utility.yul\":1531:1536   */\n      dup3\n        /* \"#utility.yul\":1513:1537   */\n      tag_112\n      jump\t// in\n    tag_138:\n        /* \"#utility.yul\":1502:1537   */\n      swap1\n      pop\n        /* \"#utility.yul\":1447:1543   */\n      swap2\n      swap1\n      pop\n      jump\t// out\n        /* \"#utility.yul\":1549:1667   */\n    tag_114:\n        /* \"#utility.yul\":1636:1660   */\n      tag_140\n        /* \"#utility.yul\":1654:1659   */\n      dup2\n        /* \"#utility.yul\":1636:1660   */\n      tag_113\n      jump\t// in\n    tag_140:\n        /* \"#utility.yul\":1631:1634   */\n      dup3\n        /* \"#utility.yul\":1624:1661   */\n      mstore\n        /* \"#utility.yul\":1549:1667   */\n      pop\n      pop\n      jump\t// out\n        /* \"#utility.yul\":1673:1791   */\n    tag_115:\n        /* \"#utility.yul\":1760:1784   */\n      tag_142\n        /* \"#utility.yul\":1778:1783   */\n      dup2\n        /* \"#utility.yul\":1760:1784   */\n      tag_109\n      jump\t// in\n    tag_142:\n        /* \"#utility.yul\":1755:1758   */\n      dup3\n        /* \"#utility.yul\":1748:1785   */\n      mstore\n        /* \"#utility.yul\":1673:1791   */\n      pop\n      pop\n      jump\t// out\n        /* \"#utility.yul\":1797:2129   */\n    tag_17:\n        /* \"#utility.yul\":1918:1922   */\n      0x00\n        /* \"#utility.yul\":1956:1958   */\n      0x40\n        /* \"#utility.yul\":1945:1954   */\n      dup3\n        /* \"#utility.yul\":1941:1959   */\n      add\n        /* \"#utility.yul\":1933:1959   */\n      swap1\n      pop\n        /* \"#utility.yul\":1969:2040   */\n      tag_144\n        /* \"#utility.yul\":2037:2038   */\n      0x00\n        /* \"#utility.yul\":2026:2035   */\n      dup4\n        /* \"#utility.yul\":2022:2039   */\n      add\n        /* \"#utility.yul\":2013:2019   */\n      dup6\n        /* \"#utility.yul\":1969:2040   */\n      tag_114\n      jump\t// in\n    tag_144:\n        /* \"#utility.yul\":2050:2122   */\n      tag_145\n        /* \"#utility.yul\":2118:2120   */\n      0x20\n        /* \"#utility.yul\":2107:2116   */\n      dup4\n        /* \"#utility.yul\":2103:2121   */\n      add\n        /* \"#utility.yul\":2094:2100   */\n      dup5\n        /* \"#utility.yul\":2050:2122   */\n      tag_115\n      jump\t// in\n    tag_145:\n        /* \"#utility.yul\":1797:2129   */\n      swap4\n      swap3\n      pop\n      pop\n      pop\n      jump\t// out\n        /* \"#utility.yul\":2135:2225   */\n    tag_116:\n        /* \"#utility.yul\":2169:2176   */\n      0x00\n        /* \"#utility.yul\":2212:2217   */\n      dup2\n        /* \"#utility.yul\":2205:2218   */\n      iszero\n        /* \"#utility.yul\":2198:2219   */\n      iszero\n        /* \"#utility.yul\":2187:2219   */\n      swap1\n      pop\n        /* \"#utility.yul\":2135:2225   */\n      swap2\n      swap1\n      pop\n      jump\t// out\n        /* \"#utility.yul\":2231:2347   */\n    tag_117:\n        /* \"#utility.yul\":2301:2322   */\n      tag_148\n        /* \"#utility.yul\":2316:2321   */\n      dup2\n        /* \"#utility.yul\":2301:2322   */\n      tag_116\n      jump\t// in\n    tag_148:\n        /* \"#utility.yul\":2294:2299   */\n      dup2\n        /* \"#utility.yul\":2291:2323   */\n      eq\n        /* \"#utility.yul\":2281:2341   */\n      tag_149\n      jumpi\n        /* \"#utility.yul\":2337:2338   */\n      0x00\n        /* \"#utility.yul\":2334:2335   */\n      dup1\n        /* \"#utility.yul\":2327:2339   */\n      revert\n        /* \"#utility.yul\":2281:2341   */\n    tag_149:\n        /* \"#utility.yul\":2231:2347   */\n      pop\n      jump\t// out\n        /* \"#utility.yul\":2353:2490   */\n    tag_118:\n        /* \"#utility.yul\":2407:2412   */\n      0x00\n        /* \"#utility.yul\":2438:2444   */\n      dup2\n        /* \"#utility.yul\":2432:2445   */\n      mload\n        /* \"#utility.yul\":2423:2445   */\n      swap1\n      pop\n        /* \"#utility.yul\":2454:2484   */\n      tag_151\n        /* \"#utility.yul\":2478:2483   */\n      dup2\n        /* \"#utility.yul\":2454:2484   */\n      tag_117\n      jump\t// in\n    tag_151:\n        /* \"#utility.yul\":2353:2490   */\n      swap3\n      swap2\n      pop\n      pop\n      jump\t// out\n        /* \"#utility.yul\":2496:2841   */\n    tag_21:\n        /* \"#utility.yul\":2563:2569   */\n      0x00\n        /* \"#utility.yul\":2612:2614   */\n      0x20\n        /* \"#utility.yul\":2600:2609   */\n      dup3\n        /* \"#utility.yul\":2591:2598   */\n      dup5\n        /* \"#utility.yul\":2587:2610   */\n      sub\n        /* \"#utility.yul\":2583:2615   */\n      slt\n        /* \"#utility.yul\":2580:2699   */\n      iszero\n      tag_153\n      jumpi\n        /* \"#utility.yul\":2618:2697   */\n      tag_154\n      tag_107\n      jump\t// in\n    tag_154:\n        /* \"#utility.yul\":2580:2699   */\n    tag_153:\n        /* \"#utility.yul\":2738:2739   */\n      0x00\n        /* \"#utility.yul\":2763:2824   */\n      tag_155\n        /* \"#utility.yul\":2816:2823   */\n      dup5\n        /* \"#utility.yul\":2807:2813   */\n      dup3\n        /* \"#utility.yul\":2796:2805   */\n      dup6\n        /* \"#utility.yul\":2792:2814   */\n      add\n        /* \"#utility.yul\":2763:2824   */\n      tag_118\n      jump\t// in\n    tag_155:\n        /* \"#utility.yul\":2753:2824   */\n      swap2\n      pop\n        /* \"#utility.yul\":2709:2834   */\n      pop\n        /* \"#utility.yul\":2496:2841   */\n      swap3\n      swap2\n      pop\n      pop\n      jump\t// out\n        /* \"#utility.yul\":2847:3069   */\n    tag_40:\n        /* \"#utility.yul\":2940:2944   */\n      0x00\n        /* \"#utility.yul\":2978:2980   */\n      0x20\n        /* \"#utility.yul\":2967:2976   */\n      dup3\n        /* \"#utility.yul\":2963:2981   */\n      add\n        /* \"#utility.yul\":2955:2981   */\n      swap1\n      pop\n        /* \"#utility.yul\":2991:3062   */\n      tag_157\n        /* \"#utility.yul\":3059:3060   */\n      0x00\n        /* \"#utility.yul\":3048:3057   */\n      dup4\n        /* \"#utility.yul\":3044:3061   */\n      add\n        /* \"#utility.yul\":3035:3041   */\n      dup5\n        /* \"#utility.yul\":2991:3062   */\n      tag_114\n      jump\t// in\n    tag_157:\n        /* \"#utility.yul\":2847:3069   */\n      swap3\n      swap2\n      pop\n      pop\n      jump\t// out\n        /* \"#utility.yul\":3075:3517   */\n    tag_48:\n        /* \"#utility.yul\":3224:3228   */\n      0x00\n        /* \"#utility.yul\":3262:3264   */\n      0x60\n        /* \"#utility.yul\":3251:3260   */\n      dup3\n        /* \"#utility.yul\":3247:3265   */\n      add\n        /* \"#utility.yul\":3239:3265   */\n      swap1\n      pop\n        /* \"#utility.yul\":3275:3346   */\n      tag_159\n        /* \"#utility.yul\":3343:3344   */\n      0x00\n        /* \"#utility.yul\":3332:3341   */\n      dup4\n        /* \"#utility.yul\":3328:3345   */\n      add\n        /* \"#utility.yul\":3319:3325   */\n      dup7\n        /* \"#utility.yul\":3275:3346   */\n      tag_114\n      jump\t// in\n    tag_159:\n        /* \"#utility.yul\":3356:3428   */\n      tag_160\n        /* \"#utility.yul\":3424:3426   */\n      0x20\n        /* \"#utility.yul\":3413:3422   */\n      dup4\n        /* \"#utility.yul\":3409:3427   */\n      add\n        /* \"#utility.yul\":3400:3406   */\n      dup6\n        /* \"#utility.yul\":3356:3428   */\n      tag_114\n      jump\t// in\n    tag_160:\n        /* \"#utility.yul\":3438:3510   */\n      tag_161\n        /* \"#utility.yul\":3506:3508   */\n      0x40\n        /* \"#utility.yul\":3495:3504   */\n      dup4\n        /* \"#utility.yul\":3491:3509   */\n      add\n        /* \"#utility.yul\":3482:3488   */\n      dup5\n        /* \"#utility.yul\":3438:3510   */\n      tag_115\n      jump\t// in\n    tag_161:\n        /* \"#utility.yul\":3075:3517   */\n      swap5\n      swap4\n      pop\n      pop\n      pop\n      pop\n      jump\t// out\n        /* \"#utility.yul\":3523:3965   */\n    tag_71:\n        /* \"#utility.yul\":3672:3676   */\n      0x00\n        /* \"#utility.yul\":3710:3712   */\n      0x60\n        /* \"#utility.yul\":3699:3708   */\n      dup3\n        /* \"#utility.yul\":3695:3713   */\n      add\n        /* \"#utility.yul\":3687:3713   */\n      swap1\n      pop\n        /* \"#utility.yul\":3723:3794   */\n      tag_163\n        /* \"#utility.yul\":3791:3792   */\n      0x00\n        /* \"#utility.yul\":3780:3789   */\n      dup4\n        /* \"#utility.yul\":3776:3793   */\n      add\n        /* \"#utility.yul\":3767:3773   */\n      dup7\n        /* \"#utility.yul\":3723:3794   */\n      tag_115\n      jump\t// in\n    tag_163:\n        /* \"#utility.yul\":3804:3876   */\n      tag_164\n        /* \"#utility.yul\":3872:3874   */\n      0x20\n        /* \"#utility.yul\":3861:3870   */\n      dup4\n        /* \"#utility.yul\":3857:3875   */\n      add\n        /* \"#utility.yul\":3848:3854   */\n      dup6\n        /* \"#utility.yul\":3804:3876   */\n      tag_115\n      jump\t// in\n    tag_164:\n        /* \"#utility.yul\":3886:3958   */\n      tag_165\n        /* \"#utility.yul\":3954:3956   */\n      0x40\n        /* \"#utility.yul\":3943:3952   */\n      dup4\n        /* \"#utility.yul\":3939:3957   */\n      add\n        /* \"#utility.yul\":3930:3936   */\n      dup5\n        /* \"#utility.yul\":3886:3958   */\n      tag_115\n      jump\t// in\n    tag_165:\n        /* \"#utility.yul\":3523:3965   */\n      swap5\n      swap4\n      pop\n      pop\n      pop\n      pop\n      jump\t// out\n        /* \"#utility.yul\":3971:4303   */\n    tag_78:\n        /* \"#utility.yul\":4092:4096   */\n      0x00\n        /* \"#utility.yul\":4130:4132   */\n      0x40\n        /* \"#utility.yul\":4119:4128   */\n      dup3\n        /* \"#utility.yul\":4115:4133   */\n      add\n        /* \"#utility.yul\":4107:4133   */\n      swap1\n      pop\n        /* \"#utility.yul\":4143:4214   */\n      tag_167\n        /* \"#utility.yul\":4211:4212   */\n      0x00\n        /* \"#utility.yul\":4200:4209   */\n      dup4\n        /* \"#utility.yul\":4196:4213   */\n      add\n        /* \"#utility.yul\":4187:4193   */\n      dup6\n        /* \"#utility.yul\":4143:4214   */\n      tag_114\n      jump\t// in\n    tag_167:\n        /* \"#utility.yul\":4224:4296   */\n      tag_168\n        /* \"#utility.yul\":4292:4294   */\n      0x20\n        /* \"#utility.yul\":4281:4290   */\n      dup4\n        /* \"#utility.yul\":4277:4295   */\n      add\n        /* \"#utility.yul\":4268:4274   */\n      dup5\n        /* \"#utility.yul\":4224:4296   */\n      tag_114\n      jump\t// in\n    tag_168:\n        /* \"#utility.yul\":3971:4303   */\n      swap4\n      swap3\n      pop\n      pop\n      pop\n      jump\t// out\n        /* \"#utility.yul\":4309:4452   */\n    tag_119:\n        /* \"#utility.yul\":4366:4371   */\n      0x00\n        /* \"#utility.yul\":4397:4403   */\n      dup2\n        /* \"#utility.yul\":4391:4404   */\n      mload\n        /* \"#utility.yul\":4382:4404   */\n      swap1\n      pop\n        /* \"#utility.yul\":4413:4446   */\n      tag_170\n        /* \"#utility.yul\":4440:4445   */\n      dup2\n        /* \"#utility.yul\":4413:4446   */\n      tag_110\n      jump\t// in\n    tag_170:\n        /* \"#utility.yul\":4309:4452   */\n      swap3\n      swap2\n      pop\n      pop\n      jump\t// out\n        /* \"#utility.yul\":4458:4809   */\n    tag_82:\n        /* \"#utility.yul\":4528:4534   */\n      0x00\n        /* \"#utility.yul\":4577:4579   */\n      0x20\n        /* \"#utility.yul\":4565:4574   */\n      dup3\n        /* \"#utility.yul\":4556:4563   */\n      dup5\n        /* \"#utility.yul\":4552:4575   */\n      sub\n        /* \"#utility.yul\":4548:4580   */\n      slt\n        /* \"#utility.yul\":4545:4664   */\n      iszero\n      tag_172\n      jumpi\n        /* \"#utility.yul\":4583:4662   */\n      tag_173\n      tag_107\n      jump\t// in\n    tag_173:\n        /* \"#utility.yul\":4545:4664   */\n    tag_172:\n        /* \"#utility.yul\":4703:4704   */\n      0x00\n        /* \"#utility.yul\":4728:4792   */\n      tag_174\n        /* \"#utility.yul\":4784:4791   */\n      dup5\n        /* \"#utility.yul\":4775:4781   */\n      dup3\n        /* \"#utility.yul\":4764:4773   */\n      dup6\n        /* \"#utility.yul\":4760:4782   */\n      add\n        /* \"#utility.yul\":4728:4792   */\n      tag_119\n      jump\t// in\n    tag_174:\n        /* \"#utility.yul\":4718:4792   */\n      swap2\n      pop\n        /* \"#utility.yul\":4674:4802   */\n      pop\n        /* \"#utility.yul\":4458:4809   */\n      swap3\n      swap2\n      pop\n      pop\n      jump\t// out\n    stop\n\n    sub_0: assembly {\n            /* \"SAAVE_Receiver.sol\":404:859  contract SAAVE_Receiver is AAVEActions, curveActions {... */\n          mstore(0x40, 0x80)\n            /* \"AAVEActions.sol\":110:152  0x2791Bca1f2de4661ED88A30C99A7a9449Aa84174 */\n          0x2791bca1f2de4661ed88a30c99a7a9449aa84174\n            /* \"AAVEActions.sol\":89:153  IERC20 USDC = IERC20(0x2791Bca1f2de4661ED88A30C99A7a9449Aa84174) */\n          0x00\n          dup1\n          0x0100\n          exp\n          dup2\n          sload\n          dup2\n          0xffffffffffffffffffffffffffffffffffffffff\n          mul\n          not\n          and\n          swap1\n          dup4\n          0xffffffffffffffffffffffffffffffffffffffff\n          and\n          mul\n          or\n          swap1\n          sstore\n          pop\n            /* \"AAVEActions.sol\":180:222  0x8f3Cf7ad23Cd3CaDbD9735AFf958023239c6A063 */\n          0x8f3cf7ad23cd3cadbd9735aff958023239c6a063\n            /* \"AAVEActions.sol\":160:223  IERC20 DAI = IERC20(0x8f3Cf7ad23Cd3CaDbD9735AFf958023239c6A063) */\n          0x01\n          exp(0x0100, 0x00)\n          dup2\n          sload\n          dup2\n          0xffffffffffffffffffffffffffffffffffffffff\n          mul\n          not\n          and\n          swap1\n          dup4\n          0xffffffffffffffffffffffffffffffffffffffff\n          and\n          mul\n          or\n          swap1\n          sstore\n          pop\n            /* \"AAVEActions.sol\":251:293  0xc2132D05D31c914a87C6611C10748AEb04B58e8F */\n          0xc2132d05d31c914a87c6611c10748aeb04b58e8f\n            /* \"AAVEActions.sol\":230:294  IERC20 USDT = IERC20(0xc2132D05D31c914a87C6611C10748AEb04B58e8F) */\n          0x02\n          exp(0x0100, 0x00)\n          dup2\n          sload\n          dup2\n          0xffffffffffffffffffffffffffffffffffffffff\n          mul\n          not\n          and\n          swap1\n          dup4\n          0xffffffffffffffffffffffffffffffffffffffff\n          and\n          mul\n          or\n          swap1\n          sstore\n          pop\n            /* \"AAVEActions.sol\":372:414  0xd05e3E715d945B59290df0ae8eF85c1BdB684744 */\n          0xd05e3e715d945b59290df0ae8ef85c1bdb684744\n            /* \"AAVEActions.sol\":342:430  ILendingPoolAddressesProvider(0xd05e3E715d945B59290df0ae8eF85c1BdB684744).getLendingPool */\n          0xffffffffffffffffffffffffffffffffffffffff\n          and\n          0x0261bf8b\n            /* \"AAVEActions.sol\":342:432  ILendingPoolAddressesProvider(0xd05e3E715d945B59290df0ae8eF85c1BdB684744).getLendingPool() */\n          mload(0x40)\n          dup2\n          0xffffffff\n          and\n          0xe0\n          shl\n          dup2\n          mstore\n          0x04\n          add\n          0x20\n          mload(0x40)\n          dup1\n          dup4\n          sub\n          dup2\n          dup7\n          gas\n          staticcall\n          iszero\n          dup1\n          iszero\n          tag_2\n          jumpi\n          returndatasize\n          0x00\n          dup1\n          returndatacopy\n          revert(0x00, returndatasize)\n        tag_2:\n          pop\n          pop\n          pop\n          pop\n          mload(0x40)\n          returndatasize\n          not(0x1f)\n          0x1f\n          dup3\n          add\n          and\n          dup3\n          add\n          dup1\n          0x40\n          mstore\n          pop\n          dup2\n          add\n          swap1\n          tag_3\n          swap2\n          swap1\n          tag_4\n          jump\t// in\n        tag_3:\n            /* \"AAVEActions.sol\":301:434  ILendingPool LendingPool = (ILendingPool(ILendingPoolAddressesProvider(0xd05e3E715d945B59290df0ae8eF85c1BdB684744).getLendingPool())) */\n          0x03\n          exp(0x0100, 0x00)\n          dup2\n          sload\n          dup2\n          0xffffffffffffffffffffffffffffffffffffffff\n          mul\n          not\n          and\n          swap1\n          dup4\n          0xffffffffffffffffffffffffffffffffffffffff\n          and\n          mul\n          or\n          swap1\n          sstore\n          pop\n            /* \"AAVEActions.sol\":471:472  0 */\n          0x00\n            /* \"AAVEActions.sol\":441:473  uint16 REFERRAL_CODE = uint16(0) */\n          0x03\n          exp(0x0100, 0x14)\n          dup2\n          sload\n          dup2\n          0xffff\n          mul\n          not\n          and\n          swap1\n          dup4\n          0xffff\n          and\n          mul\n          or\n          swap1\n          sstore\n          pop\n            /* \"curveActions.sol\":179:221  0x445FE580eF8d70FF569aB36e80c647af338db351 */\n          0x445fe580ef8d70ff569ab36e80c647af338db351\n            /* \"curveActions.sol\":119:222  ICurve_AAVE_Stable_Pool curvePool = ICurve_AAVE_Stable_Pool(0x445FE580eF8d70FF569aB36e80c647af338db351) */\n          0x04\n          exp(0x0100, 0x00)\n          dup2\n          sload\n          dup2\n          0xffffffffffffffffffffffffffffffffffffffff\n          mul\n          not\n          and\n          swap1\n          dup4\n          0xffffffffffffffffffffffffffffffffffffffff\n          and\n          mul\n          or\n          swap1\n          sstore\n          pop\n            /* \"SAAVE_Receiver.sol\":510:585  constructor(address SAAVEFactory) {... */\n          callvalue\n          dup1\n          iszero\n          tag_5\n          jumpi\n          0x00\n          dup1\n          revert\n        tag_5:\n          pop\n          mload(0x40)\n          sub(codesize, bytecodeSize)\n          dup1\n          bytecodeSize\n          dup4\n          codecopy\n          dup2\n          dup2\n          add\n          0x40\n          mstore\n          dup2\n          add\n          swap1\n          tag_6\n          swap2\n          swap1\n          tag_4\n          jump\t// in\n        tag_6:\n            /* \"SAAVE_Receiver.sol\":565:577  SAAVEFactory */\n          dup1\n            /* \"SAAVE_Receiver.sol\":555:562  factory */\n          0x05\n          0x00\n            /* \"SAAVE_Receiver.sol\":555:577  factory = SAAVEFactory */\n          0x0100\n          exp\n          dup2\n          sload\n          dup2\n          0xffffffffffffffffffffffffffffffffffffffff\n          mul\n          not\n          and\n          swap1\n          dup4\n          0xffffffffffffffffffffffffffffffffffffffff\n          and\n          mul\n          or\n          swap1\n          sstore\n          pop\n            /* \"SAAVE_Receiver.sol\":510:585  constructor(address SAAVEFactory) {... */\n          pop\n            /* \"SAAVE_Receiver.sol\":404:859  contract SAAVE_Receiver is AAVEActions, curveActions {... */\n          jump(tag_9)\n            /* \"#utility.yul\":88:205   */\n        tag_11:\n            /* \"#utility.yul\":197:198   */\n          0x00\n            /* \"#utility.yul\":194:195   */\n          dup1\n            /* \"#utility.yul\":187:199   */\n          revert\n            /* \"#utility.yul\":334:460   */\n        tag_13:\n            /* \"#utility.yul\":371:378   */\n          0x00\n            /* \"#utility.yul\":411:453   */\n          0xffffffffffffffffffffffffffffffffffffffff\n            /* \"#utility.yul\":404:409   */\n          dup3\n            /* \"#utility.yul\":400:454   */\n          and\n            /* \"#utility.yul\":389:454   */\n          swap1\n          pop\n            /* \"#utility.yul\":334:460   */\n          swap2\n          swap1\n          pop\n          jump\t// out\n            /* \"#utility.yul\":466:562   */\n        tag_14:\n            /* \"#utility.yul\":503:510   */\n          0x00\n            /* \"#utility.yul\":532:556   */\n          tag_23\n            /* \"#utility.yul\":550:555   */\n          dup3\n            /* \"#utility.yul\":532:556   */\n          tag_13\n          jump\t// in\n        tag_23:\n            /* \"#utility.yul\":521:556   */\n          swap1\n          pop\n            /* \"#utility.yul\":466:562   */\n          swap2\n          swap1\n          pop\n          jump\t// out\n            /* \"#utility.yul\":568:690   */\n        tag_15:\n            /* \"#utility.yul\":641:665   */\n          tag_25\n            /* \"#utility.yul\":659:664   */\n          dup2\n            /* \"#utility.yul\":641:665   */\n          tag_14\n          jump\t// in\n        tag_25:\n            /* \"#utility.yul\":634:639   */\n          dup2\n            /* \"#utility.yul\":631:666   */\n          eq\n            /* \"#utility.yul\":621:684   */\n          tag_26\n          jumpi\n            /* \"#utility.yul\":680:681   */\n          0x00\n            /* \"#utility.yul\":677:678   */\n          dup1\n            /* \"#utility.yul\":670:682   */\n          revert\n            /* \"#utility.yul\":621:684   */\n        tag_26:\n            /* \"#utility.yul\":568:690   */\n          pop\n          jump\t// out\n            /* \"#utility.yul\":696:839   */\n        tag_16:\n            /* \"#utility.yul\":753:758   */\n          0x00\n            /* \"#utility.yul\":784:790   */\n          dup2\n            /* \"#utility.yul\":778:791   */\n          mload\n            /* \"#utility.yul\":769:791   */\n          swap1\n          pop\n            /* \"#utility.yul\":800:833   */\n          tag_28\n            /* \"#utility.yul\":827:832   */\n          dup2\n            /* \"#utility.yul\":800:833   */\n          tag_15\n          jump\t// in\n        tag_28:\n            /* \"#utility.yul\":696:839   */\n          swap3\n          swap2\n          pop\n          pop\n          jump\t// out\n            /* \"#utility.yul\":845:1196   */\n        tag_4:\n            /* \"#utility.yul\":915:921   */\n          0x00\n            /* \"#utility.yul\":964:966   */\n          0x20\n            /* \"#utility.yul\":952:961   */\n          dup3\n            /* \"#utility.yul\":943:950   */\n          dup5\n            /* \"#utility.yul\":939:962   */\n          sub\n            /* \"#utility.yul\":935:967   */\n          slt\n            /* \"#utility.yul\":932:1051   */\n          iszero\n          tag_30\n          jumpi\n            /* \"#utility.yul\":970:1049   */\n          tag_31\n          tag_11\n          jump\t// in\n        tag_31:\n            /* \"#utility.yul\":932:1051   */\n        tag_30:\n            /* \"#utility.yul\":1090:1091   */\n          0x00\n            /* \"#utility.yul\":1115:1179   */\n          tag_32\n            /* \"#utility.yul\":1171:1178   */\n          dup5\n            /* \"#utility.yul\":1162:1168   */\n          dup3\n            /* \"#utility.yul\":1151:1160   */\n          dup6\n            /* \"#utility.yul\":1147:1169   */\n          add\n            /* \"#utility.yul\":1115:1179   */\n          tag_16\n          jump\t// in\n        tag_32:\n            /* \"#utility.yul\":1105:1179   */\n          swap2\n          pop\n            /* \"#utility.yul\":1061:1189   */\n          pop\n            /* \"#utility.yul\":845:1196   */\n          swap3\n          swap2\n          pop\n          pop\n          jump\t// out\n            /* \"SAAVE_Receiver.sol\":404:859  contract SAAVE_Receiver is AAVEActions, curveActions {... */\n        tag_9:\n          dataSize(sub_0)\n          dup1\n          dataOffset(sub_0)\n          0x00\n          codecopy\n          0x00\n          return\n        stop\n\n        sub_0: assembly {\n                /* \"SAAVE_Receiver.sol\":404:859  contract SAAVE_Receiver is AAVEActions, curveActions {... */\n              mstore(0x40, 0x80)\n              callvalue\n              dup1\n              iszero\n              tag_1\n              jumpi\n              0x00\n              dup1\n              revert\n            tag_1:\n              pop\n              jumpi(tag_2, lt(calldatasize, 0x04))\n              shr(0xe0, calldataload(0x00))\n              dup1\n              0xaeef8a\n              eq\n              tag_3\n              jumpi\n            tag_2:\n              0x00\n              dup1\n              revert\n                /* \"SAAVE_Receiver.sol\":597:856  function deposit(uint _daiAmount, uint _USDCAmount, uint _USDTAmount) external {... */\n            tag_3:\n              tag_4\n              0x04\n              dup1\n              calldatasize\n              sub\n              dup2\n              add\n              swap1\n              tag_5\n              swap2\n              swap1\n              tag_6\n              jump\t// in\n            tag_5:\n              tag_7\n              jump\t// in\n            tag_4:\n              stop\n            tag_7:\n                /* \"SAAVE_Receiver.sol\":709:716  factory */\n              0x05\n              0x00\n              swap1\n              sload\n              swap1\n              0x0100\n              exp\n              swap1\n              div\n              0xffffffffffffffffffffffffffffffffffffffff\n              and\n                /* \"SAAVE_Receiver.sol\":695:716  msg.sender == factory */\n              0xffffffffffffffffffffffffffffffffffffffff\n              and\n                /* \"SAAVE_Receiver.sol\":695:705  msg.sender */\n              caller\n                /* \"SAAVE_Receiver.sol\":695:716  msg.sender == factory */\n              0xffffffffffffffffffffffffffffffffffffffff\n              and\n              eq\n                /* \"SAAVE_Receiver.sol\":687:717  require(msg.sender == factory) */\n              tag_9\n              jumpi\n              0x00\n              dup1\n              revert\n            tag_9:\n                /* \"SAAVE_Receiver.sol\":766:812  addCurve(_daiAmount, _USDCAmount, _USDTAmount) */\n              tag_10\n                /* \"SAAVE_Receiver.sol\":775:785  _daiAmount */\n              dup4\n                /* \"SAAVE_Receiver.sol\":787:798  _USDCAmount */\n              dup4\n                /* \"SAAVE_Receiver.sol\":800:811  _USDTAmount */\n              dup4\n                /* \"SAAVE_Receiver.sol\":766:774  addCurve */\n              tag_11\n                /* \"SAAVE_Receiver.sol\":766:812  addCurve(_daiAmount, _USDCAmount, _USDTAmount) */\n              jump\t// in\n            tag_10:\n                /* \"SAAVE_Receiver.sol\":597:856  function deposit(uint _daiAmount, uint _USDCAmount, uint _USDTAmount) external {... */\n              pop\n              pop\n              pop\n              jump\t// out\n                /* \"curveActions.sol\":231:515  function addCurve(uint _daiAmount, uint _USDCAmount, uint _USDTAmount) internal {... */\n            tag_11:\n                /* \"curveActions.sol\":322:352  uint[3] memory aaveTokenAmount */\n              0x00\n                /* \"curveActions.sol\":322:393  uint[3] memory aaveTokenAmount = [_daiAmount, _USDCAmount, _USDTAmount] */\n              mload(0x40)\n              dup1\n              0x60\n              add\n              0x40\n              mstore\n              dup1\n                /* \"curveActions.sol\":356:366  _daiAmount */\n              dup6\n                /* \"curveActions.sol\":322:393  uint[3] memory aaveTokenAmount = [_daiAmount, _USDCAmount, _USDTAmount] */\n              dup2\n              mstore\n              0x20\n              add\n                /* \"curveActions.sol\":368:379  _USDCAmount */\n              dup5\n                /* \"curveActions.sol\":322:393  uint[3] memory aaveTokenAmount = [_daiAmount, _USDCAmount, _USDTAmount] */\n              dup2\n              mstore\n              0x20\n              add\n                /* \"curveActions.sol\":381:392  _USDTAmount */\n              dup4\n                /* \"curveActions.sol\":322:393  uint[3] memory aaveTokenAmount = [_daiAmount, _USDCAmount, _USDTAmount] */\n              dup2\n              mstore\n              pop\n              swap1\n              pop\n                /* \"curveActions.sol\":462:471  curvePool */\n              0x04\n              0x00\n              swap1\n              sload\n              swap1\n              0x0100\n              exp\n              swap1\n              div\n              0xffffffffffffffffffffffffffffffffffffffff\n              and\n                /* \"curveActions.sol\":462:485  curvePool.add_liquidity */\n              0xffffffffffffffffffffffffffffffffffffffff\n              and\n              0x4515cef3\n                /* \"curveActions.sol\":486:501  aaveTokenAmount */\n              dup3\n                /* \"curveActions.sol\":503:504  0 */\n              0x00\n                /* \"curveActions.sol\":462:505  curvePool.add_liquidity(aaveTokenAmount, 0) */\n              mload(0x40)\n              dup4\n              0xffffffff\n              and\n              0xe0\n              shl\n              dup2\n              mstore\n              0x04\n              add\n              tag_13\n              swap3\n              swap2\n              swap1\n              tag_14\n              jump\t// in\n            tag_13:\n              0x20\n              mload(0x40)\n              dup1\n              dup4\n              sub\n              dup2\n              0x00\n              dup8\n              gas\n              call\n              iszero\n              dup1\n              iszero\n              tag_16\n              jumpi\n              returndatasize\n              0x00\n              dup1\n              returndatacopy\n              revert(0x00, returndatasize)\n            tag_16:\n              pop\n              pop\n              pop\n              pop\n              mload(0x40)\n              returndatasize\n              not(0x1f)\n              0x1f\n              dup3\n              add\n              and\n              dup3\n              add\n              dup1\n              0x40\n              mstore\n              pop\n              dup2\n              add\n              swap1\n              tag_17\n              swap2\n              swap1\n              tag_18\n              jump\t// in\n            tag_17:\n              pop\n                /* \"curveActions.sol\":311:515  {... */\n              pop\n                /* \"curveActions.sol\":231:515  function addCurve(uint _daiAmount, uint _USDCAmount, uint _USDTAmount) internal {... */\n              pop\n              pop\n              pop\n              jump\t// out\n                /* \"#utility.yul\":88:205   */\n            tag_20:\n                /* \"#utility.yul\":197:198   */\n              0x00\n                /* \"#utility.yul\":194:195   */\n              dup1\n                /* \"#utility.yul\":187:199   */\n              revert\n                /* \"#utility.yul\":334:411   */\n            tag_22:\n                /* \"#utility.yul\":371:378   */\n              0x00\n                /* \"#utility.yul\":400:405   */\n              dup2\n                /* \"#utility.yul\":389:405   */\n              swap1\n              pop\n                /* \"#utility.yul\":334:411   */\n              swap2\n              swap1\n              pop\n              jump\t// out\n                /* \"#utility.yul\":417:539   */\n            tag_23:\n                /* \"#utility.yul\":490:514   */\n              tag_43\n                /* \"#utility.yul\":508:513   */\n              dup2\n                /* \"#utility.yul\":490:514   */\n              tag_22\n              jump\t// in\n            tag_43:\n                /* \"#utility.yul\":483:488   */\n              dup2\n                /* \"#utility.yul\":480:515   */\n              eq\n                /* \"#utility.yul\":470:533   */\n              tag_44\n              jumpi\n                /* \"#utility.yul\":529:530   */\n              0x00\n                /* \"#utility.yul\":526:527   */\n              dup1\n                /* \"#utility.yul\":519:531   */\n              revert\n                /* \"#utility.yul\":470:533   */\n            tag_44:\n                /* \"#utility.yul\":417:539   */\n              pop\n              jump\t// out\n                /* \"#utility.yul\":545:684   */\n            tag_24:\n                /* \"#utility.yul\":591:596   */\n              0x00\n                /* \"#utility.yul\":629:635   */\n              dup2\n                /* \"#utility.yul\":616:636   */\n              calldataload\n                /* \"#utility.yul\":607:636   */\n              swap1\n              pop\n                /* \"#utility.yul\":645:678   */\n              tag_46\n                /* \"#utility.yul\":672:677   */\n              dup2\n                /* \"#utility.yul\":645:678   */\n              tag_23\n              jump\t// in\n            tag_46:\n                /* \"#utility.yul\":545:684   */\n              swap3\n              swap2\n              pop\n              pop\n              jump\t// out\n                /* \"#utility.yul\":690:1309   */\n            tag_6:\n                /* \"#utility.yul\":767:773   */\n              0x00\n                /* \"#utility.yul\":775:781   */\n              dup1\n                /* \"#utility.yul\":783:789   */\n              0x00\n                /* \"#utility.yul\":832:834   */\n              0x60\n                /* \"#utility.yul\":820:829   */\n              dup5\n                /* \"#utility.yul\":811:818   */\n              dup7\n                /* \"#utility.yul\":807:830   */\n              sub\n                /* \"#utility.yul\":803:835   */\n              slt\n                /* \"#utility.yul\":800:919   */\n              iszero\n              tag_48\n              jumpi\n                /* \"#utility.yul\":838:917   */\n              tag_49\n              tag_20\n              jump\t// in\n            tag_49:\n                /* \"#utility.yul\":800:919   */\n            tag_48:\n                /* \"#utility.yul\":958:959   */\n              0x00\n                /* \"#utility.yul\":983:1036   */\n              tag_50\n                /* \"#utility.yul\":1028:1035   */\n              dup7\n                /* \"#utility.yul\":1019:1025   */\n              dup3\n                /* \"#utility.yul\":1008:1017   */\n              dup8\n                /* \"#utility.yul\":1004:1026   */\n              add\n                /* \"#utility.yul\":983:1036   */\n              tag_24\n              jump\t// in\n            tag_50:\n                /* \"#utility.yul\":973:1036   */\n              swap4\n              pop\n                /* \"#utility.yul\":929:1046   */\n              pop\n                /* \"#utility.yul\":1085:1087   */\n              0x20\n                /* \"#utility.yul\":1111:1164   */\n              tag_51\n                /* \"#utility.yul\":1156:1163   */\n              dup7\n                /* \"#utility.yul\":1147:1153   */\n              dup3\n                /* \"#utility.yul\":1136:1145   */\n              dup8\n                /* \"#utility.yul\":1132:1154   */\n              add\n                /* \"#utility.yul\":1111:1164   */\n              tag_24\n              jump\t// in\n            tag_51:\n                /* \"#utility.yul\":1101:1164   */\n              swap3\n              pop\n                /* \"#utility.yul\":1056:1174   */\n              pop\n                /* \"#utility.yul\":1213:1215   */\n              0x40\n                /* \"#utility.yul\":1239:1292   */\n              tag_52\n                /* \"#utility.yul\":1284:1291   */\n              dup7\n                /* \"#utility.yul\":1275:1281   */\n              dup3\n                /* \"#utility.yul\":1264:1273   */\n              dup8\n                /* \"#utility.yul\":1260:1282   */\n              add\n                /* \"#utility.yul\":1239:1292   */\n              tag_24\n              jump\t// in\n            tag_52:\n                /* \"#utility.yul\":1229:1292   */\n              swap2\n              pop\n                /* \"#utility.yul\":1184:1302   */\n              pop\n                /* \"#utility.yul\":690:1309   */\n              swap3\n              pop\n              swap3\n              pop\n              swap3\n              jump\t// out\n                /* \"#utility.yul\":1315:1419   */\n            tag_25:\n                /* \"#utility.yul\":1380:1386   */\n              0x00\n                /* \"#utility.yul\":1408:1412   */\n              0x03\n                /* \"#utility.yul\":1398:1412   */\n              swap1\n              pop\n                /* \"#utility.yul\":1315:1419   */\n              swap2\n              swap1\n              pop\n              jump\t// out\n                /* \"#utility.yul\":1425:1568   */\n            tag_26:\n                /* \"#utility.yul\":1522:1533   */\n              0x00\n                /* \"#utility.yul\":1559:1562   */\n              dup2\n                /* \"#utility.yul\":1544:1562   */\n              swap1\n              pop\n                /* \"#utility.yul\":1425:1568   */\n              swap3\n              swap2\n              pop\n              pop\n              jump\t// out\n                /* \"#utility.yul\":1574:1672   */\n            tag_27:\n                /* \"#utility.yul\":1639:1643   */\n              0x00\n                /* \"#utility.yul\":1662:1665   */\n              dup2\n                /* \"#utility.yul\":1654:1665   */\n              swap1\n              pop\n                /* \"#utility.yul\":1574:1672   */\n              swap2\n              swap1\n              pop\n              jump\t// out\n                /* \"#utility.yul\":1678:1786   */\n            tag_28:\n                /* \"#utility.yul\":1755:1779   */\n              tag_57\n                /* \"#utility.yul\":1773:1778   */\n              dup2\n                /* \"#utility.yul\":1755:1779   */\n              tag_22\n              jump\t// in\n            tag_57:\n                /* \"#utility.yul\":1750:1753   */\n              dup3\n                /* \"#utility.yul\":1743:1780   */\n              mstore\n                /* \"#utility.yul\":1678:1786   */\n              pop\n              pop\n              jump\t// out\n                /* \"#utility.yul\":1792:1971   */\n            tag_29:\n                /* \"#utility.yul\":1861:1871   */\n              0x00\n                /* \"#utility.yul\":1882:1928   */\n              tag_59\n                /* \"#utility.yul\":1924:1927   */\n              dup4\n                /* \"#utility.yul\":1916:1922   */\n              dup4\n                /* \"#utility.yul\":1882:1928   */\n              tag_28\n              jump\t// in\n            tag_59:\n                /* \"#utility.yul\":1960:1964   */\n              0x20\n                /* \"#utility.yul\":1955:1958   */\n              dup4\n                /* \"#utility.yul\":1951:1965   */\n              add\n                /* \"#utility.yul\":1937:1965   */\n              swap1\n              pop\n                /* \"#utility.yul\":1792:1971   */\n              swap3\n              swap2\n              pop\n              pop\n              jump\t// out\n                /* \"#utility.yul\":1977:2088   */\n            tag_30:\n                /* \"#utility.yul\":2045:2049   */\n              0x00\n                /* \"#utility.yul\":2077:2081   */\n              0x20\n                /* \"#utility.yul\":2072:2075   */\n              dup3\n                /* \"#utility.yul\":2068:2082   */\n              add\n                /* \"#utility.yul\":2060:2082   */\n              swap1\n              pop\n                /* \"#utility.yul\":1977:2088   */\n              swap2\n              swap1\n              pop\n              jump\t// out\n                /* \"#utility.yul\":2126:2820   */\n            tag_31:\n                /* \"#utility.yul\":2262:2314   */\n              tag_62\n                /* \"#utility.yul\":2308:2313   */\n              dup2\n                /* \"#utility.yul\":2262:2314   */\n              tag_25\n              jump\t// in\n            tag_62:\n                /* \"#utility.yul\":2330:2414   */\n              tag_63\n                /* \"#utility.yul\":2407:2413   */\n              dup2\n                /* \"#utility.yul\":2402:2405   */\n              dup5\n                /* \"#utility.yul\":2330:2414   */\n              tag_26\n              jump\t// in\n            tag_63:\n                /* \"#utility.yul\":2323:2414   */\n              swap3\n              pop\n                /* \"#utility.yul\":2438:2492   */\n              tag_64\n                /* \"#utility.yul\":2486:2491   */\n              dup3\n                /* \"#utility.yul\":2438:2492   */\n              tag_27\n              jump\t// in\n            tag_64:\n                /* \"#utility.yul\":2515:2522   */\n              dup1\n                /* \"#utility.yul\":2546:2547   */\n              0x00\n                /* \"#utility.yul\":2531:2813   */\n            tag_65:\n                /* \"#utility.yul\":2556:2562   */\n              dup4\n                /* \"#utility.yul\":2553:2554   */\n              dup2\n                /* \"#utility.yul\":2550:2563   */\n              lt\n                /* \"#utility.yul\":2531:2813   */\n              iszero\n              tag_67\n              jumpi\n                /* \"#utility.yul\":2632:2638   */\n              dup2\n                /* \"#utility.yul\":2626:2639   */\n              mload\n                /* \"#utility.yul\":2659:2722   */\n              tag_68\n                /* \"#utility.yul\":2718:2721   */\n              dup8\n                /* \"#utility.yul\":2703:2716   */\n              dup3\n                /* \"#utility.yul\":2659:2722   */\n              tag_29\n              jump\t// in\n            tag_68:\n                /* \"#utility.yul\":2652:2722   */\n              swap7\n              pop\n                /* \"#utility.yul\":2745:2803   */\n              tag_69\n                /* \"#utility.yul\":2796:2802   */\n              dup4\n                /* \"#utility.yul\":2745:2803   */\n              tag_30\n              jump\t// in\n            tag_69:\n                /* \"#utility.yul\":2735:2803   */\n              swap3\n              pop\n                /* \"#utility.yul\":2591:2813   */\n              pop\n                /* \"#utility.yul\":2578:2579   */\n              0x01\n                /* \"#utility.yul\":2575:2576   */\n              dup2\n                /* \"#utility.yul\":2571:2580   */\n              add\n                /* \"#utility.yul\":2566:2580   */\n              swap1\n              pop\n                /* \"#utility.yul\":2531:2813   */\n              jump(tag_65)\n            tag_67:\n                /* \"#utility.yul\":2535:2549   */\n              pop\n                /* \"#utility.yul\":2238:2820   */\n              pop\n              pop\n              pop\n                /* \"#utility.yul\":2126:2820   */\n              pop\n              pop\n              jump\t// out\n                /* \"#utility.yul\":2826:2911   */\n            tag_32:\n                /* \"#utility.yul\":2871:2878   */\n              0x00\n                /* \"#utility.yul\":2900:2905   */\n              dup2\n                /* \"#utility.yul\":2889:2905   */\n              swap1\n              pop\n                /* \"#utility.yul\":2826:2911   */\n              swap2\n              swap1\n              pop\n              jump\t// out\n                /* \"#utility.yul\":2917:2977   */\n            tag_33:\n                /* \"#utility.yul\":2945:2948   */\n              0x00\n                /* \"#utility.yul\":2966:2971   */\n              dup2\n                /* \"#utility.yul\":2959:2971   */\n              swap1\n              pop\n                /* \"#utility.yul\":2917:2977   */\n              swap2\n              swap1\n              pop\n              jump\t// out\n                /* \"#utility.yul\":2983:3141   */\n            tag_34:\n                /* \"#utility.yul\":3041:3050   */\n              0x00\n                /* \"#utility.yul\":3074:3135   */\n              tag_73\n                /* \"#utility.yul\":3092:3134   */\n              tag_74\n                /* \"#utility.yul\":3101:3133   */\n              tag_75\n                /* \"#utility.yul\":3127:3132   */\n              dup5\n                /* \"#utility.yul\":3101:3133   */\n              tag_32\n              jump\t// in\n            tag_75:\n                /* \"#utility.yul\":3092:3134   */\n              tag_33\n              jump\t// in\n            tag_74:\n                /* \"#utility.yul\":3074:3135   */\n              tag_22\n              jump\t// in\n            tag_73:\n                /* \"#utility.yul\":3061:3135   */\n              swap1\n              pop\n                /* \"#utility.yul\":2983:3141   */\n              swap2\n              swap1\n              pop\n              jump\t// out\n                /* \"#utility.yul\":3147:3294   */\n            tag_35:\n                /* \"#utility.yul\":3242:3287   */\n              tag_77\n                /* \"#utility.yul\":3281:3286   */\n              dup2\n                /* \"#utility.yul\":3242:3287   */\n              tag_34\n              jump\t// in\n            tag_77:\n                /* \"#utility.yul\":3237:3240   */\n              dup3\n                /* \"#utility.yul\":3230:3288   */\n              mstore\n                /* \"#utility.yul\":3147:3294   */\n              pop\n              pop\n              jump\t// out\n                /* \"#utility.yul\":3300:3741   */\n            tag_14:\n                /* \"#utility.yul\":3475:3479   */\n              0x00\n                /* \"#utility.yul\":3513:3516   */\n              0x80\n                /* \"#utility.yul\":3502:3511   */\n              dup3\n                /* \"#utility.yul\":3498:3517   */\n              add\n                /* \"#utility.yul\":3490:3517   */\n              swap1\n              pop\n                /* \"#utility.yul\":3527:3644   */\n              tag_79\n                /* \"#utility.yul\":3641:3642   */\n              0x00\n                /* \"#utility.yul\":3630:3639   */\n              dup4\n                /* \"#utility.yul\":3626:3643   */\n              add\n                /* \"#utility.yul\":3617:3623   */\n              dup6\n                /* \"#utility.yul\":3527:3644   */\n              tag_31\n              jump\t// in\n            tag_79:\n                /* \"#utility.yul\":3654:3734   */\n              tag_80\n                /* \"#utility.yul\":3730:3732   */\n              0x60\n                /* \"#utility.yul\":3719:3728   */\n              dup4\n                /* \"#utility.yul\":3715:3733   */\n              add\n                /* \"#utility.yul\":3706:3712   */\n              dup5\n                /* \"#utility.yul\":3654:3734   */\n              tag_35\n              jump\t// in\n            tag_80:\n                /* \"#utility.yul\":3300:3741   */\n              swap4\n              swap3\n              pop\n              pop\n              pop\n              jump\t// out\n                /* \"#utility.yul\":3747:3890   */\n            tag_36:\n                /* \"#utility.yul\":3804:3809   */\n              0x00\n                /* \"#utility.yul\":3835:3841   */\n              dup2\n                /* \"#utility.yul\":3829:3842   */\n              mload\n                /* \"#utility.yul\":3820:3842   */\n              swap1\n              pop\n                /* \"#utility.yul\":3851:3884   */\n              tag_82\n                /* \"#utility.yul\":3878:3883   */\n              dup2\n                /* \"#utility.yul\":3851:3884   */\n              tag_23\n              jump\t// in\n            tag_82:\n                /* \"#utility.yul\":3747:3890   */\n              swap3\n              swap2\n              pop\n              pop\n              jump\t// out\n                /* \"#utility.yul\":3896:4247   */\n            tag_18:\n                /* \"#utility.yul\":3966:3972   */\n              0x00\n                /* \"#utility.yul\":4015:4017   */\n              0x20\n                /* \"#utility.yul\":4003:4012   */\n              dup3\n                /* \"#utility.yul\":3994:4001   */\n              dup5\n                /* \"#utility.yul\":3990:4013   */\n              sub\n                /* \"#utility.yul\":3986:4018   */\n              slt\n                /* \"#utility.yul\":3983:4102   */\n              iszero\n              tag_84\n              jumpi\n                /* \"#utility.yul\":4021:4100   */\n              tag_85\n              tag_20\n              jump\t// in\n            tag_85:\n                /* \"#utility.yul\":3983:4102   */\n            tag_84:\n                /* \"#utility.yul\":4141:4142   */\n              0x00\n                /* \"#utility.yul\":4166:4230   */\n              tag_86\n                /* \"#utility.yul\":4222:4229   */\n              dup5\n                /* \"#utility.yul\":4213:4219   */\n              dup3\n                /* \"#utility.yul\":4202:4211   */\n              dup6\n                /* \"#utility.yul\":4198:4220   */\n              add\n                /* \"#utility.yul\":4166:4230   */\n              tag_36\n              jump\t// in\n            tag_86:\n                /* \"#utility.yul\":4156:4230   */\n              swap2\n              pop\n                /* \"#utility.yul\":4112:4240   */\n              pop\n                /* \"#utility.yul\":3896:4247   */\n              swap3\n              swap2\n              pop\n              pop\n              jump\t// out\n\n            auxdata: 0xa264697066735822122077ed3a47d2595cb5d12eac94b0a4644cba2addd89397c688d5e3804b3eff928564736f6c63430008110033\n        }\n    }\n\n    auxdata: 0xa26469706673582212207ba32ded3be59851e8dcff9f27afd4a0b551e780a09897581d43d4639f25979764736f6c63430008110033\n}\n",
				"bytecode": {
					"linkReferences": {},
					"object": "608060405234801561001057600080fd5b50611725806100206000396000f3fe60806040523480156200001157600080fd5b5060043610620000465760003560e01c80630f87bbcc146200004b5780633ccfd60b146200006b578063d0e30db01462000077575b600080fd5b62000069600480360381019062000063919062000dad565b62000083565b005b6200007562000271565b005b6200008162000273565b005b60008311156200012657738f3cf7ad23cd3cadbd9735aff958023239c6a06373ffffffffffffffffffffffffffffffffffffffff1663095ea7b330856040518363ffffffff1660e01b8152600401620000de92919062000e5f565b6020604051808303816000875af1158015620000fe573d6000803e3d6000fd5b505050506040513d601f19601f8201168201806040525081019062000124919062000ec9565b505b6000821115620001c957732791bca1f2de4661ed88a30c99a7a9449aa8417473ffffffffffffffffffffffffffffffffffffffff1663095ea7b330846040518363ffffffff1660e01b81526004016200018192919062000e5f565b6020604051808303816000875af1158015620001a1573d6000803e3d6000fd5b505050506040513d601f19601f82011682018060405250810190620001c7919062000ec9565b505b60008111156200026c5773c2132d05d31c914a87c6611c10748aeb04b58e8f73ffffffffffffffffffffffffffffffffffffffff1663095ea7b330836040518363ffffffff1660e01b81526004016200022492919062000e5f565b6020604051808303816000875af115801562000244573d6000803e3d6000fd5b505050506040513d601f19601f820116820180604052508101906200026a919062000ec9565b505b505050565b565b600073ffffffffffffffffffffffffffffffffffffffff16600160003373ffffffffffffffffffffffffffffffffffffffff1673ffffffffffffffffffffffffffffffffffffffff16815260200190815260200160002060009054906101000a900473ffffffffffffffffffffffffffffffffffffffff1673ffffffffffffffffffffffffffffffffffffffff1603620008d15762000311620008d4565b600030604051620003229062000d5f565b6200032e919062000efb565b604051809103906000f0801580156200034b573d6000803e3d6000fd5b50905080600160003373ffffffffffffffffffffffffffffffffffffffff1673ffffffffffffffffffffffffffffffffffffffff16815260200190815260200160002060006101000a81548173ffffffffffffffffffffffffffffffffffffffff021916908373ffffffffffffffffffffffffffffffffffffffff16021790555060008190506000600260003373ffffffffffffffffffffffffffffffffffffffff1673ffffffffffffffffffffffffffffffffffffffff1681526020019081526020016000205490506000600360003373ffffffffffffffffffffffffffffffffffffffff1673ffffffffffffffffffffffffffffffffffffffff1681526020019081526020016000205490506000600460003373ffffffffffffffffffffffffffffffffffffffff1673ffffffffffffffffffffffffffffffffffffffff1681526020019081526020016000205490506000831115620005da57738f3cf7ad23cd3cadbd9735aff958023239c6a06373ffffffffffffffffffffffffffffffffffffffff1663095ea7b385856040518363ffffffff1660e01b8152600401620004f892919062000e5f565b6020604051808303816000875af115801562000518573d6000803e3d6000fd5b505050506040513d601f19601f820116820180604052508101906200053e919062000ec9565b50738f3cf7ad23cd3cadbd9735aff958023239c6a06373ffffffffffffffffffffffffffffffffffffffff166323b872dd3086866040518463ffffffff1660e01b8152600401620005929392919062000f18565b6020604051808303816000875af1158015620005b2573d6000803e3d6000fd5b505050506040513d601f19601f82011682018060405250810190620005d8919062000ec9565b505b60008211156200071757732791bca1f2de4661ed88a30c99a7a9449aa8417473ffffffffffffffffffffffffffffffffffffffff1663095ea7b385846040518363ffffffff1660e01b81526004016200063592919062000e5f565b6020604051808303816000875af115801562000655573d6000803e3d6000fd5b505050506040513d601f19601f820116820180604052508101906200067b919062000ec9565b50732791bca1f2de4661ed88a30c99a7a9449aa8417473ffffffffffffffffffffffffffffffffffffffff166323b872dd3086856040518463ffffffff1660e01b8152600401620006cf9392919062000f18565b6020604051808303816000875af1158015620006ef573d6000803e3d6000fd5b505050506040513d601f19601f8201168201806040525081019062000715919062000ec9565b505b6000811115620008545773c2132d05d31c914a87c6611c10748aeb04b58e8f73ffffffffffffffffffffffffffffffffffffffff1663095ea7b385836040518363ffffffff1660e01b81526004016200077292919062000e5f565b6020604051808303816000875af115801562000792573d6000803e3d6000fd5b505050506040513d601f19601f82011682018060405250810190620007b8919062000ec9565b5073c2132d05d31c914a87c6611c10748aeb04b58e8f73ffffffffffffffffffffffffffffffffffffffff166323b872dd3086846040518463ffffffff1660e01b81526004016200080c9392919062000f18565b6020604051808303816000875af11580156200082c573d6000803e3d6000fd5b505050506040513d601f19601f8201168201806040525081019062000852919062000ec9565b505b8473ffffffffffffffffffffffffffffffffffffffff1662aeef8a8485846040518463ffffffff1660e01b8152600401620008929392919062000f55565b600060405180830381600087803b158015620008ad57600080fd5b505af1158015620008c2573d6000803e3d6000fd5b505050505050505050620008d2565b5b565b6000738f3cf7ad23cd3cadbd9735aff958023239c6a06373ffffffffffffffffffffffffffffffffffffffff1663dd62ed3e33306040518363ffffffff1660e01b81526004016200092792919062000f92565b602060405180830381865afa15801562000945573d6000803e3d6000fd5b505050506040513d601f19601f820116820180604052508101906200096b919062000fd6565b90506000732791bca1f2de4661ed88a30c99a7a9449aa8417473ffffffffffffffffffffffffffffffffffffffff1663dd62ed3e33306040518363ffffffff1660e01b8152600401620009c092919062000f92565b602060405180830381865afa158015620009de573d6000803e3d6000fd5b505050506040513d601f19601f8201168201806040525081019062000a04919062000fd6565b9050600073c2132d05d31c914a87c6611c10748aeb04b58e8f73ffffffffffffffffffffffffffffffffffffffff1663dd62ed3e33306040518363ffffffff1660e01b815260040162000a5992919062000f92565b602060405180830381865afa15801562000a77573d6000803e3d6000fd5b505050506040513d601f19601f8201168201806040525081019062000a9d919062000fd6565b9050600083111562000b8857738f3cf7ad23cd3cadbd9735aff958023239c6a06373ffffffffffffffffffffffffffffffffffffffff166323b872dd3330866040518463ffffffff1660e01b815260040162000afc9392919062000f18565b6020604051808303816000875af115801562000b1c573d6000803e3d6000fd5b505050506040513d601f19601f8201168201806040525081019062000b42919062000ec9565b5082600260003373ffffffffffffffffffffffffffffffffffffffff1673ffffffffffffffffffffffffffffffffffffffff168152602001908152602001600020819055505b600082111562000c7157732791bca1f2de4661ed88a30c99a7a9449aa8417473ffffffffffffffffffffffffffffffffffffffff166323b872dd3330856040518463ffffffff1660e01b815260040162000be59392919062000f18565b6020604051808303816000875af115801562000c05573d6000803e3d6000fd5b505050506040513d601f19601f8201168201806040525081019062000c2b919062000ec9565b5081600360003373ffffffffffffffffffffffffffffffffffffffff1673ffffffffffffffffffffffffffffffffffffffff168152602001908152602001600020819055505b600081111562000d5a5773c2132d05d31c914a87c6611c10748aeb04b58e8f73ffffffffffffffffffffffffffffffffffffffff166323b872dd3330846040518463ffffffff1660e01b815260040162000cce9392919062000f18565b6020604051808303816000875af115801562000cee573d6000803e3d6000fd5b505050506040513d601f19601f8201168201806040525081019062000d14919062000ec9565b5080600460003373ffffffffffffffffffffffffffffffffffffffff1673ffffffffffffffffffffffffffffffffffffffff168152602001908152602001600020819055505b505050565b6106e7806200100983390190565b600080fd5b6000819050919050565b62000d878162000d72565b811462000d9357600080fd5b50565b60008135905062000da78162000d7c565b92915050565b60008060006060848603121562000dc95762000dc862000d6d565b5b600062000dd98682870162000d96565b935050602062000dec8682870162000d96565b925050604062000dff8682870162000d96565b9150509250925092565b600073ffffffffffffffffffffffffffffffffffffffff82169050919050565b600062000e368262000e09565b9050919050565b62000e488162000e29565b82525050565b62000e598162000d72565b82525050565b600060408201905062000e76600083018562000e3d565b62000e85602083018462000e4e565b9392505050565b60008115159050919050565b62000ea38162000e8c565b811462000eaf57600080fd5b50565b60008151905062000ec38162000e98565b92915050565b60006020828403121562000ee25762000ee162000d6d565b5b600062000ef28482850162000eb2565b91505092915050565b600060208201905062000f12600083018462000e3d565b92915050565b600060608201905062000f2f600083018662000e3d565b62000f3e602083018562000e3d565b62000f4d604083018462000e4e565b949350505050565b600060608201905062000f6c600083018662000e4e565b62000f7b602083018562000e4e565b62000f8a604083018462000e4e565b949350505050565b600060408201905062000fa9600083018562000e3d565b62000fb8602083018462000e3d565b9392505050565b60008151905062000fd08162000d7c565b92915050565b60006020828403121562000fef5762000fee62000d6d565b5b600062000fff8482850162000fbf565b9150509291505056fe6080604052732791bca1f2de4661ed88a30c99a7a9449aa841746000806101000a81548173ffffffffffffffffffffffffffffffffffffffff021916908373ffffffffffffffffffffffffffffffffffffffff160217905550738f3cf7ad23cd3cadbd9735aff958023239c6a063600160006101000a81548173ffffffffffffffffffffffffffffffffffffffff021916908373ffffffffffffffffffffffffffffffffffffffff16021790555073c2132d05d31c914a87c6611c10748aeb04b58e8f600260006101000a81548173ffffffffffffffffffffffffffffffffffffffff021916908373ffffffffffffffffffffffffffffffffffffffff16021790555073d05e3e715d945b59290df0ae8ef85c1bdb68474473ffffffffffffffffffffffffffffffffffffffff16630261bf8b6040518163ffffffff1660e01b8152600401602060405180830381865afa158015610161573d6000803e3d6000fd5b505050506040513d601f19601f820116820180604052508101906101859190610310565b600360006101000a81548173ffffffffffffffffffffffffffffffffffffffff021916908373ffffffffffffffffffffffffffffffffffffffff1602179055506000600360146101000a81548161ffff021916908361ffff16021790555073445fe580ef8d70ff569ab36e80c647af338db351600460006101000a81548173ffffffffffffffffffffffffffffffffffffffff021916908373ffffffffffffffffffffffffffffffffffffffff16021790555034801561024457600080fd5b506040516106e73803806106e783398181016040528101906102669190610310565b80600560006101000a81548173ffffffffffffffffffffffffffffffffffffffff021916908373ffffffffffffffffffffffffffffffffffffffff1602179055505061033d565b600080fd5b600073ffffffffffffffffffffffffffffffffffffffff82169050919050565b60006102dd826102b2565b9050919050565b6102ed816102d2565b81146102f857600080fd5b50565b60008151905061030a816102e4565b92915050565b600060208284031215610326576103256102ad565b5b6000610334848285016102fb565b91505092915050565b61039b8061034c6000396000f3fe608060405234801561001057600080fd5b506004361061002a5760003560e01c8062aeef8a1461002f575b600080fd5b610049600480360381019061004491906101b7565b61004b565b005b600560009054906101000a900473ffffffffffffffffffffffffffffffffffffffff1673ffffffffffffffffffffffffffffffffffffffff163373ffffffffffffffffffffffffffffffffffffffff16146100a557600080fd5b6100b08383836100b5565b505050565b60006040518060600160405280858152602001848152602001838152509050600460009054906101000a900473ffffffffffffffffffffffffffffffffffffffff1673ffffffffffffffffffffffffffffffffffffffff16634515cef38260006040518363ffffffff1660e01b81526004016101329291906102fa565b6020604051808303816000875af1158015610151573d6000803e3d6000fd5b505050506040513d601f19601f820116820180604052508101906101759190610338565b5050505050565b600080fd5b6000819050919050565b61019481610181565b811461019f57600080fd5b50565b6000813590506101b18161018b565b92915050565b6000806000606084860312156101d0576101cf61017c565b5b60006101de868287016101a2565b93505060206101ef868287016101a2565b9250506040610200868287016101a2565b9150509250925092565b600060039050919050565b600081905092915050565b6000819050919050565b61023381610181565b82525050565b6000610245838361022a565b60208301905092915050565b6000602082019050919050565b6102678161020a565b6102718184610215565b925061027c82610220565b8060005b838110156102ad5781516102948782610239565b965061029f83610251565b925050600181019050610280565b505050505050565b6000819050919050565b6000819050919050565b60006102e46102df6102da846102b5565b6102bf565b610181565b9050919050565b6102f4816102c9565b82525050565b600060808201905061030f600083018561025e565b61031c60608301846102eb565b9392505050565b6000815190506103328161018b565b92915050565b60006020828403121561034e5761034d61017c565b5b600061035c84828501610323565b9150509291505056fea264697066735822122077ed3a47d2595cb5d12eac94b0a4644cba2addd89397c688d5e3804b3eff928564736f6c63430008110033a26469706673582212207ba32ded3be59851e8dcff9f27afd4a0b551e780a09897581d43d4639f25979764736f6c63430008110033",
					"opcodes": "PUSH1 0x80 PUSH1 0x40 MSTORE CALLVALUE DUP1 ISZERO PUSH2 0x10 JUMPI PUSH1 0x0 DUP1 REVERT JUMPDEST POP PUSH2 0x1725 DUP1 PUSH2 0x20 PUSH1 0x0 CODECOPY PUSH1 0x0 RETURN INVALID PUSH1 0x80 PUSH1 0x40 MSTORE CALLVALUE DUP1 ISZERO PUSH3 0x11 JUMPI PUSH1 0x0 DUP1 REVERT JUMPDEST POP PUSH1 0x4 CALLDATASIZE LT PUSH3 0x46 JUMPI PUSH1 0x0 CALLDATALOAD PUSH1 0xE0 SHR DUP1 PUSH4 0xF87BBCC EQ PUSH3 0x4B JUMPI DUP1 PUSH4 0x3CCFD60B EQ PUSH3 0x6B JUMPI DUP1 PUSH4 0xD0E30DB0 EQ PUSH3 0x77 JUMPI JUMPDEST PUSH1 0x0 DUP1 REVERT JUMPDEST PUSH3 0x69 PUSH1 0x4 DUP1 CALLDATASIZE SUB DUP2 ADD SWAP1 PUSH3 0x63 SWAP2 SWAP1 PUSH3 0xDAD JUMP JUMPDEST PUSH3 0x83 JUMP JUMPDEST STOP JUMPDEST PUSH3 0x75 PUSH3 0x271 JUMP JUMPDEST STOP JUMPDEST PUSH3 0x81 PUSH3 0x273 JUMP JUMPDEST STOP JUMPDEST PUSH1 0x0 DUP4 GT ISZERO PUSH3 0x126 JUMPI PUSH20 0x8F3CF7AD23CD3CADBD9735AFF958023239C6A063 PUSH20 0xFFFFFFFFFFFFFFFFFFFFFFFFFFFFFFFFFFFFFFFF AND PUSH4 0x95EA7B3 ADDRESS DUP6 PUSH1 0x40 MLOAD DUP4 PUSH4 0xFFFFFFFF AND PUSH1 0xE0 SHL DUP2 MSTORE PUSH1 0x4 ADD PUSH3 0xDE SWAP3 SWAP2 SWAP1 PUSH3 0xE5F JUMP JUMPDEST PUSH1 0x20 PUSH1 0x40 MLOAD DUP1 DUP4 SUB DUP2 PUSH1 0x0 DUP8 GAS CALL ISZERO DUP1 ISZERO PUSH3 0xFE JUMPI RETURNDATASIZE PUSH1 0x0 DUP1 RETURNDATACOPY RETURNDATASIZE PUSH1 0x0 REVERT JUMPDEST POP POP POP POP PUSH1 0x40 MLOAD RETURNDATASIZE PUSH1 0x1F NOT PUSH1 0x1F DUP3 ADD AND DUP3 ADD DUP1 PUSH1 0x40 MSTORE POP DUP2 ADD SWAP1 PUSH3 0x124 SWAP2 SWAP1 PUSH3 0xEC9 JUMP JUMPDEST POP JUMPDEST PUSH1 0x0 DUP3 GT ISZERO PUSH3 0x1C9 JUMPI PUSH20 0x2791BCA1F2DE4661ED88A30C99A7A9449AA84174 PUSH20 0xFFFFFFFFFFFFFFFFFFFFFFFFFFFFFFFFFFFFFFFF AND PUSH4 0x95EA7B3 ADDRESS DUP5 PUSH1 0x40 MLOAD DUP4 PUSH4 0xFFFFFFFF AND PUSH1 0xE0 SHL DUP2 MSTORE PUSH1 0x4 ADD PUSH3 0x181 SWAP3 SWAP2 SWAP1 PUSH3 0xE5F JUMP JUMPDEST PUSH1 0x20 PUSH1 0x40 MLOAD DUP1 DUP4 SUB DUP2 PUSH1 0x0 DUP8 GAS CALL ISZERO DUP1 ISZERO PUSH3 0x1A1 JUMPI RETURNDATASIZE PUSH1 0x0 DUP1 RETURNDATACOPY RETURNDATASIZE PUSH1 0x0 REVERT JUMPDEST POP POP POP POP PUSH1 0x40 MLOAD RETURNDATASIZE PUSH1 0x1F NOT PUSH1 0x1F DUP3 ADD AND DUP3 ADD DUP1 PUSH1 0x40 MSTORE POP DUP2 ADD SWAP1 PUSH3 0x1C7 SWAP2 SWAP1 PUSH3 0xEC9 JUMP JUMPDEST POP JUMPDEST PUSH1 0x0 DUP2 GT ISZERO PUSH3 0x26C JUMPI PUSH20 0xC2132D05D31C914A87C6611C10748AEB04B58E8F PUSH20 0xFFFFFFFFFFFFFFFFFFFFFFFFFFFFFFFFFFFFFFFF AND PUSH4 0x95EA7B3 ADDRESS DUP4 PUSH1 0x40 MLOAD DUP4 PUSH4 0xFFFFFFFF AND PUSH1 0xE0 SHL DUP2 MSTORE PUSH1 0x4 ADD PUSH3 0x224 SWAP3 SWAP2 SWAP1 PUSH3 0xE5F JUMP JUMPDEST PUSH1 0x20 PUSH1 0x40 MLOAD DUP1 DUP4 SUB DUP2 PUSH1 0x0 DUP8 GAS CALL ISZERO DUP1 ISZERO PUSH3 0x244 JUMPI RETURNDATASIZE PUSH1 0x0 DUP1 RETURNDATACOPY RETURNDATASIZE PUSH1 0x0 REVERT JUMPDEST POP POP POP POP PUSH1 0x40 MLOAD RETURNDATASIZE PUSH1 0x1F NOT PUSH1 0x1F DUP3 ADD AND DUP3 ADD DUP1 PUSH1 0x40 MSTORE POP DUP2 ADD SWAP1 PUSH3 0x26A SWAP2 SWAP1 PUSH3 0xEC9 JUMP JUMPDEST POP JUMPDEST POP POP POP JUMP JUMPDEST JUMP JUMPDEST PUSH1 0x0 PUSH20 0xFFFFFFFFFFFFFFFFFFFFFFFFFFFFFFFFFFFFFFFF AND PUSH1 0x1 PUSH1 0x0 CALLER PUSH20 0xFFFFFFFFFFFFFFFFFFFFFFFFFFFFFFFFFFFFFFFF AND PUSH20 0xFFFFFFFFFFFFFFFFFFFFFFFFFFFFFFFFFFFFFFFF AND DUP2 MSTORE PUSH1 0x20 ADD SWAP1 DUP2 MSTORE PUSH1 0x20 ADD PUSH1 0x0 KECCAK256 PUSH1 0x0 SWAP1 SLOAD SWAP1 PUSH2 0x100 EXP SWAP1 DIV PUSH20 0xFFFFFFFFFFFFFFFFFFFFFFFFFFFFFFFFFFFFFFFF AND PUSH20 0xFFFFFFFFFFFFFFFFFFFFFFFFFFFFFFFFFFFFFFFF AND SUB PUSH3 0x8D1 JUMPI PUSH3 0x311 PUSH3 0x8D4 JUMP JUMPDEST PUSH1 0x0 ADDRESS PUSH1 0x40 MLOAD PUSH3 0x322 SWAP1 PUSH3 0xD5F JUMP JUMPDEST PUSH3 0x32E SWAP2 SWAP1 PUSH3 0xEFB JUMP JUMPDEST PUSH1 0x40 MLOAD DUP1 SWAP2 SUB SWAP1 PUSH1 0x0 CREATE DUP1 ISZERO DUP1 ISZERO PUSH3 0x34B JUMPI RETURNDATASIZE PUSH1 0x0 DUP1 RETURNDATACOPY RETURNDATASIZE PUSH1 0x0 REVERT JUMPDEST POP SWAP1 POP DUP1 PUSH1 0x1 PUSH1 0x0 CALLER PUSH20 0xFFFFFFFFFFFFFFFFFFFFFFFFFFFFFFFFFFFFFFFF AND PUSH20 0xFFFFFFFFFFFFFFFFFFFFFFFFFFFFFFFFFFFFFFFF AND DUP2 MSTORE PUSH1 0x20 ADD SWAP1 DUP2 MSTORE PUSH1 0x20 ADD PUSH1 0x0 KECCAK256 PUSH1 0x0 PUSH2 0x100 EXP DUP2 SLOAD DUP2 PUSH20 0xFFFFFFFFFFFFFFFFFFFFFFFFFFFFFFFFFFFFFFFF MUL NOT AND SWAP1 DUP4 PUSH20 0xFFFFFFFFFFFFFFFFFFFFFFFFFFFFFFFFFFFFFFFF AND MUL OR SWAP1 SSTORE POP PUSH1 0x0 DUP2 SWAP1 POP PUSH1 0x0 PUSH1 0x2 PUSH1 0x0 CALLER PUSH20 0xFFFFFFFFFFFFFFFFFFFFFFFFFFFFFFFFFFFFFFFF AND PUSH20 0xFFFFFFFFFFFFFFFFFFFFFFFFFFFFFFFFFFFFFFFF AND DUP2 MSTORE PUSH1 0x20 ADD SWAP1 DUP2 MSTORE PUSH1 0x20 ADD PUSH1 0x0 KECCAK256 SLOAD SWAP1 POP PUSH1 0x0 PUSH1 0x3 PUSH1 0x0 CALLER PUSH20 0xFFFFFFFFFFFFFFFFFFFFFFFFFFFFFFFFFFFFFFFF AND PUSH20 0xFFFFFFFFFFFFFFFFFFFFFFFFFFFFFFFFFFFFFFFF AND DUP2 MSTORE PUSH1 0x20 ADD SWAP1 DUP2 MSTORE PUSH1 0x20 ADD PUSH1 0x0 KECCAK256 SLOAD SWAP1 POP PUSH1 0x0 PUSH1 0x4 PUSH1 0x0 CALLER PUSH20 0xFFFFFFFFFFFFFFFFFFFFFFFFFFFFFFFFFFFFFFFF AND PUSH20 0xFFFFFFFFFFFFFFFFFFFFFFFFFFFFFFFFFFFFFFFF AND DUP2 MSTORE PUSH1 0x20 ADD SWAP1 DUP2 MSTORE PUSH1 0x20 ADD PUSH1 0x0 KECCAK256 SLOAD SWAP1 POP PUSH1 0x0 DUP4 GT ISZERO PUSH3 0x5DA JUMPI PUSH20 0x8F3CF7AD23CD3CADBD9735AFF958023239C6A063 PUSH20 0xFFFFFFFFFFFFFFFFFFFFFFFFFFFFFFFFFFFFFFFF AND PUSH4 0x95EA7B3 DUP6 DUP6 PUSH1 0x40 MLOAD DUP4 PUSH4 0xFFFFFFFF AND PUSH1 0xE0 SHL DUP2 MSTORE PUSH1 0x4 ADD PUSH3 0x4F8 SWAP3 SWAP2 SWAP1 PUSH3 0xE5F JUMP JUMPDEST PUSH1 0x20 PUSH1 0x40 MLOAD DUP1 DUP4 SUB DUP2 PUSH1 0x0 DUP8 GAS CALL ISZERO DUP1 ISZERO PUSH3 0x518 JUMPI RETURNDATASIZE PUSH1 0x0 DUP1 RETURNDATACOPY RETURNDATASIZE PUSH1 0x0 REVERT JUMPDEST POP POP POP POP PUSH1 0x40 MLOAD RETURNDATASIZE PUSH1 0x1F NOT PUSH1 0x1F DUP3 ADD AND DUP3 ADD DUP1 PUSH1 0x40 MSTORE POP DUP2 ADD SWAP1 PUSH3 0x53E SWAP2 SWAP1 PUSH3 0xEC9 JUMP JUMPDEST POP PUSH20 0x8F3CF7AD23CD3CADBD9735AFF958023239C6A063 PUSH20 0xFFFFFFFFFFFFFFFFFFFFFFFFFFFFFFFFFFFFFFFF AND PUSH4 0x23B872DD ADDRESS DUP7 DUP7 PUSH1 0x40 MLOAD DUP5 PUSH4 0xFFFFFFFF AND PUSH1 0xE0 SHL DUP2 MSTORE PUSH1 0x4 ADD PUSH3 0x592 SWAP4 SWAP3 SWAP2 SWAP1 PUSH3 0xF18 JUMP JUMPDEST PUSH1 0x20 PUSH1 0x40 MLOAD DUP1 DUP4 SUB DUP2 PUSH1 0x0 DUP8 GAS CALL ISZERO DUP1 ISZERO PUSH3 0x5B2 JUMPI RETURNDATASIZE PUSH1 0x0 DUP1 RETURNDATACOPY RETURNDATASIZE PUSH1 0x0 REVERT JUMPDEST POP POP POP POP PUSH1 0x40 MLOAD RETURNDATASIZE PUSH1 0x1F NOT PUSH1 0x1F DUP3 ADD AND DUP3 ADD DUP1 PUSH1 0x40 MSTORE POP DUP2 ADD SWAP1 PUSH3 0x5D8 SWAP2 SWAP1 PUSH3 0xEC9 JUMP JUMPDEST POP JUMPDEST PUSH1 0x0 DUP3 GT ISZERO PUSH3 0x717 JUMPI PUSH20 0x2791BCA1F2DE4661ED88A30C99A7A9449AA84174 PUSH20 0xFFFFFFFFFFFFFFFFFFFFFFFFFFFFFFFFFFFFFFFF AND PUSH4 0x95EA7B3 DUP6 DUP5 PUSH1 0x40 MLOAD DUP4 PUSH4 0xFFFFFFFF AND PUSH1 0xE0 SHL DUP2 MSTORE PUSH1 0x4 ADD PUSH3 0x635 SWAP3 SWAP2 SWAP1 PUSH3 0xE5F JUMP JUMPDEST PUSH1 0x20 PUSH1 0x40 MLOAD DUP1 DUP4 SUB DUP2 PUSH1 0x0 DUP8 GAS CALL ISZERO DUP1 ISZERO PUSH3 0x655 JUMPI RETURNDATASIZE PUSH1 0x0 DUP1 RETURNDATACOPY RETURNDATASIZE PUSH1 0x0 REVERT JUMPDEST POP POP POP POP PUSH1 0x40 MLOAD RETURNDATASIZE PUSH1 0x1F NOT PUSH1 0x1F DUP3 ADD AND DUP3 ADD DUP1 PUSH1 0x40 MSTORE POP DUP2 ADD SWAP1 PUSH3 0x67B SWAP2 SWAP1 PUSH3 0xEC9 JUMP JUMPDEST POP PUSH20 0x2791BCA1F2DE4661ED88A30C99A7A9449AA84174 PUSH20 0xFFFFFFFFFFFFFFFFFFFFFFFFFFFFFFFFFFFFFFFF AND PUSH4 0x23B872DD ADDRESS DUP7 DUP6 PUSH1 0x40 MLOAD DUP5 PUSH4 0xFFFFFFFF AND PUSH1 0xE0 SHL DUP2 MSTORE PUSH1 0x4 ADD PUSH3 0x6CF SWAP4 SWAP3 SWAP2 SWAP1 PUSH3 0xF18 JUMP JUMPDEST PUSH1 0x20 PUSH1 0x40 MLOAD DUP1 DUP4 SUB DUP2 PUSH1 0x0 DUP8 GAS CALL ISZERO DUP1 ISZERO PUSH3 0x6EF JUMPI RETURNDATASIZE PUSH1 0x0 DUP1 RETURNDATACOPY RETURNDATASIZE PUSH1 0x0 REVERT JUMPDEST POP POP POP POP PUSH1 0x40 MLOAD RETURNDATASIZE PUSH1 0x1F NOT PUSH1 0x1F DUP3 ADD AND DUP3 ADD DUP1 PUSH1 0x40 MSTORE POP DUP2 ADD SWAP1 PUSH3 0x715 SWAP2 SWAP1 PUSH3 0xEC9 JUMP JUMPDEST POP JUMPDEST PUSH1 0x0 DUP2 GT ISZERO PUSH3 0x854 JUMPI PUSH20 0xC2132D05D31C914A87C6611C10748AEB04B58E8F PUSH20 0xFFFFFFFFFFFFFFFFFFFFFFFFFFFFFFFFFFFFFFFF AND PUSH4 0x95EA7B3 DUP6 DUP4 PUSH1 0x40 MLOAD DUP4 PUSH4 0xFFFFFFFF AND PUSH1 0xE0 SHL DUP2 MSTORE PUSH1 0x4 ADD PUSH3 0x772 SWAP3 SWAP2 SWAP1 PUSH3 0xE5F JUMP JUMPDEST PUSH1 0x20 PUSH1 0x40 MLOAD DUP1 DUP4 SUB DUP2 PUSH1 0x0 DUP8 GAS CALL ISZERO DUP1 ISZERO PUSH3 0x792 JUMPI RETURNDATASIZE PUSH1 0x0 DUP1 RETURNDATACOPY RETURNDATASIZE PUSH1 0x0 REVERT JUMPDEST POP POP POP POP PUSH1 0x40 MLOAD RETURNDATASIZE PUSH1 0x1F NOT PUSH1 0x1F DUP3 ADD AND DUP3 ADD DUP1 PUSH1 0x40 MSTORE POP DUP2 ADD SWAP1 PUSH3 0x7B8 SWAP2 SWAP1 PUSH3 0xEC9 JUMP JUMPDEST POP PUSH20 0xC2132D05D31C914A87C6611C10748AEB04B58E8F PUSH20 0xFFFFFFFFFFFFFFFFFFFFFFFFFFFFFFFFFFFFFFFF AND PUSH4 0x23B872DD ADDRESS DUP7 DUP5 PUSH1 0x40 MLOAD DUP5 PUSH4 0xFFFFFFFF AND PUSH1 0xE0 SHL DUP2 MSTORE PUSH1 0x4 ADD PUSH3 0x80C SWAP4 SWAP3 SWAP2 SWAP1 PUSH3 0xF18 JUMP JUMPDEST PUSH1 0x20 PUSH1 0x40 MLOAD DUP1 DUP4 SUB DUP2 PUSH1 0x0 DUP8 GAS CALL ISZERO DUP1 ISZERO PUSH3 0x82C JUMPI RETURNDATASIZE PUSH1 0x0 DUP1 RETURNDATACOPY RETURNDATASIZE PUSH1 0x0 REVERT JUMPDEST POP POP POP POP PUSH1 0x40 MLOAD RETURNDATASIZE PUSH1 0x1F NOT PUSH1 0x1F DUP3 ADD AND DUP3 ADD DUP1 PUSH1 0x40 MSTORE POP DUP2 ADD SWAP1 PUSH3 0x852 SWAP2 SWAP1 PUSH3 0xEC9 JUMP JUMPDEST POP JUMPDEST DUP5 PUSH20 0xFFFFFFFFFFFFFFFFFFFFFFFFFFFFFFFFFFFFFFFF AND PUSH3 0xAEEF8A DUP5 DUP6 DUP5 PUSH1 0x40 MLOAD DUP5 PUSH4 0xFFFFFFFF AND PUSH1 0xE0 SHL DUP2 MSTORE PUSH1 0x4 ADD PUSH3 0x892 SWAP4 SWAP3 SWAP2 SWAP1 PUSH3 0xF55 JUMP JUMPDEST PUSH1 0x0 PUSH1 0x40 MLOAD DUP1 DUP4 SUB DUP2 PUSH1 0x0 DUP8 DUP1 EXTCODESIZE ISZERO DUP1 ISZERO PUSH3 0x8AD JUMPI PUSH1 0x0 DUP1 REVERT JUMPDEST POP GAS CALL ISZERO DUP1 ISZERO PUSH3 0x8C2 JUMPI RETURNDATASIZE PUSH1 0x0 DUP1 RETURNDATACOPY RETURNDATASIZE PUSH1 0x0 REVERT JUMPDEST POP POP POP POP POP POP POP POP POP PUSH3 0x8D2 JUMP JUMPDEST JUMPDEST JUMP JUMPDEST PUSH1 0x0 PUSH20 0x8F3CF7AD23CD3CADBD9735AFF958023239C6A063 PUSH20 0xFFFFFFFFFFFFFFFFFFFFFFFFFFFFFFFFFFFFFFFF AND PUSH4 0xDD62ED3E CALLER ADDRESS PUSH1 0x40 MLOAD DUP4 PUSH4 0xFFFFFFFF AND PUSH1 0xE0 SHL DUP2 MSTORE PUSH1 0x4 ADD PUSH3 0x927 SWAP3 SWAP2 SWAP1 PUSH3 0xF92 JUMP JUMPDEST PUSH1 0x20 PUSH1 0x40 MLOAD DUP1 DUP4 SUB DUP2 DUP7 GAS STATICCALL ISZERO DUP1 ISZERO PUSH3 0x945 JUMPI RETURNDATASIZE PUSH1 0x0 DUP1 RETURNDATACOPY RETURNDATASIZE PUSH1 0x0 REVERT JUMPDEST POP POP POP POP PUSH1 0x40 MLOAD RETURNDATASIZE PUSH1 0x1F NOT PUSH1 0x1F DUP3 ADD AND DUP3 ADD DUP1 PUSH1 0x40 MSTORE POP DUP2 ADD SWAP1 PUSH3 0x96B SWAP2 SWAP1 PUSH3 0xFD6 JUMP JUMPDEST SWAP1 POP PUSH1 0x0 PUSH20 0x2791BCA1F2DE4661ED88A30C99A7A9449AA84174 PUSH20 0xFFFFFFFFFFFFFFFFFFFFFFFFFFFFFFFFFFFFFFFF AND PUSH4 0xDD62ED3E CALLER ADDRESS PUSH1 0x40 MLOAD DUP4 PUSH4 0xFFFFFFFF AND PUSH1 0xE0 SHL DUP2 MSTORE PUSH1 0x4 ADD PUSH3 0x9C0 SWAP3 SWAP2 SWAP1 PUSH3 0xF92 JUMP JUMPDEST PUSH1 0x20 PUSH1 0x40 MLOAD DUP1 DUP4 SUB DUP2 DUP7 GAS STATICCALL ISZERO DUP1 ISZERO PUSH3 0x9DE JUMPI RETURNDATASIZE PUSH1 0x0 DUP1 RETURNDATACOPY RETURNDATASIZE PUSH1 0x0 REVERT JUMPDEST POP POP POP POP PUSH1 0x40 MLOAD RETURNDATASIZE PUSH1 0x1F NOT PUSH1 0x1F DUP3 ADD AND DUP3 ADD DUP1 PUSH1 0x40 MSTORE POP DUP2 ADD SWAP1 PUSH3 0xA04 SWAP2 SWAP1 PUSH3 0xFD6 JUMP JUMPDEST SWAP1 POP PUSH1 0x0 PUSH20 0xC2132D05D31C914A87C6611C10748AEB04B58E8F PUSH20 0xFFFFFFFFFFFFFFFFFFFFFFFFFFFFFFFFFFFFFFFF AND PUSH4 0xDD62ED3E CALLER ADDRESS PUSH1 0x40 MLOAD DUP4 PUSH4 0xFFFFFFFF AND PUSH1 0xE0 SHL DUP2 MSTORE PUSH1 0x4 ADD PUSH3 0xA59 SWAP3 SWAP2 SWAP1 PUSH3 0xF92 JUMP JUMPDEST PUSH1 0x20 PUSH1 0x40 MLOAD DUP1 DUP4 SUB DUP2 DUP7 GAS STATICCALL ISZERO DUP1 ISZERO PUSH3 0xA77 JUMPI RETURNDATASIZE PUSH1 0x0 DUP1 RETURNDATACOPY RETURNDATASIZE PUSH1 0x0 REVERT JUMPDEST POP POP POP POP PUSH1 0x40 MLOAD RETURNDATASIZE PUSH1 0x1F NOT PUSH1 0x1F DUP3 ADD AND DUP3 ADD DUP1 PUSH1 0x40 MSTORE POP DUP2 ADD SWAP1 PUSH3 0xA9D SWAP2 SWAP1 PUSH3 0xFD6 JUMP JUMPDEST SWAP1 POP PUSH1 0x0 DUP4 GT ISZERO PUSH3 0xB88 JUMPI PUSH20 0x8F3CF7AD23CD3CADBD9735AFF958023239C6A063 PUSH20 0xFFFFFFFFFFFFFFFFFFFFFFFFFFFFFFFFFFFFFFFF AND PUSH4 0x23B872DD CALLER ADDRESS DUP7 PUSH1 0x40 MLOAD DUP5 PUSH4 0xFFFFFFFF AND PUSH1 0xE0 SHL DUP2 MSTORE PUSH1 0x4 ADD PUSH3 0xAFC SWAP4 SWAP3 SWAP2 SWAP1 PUSH3 0xF18 JUMP JUMPDEST PUSH1 0x20 PUSH1 0x40 MLOAD DUP1 DUP4 SUB DUP2 PUSH1 0x0 DUP8 GAS CALL ISZERO DUP1 ISZERO PUSH3 0xB1C JUMPI RETURNDATASIZE PUSH1 0x0 DUP1 RETURNDATACOPY RETURNDATASIZE PUSH1 0x0 REVERT JUMPDEST POP POP POP POP PUSH1 0x40 MLOAD RETURNDATASIZE PUSH1 0x1F NOT PUSH1 0x1F DUP3 ADD AND DUP3 ADD DUP1 PUSH1 0x40 MSTORE POP DUP2 ADD SWAP1 PUSH3 0xB42 SWAP2 SWAP1 PUSH3 0xEC9 JUMP JUMPDEST POP DUP3 PUSH1 0x2 PUSH1 0x0 CALLER PUSH20 0xFFFFFFFFFFFFFFFFFFFFFFFFFFFFFFFFFFFFFFFF AND PUSH20 0xFFFFFFFFFFFFFFFFFFFFFFFFFFFFFFFFFFFFFFFF AND DUP2 MSTORE PUSH1 0x20 ADD SWAP1 DUP2 MSTORE PUSH1 0x20 ADD PUSH1 0x0 KECCAK256 DUP2 SWAP1 SSTORE POP JUMPDEST PUSH1 0x0 DUP3 GT ISZERO PUSH3 0xC71 JUMPI PUSH20 0x2791BCA1F2DE4661ED88A30C99A7A9449AA84174 PUSH20 0xFFFFFFFFFFFFFFFFFFFFFFFFFFFFFFFFFFFFFFFF AND PUSH4 0x23B872DD CALLER ADDRESS DUP6 PUSH1 0x40 MLOAD DUP5 PUSH4 0xFFFFFFFF AND PUSH1 0xE0 SHL DUP2 MSTORE PUSH1 0x4 ADD PUSH3 0xBE5 SWAP4 SWAP3 SWAP2 SWAP1 PUSH3 0xF18 JUMP JUMPDEST PUSH1 0x20 PUSH1 0x40 MLOAD DUP1 DUP4 SUB DUP2 PUSH1 0x0 DUP8 GAS CALL ISZERO DUP1 ISZERO PUSH3 0xC05 JUMPI RETURNDATASIZE PUSH1 0x0 DUP1 RETURNDATACOPY RETURNDATASIZE PUSH1 0x0 REVERT JUMPDEST POP POP POP POP PUSH1 0x40 MLOAD RETURNDATASIZE PUSH1 0x1F NOT PUSH1 0x1F DUP3 ADD AND DUP3 ADD DUP1 PUSH1 0x40 MSTORE POP DUP2 ADD SWAP1 PUSH3 0xC2B SWAP2 SWAP1 PUSH3 0xEC9 JUMP JUMPDEST POP DUP2 PUSH1 0x3 PUSH1 0x0 CALLER PUSH20 0xFFFFFFFFFFFFFFFFFFFFFFFFFFFFFFFFFFFFFFFF AND PUSH20 0xFFFFFFFFFFFFFFFFFFFFFFFFFFFFFFFFFFFFFFFF AND DUP2 MSTORE PUSH1 0x20 ADD SWAP1 DUP2 MSTORE PUSH1 0x20 ADD PUSH1 0x0 KECCAK256 DUP2 SWAP1 SSTORE POP JUMPDEST PUSH1 0x0 DUP2 GT ISZERO PUSH3 0xD5A JUMPI PUSH20 0xC2132D05D31C914A87C6611C10748AEB04B58E8F PUSH20 0xFFFFFFFFFFFFFFFFFFFFFFFFFFFFFFFFFFFFFFFF AND PUSH4 0x23B872DD CALLER ADDRESS DUP5 PUSH1 0x40 MLOAD DUP5 PUSH4 0xFFFFFFFF AND PUSH1 0xE0 SHL DUP2 MSTORE PUSH1 0x4 ADD PUSH3 0xCCE SWAP4 SWAP3 SWAP2 SWAP1 PUSH3 0xF18 JUMP JUMPDEST PUSH1 0x20 PUSH1 0x40 MLOAD DUP1 DUP4 SUB DUP2 PUSH1 0x0 DUP8 GAS CALL ISZERO DUP1 ISZERO PUSH3 0xCEE JUMPI RETURNDATASIZE PUSH1 0x0 DUP1 RETURNDATACOPY RETURNDATASIZE PUSH1 0x0 REVERT JUMPDEST POP POP POP POP PUSH1 0x40 MLOAD RETURNDATASIZE PUSH1 0x1F NOT PUSH1 0x1F DUP3 ADD AND DUP3 ADD DUP1 PUSH1 0x40 MSTORE POP DUP2 ADD SWAP1 PUSH3 0xD14 SWAP2 SWAP1 PUSH3 0xEC9 JUMP JUMPDEST POP DUP1 PUSH1 0x4 PUSH1 0x0 CALLER PUSH20 0xFFFFFFFFFFFFFFFFFFFFFFFFFFFFFFFFFFFFFFFF AND PUSH20 0xFFFFFFFFFFFFFFFFFFFFFFFFFFFFFFFFFFFFFFFF AND DUP2 MSTORE PUSH1 0x20 ADD SWAP1 DUP2 MSTORE PUSH1 0x20 ADD PUSH1 0x0 KECCAK256 DUP2 SWAP1 SSTORE POP JUMPDEST POP POP POP JUMP JUMPDEST PUSH2 0x6E7 DUP1 PUSH3 0x1009 DUP4 CODECOPY ADD SWAP1 JUMP JUMPDEST PUSH1 0x0 DUP1 REVERT JUMPDEST PUSH1 0x0 DUP2 SWAP1 POP SWAP2 SWAP1 POP JUMP JUMPDEST PUSH3 0xD87 DUP2 PUSH3 0xD72 JUMP JUMPDEST DUP2 EQ PUSH3 0xD93 JUMPI PUSH1 0x0 DUP1 REVERT JUMPDEST POP JUMP JUMPDEST PUSH1 0x0 DUP2 CALLDATALOAD SWAP1 POP PUSH3 0xDA7 DUP2 PUSH3 0xD7C JUMP JUMPDEST SWAP3 SWAP2 POP POP JUMP JUMPDEST PUSH1 0x0 DUP1 PUSH1 0x0 PUSH1 0x60 DUP5 DUP7 SUB SLT ISZERO PUSH3 0xDC9 JUMPI PUSH3 0xDC8 PUSH3 0xD6D JUMP JUMPDEST JUMPDEST PUSH1 0x0 PUSH3 0xDD9 DUP7 DUP3 DUP8 ADD PUSH3 0xD96 JUMP JUMPDEST SWAP4 POP POP PUSH1 0x20 PUSH3 0xDEC DUP7 DUP3 DUP8 ADD PUSH3 0xD96 JUMP JUMPDEST SWAP3 POP POP PUSH1 0x40 PUSH3 0xDFF DUP7 DUP3 DUP8 ADD PUSH3 0xD96 JUMP JUMPDEST SWAP2 POP POP SWAP3 POP SWAP3 POP SWAP3 JUMP JUMPDEST PUSH1 0x0 PUSH20 0xFFFFFFFFFFFFFFFFFFFFFFFFFFFFFFFFFFFFFFFF DUP3 AND SWAP1 POP SWAP2 SWAP1 POP JUMP JUMPDEST PUSH1 0x0 PUSH3 0xE36 DUP3 PUSH3 0xE09 JUMP JUMPDEST SWAP1 POP SWAP2 SWAP1 POP JUMP JUMPDEST PUSH3 0xE48 DUP2 PUSH3 0xE29 JUMP JUMPDEST DUP3 MSTORE POP POP JUMP JUMPDEST PUSH3 0xE59 DUP2 PUSH3 0xD72 JUMP JUMPDEST DUP3 MSTORE POP POP JUMP JUMPDEST PUSH1 0x0 PUSH1 0x40 DUP3 ADD SWAP1 POP PUSH3 0xE76 PUSH1 0x0 DUP4 ADD DUP6 PUSH3 0xE3D JUMP JUMPDEST PUSH3 0xE85 PUSH1 0x20 DUP4 ADD DUP5 PUSH3 0xE4E JUMP JUMPDEST SWAP4 SWAP3 POP POP POP JUMP JUMPDEST PUSH1 0x0 DUP2 ISZERO ISZERO SWAP1 POP SWAP2 SWAP1 POP JUMP JUMPDEST PUSH3 0xEA3 DUP2 PUSH3 0xE8C JUMP JUMPDEST DUP2 EQ PUSH3 0xEAF JUMPI PUSH1 0x0 DUP1 REVERT JUMPDEST POP JUMP JUMPDEST PUSH1 0x0 DUP2 MLOAD SWAP1 POP PUSH3 0xEC3 DUP2 PUSH3 0xE98 JUMP JUMPDEST SWAP3 SWAP2 POP POP JUMP JUMPDEST PUSH1 0x0 PUSH1 0x20 DUP3 DUP5 SUB SLT ISZERO PUSH3 0xEE2 JUMPI PUSH3 0xEE1 PUSH3 0xD6D JUMP JUMPDEST JUMPDEST PUSH1 0x0 PUSH3 0xEF2 DUP5 DUP3 DUP6 ADD PUSH3 0xEB2 JUMP JUMPDEST SWAP2 POP POP SWAP3 SWAP2 POP POP JUMP JUMPDEST PUSH1 0x0 PUSH1 0x20 DUP3 ADD SWAP1 POP PUSH3 0xF12 PUSH1 0x0 DUP4 ADD DUP5 PUSH3 0xE3D JUMP JUMPDEST SWAP3 SWAP2 POP POP JUMP JUMPDEST PUSH1 0x0 PUSH1 0x60 DUP3 ADD SWAP1 POP PUSH3 0xF2F PUSH1 0x0 DUP4 ADD DUP7 PUSH3 0xE3D JUMP JUMPDEST PUSH3 0xF3E PUSH1 0x20 DUP4 ADD DUP6 PUSH3 0xE3D JUMP JUMPDEST PUSH3 0xF4D PUSH1 0x40 DUP4 ADD DUP5 PUSH3 0xE4E JUMP JUMPDEST SWAP5 SWAP4 POP POP POP POP JUMP JUMPDEST PUSH1 0x0 PUSH1 0x60 DUP3 ADD SWAP1 POP PUSH3 0xF6C PUSH1 0x0 DUP4 ADD DUP7 PUSH3 0xE4E JUMP JUMPDEST PUSH3 0xF7B PUSH1 0x20 DUP4 ADD DUP6 PUSH3 0xE4E JUMP JUMPDEST PUSH3 0xF8A PUSH1 0x40 DUP4 ADD DUP5 PUSH3 0xE4E JUMP JUMPDEST SWAP5 SWAP4 POP POP POP POP JUMP JUMPDEST PUSH1 0x0 PUSH1 0x40 DUP3 ADD SWAP1 POP PUSH3 0xFA9 PUSH1 0x0 DUP4 ADD DUP6 PUSH3 0xE3D JUMP JUMPDEST PUSH3 0xFB8 PUSH1 0x20 DUP4 ADD DUP5 PUSH3 0xE3D JUMP JUMPDEST SWAP4 SWAP3 POP POP POP JUMP JUMPDEST PUSH1 0x0 DUP2 MLOAD SWAP1 POP PUSH3 0xFD0 DUP2 PUSH3 0xD7C JUMP JUMPDEST SWAP3 SWAP2 POP POP JUMP JUMPDEST PUSH1 0x0 PUSH1 0x20 DUP3 DUP5 SUB SLT ISZERO PUSH3 0xFEF JUMPI PUSH3 0xFEE PUSH3 0xD6D JUMP JUMPDEST JUMPDEST PUSH1 0x0 PUSH3 0xFFF DUP5 DUP3 DUP6 ADD PUSH3 0xFBF JUMP JUMPDEST SWAP2 POP POP SWAP3 SWAP2 POP POP JUMP INVALID PUSH1 0x80 PUSH1 0x40 MSTORE PUSH20 0x2791BCA1F2DE4661ED88A30C99A7A9449AA84174 PUSH1 0x0 DUP1 PUSH2 0x100 EXP DUP2 SLOAD DUP2 PUSH20 0xFFFFFFFFFFFFFFFFFFFFFFFFFFFFFFFFFFFFFFFF MUL NOT AND SWAP1 DUP4 PUSH20 0xFFFFFFFFFFFFFFFFFFFFFFFFFFFFFFFFFFFFFFFF AND MUL OR SWAP1 SSTORE POP PUSH20 0x8F3CF7AD23CD3CADBD9735AFF958023239C6A063 PUSH1 0x1 PUSH1 0x0 PUSH2 0x100 EXP DUP2 SLOAD DUP2 PUSH20 0xFFFFFFFFFFFFFFFFFFFFFFFFFFFFFFFFFFFFFFFF MUL NOT AND SWAP1 DUP4 PUSH20 0xFFFFFFFFFFFFFFFFFFFFFFFFFFFFFFFFFFFFFFFF AND MUL OR SWAP1 SSTORE POP PUSH20 0xC2132D05D31C914A87C6611C10748AEB04B58E8F PUSH1 0x2 PUSH1 0x0 PUSH2 0x100 EXP DUP2 SLOAD DUP2 PUSH20 0xFFFFFFFFFFFFFFFFFFFFFFFFFFFFFFFFFFFFFFFF MUL NOT AND SWAP1 DUP4 PUSH20 0xFFFFFFFFFFFFFFFFFFFFFFFFFFFFFFFFFFFFFFFF AND MUL OR SWAP1 SSTORE POP PUSH20 0xD05E3E715D945B59290DF0AE8EF85C1BDB684744 PUSH20 0xFFFFFFFFFFFFFFFFFFFFFFFFFFFFFFFFFFFFFFFF AND PUSH4 0x261BF8B PUSH1 0x40 MLOAD DUP2 PUSH4 0xFFFFFFFF AND PUSH1 0xE0 SHL DUP2 MSTORE PUSH1 0x4 ADD PUSH1 0x20 PUSH1 0x40 MLOAD DUP1 DUP4 SUB DUP2 DUP7 GAS STATICCALL ISZERO DUP1 ISZERO PUSH2 0x161 JUMPI RETURNDATASIZE PUSH1 0x0 DUP1 RETURNDATACOPY RETURNDATASIZE PUSH1 0x0 REVERT JUMPDEST POP POP POP POP PUSH1 0x40 MLOAD RETURNDATASIZE PUSH1 0x1F NOT PUSH1 0x1F DUP3 ADD AND DUP3 ADD DUP1 PUSH1 0x40 MSTORE POP DUP2 ADD SWAP1 PUSH2 0x185 SWAP2 SWAP1 PUSH2 0x310 JUMP JUMPDEST PUSH1 0x3 PUSH1 0x0 PUSH2 0x100 EXP DUP2 SLOAD DUP2 PUSH20 0xFFFFFFFFFFFFFFFFFFFFFFFFFFFFFFFFFFFFFFFF MUL NOT AND SWAP1 DUP4 PUSH20 0xFFFFFFFFFFFFFFFFFFFFFFFFFFFFFFFFFFFFFFFF AND MUL OR SWAP1 SSTORE POP PUSH1 0x0 PUSH1 0x3 PUSH1 0x14 PUSH2 0x100 EXP DUP2 SLOAD DUP2 PUSH2 0xFFFF MUL NOT AND SWAP1 DUP4 PUSH2 0xFFFF AND MUL OR SWAP1 SSTORE POP PUSH20 0x445FE580EF8D70FF569AB36E80C647AF338DB351 PUSH1 0x4 PUSH1 0x0 PUSH2 0x100 EXP DUP2 SLOAD DUP2 PUSH20 0xFFFFFFFFFFFFFFFFFFFFFFFFFFFFFFFFFFFFFFFF MUL NOT AND SWAP1 DUP4 PUSH20 0xFFFFFFFFFFFFFFFFFFFFFFFFFFFFFFFFFFFFFFFF AND MUL OR SWAP1 SSTORE POP CALLVALUE DUP1 ISZERO PUSH2 0x244 JUMPI PUSH1 0x0 DUP1 REVERT JUMPDEST POP PUSH1 0x40 MLOAD PUSH2 0x6E7 CODESIZE SUB DUP1 PUSH2 0x6E7 DUP4 CODECOPY DUP2 DUP2 ADD PUSH1 0x40 MSTORE DUP2 ADD SWAP1 PUSH2 0x266 SWAP2 SWAP1 PUSH2 0x310 JUMP JUMPDEST DUP1 PUSH1 0x5 PUSH1 0x0 PUSH2 0x100 EXP DUP2 SLOAD DUP2 PUSH20 0xFFFFFFFFFFFFFFFFFFFFFFFFFFFFFFFFFFFFFFFF MUL NOT AND SWAP1 DUP4 PUSH20 0xFFFFFFFFFFFFFFFFFFFFFFFFFFFFFFFFFFFFFFFF AND MUL OR SWAP1 SSTORE POP POP PUSH2 0x33D JUMP JUMPDEST PUSH1 0x0 DUP1 REVERT JUMPDEST PUSH1 0x0 PUSH20 0xFFFFFFFFFFFFFFFFFFFFFFFFFFFFFFFFFFFFFFFF DUP3 AND SWAP1 POP SWAP2 SWAP1 POP JUMP JUMPDEST PUSH1 0x0 PUSH2 0x2DD DUP3 PUSH2 0x2B2 JUMP JUMPDEST SWAP1 POP SWAP2 SWAP1 POP JUMP JUMPDEST PUSH2 0x2ED DUP2 PUSH2 0x2D2 JUMP JUMPDEST DUP2 EQ PUSH2 0x2F8 JUMPI PUSH1 0x0 DUP1 REVERT JUMPDEST POP JUMP JUMPDEST PUSH1 0x0 DUP2 MLOAD SWAP1 POP PUSH2 0x30A DUP2 PUSH2 0x2E4 JUMP JUMPDEST SWAP3 SWAP2 POP POP JUMP JUMPDEST PUSH1 0x0 PUSH1 0x20 DUP3 DUP5 SUB SLT ISZERO PUSH2 0x326 JUMPI PUSH2 0x325 PUSH2 0x2AD JUMP JUMPDEST JUMPDEST PUSH1 0x0 PUSH2 0x334 DUP5 DUP3 DUP6 ADD PUSH2 0x2FB JUMP JUMPDEST SWAP2 POP POP SWAP3 SWAP2 POP POP JUMP JUMPDEST PUSH2 0x39B DUP1 PUSH2 0x34C PUSH1 0x0 CODECOPY PUSH1 0x0 RETURN INVALID PUSH1 0x80 PUSH1 0x40 MSTORE CALLVALUE DUP1 ISZERO PUSH2 0x10 JUMPI PUSH1 0x0 DUP1 REVERT JUMPDEST POP PUSH1 0x4 CALLDATASIZE LT PUSH2 0x2A JUMPI PUSH1 0x0 CALLDATALOAD PUSH1 0xE0 SHR DUP1 PUSH3 0xAEEF8A EQ PUSH2 0x2F JUMPI JUMPDEST PUSH1 0x0 DUP1 REVERT JUMPDEST PUSH2 0x49 PUSH1 0x4 DUP1 CALLDATASIZE SUB DUP2 ADD SWAP1 PUSH2 0x44 SWAP2 SWAP1 PUSH2 0x1B7 JUMP JUMPDEST PUSH2 0x4B JUMP JUMPDEST STOP JUMPDEST PUSH1 0x5 PUSH1 0x0 SWAP1 SLOAD SWAP1 PUSH2 0x100 EXP SWAP1 DIV PUSH20 0xFFFFFFFFFFFFFFFFFFFFFFFFFFFFFFFFFFFFFFFF AND PUSH20 0xFFFFFFFFFFFFFFFFFFFFFFFFFFFFFFFFFFFFFFFF AND CALLER PUSH20 0xFFFFFFFFFFFFFFFFFFFFFFFFFFFFFFFFFFFFFFFF AND EQ PUSH2 0xA5 JUMPI PUSH1 0x0 DUP1 REVERT JUMPDEST PUSH2 0xB0 DUP4 DUP4 DUP4 PUSH2 0xB5 JUMP JUMPDEST POP POP POP JUMP JUMPDEST PUSH1 0x0 PUSH1 0x40 MLOAD DUP1 PUSH1 0x60 ADD PUSH1 0x40 MSTORE DUP1 DUP6 DUP2 MSTORE PUSH1 0x20 ADD DUP5 DUP2 MSTORE PUSH1 0x20 ADD DUP4 DUP2 MSTORE POP SWAP1 POP PUSH1 0x4 PUSH1 0x0 SWAP1 SLOAD SWAP1 PUSH2 0x100 EXP SWAP1 DIV PUSH20 0xFFFFFFFFFFFFFFFFFFFFFFFFFFFFFFFFFFFFFFFF AND PUSH20 0xFFFFFFFFFFFFFFFFFFFFFFFFFFFFFFFFFFFFFFFF AND PUSH4 0x4515CEF3 DUP3 PUSH1 0x0 PUSH1 0x40 MLOAD DUP4 PUSH4 0xFFFFFFFF AND PUSH1 0xE0 SHL DUP2 MSTORE PUSH1 0x4 ADD PUSH2 0x132 SWAP3 SWAP2 SWAP1 PUSH2 0x2FA JUMP JUMPDEST PUSH1 0x20 PUSH1 0x40 MLOAD DUP1 DUP4 SUB DUP2 PUSH1 0x0 DUP8 GAS CALL ISZERO DUP1 ISZERO PUSH2 0x151 JUMPI RETURNDATASIZE PUSH1 0x0 DUP1 RETURNDATACOPY RETURNDATASIZE PUSH1 0x0 REVERT JUMPDEST POP POP POP POP PUSH1 0x40 MLOAD RETURNDATASIZE PUSH1 0x1F NOT PUSH1 0x1F DUP3 ADD AND DUP3 ADD DUP1 PUSH1 0x40 MSTORE POP DUP2 ADD SWAP1 PUSH2 0x175 SWAP2 SWAP1 PUSH2 0x338 JUMP JUMPDEST POP POP POP POP POP JUMP JUMPDEST PUSH1 0x0 DUP1 REVERT JUMPDEST PUSH1 0x0 DUP2 SWAP1 POP SWAP2 SWAP1 POP JUMP JUMPDEST PUSH2 0x194 DUP2 PUSH2 0x181 JUMP JUMPDEST DUP2 EQ PUSH2 0x19F JUMPI PUSH1 0x0 DUP1 REVERT JUMPDEST POP JUMP JUMPDEST PUSH1 0x0 DUP2 CALLDATALOAD SWAP1 POP PUSH2 0x1B1 DUP2 PUSH2 0x18B JUMP JUMPDEST SWAP3 SWAP2 POP POP JUMP JUMPDEST PUSH1 0x0 DUP1 PUSH1 0x0 PUSH1 0x60 DUP5 DUP7 SUB SLT ISZERO PUSH2 0x1D0 JUMPI PUSH2 0x1CF PUSH2 0x17C JUMP JUMPDEST JUMPDEST PUSH1 0x0 PUSH2 0x1DE DUP7 DUP3 DUP8 ADD PUSH2 0x1A2 JUMP JUMPDEST SWAP4 POP POP PUSH1 0x20 PUSH2 0x1EF DUP7 DUP3 DUP8 ADD PUSH2 0x1A2 JUMP JUMPDEST SWAP3 POP POP PUSH1 0x40 PUSH2 0x200 DUP7 DUP3 DUP8 ADD PUSH2 0x1A2 JUMP JUMPDEST SWAP2 POP POP SWAP3 POP SWAP3 POP SWAP3 JUMP JUMPDEST PUSH1 0x0 PUSH1 0x3 SWAP1 POP SWAP2 SWAP1 POP JUMP JUMPDEST PUSH1 0x0 DUP2 SWAP1 POP SWAP3 SWAP2 POP POP JUMP JUMPDEST PUSH1 0x0 DUP2 SWAP1 POP SWAP2 SWAP1 POP JUMP JUMPDEST PUSH2 0x233 DUP2 PUSH2 0x181 JUMP JUMPDEST DUP3 MSTORE POP POP JUMP JUMPDEST PUSH1 0x0 PUSH2 0x245 DUP4 DUP4 PUSH2 0x22A JUMP JUMPDEST PUSH1 0x20 DUP4 ADD SWAP1 POP SWAP3 SWAP2 POP POP JUMP JUMPDEST PUSH1 0x0 PUSH1 0x20 DUP3 ADD SWAP1 POP SWAP2 SWAP1 POP JUMP JUMPDEST PUSH2 0x267 DUP2 PUSH2 0x20A JUMP JUMPDEST PUSH2 0x271 DUP2 DUP5 PUSH2 0x215 JUMP JUMPDEST SWAP3 POP PUSH2 0x27C DUP3 PUSH2 0x220 JUMP JUMPDEST DUP1 PUSH1 0x0 JUMPDEST DUP4 DUP2 LT ISZERO PUSH2 0x2AD JUMPI DUP2 MLOAD PUSH2 0x294 DUP8 DUP3 PUSH2 0x239 JUMP JUMPDEST SWAP7 POP PUSH2 0x29F DUP4 PUSH2 0x251 JUMP JUMPDEST SWAP3 POP POP PUSH1 0x1 DUP2 ADD SWAP1 POP PUSH2 0x280 JUMP JUMPDEST POP POP POP POP POP POP JUMP JUMPDEST PUSH1 0x0 DUP2 SWAP1 POP SWAP2 SWAP1 POP JUMP JUMPDEST PUSH1 0x0 DUP2 SWAP1 POP SWAP2 SWAP1 POP JUMP JUMPDEST PUSH1 0x0 PUSH2 0x2E4 PUSH2 0x2DF PUSH2 0x2DA DUP5 PUSH2 0x2B5 JUMP JUMPDEST PUSH2 0x2BF JUMP JUMPDEST PUSH2 0x181 JUMP JUMPDEST SWAP1 POP SWAP2 SWAP1 POP JUMP JUMPDEST PUSH2 0x2F4 DUP2 PUSH2 0x2C9 JUMP JUMPDEST DUP3 MSTORE POP POP JUMP JUMPDEST PUSH1 0x0 PUSH1 0x80 DUP3 ADD SWAP1 POP PUSH2 0x30F PUSH1 0x0 DUP4 ADD DUP6 PUSH2 0x25E JUMP JUMPDEST PUSH2 0x31C PUSH1 0x60 DUP4 ADD DUP5 PUSH2 0x2EB JUMP JUMPDEST SWAP4 SWAP3 POP POP POP JUMP JUMPDEST PUSH1 0x0 DUP2 MLOAD SWAP1 POP PUSH2 0x332 DUP2 PUSH2 0x18B JUMP JUMPDEST SWAP3 SWAP2 POP POP JUMP JUMPDEST PUSH1 0x0 PUSH1 0x20 DUP3 DUP5 SUB SLT ISZERO PUSH2 0x34E JUMPI PUSH2 0x34D PUSH2 0x17C JUMP JUMPDEST JUMPDEST PUSH1 0x0 PUSH2 0x35C DUP5 DUP3 DUP6 ADD PUSH2 0x323 JUMP JUMPDEST SWAP2 POP POP SWAP3 SWAP2 POP POP JUMP INVALID LOG2 PUSH5 0x6970667358 0x22 SLT KECCAK256 PUSH24 0xED3A47D2595CB5D12EAC94B0A4644CBA2ADDD89397C688D5 0xE3 DUP1 0x4B RETURNDATACOPY SELFDESTRUCT SWAP3 DUP6 PUSH5 0x736F6C6343 STOP ADDMOD GT STOP CALLER LOG2 PUSH5 0x6970667358 0x22 SLT KECCAK256 PUSH28 0xA32DED3BE59851E8DCFF9F27AFD4A0B551E780A09897581D43D4639F 0x25 SWAP8 SWAP8 PUSH5 0x736F6C6343 STOP ADDMOD GT STOP CALLER "
				},
				"gasEstimates": {
					"creation": {
						"codeDepositCost": "1185000",
						"executionCost": "1234",
						"totalCost": "1186234"
					},
					"external": {
						"approveDeposit(uint256,uint256,uint256)": "infinite",
						"deposit()": "infinite",
						"withdraw()": "144"
					},
					"internal": {
						"mintNFT()": "infinite",
						"tokenDeposit()": "infinite"
					}
				},
				"methodIdentifiers": {
					"approveDeposit(uint256,uint256,uint256)": "0f87bbcc",
					"deposit()": "d0e30db0",
					"withdraw()": "3ccfd60b"
				}
			},
			"storageLayout": {
				"storage": [
					{
						"astId": 147,
						"contract": "SAAVE.sol:SAAVEFactory",
						"label": "totalFlowed",
						"offset": 0,
						"slot": "0",
						"type": "t_uint256"
					},
					{
						"astId": 161,
						"contract": "SAAVE.sol:SAAVEFactory",
						"label": "addressToReceiver",
						"offset": 0,
						"slot": "1",
						"type": "t_mapping(t_address,t_contract(SAAVE_Receiver)559)"
					},
					{
						"astId": 165,
						"contract": "SAAVE.sol:SAAVEFactory",
						"label": "addressDaiDeposit",
						"offset": 0,
						"slot": "2",
						"type": "t_mapping(t_address,t_uint256)"
					},
					{
						"astId": 169,
						"contract": "SAAVE.sol:SAAVEFactory",
						"label": "addressUSDCDeposit",
						"offset": 0,
						"slot": "3",
						"type": "t_mapping(t_address,t_uint256)"
					},
					{
						"astId": 173,
						"contract": "SAAVE.sol:SAAVEFactory",
						"label": "addressUSDTDeposit",
						"offset": 0,
						"slot": "4",
						"type": "t_mapping(t_address,t_uint256)"
					}
				],
				"types": {
					"t_address": {
						"encoding": "inplace",
						"label": "address",
						"numberOfBytes": "20"
					},
					"t_contract(SAAVE_Receiver)559": {
						"encoding": "inplace",
						"label": "contract SAAVE_Receiver",
						"numberOfBytes": "20"
					},
					"t_mapping(t_address,t_contract(SAAVE_Receiver)559)": {
						"encoding": "mapping",
						"key": "t_address",
						"label": "mapping(address => contract SAAVE_Receiver)",
						"numberOfBytes": "32",
						"value": "t_contract(SAAVE_Receiver)559"
					},
					"t_mapping(t_address,t_uint256)": {
						"encoding": "mapping",
						"key": "t_address",
						"label": "mapping(address => uint256)",
						"numberOfBytes": "32",
						"value": "t_uint256"
					},
					"t_uint256": {
						"encoding": "inplace",
						"label": "uint256",
						"numberOfBytes": "32"
					}
				}
			},
			"userdoc": {
				"kind": "user",
				"methods": {},
				"version": 1
			}
		}
	}
}