{
	"contracts/SAAVE_Receiver.sol": {
		"SAAVE_Receiver": {
			"abi": [
				{
					"inputs": [
						{
							"internalType": "address",
							"name": "SAAVEFactory",
							"type": "address"
						},
						{
							"internalType": "address",
							"name": "_owner",
							"type": "address"
						}
					],
					"stateMutability": "nonpayable",
					"type": "constructor"
				},
				{
					"inputs": [
						{
							"internalType": "uint256",
							"name": "_daiAmount",
							"type": "uint256"
						},
						{
							"internalType": "uint256",
							"name": "_USDCAmount",
							"type": "uint256"
						},
						{
							"internalType": "uint256",
							"name": "_USDTAmount",
							"type": "uint256"
						}
					],
					"name": "deposit",
					"outputs": [],
					"stateMutability": "nonpayable",
					"type": "function"
				},
				{
					"inputs": [],
					"name": "harvest",
					"outputs": [],
					"stateMutability": "nonpayable",
					"type": "function"
				},
				{
					"inputs": [],
					"name": "withdrawAll",
					"outputs": [],
					"stateMutability": "nonpayable",
					"type": "function"
				}
			],
			"devdoc": {
				"kind": "dev",
				"methods": {},
				"version": 1
			},
			"evm": {
				"assembly": "    /* \"contracts/SAAVE_Receiver.sol\":408:2645  contract SAAVE_Receiver is curveActions, AAVEActions {... */\n  mstore(0x40, 0x80)\n    /* \"contracts/curveActions.sol\":298:340  0x445FE580eF8d70FF569aB36e80c647af338db351 */\n  0x445fe580ef8d70ff569ab36e80c647af338db351\n    /* \"contracts/curveActions.sol\":270:340  address AAVECurvePoolAddr = 0x445FE580eF8d70FF569aB36e80c647af338db351 */\n  0x00\n  dup1\n  0x0100\n  exp\n  dup2\n  sload\n  dup2\n  0xffffffffffffffffffffffffffffffffffffffff\n  mul\n  not\n  and\n  swap1\n  dup4\n  0xffffffffffffffffffffffffffffffffffffffff\n  and\n  mul\n  or\n  swap1\n  sstore\n  pop\n    /* \"contracts/curveActions.sol\":387:404  AAVECurvePoolAddr */\n  0x00\n  dup1\n  sload\n  swap1\n  0x0100\n  exp\n  swap1\n  div\n  0xffffffffffffffffffffffffffffffffffffffff\n  and\n    /* \"contracts/curveActions.sol\":347:405  ICurve_Pool AAVECurvePool = ICurve_Pool(AAVECurvePoolAddr) */\n  0x01\n  exp(0x0100, 0x00)\n  dup2\n  sload\n  dup2\n  0xffffffffffffffffffffffffffffffffffffffff\n  mul\n  not\n  and\n  swap1\n  dup4\n  0xffffffffffffffffffffffffffffffffffffffff\n  and\n  mul\n  or\n  swap1\n  sstore\n  pop\n    /* \"contracts/curveActions.sol\":474:516  0x20759F567BB3EcDB55c817c9a1d13076aB215EdC */\n  0x20759f567bb3ecdb55c817c9a1d13076ab215edc\n    /* \"contracts/curveActions.sol\":444:516  address am3CRVGaugePoolAddr = 0x20759F567BB3EcDB55c817c9a1d13076aB215EdC */\n  0x02\n  exp(0x0100, 0x00)\n  dup2\n  sload\n  dup2\n  0xffffffffffffffffffffffffffffffffffffffff\n  mul\n  not\n  and\n  swap1\n  dup4\n  0xffffffffffffffffffffffffffffffffffffffff\n  and\n  mul\n  or\n  swap1\n  sstore\n  pop\n    /* \"contracts/curveActions.sol\":571:613  0x20759F567BB3EcDB55c817c9a1d13076aB215EdC */\n  0x20759f567bb3ecdb55c817c9a1d13076ab215edc\n    /* \"contracts/curveActions.sol\":523:614  ILiquidityGaugeV3 gaugePool = ILiquidityGaugeV3(0x20759F567BB3EcDB55c817c9a1d13076aB215EdC) */\n  0x03\n  exp(0x0100, 0x00)\n  dup2\n  sload\n  dup2\n  0xffffffffffffffffffffffffffffffffffffffff\n  mul\n  not\n  and\n  swap1\n  dup4\n  0xffffffffffffffffffffffffffffffffffffffff\n  and\n  mul\n  or\n  swap1\n  sstore\n  pop\n    /* \"contracts/curveActions.sol\":680:722  0xc7c939A474CB10EB837894D1ed1a77C61B268Fa7 */\n  0xc7c939a474cb10eb837894d1ed1a77c61b268fa7\n    /* \"contracts/curveActions.sol\":649:722  address CRVTricryptoPoolAddr = 0xc7c939A474CB10EB837894D1ed1a77C61B268Fa7 */\n  0x04\n  exp(0x0100, 0x00)\n  dup2\n  sload\n  dup2\n  0xffffffffffffffffffffffffffffffffffffffff\n  mul\n  not\n  and\n  swap1\n  dup4\n  0xffffffffffffffffffffffffffffffffffffffff\n  and\n  mul\n  or\n  swap1\n  sstore\n  pop\n    /* \"contracts/curveActions.sol\":766:786  CRVTricryptoPoolAddr */\n  0x04\n  0x00\n  swap1\n  sload\n  swap1\n  0x0100\n  exp\n  swap1\n  div\n  0xffffffffffffffffffffffffffffffffffffffff\n  and\n    /* \"contracts/curveActions.sol\":729:787  ICurve_Pool CRVTriPool = ICurve_Pool(CRVTricryptoPoolAddr) */\n  0x05\n  exp(0x0100, 0x00)\n  dup2\n  sload\n  dup2\n  0xffffffffffffffffffffffffffffffffffffffff\n  mul\n  not\n  and\n  swap1\n  dup4\n  0xffffffffffffffffffffffffffffffffffffffff\n  and\n  mul\n  or\n  swap1\n  sstore\n  pop\n    /* \"contracts/curveActions.sol\":846:888  0x92215849c439E1f8612b6646060B4E3E5ef822cC */\n  0x92215849c439e1f8612b6646060b4e3e5ef822cc\n    /* \"contracts/curveActions.sol\":818:888  address TricryptoPoolAddr = 0x92215849c439E1f8612b6646060B4E3E5ef822cC */\n  0x06\n  exp(0x0100, 0x00)\n  dup2\n  sload\n  dup2\n  0xffffffffffffffffffffffffffffffffffffffff\n  mul\n  not\n  and\n  swap1\n  dup4\n  0xffffffffffffffffffffffffffffffffffffffff\n  and\n  mul\n  or\n  swap1\n  sstore\n  pop\n    /* \"contracts/curveActions.sol\":935:952  TricryptoPoolAddr */\n  0x06\n  0x00\n  swap1\n  sload\n  swap1\n  0x0100\n  exp\n  swap1\n  div\n  0xffffffffffffffffffffffffffffffffffffffff\n  and\n    /* \"contracts/curveActions.sol\":895:953  ICurve_Pool TricryptoPool = ICurve_Pool(TricryptoPoolAddr) */\n  0x07\n  exp(0x0100, 0x00)\n  dup2\n  sload\n  dup2\n  0xffffffffffffffffffffffffffffffffffffffff\n  mul\n  not\n  and\n  swap1\n  dup4\n  0xffffffffffffffffffffffffffffffffffffffff\n  and\n  mul\n  or\n  swap1\n  sstore\n  pop\n    /* \"contracts/curveActions.sol\":982:1024  0xE7a24EF0C5e95Ffb0f6684b813A78F2a3AD7D171 */\n  0xe7a24ef0c5e95ffb0f6684b813a78f2a3ad7d171\n    /* \"contracts/curveActions.sol\":962:1024  address am3CRV_LP = 0xE7a24EF0C5e95Ffb0f6684b813A78F2a3AD7D171 */\n  0x08\n  exp(0x0100, 0x00)\n  dup2\n  sload\n  dup2\n  0xffffffffffffffffffffffffffffffffffffffff\n  mul\n  not\n  and\n  swap1\n  dup4\n  0xffffffffffffffffffffffffffffffffffffffff\n  and\n  mul\n  or\n  swap1\n  sstore\n  pop\n    /* \"contracts/curveActions.sol\":1049:1091  0x172370d5Cd63279eFa6d502DAB29171933a610AF */\n  0x172370d5cd63279efa6d502dab29171933a610af\n    /* \"contracts/curveActions.sol\":1031:1091  address CRVAddr = 0x172370d5Cd63279eFa6d502DAB29171933a610AF */\n  0x09\n  exp(0x0100, 0x00)\n  dup2\n  sload\n  dup2\n  0xffffffffffffffffffffffffffffffffffffffff\n  mul\n  not\n  and\n  swap1\n  dup4\n  0xffffffffffffffffffffffffffffffffffffffff\n  and\n  mul\n  or\n  swap1\n  sstore\n  pop\n    /* \"contracts/curveActions.sol\":1117:1159  0x5c2ed810328349100A66B82b78a1791B101C9D61 */\n  0x5c2ed810328349100a66b82b78a1791b101c9d61\n    /* \"contracts/curveActions.sol\":1100:1159  address amWBTC = 0x5c2ed810328349100A66B82b78a1791B101C9D61 */\n  0x0a\n  exp(0x0100, 0x00)\n  dup2\n  sload\n  dup2\n  0xffffffffffffffffffffffffffffffffffffffff\n  mul\n  not\n  and\n  swap1\n  dup4\n  0xffffffffffffffffffffffffffffffffffffffff\n  and\n  mul\n  or\n  swap1\n  sstore\n  pop\n    /* \"contracts/curveActions.sol\":1183:1225  0x28424507fefb6f7f8E9D3860F56504E4e5f5f390 */\n  0x28424507fefb6f7f8e9d3860f56504e4e5f5f390\n    /* \"contracts/curveActions.sol\":1166:1225  address amWETH = 0x28424507fefb6f7f8E9D3860F56504E4e5f5f390 */\n  0x0b\n  exp(0x0100, 0x00)\n  dup2\n  sload\n  dup2\n  0xffffffffffffffffffffffffffffffffffffffff\n  mul\n  not\n  and\n  swap1\n  dup4\n  0xffffffffffffffffffffffffffffffffffffffff\n  and\n  mul\n  or\n  swap1\n  sstore\n  pop\n    /* \"contracts/AAVEActions.sol\":201:243  0x2791Bca1f2de4661ED88A30C99A7a9449Aa84174 */\n  0x2791bca1f2de4661ed88a30c99a7a9449aa84174\n    /* \"contracts/AAVEActions.sol\":180:244  IERC20 USDC = IERC20(0x2791Bca1f2de4661ED88A30C99A7a9449Aa84174) */\n  0x0c\n  exp(0x0100, 0x00)\n  dup2\n  sload\n  dup2\n  0xffffffffffffffffffffffffffffffffffffffff\n  mul\n  not\n  and\n  swap1\n  dup4\n  0xffffffffffffffffffffffffffffffffffffffff\n  and\n  mul\n  or\n  swap1\n  sstore\n  pop\n    /* \"contracts/AAVEActions.sol\":271:313  0x8f3Cf7ad23Cd3CaDbD9735AFf958023239c6A063 */\n  0x8f3cf7ad23cd3cadbd9735aff958023239c6a063\n    /* \"contracts/AAVEActions.sol\":251:314  IERC20 DAI = IERC20(0x8f3Cf7ad23Cd3CaDbD9735AFf958023239c6A063) */\n  0x0d\n  exp(0x0100, 0x00)\n  dup2\n  sload\n  dup2\n  0xffffffffffffffffffffffffffffffffffffffff\n  mul\n  not\n  and\n  swap1\n  dup4\n  0xffffffffffffffffffffffffffffffffffffffff\n  and\n  mul\n  or\n  swap1\n  sstore\n  pop\n    /* \"contracts/AAVEActions.sol\":342:384  0xc2132D05D31c914a87C6611C10748AEb04B58e8F */\n  0xc2132d05d31c914a87c6611c10748aeb04b58e8f\n    /* \"contracts/AAVEActions.sol\":321:385  IERC20 USDT = IERC20(0xc2132D05D31c914a87C6611C10748AEb04B58e8F) */\n  0x0e\n  exp(0x0100, 0x00)\n  dup2\n  sload\n  dup2\n  0xffffffffffffffffffffffffffffffffffffffff\n  mul\n  not\n  and\n  swap1\n  dup4\n  0xffffffffffffffffffffffffffffffffffffffff\n  and\n  mul\n  or\n  swap1\n  sstore\n  pop\n    /* \"contracts/AAVEActions.sol\":411:453  0x794a61358D6845594F94dc1DB02A252b5b4814aD */\n  0x794a61358d6845594f94dc1db02a252b5b4814ad\n    /* \"contracts/AAVEActions.sol\":392:453  address AAVEPool = 0x794a61358D6845594F94dc1DB02A252b5b4814aD */\n  0x0f\n  exp(0x0100, 0x00)\n  dup2\n  sload\n  dup2\n  0xffffffffffffffffffffffffffffffffffffffff\n  mul\n  not\n  and\n  swap1\n  dup4\n  0xffffffffffffffffffffffffffffffffffffffff\n  and\n  mul\n  or\n  swap1\n  sstore\n  pop\n    /* \"contracts/AAVEActions.sol\":488:530  0xd05e3E715d945B59290df0ae8eF85c1BdB684744 */\n  0xd05e3e715d945b59290df0ae8ef85c1bdb684744\n    /* \"contracts/AAVEActions.sol\":462:531  IPool LendingPool = IPool(0xd05e3E715d945B59290df0ae8eF85c1BdB684744) */\n  0x10\n  exp(0x0100, 0x00)\n  dup2\n  sload\n  dup2\n  0xffffffffffffffffffffffffffffffffffffffff\n  mul\n  not\n  and\n  swap1\n  dup4\n  0xffffffffffffffffffffffffffffffffffffffff\n  and\n  mul\n  or\n  swap1\n  sstore\n  pop\n    /* \"contracts/SAAVE_Receiver.sol\":514:630  constructor(address SAAVEFactory, address _owner) {... */\n  callvalue\n  dup1\n  iszero\n  tag_1\n  jumpi\n  0x00\n  dup1\n  revert\ntag_1:\n  pop\n  mload(0x40)\n  sub(codesize, bytecodeSize)\n  dup1\n  bytecodeSize\n  dup4\n  codecopy\n  dup2\n  dup2\n  add\n  0x40\n  mstore\n  dup2\n  add\n  swap1\n  tag_2\n  swap2\n  swap1\n  tag_3\n  jump\t// in\ntag_2:\n    /* \"contracts/SAAVE_Receiver.sol\":585:597  SAAVEFactory */\n  dup2\n    /* \"contracts/SAAVE_Receiver.sol\":575:582  factory */\n  0x11\n  0x00\n    /* \"contracts/SAAVE_Receiver.sol\":575:597  factory = SAAVEFactory */\n  0x0100\n  exp\n  dup2\n  sload\n  dup2\n  0xffffffffffffffffffffffffffffffffffffffff\n  mul\n  not\n  and\n  swap1\n  dup4\n  0xffffffffffffffffffffffffffffffffffffffff\n  and\n  mul\n  or\n  swap1\n  sstore\n  pop\n    /* \"contracts/SAAVE_Receiver.sol\":616:622  _owner */\n  dup1\n    /* \"contracts/SAAVE_Receiver.sol\":608:613  owner */\n  0x12\n  0x00\n    /* \"contracts/SAAVE_Receiver.sol\":608:622  owner = _owner */\n  0x0100\n  exp\n  dup2\n  sload\n  dup2\n  0xffffffffffffffffffffffffffffffffffffffff\n  mul\n  not\n  and\n  swap1\n  dup4\n  0xffffffffffffffffffffffffffffffffffffffff\n  and\n  mul\n  or\n  swap1\n  sstore\n  pop\n    /* \"contracts/SAAVE_Receiver.sol\":514:630  constructor(address SAAVEFactory, address _owner) {... */\n  pop\n  pop\n    /* \"contracts/SAAVE_Receiver.sol\":408:2645  contract SAAVE_Receiver is curveActions, AAVEActions {... */\n  jump(tag_6)\n    /* \"#utility.yul\":88:205   */\ntag_8:\n    /* \"#utility.yul\":197:198   */\n  0x00\n    /* \"#utility.yul\":194:195   */\n  dup1\n    /* \"#utility.yul\":187:199   */\n  revert\n    /* \"#utility.yul\":334:460   */\ntag_10:\n    /* \"#utility.yul\":371:378   */\n  0x00\n    /* \"#utility.yul\":411:453   */\n  0xffffffffffffffffffffffffffffffffffffffff\n    /* \"#utility.yul\":404:409   */\n  dup3\n    /* \"#utility.yul\":400:454   */\n  and\n    /* \"#utility.yul\":389:454   */\n  swap1\n  pop\n    /* \"#utility.yul\":334:460   */\n  swap2\n  swap1\n  pop\n  jump\t// out\n    /* \"#utility.yul\":466:562   */\ntag_11:\n    /* \"#utility.yul\":503:510   */\n  0x00\n    /* \"#utility.yul\":532:556   */\n  tag_20\n    /* \"#utility.yul\":550:555   */\n  dup3\n    /* \"#utility.yul\":532:556   */\n  tag_10\n  jump\t// in\ntag_20:\n    /* \"#utility.yul\":521:556   */\n  swap1\n  pop\n    /* \"#utility.yul\":466:562   */\n  swap2\n  swap1\n  pop\n  jump\t// out\n    /* \"#utility.yul\":568:690   */\ntag_12:\n    /* \"#utility.yul\":641:665   */\n  tag_22\n    /* \"#utility.yul\":659:664   */\n  dup2\n    /* \"#utility.yul\":641:665   */\n  tag_11\n  jump\t// in\ntag_22:\n    /* \"#utility.yul\":634:639   */\n  dup2\n    /* \"#utility.yul\":631:666   */\n  eq\n    /* \"#utility.yul\":621:684   */\n  tag_23\n  jumpi\n    /* \"#utility.yul\":680:681   */\n  0x00\n    /* \"#utility.yul\":677:678   */\n  dup1\n    /* \"#utility.yul\":670:682   */\n  revert\n    /* \"#utility.yul\":621:684   */\ntag_23:\n    /* \"#utility.yul\":568:690   */\n  pop\n  jump\t// out\n    /* \"#utility.yul\":696:839   */\ntag_13:\n    /* \"#utility.yul\":753:758   */\n  0x00\n    /* \"#utility.yul\":784:790   */\n  dup2\n    /* \"#utility.yul\":778:791   */\n  mload\n    /* \"#utility.yul\":769:791   */\n  swap1\n  pop\n    /* \"#utility.yul\":800:833   */\n  tag_25\n    /* \"#utility.yul\":827:832   */\n  dup2\n    /* \"#utility.yul\":800:833   */\n  tag_12\n  jump\t// in\ntag_25:\n    /* \"#utility.yul\":696:839   */\n  swap3\n  swap2\n  pop\n  pop\n  jump\t// out\n    /* \"#utility.yul\":845:1352   */\ntag_3:\n    /* \"#utility.yul\":924:930   */\n  0x00\n    /* \"#utility.yul\":932:938   */\n  dup1\n    /* \"#utility.yul\":981:983   */\n  0x40\n    /* \"#utility.yul\":969:978   */\n  dup4\n    /* \"#utility.yul\":960:967   */\n  dup6\n    /* \"#utility.yul\":956:979   */\n  sub\n    /* \"#utility.yul\":952:984   */\n  slt\n    /* \"#utility.yul\":949:1068   */\n  iszero\n  tag_27\n  jumpi\n    /* \"#utility.yul\":987:1066   */\n  tag_28\n  tag_8\n  jump\t// in\ntag_28:\n    /* \"#utility.yul\":949:1068   */\ntag_27:\n    /* \"#utility.yul\":1107:1108   */\n  0x00\n    /* \"#utility.yul\":1132:1196   */\n  tag_29\n    /* \"#utility.yul\":1188:1195   */\n  dup6\n    /* \"#utility.yul\":1179:1185   */\n  dup3\n    /* \"#utility.yul\":1168:1177   */\n  dup7\n    /* \"#utility.yul\":1164:1186   */\n  add\n    /* \"#utility.yul\":1132:1196   */\n  tag_13\n  jump\t// in\ntag_29:\n    /* \"#utility.yul\":1122:1196   */\n  swap3\n  pop\n    /* \"#utility.yul\":1078:1206   */\n  pop\n    /* \"#utility.yul\":1245:1247   */\n  0x20\n    /* \"#utility.yul\":1271:1335   */\n  tag_30\n    /* \"#utility.yul\":1327:1334   */\n  dup6\n    /* \"#utility.yul\":1318:1324   */\n  dup3\n    /* \"#utility.yul\":1307:1316   */\n  dup7\n    /* \"#utility.yul\":1303:1325   */\n  add\n    /* \"#utility.yul\":1271:1335   */\n  tag_13\n  jump\t// in\ntag_30:\n    /* \"#utility.yul\":1261:1335   */\n  swap2\n  pop\n    /* \"#utility.yul\":1216:1345   */\n  pop\n    /* \"#utility.yul\":845:1352   */\n  swap3\n  pop\n  swap3\n  swap1\n  pop\n  jump\t// out\n    /* \"contracts/SAAVE_Receiver.sol\":408:2645  contract SAAVE_Receiver is curveActions, AAVEActions {... */\ntag_6:\n  dataSize(sub_0)\n  dup1\n  dataOffset(sub_0)\n  0x00\n  codecopy\n  0x00\n  return\nstop\n\nsub_0: assembly {\n        /* \"contracts/SAAVE_Receiver.sol\":408:2645  contract SAAVE_Receiver is curveActions, AAVEActions {... */\n      mstore(0x40, 0x80)\n      callvalue\n      dup1\n      iszero\n      tag_1\n      jumpi\n      0x00\n      dup1\n      revert\n    tag_1:\n      pop\n      jumpi(tag_2, lt(calldatasize, 0x04))\n      shr(0xe0, calldataload(0x00))\n      dup1\n      0xaeef8a\n      eq\n      tag_3\n      jumpi\n      dup1\n      0x4641257d\n      eq\n      tag_4\n      jumpi\n      dup1\n      0x853828b6\n      eq\n      tag_5\n      jumpi\n    tag_2:\n      0x00\n      dup1\n      revert\n        /* \"contracts/SAAVE_Receiver.sol\":642:986  function deposit(uint _daiAmount, uint _USDCAmount, uint _USDTAmount) external {... */\n    tag_3:\n      tag_6\n      0x04\n      dup1\n      calldatasize\n      sub\n      dup2\n      add\n      swap1\n      tag_7\n      swap2\n      swap1\n      tag_8\n      jump\t// in\n    tag_7:\n      tag_9\n      jump\t// in\n    tag_6:\n      stop\n        /* \"contracts/SAAVE_Receiver.sol\":1105:1738  function harvest() external {... */\n    tag_4:\n      tag_10\n      tag_11\n      jump\t// in\n    tag_10:\n      stop\n        /* \"contracts/SAAVE_Receiver.sol\":1877:2634  function withdrawAll() external {... */\n    tag_5:\n      tag_12\n      tag_13\n      jump\t// in\n    tag_12:\n      stop\n        /* \"contracts/SAAVE_Receiver.sol\":642:986  function deposit(uint _daiAmount, uint _USDCAmount, uint _USDTAmount) external {... */\n    tag_9:\n        /* \"contracts/SAAVE_Receiver.sol\":754:761  factory */\n      0x11\n      0x00\n      swap1\n      sload\n      swap1\n      0x0100\n      exp\n      swap1\n      div\n      0xffffffffffffffffffffffffffffffffffffffff\n      and\n        /* \"contracts/SAAVE_Receiver.sol\":740:761  msg.sender == factory */\n      0xffffffffffffffffffffffffffffffffffffffff\n      and\n        /* \"contracts/SAAVE_Receiver.sol\":740:750  msg.sender */\n      caller\n        /* \"contracts/SAAVE_Receiver.sol\":740:761  msg.sender == factory */\n      0xffffffffffffffffffffffffffffffffffffffff\n      and\n      eq\n        /* \"contracts/SAAVE_Receiver.sol\":732:762  require(msg.sender == factory) */\n      tag_15\n      jumpi\n      0x00\n      dup1\n      revert\n    tag_15:\n        /* \"contracts/SAAVE_Receiver.sol\":806:826  depositStablesAAVE() */\n      tag_16\n        /* \"contracts/SAAVE_Receiver.sol\":806:824  depositStablesAAVE */\n      tag_17\n        /* \"contracts/SAAVE_Receiver.sol\":806:826  depositStablesAAVE() */\n      jump\t// in\n    tag_16:\n        /* \"contracts/SAAVE_Receiver.sol\":871:917  addCurve(_daiAmount, _USDCAmount, _USDTAmount) */\n      tag_18\n        /* \"contracts/SAAVE_Receiver.sol\":880:890  _daiAmount */\n      dup4\n        /* \"contracts/SAAVE_Receiver.sol\":892:903  _USDCAmount */\n      dup4\n        /* \"contracts/SAAVE_Receiver.sol\":905:916  _USDTAmount */\n      dup4\n        /* \"contracts/SAAVE_Receiver.sol\":871:879  addCurve */\n      tag_19\n        /* \"contracts/SAAVE_Receiver.sol\":871:917  addCurve(_daiAmount, _USDCAmount, _USDTAmount) */\n      jump\t// in\n    tag_18:\n        /* \"contracts/SAAVE_Receiver.sol\":964:978  depositGauge() */\n      tag_20\n        /* \"contracts/SAAVE_Receiver.sol\":964:976  depositGauge */\n      tag_21\n        /* \"contracts/SAAVE_Receiver.sol\":964:978  depositGauge() */\n      jump\t// in\n    tag_20:\n        /* \"contracts/SAAVE_Receiver.sol\":642:986  function deposit(uint _daiAmount, uint _USDCAmount, uint _USDTAmount) external {... */\n      pop\n      pop\n      pop\n      jump\t// out\n        /* \"contracts/SAAVE_Receiver.sol\":1105:1738  function harvest() external {... */\n    tag_11:\n        /* \"contracts/SAAVE_Receiver.sol\":1166:1173  factory */\n      0x11\n      0x00\n      swap1\n      sload\n      swap1\n      0x0100\n      exp\n      swap1\n      div\n      0xffffffffffffffffffffffffffffffffffffffff\n      and\n        /* \"contracts/SAAVE_Receiver.sol\":1152:1173  msg.sender == factory */\n      0xffffffffffffffffffffffffffffffffffffffff\n      and\n        /* \"contracts/SAAVE_Receiver.sol\":1152:1162  msg.sender */\n      caller\n        /* \"contracts/SAAVE_Receiver.sol\":1152:1173  msg.sender == factory */\n      0xffffffffffffffffffffffffffffffffffffffff\n      and\n      eq\n        /* \"contracts/SAAVE_Receiver.sol\":1144:1174  require(msg.sender == factory) */\n      tag_23\n      jumpi\n      0x00\n      dup1\n      revert\n    tag_23:\n        /* \"contracts/SAAVE_Receiver.sol\":1187:1200  uint amDAIAmt */\n      0x00\n        /* \"contracts/AAVEActions.sol\":593:635  0x27F8D03b3a2196956ED754baDc28D73be8830A6e */\n      0x27f8d03b3a2196956ed754badc28d73be8830a6e\n        /* \"contracts/SAAVE_Receiver.sol\":1203:1226  IERC20(amDAI).balanceOf */\n      0xffffffffffffffffffffffffffffffffffffffff\n      and\n      0x70a08231\n        /* \"contracts/SAAVE_Receiver.sol\":1235:1239  this */\n      address\n        /* \"contracts/SAAVE_Receiver.sol\":1203:1241  IERC20(amDAI).balanceOf(address(this)) */\n      mload(0x40)\n      dup3\n      0xffffffff\n      and\n      0xe0\n      shl\n      dup2\n      mstore\n      0x04\n      add\n      tag_24\n      swap2\n      swap1\n      tag_25\n      jump\t// in\n    tag_24:\n      0x20\n      mload(0x40)\n      dup1\n      dup4\n      sub\n      dup2\n      dup7\n      gas\n      staticcall\n      iszero\n      dup1\n      iszero\n      tag_27\n      jumpi\n      returndatasize\n      0x00\n      dup1\n      returndatacopy\n      revert(0x00, returndatasize)\n    tag_27:\n      pop\n      pop\n      pop\n      pop\n      mload(0x40)\n      returndatasize\n      not(0x1f)\n      0x1f\n      dup3\n      add\n      and\n      dup3\n      add\n      dup1\n      0x40\n      mstore\n      pop\n      dup2\n      add\n      swap1\n      tag_28\n      swap2\n      swap1\n      tag_29\n      jump\t// in\n    tag_28:\n        /* \"contracts/SAAVE_Receiver.sol\":1187:1241  uint amDAIAmt = IERC20(amDAI).balanceOf(address(this)) */\n      swap1\n      pop\n        /* \"contracts/SAAVE_Receiver.sol\":1252:1266  uint amUSDCAmt */\n      0x00\n        /* \"contracts/AAVEActions.sol\":668:710  0x1a13F4Ca1d028320A707D99520AbFefca3998b7F */\n      0x1a13f4ca1d028320a707d99520abfefca3998b7f\n        /* \"contracts/SAAVE_Receiver.sol\":1269:1293  IERC20(amUSDC).balanceOf */\n      0xffffffffffffffffffffffffffffffffffffffff\n      and\n      0x70a08231\n        /* \"contracts/SAAVE_Receiver.sol\":1302:1306  this */\n      address\n        /* \"contracts/SAAVE_Receiver.sol\":1269:1308  IERC20(amUSDC).balanceOf(address(this)) */\n      mload(0x40)\n      dup3\n      0xffffffff\n      and\n      0xe0\n      shl\n      dup2\n      mstore\n      0x04\n      add\n      tag_30\n      swap2\n      swap1\n      tag_25\n      jump\t// in\n    tag_30:\n      0x20\n      mload(0x40)\n      dup1\n      dup4\n      sub\n      dup2\n      dup7\n      gas\n      staticcall\n      iszero\n      dup1\n      iszero\n      tag_32\n      jumpi\n      returndatasize\n      0x00\n      dup1\n      returndatacopy\n      revert(0x00, returndatasize)\n    tag_32:\n      pop\n      pop\n      pop\n      pop\n      mload(0x40)\n      returndatasize\n      not(0x1f)\n      0x1f\n      dup3\n      add\n      and\n      dup3\n      add\n      dup1\n      0x40\n      mstore\n      pop\n      dup2\n      add\n      swap1\n      tag_33\n      swap2\n      swap1\n      tag_29\n      jump\t// in\n    tag_33:\n        /* \"contracts/SAAVE_Receiver.sol\":1252:1308  uint amUSDCAmt = IERC20(amUSDC).balanceOf(address(this)) */\n      swap1\n      pop\n        /* \"contracts/SAAVE_Receiver.sol\":1319:1333  uint amUSDTAmt */\n      0x00\n        /* \"contracts/AAVEActions.sol\":743:785  0x60D55F02A771d515e077c9C2403a1ef324885CeC */\n      0x60d55f02a771d515e077c9c2403a1ef324885cec\n        /* \"contracts/SAAVE_Receiver.sol\":1336:1360  IERC20(amUSDT).balanceOf */\n      0xffffffffffffffffffffffffffffffffffffffff\n      and\n      0x70a08231\n        /* \"contracts/SAAVE_Receiver.sol\":1369:1373  this */\n      address\n        /* \"contracts/SAAVE_Receiver.sol\":1336:1375  IERC20(amUSDT).balanceOf(address(this)) */\n      mload(0x40)\n      dup3\n      0xffffffff\n      and\n      0xe0\n      shl\n      dup2\n      mstore\n      0x04\n      add\n      tag_34\n      swap2\n      swap1\n      tag_25\n      jump\t// in\n    tag_34:\n      0x20\n      mload(0x40)\n      dup1\n      dup4\n      sub\n      dup2\n      dup7\n      gas\n      staticcall\n      iszero\n      dup1\n      iszero\n      tag_36\n      jumpi\n      returndatasize\n      0x00\n      dup1\n      returndatacopy\n      revert(0x00, returndatasize)\n    tag_36:\n      pop\n      pop\n      pop\n      pop\n      mload(0x40)\n      returndatasize\n      not(0x1f)\n      0x1f\n      dup3\n      add\n      and\n      dup3\n      add\n      dup1\n      0x40\n      mstore\n      pop\n      dup2\n      add\n      swap1\n      tag_37\n      swap2\n      swap1\n      tag_29\n      jump\t// in\n    tag_37:\n        /* \"contracts/SAAVE_Receiver.sol\":1319:1375  uint amUSDTAmt = IERC20(amUSDT).balanceOf(address(this)) */\n      swap1\n      pop\n        /* \"contracts/SAAVE_Receiver.sol\":1409:1424  withdrawGauge() */\n      tag_38\n        /* \"contracts/SAAVE_Receiver.sol\":1409:1422  withdrawGauge */\n      tag_39\n        /* \"contracts/SAAVE_Receiver.sol\":1409:1424  withdrawGauge() */\n      jump\t// in\n    tag_38:\n      pop\n        /* \"contracts/SAAVE_Receiver.sol\":1466:1483  swapCRVtoAM3CRV() */\n      tag_40\n        /* \"contracts/SAAVE_Receiver.sol\":1466:1481  swapCRVtoAM3CRV */\n      tag_41\n        /* \"contracts/SAAVE_Receiver.sol\":1466:1483  swapCRVtoAM3CRV() */\n      jump\t// in\n    tag_40:\n        /* \"contracts/SAAVE_Receiver.sol\":1545:1565  removeLiquidityAM3() */\n      tag_42\n        /* \"contracts/SAAVE_Receiver.sol\":1545:1563  removeLiquidityAM3 */\n      tag_43\n        /* \"contracts/SAAVE_Receiver.sol\":1545:1565  removeLiquidityAM3() */\n      jump\t// in\n    tag_42:\n        /* \"contracts/SAAVE_Receiver.sol\":1622:1662  addCurve(amDAIAmt, amUSDCAmt, amUSDTAmt) */\n      tag_44\n        /* \"contracts/SAAVE_Receiver.sol\":1631:1639  amDAIAmt */\n      dup4\n        /* \"contracts/SAAVE_Receiver.sol\":1641:1650  amUSDCAmt */\n      dup4\n        /* \"contracts/SAAVE_Receiver.sol\":1652:1661  amUSDTAmt */\n      dup4\n        /* \"contracts/SAAVE_Receiver.sol\":1622:1630  addCurve */\n      tag_19\n        /* \"contracts/SAAVE_Receiver.sol\":1622:1662  addCurve(amDAIAmt, amUSDCAmt, amUSDTAmt) */\n      jump\t// in\n    tag_44:\n        /* \"contracts/SAAVE_Receiver.sol\":1716:1730  depositGauge() */\n      tag_45\n        /* \"contracts/SAAVE_Receiver.sol\":1716:1728  depositGauge */\n      tag_21\n        /* \"contracts/SAAVE_Receiver.sol\":1716:1730  depositGauge() */\n      jump\t// in\n    tag_45:\n        /* \"contracts/SAAVE_Receiver.sol\":1133:1738  {... */\n      pop\n      pop\n      pop\n        /* \"contracts/SAAVE_Receiver.sol\":1105:1738  function harvest() external {... */\n      jump\t// out\n        /* \"contracts/SAAVE_Receiver.sol\":1877:2634  function withdrawAll() external {... */\n    tag_13:\n        /* \"contracts/SAAVE_Receiver.sol\":1942:1949  factory */\n      0x11\n      0x00\n      swap1\n      sload\n      swap1\n      0x0100\n      exp\n      swap1\n      div\n      0xffffffffffffffffffffffffffffffffffffffff\n      and\n        /* \"contracts/SAAVE_Receiver.sol\":1928:1949  msg.sender == factory */\n      0xffffffffffffffffffffffffffffffffffffffff\n      and\n        /* \"contracts/SAAVE_Receiver.sol\":1928:1938  msg.sender */\n      caller\n        /* \"contracts/SAAVE_Receiver.sol\":1928:1949  msg.sender == factory */\n      0xffffffffffffffffffffffffffffffffffffffff\n      and\n      eq\n        /* \"contracts/SAAVE_Receiver.sol\":1920:1950  require(msg.sender == factory) */\n      tag_47\n      jumpi\n      0x00\n      dup1\n      revert\n    tag_47:\n        /* \"contracts/SAAVE_Receiver.sol\":1965:1980  withdrawGauge() */\n      tag_48\n        /* \"contracts/SAAVE_Receiver.sol\":1965:1978  withdrawGauge */\n      tag_39\n        /* \"contracts/SAAVE_Receiver.sol\":1965:1980  withdrawGauge() */\n      jump\t// in\n    tag_48:\n      pop\n        /* \"contracts/SAAVE_Receiver.sol\":1991:2008  swapCRVtoAM3CRV() */\n      tag_49\n        /* \"contracts/SAAVE_Receiver.sol\":1991:2006  swapCRVtoAM3CRV */\n      tag_41\n        /* \"contracts/SAAVE_Receiver.sol\":1991:2008  swapCRVtoAM3CRV() */\n      jump\t// in\n    tag_49:\n        /* \"contracts/SAAVE_Receiver.sol\":2019:2039  removeLiquidityAM3() */\n      tag_50\n        /* \"contracts/SAAVE_Receiver.sol\":2019:2037  removeLiquidityAM3 */\n      tag_43\n        /* \"contracts/SAAVE_Receiver.sol\":2019:2039  removeLiquidityAM3() */\n      jump\t// in\n    tag_50:\n        /* \"contracts/SAAVE_Receiver.sol\":2052:2065  uint amDAIAmt */\n      0x00\n        /* \"contracts/AAVEActions.sol\":593:635  0x27F8D03b3a2196956ED754baDc28D73be8830A6e */\n      0x27f8d03b3a2196956ed754badc28d73be8830a6e\n        /* \"contracts/SAAVE_Receiver.sol\":2068:2091  IERC20(amDAI).balanceOf */\n      0xffffffffffffffffffffffffffffffffffffffff\n      and\n      0x70a08231\n        /* \"contracts/SAAVE_Receiver.sol\":2100:2104  this */\n      address\n        /* \"contracts/SAAVE_Receiver.sol\":2068:2106  IERC20(amDAI).balanceOf(address(this)) */\n      mload(0x40)\n      dup3\n      0xffffffff\n      and\n      0xe0\n      shl\n      dup2\n      mstore\n      0x04\n      add\n      tag_51\n      swap2\n      swap1\n      tag_25\n      jump\t// in\n    tag_51:\n      0x20\n      mload(0x40)\n      dup1\n      dup4\n      sub\n      dup2\n      dup7\n      gas\n      staticcall\n      iszero\n      dup1\n      iszero\n      tag_53\n      jumpi\n      returndatasize\n      0x00\n      dup1\n      returndatacopy\n      revert(0x00, returndatasize)\n    tag_53:\n      pop\n      pop\n      pop\n      pop\n      mload(0x40)\n      returndatasize\n      not(0x1f)\n      0x1f\n      dup3\n      add\n      and\n      dup3\n      add\n      dup1\n      0x40\n      mstore\n      pop\n      dup2\n      add\n      swap1\n      tag_54\n      swap2\n      swap1\n      tag_29\n      jump\t// in\n    tag_54:\n        /* \"contracts/SAAVE_Receiver.sol\":2052:2106  uint amDAIAmt = IERC20(amDAI).balanceOf(address(this)) */\n      swap1\n      pop\n        /* \"contracts/SAAVE_Receiver.sol\":2117:2131  uint amUSDCAmt */\n      0x00\n        /* \"contracts/AAVEActions.sol\":668:710  0x1a13F4Ca1d028320A707D99520AbFefca3998b7F */\n      0x1a13f4ca1d028320a707d99520abfefca3998b7f\n        /* \"contracts/SAAVE_Receiver.sol\":2134:2158  IERC20(amUSDC).balanceOf */\n      0xffffffffffffffffffffffffffffffffffffffff\n      and\n      0x70a08231\n        /* \"contracts/SAAVE_Receiver.sol\":2167:2171  this */\n      address\n        /* \"contracts/SAAVE_Receiver.sol\":2134:2173  IERC20(amUSDC).balanceOf(address(this)) */\n      mload(0x40)\n      dup3\n      0xffffffff\n      and\n      0xe0\n      shl\n      dup2\n      mstore\n      0x04\n      add\n      tag_55\n      swap2\n      swap1\n      tag_25\n      jump\t// in\n    tag_55:\n      0x20\n      mload(0x40)\n      dup1\n      dup4\n      sub\n      dup2\n      dup7\n      gas\n      staticcall\n      iszero\n      dup1\n      iszero\n      tag_57\n      jumpi\n      returndatasize\n      0x00\n      dup1\n      returndatacopy\n      revert(0x00, returndatasize)\n    tag_57:\n      pop\n      pop\n      pop\n      pop\n      mload(0x40)\n      returndatasize\n      not(0x1f)\n      0x1f\n      dup3\n      add\n      and\n      dup3\n      add\n      dup1\n      0x40\n      mstore\n      pop\n      dup2\n      add\n      swap1\n      tag_58\n      swap2\n      swap1\n      tag_29\n      jump\t// in\n    tag_58:\n        /* \"contracts/SAAVE_Receiver.sol\":2117:2173  uint amUSDCAmt = IERC20(amUSDC).balanceOf(address(this)) */\n      swap1\n      pop\n        /* \"contracts/SAAVE_Receiver.sol\":2184:2198  uint amUSDTAmt */\n      0x00\n        /* \"contracts/AAVEActions.sol\":743:785  0x60D55F02A771d515e077c9C2403a1ef324885CeC */\n      0x60d55f02a771d515e077c9c2403a1ef324885cec\n        /* \"contracts/SAAVE_Receiver.sol\":2201:2225  IERC20(amUSDT).balanceOf */\n      0xffffffffffffffffffffffffffffffffffffffff\n      and\n      0x70a08231\n        /* \"contracts/SAAVE_Receiver.sol\":2234:2238  this */\n      address\n        /* \"contracts/SAAVE_Receiver.sol\":2201:2240  IERC20(amUSDT).balanceOf(address(this)) */\n      mload(0x40)\n      dup3\n      0xffffffff\n      and\n      0xe0\n      shl\n      dup2\n      mstore\n      0x04\n      add\n      tag_59\n      swap2\n      swap1\n      tag_25\n      jump\t// in\n    tag_59:\n      0x20\n      mload(0x40)\n      dup1\n      dup4\n      sub\n      dup2\n      dup7\n      gas\n      staticcall\n      iszero\n      dup1\n      iszero\n      tag_61\n      jumpi\n      returndatasize\n      0x00\n      dup1\n      returndatacopy\n      revert(0x00, returndatasize)\n    tag_61:\n      pop\n      pop\n      pop\n      pop\n      mload(0x40)\n      returndatasize\n      not(0x1f)\n      0x1f\n      dup3\n      add\n      and\n      dup3\n      add\n      dup1\n      0x40\n      mstore\n      pop\n      dup2\n      add\n      swap1\n      tag_62\n      swap2\n      swap1\n      tag_29\n      jump\t// in\n    tag_62:\n        /* \"contracts/SAAVE_Receiver.sol\":2184:2240  uint amUSDTAmt = IERC20(amUSDT).balanceOf(address(this)) */\n      swap1\n      pop\n        /* \"contracts/AAVEActions.sol\":593:635  0x27F8D03b3a2196956ED754baDc28D73be8830A6e */\n      0x27f8d03b3a2196956ed754badc28d73be8830a6e\n        /* \"contracts/SAAVE_Receiver.sol\":2253:2274  IERC20(amDAI).approve */\n      0xffffffffffffffffffffffffffffffffffffffff\n      and\n      0x095ea7b3\n        /* \"contracts/SAAVE_Receiver.sol\":2275:2280  owner */\n      0x12\n      0x00\n      swap1\n      sload\n      swap1\n      0x0100\n      exp\n      swap1\n      div\n      0xffffffffffffffffffffffffffffffffffffffff\n      and\n        /* \"contracts/SAAVE_Receiver.sol\":2282:2290  amDAIAmt */\n      dup6\n        /* \"contracts/SAAVE_Receiver.sol\":2253:2291  IERC20(amDAI).approve(owner, amDAIAmt) */\n      mload(0x40)\n      dup4\n      0xffffffff\n      and\n      0xe0\n      shl\n      dup2\n      mstore\n      0x04\n      add\n      tag_63\n      swap3\n      swap2\n      swap1\n      tag_64\n      jump\t// in\n    tag_63:\n      0x20\n      mload(0x40)\n      dup1\n      dup4\n      sub\n      dup2\n      0x00\n      dup8\n      gas\n      call\n      iszero\n      dup1\n      iszero\n      tag_66\n      jumpi\n      returndatasize\n      0x00\n      dup1\n      returndatacopy\n      revert(0x00, returndatasize)\n    tag_66:\n      pop\n      pop\n      pop\n      pop\n      mload(0x40)\n      returndatasize\n      not(0x1f)\n      0x1f\n      dup3\n      add\n      and\n      dup3\n      add\n      dup1\n      0x40\n      mstore\n      pop\n      dup2\n      add\n      swap1\n      tag_67\n      swap2\n      swap1\n      tag_68\n      jump\t// in\n    tag_67:\n      pop\n        /* \"contracts/AAVEActions.sol\":668:710  0x1a13F4Ca1d028320A707D99520AbFefca3998b7F */\n      0x1a13f4ca1d028320a707d99520abfefca3998b7f\n        /* \"contracts/SAAVE_Receiver.sol\":2302:2324  IERC20(amUSDC).approve */\n      0xffffffffffffffffffffffffffffffffffffffff\n      and\n      0x095ea7b3\n        /* \"contracts/SAAVE_Receiver.sol\":2325:2330  owner */\n      0x12\n      0x00\n      swap1\n      sload\n      swap1\n      0x0100\n      exp\n      swap1\n      div\n      0xffffffffffffffffffffffffffffffffffffffff\n      and\n        /* \"contracts/SAAVE_Receiver.sol\":2332:2341  amUSDCAmt */\n      dup5\n        /* \"contracts/SAAVE_Receiver.sol\":2302:2342  IERC20(amUSDC).approve(owner, amUSDCAmt) */\n      mload(0x40)\n      dup4\n      0xffffffff\n      and\n      0xe0\n      shl\n      dup2\n      mstore\n      0x04\n      add\n      tag_69\n      swap3\n      swap2\n      swap1\n      tag_64\n      jump\t// in\n    tag_69:\n      0x20\n      mload(0x40)\n      dup1\n      dup4\n      sub\n      dup2\n      0x00\n      dup8\n      gas\n      call\n      iszero\n      dup1\n      iszero\n      tag_71\n      jumpi\n      returndatasize\n      0x00\n      dup1\n      returndatacopy\n      revert(0x00, returndatasize)\n    tag_71:\n      pop\n      pop\n      pop\n      pop\n      mload(0x40)\n      returndatasize\n      not(0x1f)\n      0x1f\n      dup3\n      add\n      and\n      dup3\n      add\n      dup1\n      0x40\n      mstore\n      pop\n      dup2\n      add\n      swap1\n      tag_72\n      swap2\n      swap1\n      tag_68\n      jump\t// in\n    tag_72:\n      pop\n        /* \"contracts/AAVEActions.sol\":743:785  0x60D55F02A771d515e077c9C2403a1ef324885CeC */\n      0x60d55f02a771d515e077c9c2403a1ef324885cec\n        /* \"contracts/SAAVE_Receiver.sol\":2353:2375  IERC20(amUSDT).approve */\n      0xffffffffffffffffffffffffffffffffffffffff\n      and\n      0x095ea7b3\n        /* \"contracts/SAAVE_Receiver.sol\":2376:2381  owner */\n      0x12\n      0x00\n      swap1\n      sload\n      swap1\n      0x0100\n      exp\n      swap1\n      div\n      0xffffffffffffffffffffffffffffffffffffffff\n      and\n        /* \"contracts/SAAVE_Receiver.sol\":2383:2392  amUSDTAmt */\n      dup4\n        /* \"contracts/SAAVE_Receiver.sol\":2353:2393  IERC20(amUSDT).approve(owner, amUSDTAmt) */\n      mload(0x40)\n      dup4\n      0xffffffff\n      and\n      0xe0\n      shl\n      dup2\n      mstore\n      0x04\n      add\n      tag_73\n      swap3\n      swap2\n      swap1\n      tag_64\n      jump\t// in\n    tag_73:\n      0x20\n      mload(0x40)\n      dup1\n      dup4\n      sub\n      dup2\n      0x00\n      dup8\n      gas\n      call\n      iszero\n      dup1\n      iszero\n      tag_75\n      jumpi\n      returndatasize\n      0x00\n      dup1\n      returndatacopy\n      revert(0x00, returndatasize)\n    tag_75:\n      pop\n      pop\n      pop\n      pop\n      mload(0x40)\n      returndatasize\n      not(0x1f)\n      0x1f\n      dup3\n      add\n      and\n      dup3\n      add\n      dup1\n      0x40\n      mstore\n      pop\n      dup2\n      add\n      swap1\n      tag_76\n      swap2\n      swap1\n      tag_68\n      jump\t// in\n    tag_76:\n      pop\n        /* \"contracts/AAVEActions.sol\":593:635  0x27F8D03b3a2196956ED754baDc28D73be8830A6e */\n      0x27f8d03b3a2196956ed754badc28d73be8830a6e\n        /* \"contracts/SAAVE_Receiver.sol\":2406:2432  IERC20(amDAI).transferFrom */\n      0xffffffffffffffffffffffffffffffffffffffff\n      and\n      0x23b872dd\n        /* \"contracts/SAAVE_Receiver.sol\":2441:2445  this */\n      address\n        /* \"contracts/SAAVE_Receiver.sol\":2448:2453  owner */\n      0x12\n      0x00\n      swap1\n      sload\n      swap1\n      0x0100\n      exp\n      swap1\n      div\n      0xffffffffffffffffffffffffffffffffffffffff\n      and\n        /* \"contracts/SAAVE_Receiver.sol\":2455:2463  amDAIAmt */\n      dup7\n        /* \"contracts/SAAVE_Receiver.sol\":2406:2464  IERC20(amDAI).transferFrom(address(this), owner, amDAIAmt) */\n      mload(0x40)\n      dup5\n      0xffffffff\n      and\n      0xe0\n      shl\n      dup2\n      mstore\n      0x04\n      add\n      tag_77\n      swap4\n      swap3\n      swap2\n      swap1\n      tag_78\n      jump\t// in\n    tag_77:\n      0x20\n      mload(0x40)\n      dup1\n      dup4\n      sub\n      dup2\n      0x00\n      dup8\n      gas\n      call\n      iszero\n      dup1\n      iszero\n      tag_80\n      jumpi\n      returndatasize\n      0x00\n      dup1\n      returndatacopy\n      revert(0x00, returndatasize)\n    tag_80:\n      pop\n      pop\n      pop\n      pop\n      mload(0x40)\n      returndatasize\n      not(0x1f)\n      0x1f\n      dup3\n      add\n      and\n      dup3\n      add\n      dup1\n      0x40\n      mstore\n      pop\n      dup2\n      add\n      swap1\n      tag_81\n      swap2\n      swap1\n      tag_68\n      jump\t// in\n    tag_81:\n      pop\n        /* \"contracts/AAVEActions.sol\":668:710  0x1a13F4Ca1d028320A707D99520AbFefca3998b7F */\n      0x1a13f4ca1d028320a707d99520abfefca3998b7f\n        /* \"contracts/SAAVE_Receiver.sol\":2475:2502  IERC20(amUSDC).transferFrom */\n      0xffffffffffffffffffffffffffffffffffffffff\n      and\n      0x23b872dd\n        /* \"contracts/SAAVE_Receiver.sol\":2511:2515  this */\n      address\n        /* \"contracts/SAAVE_Receiver.sol\":2518:2523  owner */\n      0x12\n      0x00\n      swap1\n      sload\n      swap1\n      0x0100\n      exp\n      swap1\n      div\n      0xffffffffffffffffffffffffffffffffffffffff\n      and\n        /* \"contracts/SAAVE_Receiver.sol\":2525:2534  amUSDCAmt */\n      dup6\n        /* \"contracts/SAAVE_Receiver.sol\":2475:2535  IERC20(amUSDC).transferFrom(address(this), owner, amUSDCAmt) */\n      mload(0x40)\n      dup5\n      0xffffffff\n      and\n      0xe0\n      shl\n      dup2\n      mstore\n      0x04\n      add\n      tag_82\n      swap4\n      swap3\n      swap2\n      swap1\n      tag_78\n      jump\t// in\n    tag_82:\n      0x20\n      mload(0x40)\n      dup1\n      dup4\n      sub\n      dup2\n      0x00\n      dup8\n      gas\n      call\n      iszero\n      dup1\n      iszero\n      tag_84\n      jumpi\n      returndatasize\n      0x00\n      dup1\n      returndatacopy\n      revert(0x00, returndatasize)\n    tag_84:\n      pop\n      pop\n      pop\n      pop\n      mload(0x40)\n      returndatasize\n      not(0x1f)\n      0x1f\n      dup3\n      add\n      and\n      dup3\n      add\n      dup1\n      0x40\n      mstore\n      pop\n      dup2\n      add\n      swap1\n      tag_85\n      swap2\n      swap1\n      tag_68\n      jump\t// in\n    tag_85:\n      pop\n        /* \"contracts/AAVEActions.sol\":743:785  0x60D55F02A771d515e077c9C2403a1ef324885CeC */\n      0x60d55f02a771d515e077c9c2403a1ef324885cec\n        /* \"contracts/SAAVE_Receiver.sol\":2546:2573  IERC20(amUSDT).transferFrom */\n      0xffffffffffffffffffffffffffffffffffffffff\n      and\n      0x23b872dd\n        /* \"contracts/SAAVE_Receiver.sol\":2582:2586  this */\n      address\n        /* \"contracts/SAAVE_Receiver.sol\":2589:2594  owner */\n      0x12\n      0x00\n      swap1\n      sload\n      swap1\n      0x0100\n      exp\n      swap1\n      div\n      0xffffffffffffffffffffffffffffffffffffffff\n      and\n        /* \"contracts/SAAVE_Receiver.sol\":2596:2605  amUSDTAmt */\n      dup5\n        /* \"contracts/SAAVE_Receiver.sol\":2546:2606  IERC20(amUSDT).transferFrom(address(this), owner, amUSDTAmt) */\n      mload(0x40)\n      dup5\n      0xffffffff\n      and\n      0xe0\n      shl\n      dup2\n      mstore\n      0x04\n      add\n      tag_86\n      swap4\n      swap3\n      swap2\n      swap1\n      tag_78\n      jump\t// in\n    tag_86:\n      0x20\n      mload(0x40)\n      dup1\n      dup4\n      sub\n      dup2\n      0x00\n      dup8\n      gas\n      call\n      iszero\n      dup1\n      iszero\n      tag_88\n      jumpi\n      returndatasize\n      0x00\n      dup1\n      returndatacopy\n      revert(0x00, returndatasize)\n    tag_88:\n      pop\n      pop\n      pop\n      pop\n      mload(0x40)\n      returndatasize\n      not(0x1f)\n      0x1f\n      dup3\n      add\n      and\n      dup3\n      add\n      dup1\n      0x40\n      mstore\n      pop\n      dup2\n      add\n      swap1\n      tag_89\n      swap2\n      swap1\n      tag_68\n      jump\t// in\n    tag_89:\n      pop\n        /* \"contracts/SAAVE_Receiver.sol\":1909:2634  {... */\n      pop\n      pop\n      pop\n        /* \"contracts/SAAVE_Receiver.sol\":1877:2634  function withdrawAll() external {... */\n      jump\t// out\n        /* \"contracts/AAVEActions.sol\":794:1471  function depositStablesAAVE() internal {... */\n    tag_17:\n        /* \"contracts/AAVEActions.sol\":846:866  uint16 REFERRAL_CODE */\n      0x00\n        /* \"contracts/AAVEActions.sol\":891:902  uint daiAmt */\n      dup1\n        /* \"contracts/AAVEActions.sol\":905:908  DAI */\n      0x0d\n      0x00\n      swap1\n      sload\n      swap1\n      0x0100\n      exp\n      swap1\n      div\n      0xffffffffffffffffffffffffffffffffffffffff\n      and\n        /* \"contracts/AAVEActions.sol\":905:918  DAI.balanceOf */\n      0xffffffffffffffffffffffffffffffffffffffff\n      and\n      0x70a08231\n        /* \"contracts/AAVEActions.sol\":927:931  this */\n      address\n        /* \"contracts/AAVEActions.sol\":905:933  DAI.balanceOf(address(this)) */\n      mload(0x40)\n      dup3\n      0xffffffff\n      and\n      0xe0\n      shl\n      dup2\n      mstore\n      0x04\n      add\n      tag_91\n      swap2\n      swap1\n      tag_25\n      jump\t// in\n    tag_91:\n      0x20\n      mload(0x40)\n      dup1\n      dup4\n      sub\n      dup2\n      dup7\n      gas\n      staticcall\n      iszero\n      dup1\n      iszero\n      tag_93\n      jumpi\n      returndatasize\n      0x00\n      dup1\n      returndatacopy\n      revert(0x00, returndatasize)\n    tag_93:\n      pop\n      pop\n      pop\n      pop\n      mload(0x40)\n      returndatasize\n      not(0x1f)\n      0x1f\n      dup3\n      add\n      and\n      dup3\n      add\n      dup1\n      0x40\n      mstore\n      pop\n      dup2\n      add\n      swap1\n      tag_94\n      swap2\n      swap1\n      tag_29\n      jump\t// in\n    tag_94:\n        /* \"contracts/AAVEActions.sol\":891:933  uint daiAmt = DAI.balanceOf(address(this)) */\n      swap1\n      pop\n        /* \"contracts/AAVEActions.sol\":944:956  uint USDCAmt */\n      0x00\n        /* \"contracts/AAVEActions.sol\":959:963  USDC */\n      0x0c\n      0x00\n      swap1\n      sload\n      swap1\n      0x0100\n      exp\n      swap1\n      div\n      0xffffffffffffffffffffffffffffffffffffffff\n      and\n        /* \"contracts/AAVEActions.sol\":959:973  USDC.balanceOf */\n      0xffffffffffffffffffffffffffffffffffffffff\n      and\n      0x70a08231\n        /* \"contracts/AAVEActions.sol\":982:986  this */\n      address\n        /* \"contracts/AAVEActions.sol\":959:988  USDC.balanceOf(address(this)) */\n      mload(0x40)\n      dup3\n      0xffffffff\n      and\n      0xe0\n      shl\n      dup2\n      mstore\n      0x04\n      add\n      tag_95\n      swap2\n      swap1\n      tag_25\n      jump\t// in\n    tag_95:\n      0x20\n      mload(0x40)\n      dup1\n      dup4\n      sub\n      dup2\n      dup7\n      gas\n      staticcall\n      iszero\n      dup1\n      iszero\n      tag_97\n      jumpi\n      returndatasize\n      0x00\n      dup1\n      returndatacopy\n      revert(0x00, returndatasize)\n    tag_97:\n      pop\n      pop\n      pop\n      pop\n      mload(0x40)\n      returndatasize\n      not(0x1f)\n      0x1f\n      dup3\n      add\n      and\n      dup3\n      add\n      dup1\n      0x40\n      mstore\n      pop\n      dup2\n      add\n      swap1\n      tag_98\n      swap2\n      swap1\n      tag_29\n      jump\t// in\n    tag_98:\n        /* \"contracts/AAVEActions.sol\":944:988  uint USDCAmt = USDC.balanceOf(address(this)) */\n      swap1\n      pop\n        /* \"contracts/AAVEActions.sol\":999:1011  uint USDTAmt */\n      0x00\n        /* \"contracts/AAVEActions.sol\":1014:1018  USDT */\n      0x0e\n      0x00\n      swap1\n      sload\n      swap1\n      0x0100\n      exp\n      swap1\n      div\n      0xffffffffffffffffffffffffffffffffffffffff\n      and\n        /* \"contracts/AAVEActions.sol\":1014:1028  USDT.balanceOf */\n      0xffffffffffffffffffffffffffffffffffffffff\n      and\n      0x70a08231\n        /* \"contracts/AAVEActions.sol\":1037:1041  this */\n      address\n        /* \"contracts/AAVEActions.sol\":1014:1043  USDT.balanceOf(address(this)) */\n      mload(0x40)\n      dup3\n      0xffffffff\n      and\n      0xe0\n      shl\n      dup2\n      mstore\n      0x04\n      add\n      tag_99\n      swap2\n      swap1\n      tag_25\n      jump\t// in\n    tag_99:\n      0x20\n      mload(0x40)\n      dup1\n      dup4\n      sub\n      dup2\n      dup7\n      gas\n      staticcall\n      iszero\n      dup1\n      iszero\n      tag_101\n      jumpi\n      returndatasize\n      0x00\n      dup1\n      returndatacopy\n      revert(0x00, returndatasize)\n    tag_101:\n      pop\n      pop\n      pop\n      pop\n      mload(0x40)\n      returndatasize\n      not(0x1f)\n      0x1f\n      dup3\n      add\n      and\n      dup3\n      add\n      dup1\n      0x40\n      mstore\n      pop\n      dup2\n      add\n      swap1\n      tag_102\n      swap2\n      swap1\n      tag_29\n      jump\t// in\n    tag_102:\n        /* \"contracts/AAVEActions.sol\":999:1043  uint USDTAmt = USDT.balanceOf(address(this)) */\n      swap1\n      pop\n        /* \"contracts/AAVEActions.sol\":1056:1059  DAI */\n      0x0d\n      0x00\n      swap1\n      sload\n      swap1\n      0x0100\n      exp\n      swap1\n      div\n      0xffffffffffffffffffffffffffffffffffffffff\n      and\n        /* \"contracts/AAVEActions.sol\":1056:1067  DAI.approve */\n      0xffffffffffffffffffffffffffffffffffffffff\n      and\n      0x095ea7b3\n        /* \"contracts/AAVEActions.sol\":1076:1087  LendingPool */\n      0x10\n      0x00\n      swap1\n      sload\n      swap1\n      0x0100\n      exp\n      swap1\n      div\n      0xffffffffffffffffffffffffffffffffffffffff\n      and\n        /* \"contracts/AAVEActions.sol\":1090:1096  daiAmt */\n      dup6\n        /* \"contracts/AAVEActions.sol\":1056:1098  DAI.approve(address(LendingPool), daiAmt ) */\n      mload(0x40)\n      dup4\n      0xffffffff\n      and\n      0xe0\n      shl\n      dup2\n      mstore\n      0x04\n      add\n      tag_103\n      swap3\n      swap2\n      swap1\n      tag_64\n      jump\t// in\n    tag_103:\n      0x20\n      mload(0x40)\n      dup1\n      dup4\n      sub\n      dup2\n      0x00\n      dup8\n      gas\n      call\n      iszero\n      dup1\n      iszero\n      tag_105\n      jumpi\n      returndatasize\n      0x00\n      dup1\n      returndatacopy\n      revert(0x00, returndatasize)\n    tag_105:\n      pop\n      pop\n      pop\n      pop\n      mload(0x40)\n      returndatasize\n      not(0x1f)\n      0x1f\n      dup3\n      add\n      and\n      dup3\n      add\n      dup1\n      0x40\n      mstore\n      pop\n      dup2\n      add\n      swap1\n      tag_106\n      swap2\n      swap1\n      tag_68\n      jump\t// in\n    tag_106:\n      pop\n        /* \"contracts/AAVEActions.sol\":1109:1113  USDC */\n      0x0c\n      0x00\n      swap1\n      sload\n      swap1\n      0x0100\n      exp\n      swap1\n      div\n      0xffffffffffffffffffffffffffffffffffffffff\n      and\n        /* \"contracts/AAVEActions.sol\":1109:1121  USDC.approve */\n      0xffffffffffffffffffffffffffffffffffffffff\n      and\n      0x095ea7b3\n        /* \"contracts/AAVEActions.sol\":1130:1141  LendingPool */\n      0x10\n      0x00\n      swap1\n      sload\n      swap1\n      0x0100\n      exp\n      swap1\n      div\n      0xffffffffffffffffffffffffffffffffffffffff\n      and\n        /* \"contracts/AAVEActions.sol\":1144:1151  USDCAmt */\n      dup5\n        /* \"contracts/AAVEActions.sol\":1109:1152  USDC.approve(address(LendingPool), USDCAmt) */\n      mload(0x40)\n      dup4\n      0xffffffff\n      and\n      0xe0\n      shl\n      dup2\n      mstore\n      0x04\n      add\n      tag_107\n      swap3\n      swap2\n      swap1\n      tag_64\n      jump\t// in\n    tag_107:\n      0x20\n      mload(0x40)\n      dup1\n      dup4\n      sub\n      dup2\n      0x00\n      dup8\n      gas\n      call\n      iszero\n      dup1\n      iszero\n      tag_109\n      jumpi\n      returndatasize\n      0x00\n      dup1\n      returndatacopy\n      revert(0x00, returndatasize)\n    tag_109:\n      pop\n      pop\n      pop\n      pop\n      mload(0x40)\n      returndatasize\n      not(0x1f)\n      0x1f\n      dup3\n      add\n      and\n      dup3\n      add\n      dup1\n      0x40\n      mstore\n      pop\n      dup2\n      add\n      swap1\n      tag_110\n      swap2\n      swap1\n      tag_68\n      jump\t// in\n    tag_110:\n      pop\n        /* \"contracts/AAVEActions.sol\":1163:1167  USDT */\n      0x0e\n      0x00\n      swap1\n      sload\n      swap1\n      0x0100\n      exp\n      swap1\n      div\n      0xffffffffffffffffffffffffffffffffffffffff\n      and\n        /* \"contracts/AAVEActions.sol\":1163:1175  USDT.approve */\n      0xffffffffffffffffffffffffffffffffffffffff\n      and\n      0x095ea7b3\n        /* \"contracts/AAVEActions.sol\":1184:1195  LendingPool */\n      0x10\n      0x00\n      swap1\n      sload\n      swap1\n      0x0100\n      exp\n      swap1\n      div\n      0xffffffffffffffffffffffffffffffffffffffff\n      and\n        /* \"contracts/AAVEActions.sol\":1198:1205  USDTAmt */\n      dup4\n        /* \"contracts/AAVEActions.sol\":1163:1206  USDT.approve(address(LendingPool), USDTAmt) */\n      mload(0x40)\n      dup4\n      0xffffffff\n      and\n      0xe0\n      shl\n      dup2\n      mstore\n      0x04\n      add\n      tag_111\n      swap3\n      swap2\n      swap1\n      tag_64\n      jump\t// in\n    tag_111:\n      0x20\n      mload(0x40)\n      dup1\n      dup4\n      sub\n      dup2\n      0x00\n      dup8\n      gas\n      call\n      iszero\n      dup1\n      iszero\n      tag_113\n      jumpi\n      returndatasize\n      0x00\n      dup1\n      returndatacopy\n      revert(0x00, returndatasize)\n    tag_113:\n      pop\n      pop\n      pop\n      pop\n      mload(0x40)\n      returndatasize\n      not(0x1f)\n      0x1f\n      dup3\n      add\n      and\n      dup3\n      add\n      dup1\n      0x40\n      mstore\n      pop\n      dup2\n      add\n      swap1\n      tag_114\n      swap2\n      swap1\n      tag_68\n      jump\t// in\n    tag_114:\n      pop\n        /* \"contracts/AAVEActions.sol\":1219:1230  LendingPool */\n      0x10\n      0x00\n      swap1\n      sload\n      swap1\n      0x0100\n      exp\n      swap1\n      div\n      0xffffffffffffffffffffffffffffffffffffffff\n      and\n        /* \"contracts/AAVEActions.sol\":1219:1238  LendingPool.deposit */\n      0xffffffffffffffffffffffffffffffffffffffff\n      and\n      0xe8eda9df\n        /* \"contracts/AAVEActions.sol\":1247:1250  DAI */\n      0x0d\n      0x00\n      swap1\n      sload\n      swap1\n      0x0100\n      exp\n      swap1\n      div\n      0xffffffffffffffffffffffffffffffffffffffff\n      and\n        /* \"contracts/AAVEActions.sol\":1253:1259  daiAmt */\n      dup6\n        /* \"contracts/AAVEActions.sol\":1270:1274  this */\n      address\n        /* \"contracts/AAVEActions.sol\":1277:1290  REFERRAL_CODE */\n      dup9\n        /* \"contracts/AAVEActions.sol\":1219:1291  LendingPool.deposit(address(DAI), daiAmt , address(this), REFERRAL_CODE) */\n      mload(0x40)\n      dup6\n      0xffffffff\n      and\n      0xe0\n      shl\n      dup2\n      mstore\n      0x04\n      add\n      tag_115\n      swap5\n      swap4\n      swap3\n      swap2\n      swap1\n      tag_116\n      jump\t// in\n    tag_115:\n      0x00\n      mload(0x40)\n      dup1\n      dup4\n      sub\n      dup2\n      0x00\n      dup8\n      dup1\n      extcodesize\n      iszero\n      dup1\n      iszero\n      tag_117\n      jumpi\n      0x00\n      dup1\n      revert\n    tag_117:\n      pop\n      gas\n      call\n      iszero\n      dup1\n      iszero\n      tag_119\n      jumpi\n      returndatasize\n      0x00\n      dup1\n      returndatacopy\n      revert(0x00, returndatasize)\n    tag_119:\n      pop\n      pop\n      pop\n      pop\n        /* \"contracts/AAVEActions.sol\":1302:1313  LendingPool */\n      0x10\n      0x00\n      swap1\n      sload\n      swap1\n      0x0100\n      exp\n      swap1\n      div\n      0xffffffffffffffffffffffffffffffffffffffff\n      and\n        /* \"contracts/AAVEActions.sol\":1302:1321  LendingPool.deposit */\n      0xffffffffffffffffffffffffffffffffffffffff\n      and\n      0xe8eda9df\n        /* \"contracts/AAVEActions.sol\":1330:1334  USDC */\n      0x0c\n      0x00\n      swap1\n      sload\n      swap1\n      0x0100\n      exp\n      swap1\n      div\n      0xffffffffffffffffffffffffffffffffffffffff\n      and\n        /* \"contracts/AAVEActions.sol\":1337:1344  USDCAmt */\n      dup5\n        /* \"contracts/AAVEActions.sol\":1355:1359  this */\n      address\n        /* \"contracts/AAVEActions.sol\":1362:1375  REFERRAL_CODE */\n      dup9\n        /* \"contracts/AAVEActions.sol\":1302:1376  LendingPool.deposit(address(USDC), USDCAmt , address(this), REFERRAL_CODE) */\n      mload(0x40)\n      dup6\n      0xffffffff\n      and\n      0xe0\n      shl\n      dup2\n      mstore\n      0x04\n      add\n      tag_120\n      swap5\n      swap4\n      swap3\n      swap2\n      swap1\n      tag_116\n      jump\t// in\n    tag_120:\n      0x00\n      mload(0x40)\n      dup1\n      dup4\n      sub\n      dup2\n      0x00\n      dup8\n      dup1\n      extcodesize\n      iszero\n      dup1\n      iszero\n      tag_121\n      jumpi\n      0x00\n      dup1\n      revert\n    tag_121:\n      pop\n      gas\n      call\n      iszero\n      dup1\n      iszero\n      tag_123\n      jumpi\n      returndatasize\n      0x00\n      dup1\n      returndatacopy\n      revert(0x00, returndatasize)\n    tag_123:\n      pop\n      pop\n      pop\n      pop\n        /* \"contracts/AAVEActions.sol\":1387:1398  LendingPool */\n      0x10\n      0x00\n      swap1\n      sload\n      swap1\n      0x0100\n      exp\n      swap1\n      div\n      0xffffffffffffffffffffffffffffffffffffffff\n      and\n        /* \"contracts/AAVEActions.sol\":1387:1406  LendingPool.deposit */\n      0xffffffffffffffffffffffffffffffffffffffff\n      and\n      0xe8eda9df\n        /* \"contracts/AAVEActions.sol\":1415:1419  USDT */\n      0x0e\n      0x00\n      swap1\n      sload\n      swap1\n      0x0100\n      exp\n      swap1\n      div\n      0xffffffffffffffffffffffffffffffffffffffff\n      and\n        /* \"contracts/AAVEActions.sol\":1422:1429  USDTAmt */\n      dup4\n        /* \"contracts/AAVEActions.sol\":1440:1444  this */\n      address\n        /* \"contracts/AAVEActions.sol\":1447:1460  REFERRAL_CODE */\n      dup9\n        /* \"contracts/AAVEActions.sol\":1387:1461  LendingPool.deposit(address(USDT), USDTAmt , address(this), REFERRAL_CODE) */\n      mload(0x40)\n      dup6\n      0xffffffff\n      and\n      0xe0\n      shl\n      dup2\n      mstore\n      0x04\n      add\n      tag_124\n      swap5\n      swap4\n      swap3\n      swap2\n      swap1\n      tag_116\n      jump\t// in\n    tag_124:\n      0x00\n      mload(0x40)\n      dup1\n      dup4\n      sub\n      dup2\n      0x00\n      dup8\n      dup1\n      extcodesize\n      iszero\n      dup1\n      iszero\n      tag_125\n      jumpi\n      0x00\n      dup1\n      revert\n    tag_125:\n      pop\n      gas\n      call\n      iszero\n      dup1\n      iszero\n      tag_127\n      jumpi\n      returndatasize\n      0x00\n      dup1\n      returndatacopy\n      revert(0x00, returndatasize)\n    tag_127:\n      pop\n      pop\n      pop\n      pop\n        /* \"contracts/AAVEActions.sol\":833:1471  {... */\n      pop\n      pop\n      pop\n      pop\n        /* \"contracts/AAVEActions.sol\":794:1471  function depositStablesAAVE() internal {... */\n      jump\t// out\n        /* \"contracts/curveActions.sol\":1236:1524  function addCurve(uint _daiAmount, uint _USDCAmount, uint _USDTAmount) internal {... */\n    tag_19:\n        /* \"contracts/curveActions.sol\":1329:1359  uint[3] memory aaveTokenAmount */\n      0x00\n        /* \"contracts/curveActions.sol\":1329:1400  uint[3] memory aaveTokenAmount = [_daiAmount, _USDCAmount, _USDTAmount] */\n      mload(0x40)\n      dup1\n      0x60\n      add\n      0x40\n      mstore\n      dup1\n        /* \"contracts/curveActions.sol\":1363:1373  _daiAmount */\n      dup6\n        /* \"contracts/curveActions.sol\":1329:1400  uint[3] memory aaveTokenAmount = [_daiAmount, _USDCAmount, _USDTAmount] */\n      dup2\n      mstore\n      0x20\n      add\n        /* \"contracts/curveActions.sol\":1375:1386  _USDCAmount */\n      dup5\n        /* \"contracts/curveActions.sol\":1329:1400  uint[3] memory aaveTokenAmount = [_daiAmount, _USDCAmount, _USDTAmount] */\n      dup2\n      mstore\n      0x20\n      add\n        /* \"contracts/curveActions.sol\":1388:1399  _USDTAmount */\n      dup4\n        /* \"contracts/curveActions.sol\":1329:1400  uint[3] memory aaveTokenAmount = [_daiAmount, _USDCAmount, _USDTAmount] */\n      dup2\n      mstore\n      pop\n      swap1\n      pop\n        /* \"contracts/curveActions.sol\":1467:1480  AAVECurvePool */\n      0x01\n      0x00\n      swap1\n      sload\n      swap1\n      0x0100\n      exp\n      swap1\n      div\n      0xffffffffffffffffffffffffffffffffffffffff\n      and\n        /* \"contracts/curveActions.sol\":1467:1494  AAVECurvePool.add_liquidity */\n      0xffffffffffffffffffffffffffffffffffffffff\n      and\n      0x4515cef3\n        /* \"contracts/curveActions.sol\":1495:1510  aaveTokenAmount */\n      dup3\n        /* \"contracts/curveActions.sol\":1512:1513  0 */\n      0x00\n        /* \"contracts/curveActions.sol\":1467:1514  AAVECurvePool.add_liquidity(aaveTokenAmount, 0) */\n      mload(0x40)\n      dup4\n      0xffffffff\n      and\n      0xe0\n      shl\n      dup2\n      mstore\n      0x04\n      add\n      tag_129\n      swap3\n      swap2\n      swap1\n      tag_130\n      jump\t// in\n    tag_129:\n      0x20\n      mload(0x40)\n      dup1\n      dup4\n      sub\n      dup2\n      0x00\n      dup8\n      gas\n      call\n      iszero\n      dup1\n      iszero\n      tag_132\n      jumpi\n      returndatasize\n      0x00\n      dup1\n      returndatacopy\n      revert(0x00, returndatasize)\n    tag_132:\n      pop\n      pop\n      pop\n      pop\n      mload(0x40)\n      returndatasize\n      not(0x1f)\n      0x1f\n      dup3\n      add\n      and\n      dup3\n      add\n      dup1\n      0x40\n      mstore\n      pop\n      dup2\n      add\n      swap1\n      tag_133\n      swap2\n      swap1\n      tag_29\n      jump\t// in\n    tag_133:\n      pop\n        /* \"contracts/curveActions.sol\":1316:1524  {... */\n      pop\n        /* \"contracts/curveActions.sol\":1236:1524  function addCurve(uint _daiAmount, uint _USDCAmount, uint _USDTAmount) internal {... */\n      pop\n      pop\n      pop\n      jump\t// out\n        /* \"contracts/curveActions.sol\":1645:1939  function depositGauge() internal {... */\n    tag_21:\n        /* \"contracts/curveActions.sol\":1734:1752  uint am3CRV_LP_amt */\n      0x00\n        /* \"contracts/curveActions.sol\":1762:1771  am3CRV_LP */\n      0x08\n      0x00\n      swap1\n      sload\n      swap1\n      0x0100\n      exp\n      swap1\n      div\n      0xffffffffffffffffffffffffffffffffffffffff\n      and\n        /* \"contracts/curveActions.sol\":1755:1782  IERC20(am3CRV_LP).balanceOf */\n      0xffffffffffffffffffffffffffffffffffffffff\n      and\n      0x70a08231\n        /* \"contracts/curveActions.sol\":1791:1795  this */\n      address\n        /* \"contracts/curveActions.sol\":1755:1797  IERC20(am3CRV_LP).balanceOf(address(this)) */\n      mload(0x40)\n      dup3\n      0xffffffff\n      and\n      0xe0\n      shl\n      dup2\n      mstore\n      0x04\n      add\n      tag_135\n      swap2\n      swap1\n      tag_25\n      jump\t// in\n    tag_135:\n      0x20\n      mload(0x40)\n      dup1\n      dup4\n      sub\n      dup2\n      dup7\n      gas\n      staticcall\n      iszero\n      dup1\n      iszero\n      tag_137\n      jumpi\n      returndatasize\n      0x00\n      dup1\n      returndatacopy\n      revert(0x00, returndatasize)\n    tag_137:\n      pop\n      pop\n      pop\n      pop\n      mload(0x40)\n      returndatasize\n      not(0x1f)\n      0x1f\n      dup3\n      add\n      and\n      dup3\n      add\n      dup1\n      0x40\n      mstore\n      pop\n      dup2\n      add\n      swap1\n      tag_138\n      swap2\n      swap1\n      tag_29\n      jump\t// in\n    tag_138:\n        /* \"contracts/curveActions.sol\":1734:1797  uint am3CRV_LP_amt = IERC20(am3CRV_LP).balanceOf(address(this)) */\n      swap1\n      pop\n        /* \"contracts/curveActions.sol\":1817:1826  am3CRV_LP */\n      0x08\n      0x00\n      swap1\n      sload\n      swap1\n      0x0100\n      exp\n      swap1\n      div\n      0xffffffffffffffffffffffffffffffffffffffff\n      and\n        /* \"contracts/curveActions.sol\":1810:1835  IERC20(am3CRV_LP).approve */\n      0xffffffffffffffffffffffffffffffffffffffff\n      and\n      0x095ea7b3\n        /* \"contracts/curveActions.sol\":1836:1855  am3CRVGaugePoolAddr */\n      0x02\n      0x00\n      swap1\n      sload\n      swap1\n      0x0100\n      exp\n      swap1\n      div\n      0xffffffffffffffffffffffffffffffffffffffff\n      and\n        /* \"contracts/curveActions.sol\":1857:1870  am3CRV_LP_amt */\n      dup4\n        /* \"contracts/curveActions.sol\":1810:1871  IERC20(am3CRV_LP).approve(am3CRVGaugePoolAddr, am3CRV_LP_amt) */\n      mload(0x40)\n      dup4\n      0xffffffff\n      and\n      0xe0\n      shl\n      dup2\n      mstore\n      0x04\n      add\n      tag_139\n      swap3\n      swap2\n      swap1\n      tag_64\n      jump\t// in\n    tag_139:\n      0x20\n      mload(0x40)\n      dup1\n      dup4\n      sub\n      dup2\n      0x00\n      dup8\n      gas\n      call\n      iszero\n      dup1\n      iszero\n      tag_141\n      jumpi\n      returndatasize\n      0x00\n      dup1\n      returndatacopy\n      revert(0x00, returndatasize)\n    tag_141:\n      pop\n      pop\n      pop\n      pop\n      mload(0x40)\n      returndatasize\n      not(0x1f)\n      0x1f\n      dup3\n      add\n      and\n      dup3\n      add\n      dup1\n      0x40\n      mstore\n      pop\n      dup2\n      add\n      swap1\n      tag_142\n      swap2\n      swap1\n      tag_68\n      jump\t// in\n    tag_142:\n      pop\n        /* \"contracts/curveActions.sol\":1884:1893  gaugePool */\n      0x03\n      0x00\n      swap1\n      sload\n      swap1\n      0x0100\n      exp\n      swap1\n      div\n      0xffffffffffffffffffffffffffffffffffffffff\n      and\n        /* \"contracts/curveActions.sol\":1884:1901  gaugePool.deposit */\n      0xffffffffffffffffffffffffffffffffffffffff\n      and\n      0x6e553f65\n        /* \"contracts/curveActions.sol\":1902:1915  am3CRV_LP_amt */\n      dup3\n        /* \"contracts/curveActions.sol\":1925:1929  this */\n      address\n        /* \"contracts/curveActions.sol\":1884:1931  gaugePool.deposit(am3CRV_LP_amt, address(this)) */\n      mload(0x40)\n      dup4\n      0xffffffff\n      and\n      0xe0\n      shl\n      dup2\n      mstore\n      0x04\n      add\n      tag_143\n      swap3\n      swap2\n      swap1\n      tag_144\n      jump\t// in\n    tag_143:\n      0x00\n      mload(0x40)\n      dup1\n      dup4\n      sub\n      dup2\n      0x00\n      dup8\n      dup1\n      extcodesize\n      iszero\n      dup1\n      iszero\n      tag_145\n      jumpi\n      0x00\n      dup1\n      revert\n    tag_145:\n      pop\n      gas\n      call\n      iszero\n      dup1\n      iszero\n      tag_147\n      jumpi\n      returndatasize\n      0x00\n      dup1\n      returndatacopy\n      revert(0x00, returndatasize)\n    tag_147:\n      pop\n      pop\n      pop\n      pop\n        /* \"contracts/curveActions.sol\":1678:1939  {... */\n      pop\n        /* \"contracts/curveActions.sol\":1645:1939  function depositGauge() internal {... */\n      jump\t// out\n        /* \"contracts/curveActions.sol\":1949:2229  function withdrawGauge() internal returns(uint256) {... */\n    tag_39:\n        /* \"contracts/curveActions.sol\":1991:1998  uint256 */\n      0x00\n        /* \"contracts/curveActions.sol\":2013:2031  uint stakeTokenAmt */\n      dup1\n        /* \"contracts/curveActions.sol\":2041:2050  am3CRV_LP */\n      0x08\n      0x00\n      swap1\n      sload\n      swap1\n      0x0100\n      exp\n      swap1\n      div\n      0xffffffffffffffffffffffffffffffffffffffff\n      and\n        /* \"contracts/curveActions.sol\":2034:2061  IERC20(am3CRV_LP).balanceOf */\n      0xffffffffffffffffffffffffffffffffffffffff\n      and\n      0x70a08231\n        /* \"contracts/curveActions.sol\":2070:2074  this */\n      address\n        /* \"contracts/curveActions.sol\":2034:2076  IERC20(am3CRV_LP).balanceOf(address(this)) */\n      mload(0x40)\n      dup3\n      0xffffffff\n      and\n      0xe0\n      shl\n      dup2\n      mstore\n      0x04\n      add\n      tag_149\n      swap2\n      swap1\n      tag_25\n      jump\t// in\n    tag_149:\n      0x20\n      mload(0x40)\n      dup1\n      dup4\n      sub\n      dup2\n      dup7\n      gas\n      staticcall\n      iszero\n      dup1\n      iszero\n      tag_151\n      jumpi\n      returndatasize\n      0x00\n      dup1\n      returndatacopy\n      revert(0x00, returndatasize)\n    tag_151:\n      pop\n      pop\n      pop\n      pop\n      mload(0x40)\n      returndatasize\n      not(0x1f)\n      0x1f\n      dup3\n      add\n      and\n      dup3\n      add\n      dup1\n      0x40\n      mstore\n      pop\n      dup2\n      add\n      swap1\n      tag_152\n      swap2\n      swap1\n      tag_29\n      jump\t// in\n    tag_152:\n        /* \"contracts/curveActions.sol\":2013:2076  uint stakeTokenAmt = IERC20(am3CRV_LP).balanceOf(address(this)) */\n      swap1\n      pop\n        /* \"contracts/curveActions.sol\":2089:2098  gaugePool */\n      0x03\n      0x00\n      swap1\n      sload\n      swap1\n      0x0100\n      exp\n      swap1\n      div\n      0xffffffffffffffffffffffffffffffffffffffff\n      and\n        /* \"contracts/curveActions.sol\":2089:2107  gaugePool.withdraw */\n      0xffffffffffffffffffffffffffffffffffffffff\n      and\n      0x2e1a7d4d\n        /* \"contracts/curveActions.sol\":2108:2121  stakeTokenAmt */\n      dup3\n        /* \"contracts/curveActions.sol\":2089:2122  gaugePool.withdraw(stakeTokenAmt) */\n      mload(0x40)\n      dup3\n      0xffffffff\n      and\n      0xe0\n      shl\n      dup2\n      mstore\n      0x04\n      add\n      tag_153\n      swap2\n      swap1\n      tag_154\n      jump\t// in\n    tag_153:\n      0x00\n      mload(0x40)\n      dup1\n      dup4\n      sub\n      dup2\n      0x00\n      dup8\n      dup1\n      extcodesize\n      iszero\n      dup1\n      iszero\n      tag_155\n      jumpi\n      0x00\n      dup1\n      revert\n    tag_155:\n      pop\n      gas\n      call\n      iszero\n      dup1\n      iszero\n      tag_157\n      jumpi\n      returndatasize\n      0x00\n      dup1\n      returndatacopy\n      revert(0x00, returndatasize)\n    tag_157:\n      pop\n      pop\n      pop\n      pop\n        /* \"contracts/curveActions.sol\":2135:2149  uint crvAmount */\n      0x00\n        /* \"contracts/curveActions.sol\":2159:2166  CRVAddr */\n      0x09\n      0x00\n      swap1\n      sload\n      swap1\n      0x0100\n      exp\n      swap1\n      div\n      0xffffffffffffffffffffffffffffffffffffffff\n      and\n        /* \"contracts/curveActions.sol\":2152:2177  IERC20(CRVAddr).balanceOf */\n      0xffffffffffffffffffffffffffffffffffffffff\n      and\n      0x70a08231\n        /* \"contracts/curveActions.sol\":2186:2190  this */\n      address\n        /* \"contracts/curveActions.sol\":2152:2192  IERC20(CRVAddr).balanceOf(address(this)) */\n      mload(0x40)\n      dup3\n      0xffffffff\n      and\n      0xe0\n      shl\n      dup2\n      mstore\n      0x04\n      add\n      tag_158\n      swap2\n      swap1\n      tag_25\n      jump\t// in\n    tag_158:\n      0x20\n      mload(0x40)\n      dup1\n      dup4\n      sub\n      dup2\n      dup7\n      gas\n      staticcall\n      iszero\n      dup1\n      iszero\n      tag_160\n      jumpi\n      returndatasize\n      0x00\n      dup1\n      returndatacopy\n      revert(0x00, returndatasize)\n    tag_160:\n      pop\n      pop\n      pop\n      pop\n      mload(0x40)\n      returndatasize\n      not(0x1f)\n      0x1f\n      dup3\n      add\n      and\n      dup3\n      add\n      dup1\n      0x40\n      mstore\n      pop\n      dup2\n      add\n      swap1\n      tag_161\n      swap2\n      swap1\n      tag_29\n      jump\t// in\n    tag_161:\n        /* \"contracts/curveActions.sol\":2135:2192  uint crvAmount = IERC20(CRVAddr).balanceOf(address(this)) */\n      swap1\n      pop\n        /* \"contracts/curveActions.sol\":2210:2219  crvAmount */\n      dup1\n        /* \"contracts/curveActions.sol\":2203:2219  return crvAmount */\n      swap3\n      pop\n      pop\n      pop\n        /* \"contracts/curveActions.sol\":1949:2229  function withdrawGauge() internal returns(uint256) {... */\n      swap1\n      jump\t// out\n        /* \"contracts/curveActions.sol\":2798:3591  function swapCRVtoAM3CRV() internal {... */\n    tag_41:\n        /* \"contracts/curveActions.sol\":2845:2871  uint256[3] memory expected */\n      tag_163\n      tag_164\n      jump\t// in\n    tag_163:\n        /* \"contracts/curveActions.sol\":2882:2893  uint CRVAmt */\n      0x00\n        /* \"contracts/curveActions.sol\":2903:2910  CRVAddr */\n      0x09\n      0x00\n      swap1\n      sload\n      swap1\n      0x0100\n      exp\n      swap1\n      div\n      0xffffffffffffffffffffffffffffffffffffffff\n      and\n        /* \"contracts/curveActions.sol\":2896:2921  IERC20(CRVAddr).balanceOf */\n      0xffffffffffffffffffffffffffffffffffffffff\n      and\n      0x70a08231\n        /* \"contracts/curveActions.sol\":2930:2934  this */\n      address\n        /* \"contracts/curveActions.sol\":2896:2936  IERC20(CRVAddr).balanceOf(address(this)) */\n      mload(0x40)\n      dup3\n      0xffffffff\n      and\n      0xe0\n      shl\n      dup2\n      mstore\n      0x04\n      add\n      tag_165\n      swap2\n      swap1\n      tag_25\n      jump\t// in\n    tag_165:\n      0x20\n      mload(0x40)\n      dup1\n      dup4\n      sub\n      dup2\n      dup7\n      gas\n      staticcall\n      iszero\n      dup1\n      iszero\n      tag_167\n      jumpi\n      returndatasize\n      0x00\n      dup1\n      returndatacopy\n      revert(0x00, returndatasize)\n    tag_167:\n      pop\n      pop\n      pop\n      pop\n      mload(0x40)\n      returndatasize\n      not(0x1f)\n      0x1f\n      dup3\n      add\n      and\n      dup3\n      add\n      dup1\n      0x40\n      mstore\n      pop\n      dup2\n      add\n      swap1\n      tag_168\n      swap2\n      swap1\n      tag_29\n      jump\t// in\n    tag_168:\n        /* \"contracts/curveActions.sol\":2882:2936  uint CRVAmt = IERC20(CRVAddr).balanceOf(address(this)) */\n      swap1\n      pop\n        /* \"contracts/curveActions.sol\":3036:3046  CRVTriPool */\n      0x05\n      0x00\n      swap1\n      sload\n      swap1\n      0x0100\n      exp\n      swap1\n      div\n      0xffffffffffffffffffffffffffffffffffffffff\n      and\n        /* \"contracts/curveActions.sol\":3036:3055  CRVTriPool.exchange */\n      0xffffffffffffffffffffffffffffffffffffffff\n      and\n      0x3df02124\n        /* \"contracts/curveActions.sol\":3056:3057  0 */\n      0x00\n        /* \"contracts/curveActions.sol\":3058:3059  1 */\n      0x01\n        /* \"contracts/curveActions.sol\":3060:3066  CRVAmt */\n      dup5\n        /* \"contracts/curveActions.sol\":3067:3068  0 */\n      0x00\n        /* \"contracts/curveActions.sol\":3036:3069  CRVTriPool.exchange(0,1,CRVAmt,0) */\n      mload(0x40)\n      dup6\n      0xffffffff\n      and\n      0xe0\n      shl\n      dup2\n      mstore\n      0x04\n      add\n      tag_169\n      swap5\n      swap4\n      swap3\n      swap2\n      swap1\n      tag_170\n      jump\t// in\n    tag_169:\n      0x20\n      mload(0x40)\n      dup1\n      dup4\n      sub\n      dup2\n      0x00\n      dup8\n      gas\n      call\n      iszero\n      dup1\n      iszero\n      tag_172\n      jumpi\n      returndatasize\n      0x00\n      dup1\n      returndatacopy\n      revert(0x00, returndatasize)\n    tag_172:\n      pop\n      pop\n      pop\n      pop\n      mload(0x40)\n      returndatasize\n      not(0x1f)\n      0x1f\n      dup3\n      add\n      and\n      dup3\n      add\n      dup1\n      0x40\n      mstore\n      pop\n      dup2\n      add\n      swap1\n      tag_173\n      swap2\n      swap1\n      tag_29\n      jump\t// in\n    tag_173:\n      pop\n        /* \"contracts/curveActions.sol\":3082:3099  uint TriPoolLPAmt */\n      0x00\n        /* \"contracts/curveActions.sol\":3109:3126  TricryptoPoolAddr */\n      0x06\n      0x00\n      swap1\n      sload\n      swap1\n      0x0100\n      exp\n      swap1\n      div\n      0xffffffffffffffffffffffffffffffffffffffff\n      and\n        /* \"contracts/curveActions.sol\":3102:3137  IERC20(TricryptoPoolAddr).balanceOf */\n      0xffffffffffffffffffffffffffffffffffffffff\n      and\n      0x70a08231\n        /* \"contracts/curveActions.sol\":3146:3150  this */\n      address\n        /* \"contracts/curveActions.sol\":3102:3152  IERC20(TricryptoPoolAddr).balanceOf(address(this)) */\n      mload(0x40)\n      dup3\n      0xffffffff\n      and\n      0xe0\n      shl\n      dup2\n      mstore\n      0x04\n      add\n      tag_174\n      swap2\n      swap1\n      tag_25\n      jump\t// in\n    tag_174:\n      0x20\n      mload(0x40)\n      dup1\n      dup4\n      sub\n      dup2\n      dup7\n      gas\n      staticcall\n      iszero\n      dup1\n      iszero\n      tag_176\n      jumpi\n      returndatasize\n      0x00\n      dup1\n      returndatacopy\n      revert(0x00, returndatasize)\n    tag_176:\n      pop\n      pop\n      pop\n      pop\n      mload(0x40)\n      returndatasize\n      not(0x1f)\n      0x1f\n      dup3\n      add\n      and\n      dup3\n      add\n      dup1\n      0x40\n      mstore\n      pop\n      dup2\n      add\n      swap1\n      tag_177\n      swap2\n      swap1\n      tag_29\n      jump\t// in\n    tag_177:\n        /* \"contracts/curveActions.sol\":3082:3152  uint TriPoolLPAmt = IERC20(TricryptoPoolAddr).balanceOf(address(this)) */\n      swap1\n      pop\n        /* \"contracts/curveActions.sol\":3239:3252  TricryptoPool */\n      0x07\n      0x00\n      swap1\n      sload\n      swap1\n      0x0100\n      exp\n      swap1\n      div\n      0xffffffffffffffffffffffffffffffffffffffff\n      and\n        /* \"contracts/curveActions.sol\":3239:3269  TricryptoPool.remove_liquidity */\n      0xffffffffffffffffffffffffffffffffffffffff\n      and\n      0xecb586a5\n        /* \"contracts/curveActions.sol\":3270:3282  TriPoolLPAmt */\n      dup3\n        /* \"contracts/curveActions.sol\":3284:3292  expected */\n      dup6\n        /* \"contracts/curveActions.sol\":3239:3293  TricryptoPool.remove_liquidity(TriPoolLPAmt, expected) */\n      mload(0x40)\n      dup4\n      0xffffffff\n      and\n      0xe0\n      shl\n      dup2\n      mstore\n      0x04\n      add\n      tag_178\n      swap3\n      swap2\n      swap1\n      tag_179\n      jump\t// in\n    tag_178:\n      0x20\n      mload(0x40)\n      dup1\n      dup4\n      sub\n      dup2\n      0x00\n      dup8\n      gas\n      call\n      iszero\n      dup1\n      iszero\n      tag_181\n      jumpi\n      returndatasize\n      0x00\n      dup1\n      returndatacopy\n      revert(0x00, returndatasize)\n    tag_181:\n      pop\n      pop\n      pop\n      pop\n      mload(0x40)\n      returndatasize\n      not(0x1f)\n      0x1f\n      dup3\n      add\n      and\n      dup3\n      add\n      dup1\n      0x40\n      mstore\n      pop\n      dup2\n      add\n      swap1\n      tag_182\n      swap2\n      swap1\n      tag_29\n      jump\t// in\n    tag_182:\n      pop\n        /* \"contracts/curveActions.sol\":3354:3368  uint amWBTCAmt */\n      0x00\n        /* \"contracts/curveActions.sol\":3378:3384  amWBTC */\n      0x0a\n      0x00\n      swap1\n      sload\n      swap1\n      0x0100\n      exp\n      swap1\n      div\n      0xffffffffffffffffffffffffffffffffffffffff\n      and\n        /* \"contracts/curveActions.sol\":3371:3395  IERC20(amWBTC).balanceOf */\n      0xffffffffffffffffffffffffffffffffffffffff\n      and\n      0x70a08231\n        /* \"contracts/curveActions.sol\":3404:3408  this */\n      address\n        /* \"contracts/curveActions.sol\":3371:3410  IERC20(amWBTC).balanceOf(address(this)) */\n      mload(0x40)\n      dup3\n      0xffffffff\n      and\n      0xe0\n      shl\n      dup2\n      mstore\n      0x04\n      add\n      tag_183\n      swap2\n      swap1\n      tag_25\n      jump\t// in\n    tag_183:\n      0x20\n      mload(0x40)\n      dup1\n      dup4\n      sub\n      dup2\n      dup7\n      gas\n      staticcall\n      iszero\n      dup1\n      iszero\n      tag_185\n      jumpi\n      returndatasize\n      0x00\n      dup1\n      returndatacopy\n      revert(0x00, returndatasize)\n    tag_185:\n      pop\n      pop\n      pop\n      pop\n      mload(0x40)\n      returndatasize\n      not(0x1f)\n      0x1f\n      dup3\n      add\n      and\n      dup3\n      add\n      dup1\n      0x40\n      mstore\n      pop\n      dup2\n      add\n      swap1\n      tag_186\n      swap2\n      swap1\n      tag_29\n      jump\t// in\n    tag_186:\n        /* \"contracts/curveActions.sol\":3354:3410  uint amWBTCAmt = IERC20(amWBTC).balanceOf(address(this)) */\n      swap1\n      pop\n        /* \"contracts/curveActions.sol\":3421:3435  uint amWETHAmt */\n      0x00\n        /* \"contracts/curveActions.sol\":3445:3451  amWETH */\n      0x0b\n      0x00\n      swap1\n      sload\n      swap1\n      0x0100\n      exp\n      swap1\n      div\n      0xffffffffffffffffffffffffffffffffffffffff\n      and\n        /* \"contracts/curveActions.sol\":3438:3462  IERC20(amWETH).balanceOf */\n      0xffffffffffffffffffffffffffffffffffffffff\n      and\n      0x70a08231\n        /* \"contracts/curveActions.sol\":3471:3475  this */\n      address\n        /* \"contracts/curveActions.sol\":3438:3477  IERC20(amWETH).balanceOf(address(this)) */\n      mload(0x40)\n      dup3\n      0xffffffff\n      and\n      0xe0\n      shl\n      dup2\n      mstore\n      0x04\n      add\n      tag_187\n      swap2\n      swap1\n      tag_25\n      jump\t// in\n    tag_187:\n      0x20\n      mload(0x40)\n      dup1\n      dup4\n      sub\n      dup2\n      dup7\n      gas\n      staticcall\n      iszero\n      dup1\n      iszero\n      tag_189\n      jumpi\n      returndatasize\n      0x00\n      dup1\n      returndatacopy\n      revert(0x00, returndatasize)\n    tag_189:\n      pop\n      pop\n      pop\n      pop\n      mload(0x40)\n      returndatasize\n      not(0x1f)\n      0x1f\n      dup3\n      add\n      and\n      dup3\n      add\n      dup1\n      0x40\n      mstore\n      pop\n      dup2\n      add\n      swap1\n      tag_190\n      swap2\n      swap1\n      tag_29\n      jump\t// in\n    tag_190:\n        /* \"contracts/curveActions.sol\":3421:3477  uint amWETHAmt = IERC20(amWETH).balanceOf(address(this)) */\n      swap1\n      pop\n        /* \"contracts/curveActions.sol\":3488:3501  TricryptoPool */\n      0x07\n      0x00\n      swap1\n      sload\n      swap1\n      0x0100\n      exp\n      swap1\n      div\n      0xffffffffffffffffffffffffffffffffffffffff\n      and\n        /* \"contracts/curveActions.sol\":3488:3510  TricryptoPool.exchange */\n      0xffffffffffffffffffffffffffffffffffffffff\n      and\n      0x3df02124\n        /* \"contracts/curveActions.sol\":3511:3512  1 */\n      0x01\n        /* \"contracts/curveActions.sol\":3514:3515  0 */\n      0x00\n        /* \"contracts/curveActions.sol\":3517:3526  amWBTCAmt */\n      dup6\n        /* \"contracts/curveActions.sol\":3528:3529  0 */\n      0x00\n        /* \"contracts/curveActions.sol\":3488:3530  TricryptoPool.exchange(1, 0, amWBTCAmt, 0) */\n      mload(0x40)\n      dup6\n      0xffffffff\n      and\n      0xe0\n      shl\n      dup2\n      mstore\n      0x04\n      add\n      tag_191\n      swap5\n      swap4\n      swap3\n      swap2\n      swap1\n      tag_192\n      jump\t// in\n    tag_191:\n      0x20\n      mload(0x40)\n      dup1\n      dup4\n      sub\n      dup2\n      0x00\n      dup8\n      gas\n      call\n      iszero\n      dup1\n      iszero\n      tag_194\n      jumpi\n      returndatasize\n      0x00\n      dup1\n      returndatacopy\n      revert(0x00, returndatasize)\n    tag_194:\n      pop\n      pop\n      pop\n      pop\n      mload(0x40)\n      returndatasize\n      not(0x1f)\n      0x1f\n      dup3\n      add\n      and\n      dup3\n      add\n      dup1\n      0x40\n      mstore\n      pop\n      dup2\n      add\n      swap1\n      tag_195\n      swap2\n      swap1\n      tag_29\n      jump\t// in\n    tag_195:\n      pop\n        /* \"contracts/curveActions.sol\":3541:3554  TricryptoPool */\n      0x07\n      0x00\n      swap1\n      sload\n      swap1\n      0x0100\n      exp\n      swap1\n      div\n      0xffffffffffffffffffffffffffffffffffffffff\n      and\n        /* \"contracts/curveActions.sol\":3541:3563  TricryptoPool.exchange */\n      0xffffffffffffffffffffffffffffffffffffffff\n      and\n      0x3df02124\n        /* \"contracts/curveActions.sol\":3564:3565  2 */\n      0x02\n        /* \"contracts/curveActions.sol\":3567:3568  0 */\n      0x00\n        /* \"contracts/curveActions.sol\":3570:3579  amWETHAmt */\n      dup5\n        /* \"contracts/curveActions.sol\":3581:3582  0 */\n      0x00\n        /* \"contracts/curveActions.sol\":3541:3583  TricryptoPool.exchange(2, 0, amWETHAmt, 0) */\n      mload(0x40)\n      dup6\n      0xffffffff\n      and\n      0xe0\n      shl\n      dup2\n      mstore\n      0x04\n      add\n      tag_196\n      swap5\n      swap4\n      swap3\n      swap2\n      swap1\n      tag_197\n      jump\t// in\n    tag_196:\n      0x20\n      mload(0x40)\n      dup1\n      dup4\n      sub\n      dup2\n      0x00\n      dup8\n      gas\n      call\n      iszero\n      dup1\n      iszero\n      tag_199\n      jumpi\n      returndatasize\n      0x00\n      dup1\n      returndatacopy\n      revert(0x00, returndatasize)\n    tag_199:\n      pop\n      pop\n      pop\n      pop\n      mload(0x40)\n      returndatasize\n      not(0x1f)\n      0x1f\n      dup3\n      add\n      and\n      dup3\n      add\n      dup1\n      0x40\n      mstore\n      pop\n      dup2\n      add\n      swap1\n      tag_200\n      swap2\n      swap1\n      tag_29\n      jump\t// in\n    tag_200:\n      pop\n        /* \"contracts/curveActions.sol\":2834:3591  {... */\n      pop\n      pop\n      pop\n      pop\n      pop\n        /* \"contracts/curveActions.sol\":2798:3591  function swapCRVtoAM3CRV() internal {... */\n      jump\t// out\n        /* \"contracts/curveActions.sol\":2237:2454  function removeLiquidityAM3() internal {... */\n    tag_43:\n        /* \"contracts/curveActions.sol\":2287:2302  uint LPTokenAmt */\n      0x00\n        /* \"contracts/curveActions.sol\":2312:2321  am3CRV_LP */\n      0x08\n      0x00\n      swap1\n      sload\n      swap1\n      0x0100\n      exp\n      swap1\n      div\n      0xffffffffffffffffffffffffffffffffffffffff\n      and\n        /* \"contracts/curveActions.sol\":2305:2332  IERC20(am3CRV_LP).balanceOf */\n      0xffffffffffffffffffffffffffffffffffffffff\n      and\n      0x70a08231\n        /* \"contracts/curveActions.sol\":2341:2345  this */\n      address\n        /* \"contracts/curveActions.sol\":2305:2347  IERC20(am3CRV_LP).balanceOf(address(this)) */\n      mload(0x40)\n      dup3\n      0xffffffff\n      and\n      0xe0\n      shl\n      dup2\n      mstore\n      0x04\n      add\n      tag_202\n      swap2\n      swap1\n      tag_25\n      jump\t// in\n    tag_202:\n      0x20\n      mload(0x40)\n      dup1\n      dup4\n      sub\n      dup2\n      dup7\n      gas\n      staticcall\n      iszero\n      dup1\n      iszero\n      tag_204\n      jumpi\n      returndatasize\n      0x00\n      dup1\n      returndatacopy\n      revert(0x00, returndatasize)\n    tag_204:\n      pop\n      pop\n      pop\n      pop\n      mload(0x40)\n      returndatasize\n      not(0x1f)\n      0x1f\n      dup3\n      add\n      and\n      dup3\n      add\n      dup1\n      0x40\n      mstore\n      pop\n      dup2\n      add\n      swap1\n      tag_205\n      swap2\n      swap1\n      tag_29\n      jump\t// in\n    tag_205:\n        /* \"contracts/curveActions.sol\":2287:2347  uint LPTokenAmt = IERC20(am3CRV_LP).balanceOf(address(this)) */\n      swap1\n      pop\n        /* \"contracts/curveActions.sol\":2358:2384  uint256[3] memory expected */\n      tag_206\n      tag_164\n      jump\t// in\n    tag_206:\n        /* \"contracts/curveActions.sol\":2395:2408  AAVECurvePool */\n      0x01\n      0x00\n      swap1\n      sload\n      swap1\n      0x0100\n      exp\n      swap1\n      div\n      0xffffffffffffffffffffffffffffffffffffffff\n      and\n        /* \"contracts/curveActions.sol\":2395:2425  AAVECurvePool.remove_liquidity */\n      0xffffffffffffffffffffffffffffffffffffffff\n      and\n      0xecb586a5\n        /* \"contracts/curveActions.sol\":2426:2436  LPTokenAmt */\n      dup4\n        /* \"contracts/curveActions.sol\":2437:2445  expected */\n      dup4\n        /* \"contracts/curveActions.sol\":2395:2446  AAVECurvePool.remove_liquidity(LPTokenAmt,expected) */\n      mload(0x40)\n      dup4\n      0xffffffff\n      and\n      0xe0\n      shl\n      dup2\n      mstore\n      0x04\n      add\n      tag_207\n      swap3\n      swap2\n      swap1\n      tag_179\n      jump\t// in\n    tag_207:\n      0x20\n      mload(0x40)\n      dup1\n      dup4\n      sub\n      dup2\n      0x00\n      dup8\n      gas\n      call\n      iszero\n      dup1\n      iszero\n      tag_209\n      jumpi\n      returndatasize\n      0x00\n      dup1\n      returndatacopy\n      revert(0x00, returndatasize)\n    tag_209:\n      pop\n      pop\n      pop\n      pop\n      mload(0x40)\n      returndatasize\n      not(0x1f)\n      0x1f\n      dup3\n      add\n      and\n      dup3\n      add\n      dup1\n      0x40\n      mstore\n      pop\n      dup2\n      add\n      swap1\n      tag_210\n      swap2\n      swap1\n      tag_29\n      jump\t// in\n    tag_210:\n      pop\n        /* \"contracts/curveActions.sol\":2276:2454  {... */\n      pop\n      pop\n        /* \"contracts/curveActions.sol\":2237:2454  function removeLiquidityAM3() internal {... */\n      jump\t// out\n    tag_164:\n      mload(0x40)\n      dup1\n      0x60\n      add\n      0x40\n      mstore\n      dup1\n      0x03\n      swap1\n      0x20\n      dup3\n      mul\n      dup1\n      calldatasize\n      dup4\n      calldatacopy\n      dup1\n      dup3\n      add\n      swap2\n      pop\n      pop\n      swap1\n      pop\n      pop\n      swap1\n      jump\t// out\n        /* \"#utility.yul\":88:205   */\n    tag_212:\n        /* \"#utility.yul\":197:198   */\n      0x00\n        /* \"#utility.yul\":194:195   */\n      dup1\n        /* \"#utility.yul\":187:199   */\n      revert\n        /* \"#utility.yul\":334:411   */\n    tag_214:\n        /* \"#utility.yul\":371:378   */\n      0x00\n        /* \"#utility.yul\":400:405   */\n      dup2\n        /* \"#utility.yul\":389:405   */\n      swap1\n      pop\n        /* \"#utility.yul\":334:411   */\n      swap2\n      swap1\n      pop\n      jump\t// out\n        /* \"#utility.yul\":417:539   */\n    tag_215:\n        /* \"#utility.yul\":490:514   */\n      tag_253\n        /* \"#utility.yul\":508:513   */\n      dup2\n        /* \"#utility.yul\":490:514   */\n      tag_214\n      jump\t// in\n    tag_253:\n        /* \"#utility.yul\":483:488   */\n      dup2\n        /* \"#utility.yul\":480:515   */\n      eq\n        /* \"#utility.yul\":470:533   */\n      tag_254\n      jumpi\n        /* \"#utility.yul\":529:530   */\n      0x00\n        /* \"#utility.yul\":526:527   */\n      dup1\n        /* \"#utility.yul\":519:531   */\n      revert\n        /* \"#utility.yul\":470:533   */\n    tag_254:\n        /* \"#utility.yul\":417:539   */\n      pop\n      jump\t// out\n        /* \"#utility.yul\":545:684   */\n    tag_216:\n        /* \"#utility.yul\":591:596   */\n      0x00\n        /* \"#utility.yul\":629:635   */\n      dup2\n        /* \"#utility.yul\":616:636   */\n      calldataload\n        /* \"#utility.yul\":607:636   */\n      swap1\n      pop\n        /* \"#utility.yul\":645:678   */\n      tag_256\n        /* \"#utility.yul\":672:677   */\n      dup2\n        /* \"#utility.yul\":645:678   */\n      tag_215\n      jump\t// in\n    tag_256:\n        /* \"#utility.yul\":545:684   */\n      swap3\n      swap2\n      pop\n      pop\n      jump\t// out\n        /* \"#utility.yul\":690:1309   */\n    tag_8:\n        /* \"#utility.yul\":767:773   */\n      0x00\n        /* \"#utility.yul\":775:781   */\n      dup1\n        /* \"#utility.yul\":783:789   */\n      0x00\n        /* \"#utility.yul\":832:834   */\n      0x60\n        /* \"#utility.yul\":820:829   */\n      dup5\n        /* \"#utility.yul\":811:818   */\n      dup7\n        /* \"#utility.yul\":807:830   */\n      sub\n        /* \"#utility.yul\":803:835   */\n      slt\n        /* \"#utility.yul\":800:919   */\n      iszero\n      tag_258\n      jumpi\n        /* \"#utility.yul\":838:917   */\n      tag_259\n      tag_212\n      jump\t// in\n    tag_259:\n        /* \"#utility.yul\":800:919   */\n    tag_258:\n        /* \"#utility.yul\":958:959   */\n      0x00\n        /* \"#utility.yul\":983:1036   */\n      tag_260\n        /* \"#utility.yul\":1028:1035   */\n      dup7\n        /* \"#utility.yul\":1019:1025   */\n      dup3\n        /* \"#utility.yul\":1008:1017   */\n      dup8\n        /* \"#utility.yul\":1004:1026   */\n      add\n        /* \"#utility.yul\":983:1036   */\n      tag_216\n      jump\t// in\n    tag_260:\n        /* \"#utility.yul\":973:1036   */\n      swap4\n      pop\n        /* \"#utility.yul\":929:1046   */\n      pop\n        /* \"#utility.yul\":1085:1087   */\n      0x20\n        /* \"#utility.yul\":1111:1164   */\n      tag_261\n        /* \"#utility.yul\":1156:1163   */\n      dup7\n        /* \"#utility.yul\":1147:1153   */\n      dup3\n        /* \"#utility.yul\":1136:1145   */\n      dup8\n        /* \"#utility.yul\":1132:1154   */\n      add\n        /* \"#utility.yul\":1111:1164   */\n      tag_216\n      jump\t// in\n    tag_261:\n        /* \"#utility.yul\":1101:1164   */\n      swap3\n      pop\n        /* \"#utility.yul\":1056:1174   */\n      pop\n        /* \"#utility.yul\":1213:1215   */\n      0x40\n        /* \"#utility.yul\":1239:1292   */\n      tag_262\n        /* \"#utility.yul\":1284:1291   */\n      dup7\n        /* \"#utility.yul\":1275:1281   */\n      dup3\n        /* \"#utility.yul\":1264:1273   */\n      dup8\n        /* \"#utility.yul\":1260:1282   */\n      add\n        /* \"#utility.yul\":1239:1292   */\n      tag_216\n      jump\t// in\n    tag_262:\n        /* \"#utility.yul\":1229:1292   */\n      swap2\n      pop\n        /* \"#utility.yul\":1184:1302   */\n      pop\n        /* \"#utility.yul\":690:1309   */\n      swap3\n      pop\n      swap3\n      pop\n      swap3\n      jump\t// out\n        /* \"#utility.yul\":1315:1441   */\n    tag_217:\n        /* \"#utility.yul\":1352:1359   */\n      0x00\n        /* \"#utility.yul\":1392:1434   */\n      0xffffffffffffffffffffffffffffffffffffffff\n        /* \"#utility.yul\":1385:1390   */\n      dup3\n        /* \"#utility.yul\":1381:1435   */\n      and\n        /* \"#utility.yul\":1370:1435   */\n      swap1\n      pop\n        /* \"#utility.yul\":1315:1441   */\n      swap2\n      swap1\n      pop\n      jump\t// out\n        /* \"#utility.yul\":1447:1543   */\n    tag_218:\n        /* \"#utility.yul\":1484:1491   */\n      0x00\n        /* \"#utility.yul\":1513:1537   */\n      tag_265\n        /* \"#utility.yul\":1531:1536   */\n      dup3\n        /* \"#utility.yul\":1513:1537   */\n      tag_217\n      jump\t// in\n    tag_265:\n        /* \"#utility.yul\":1502:1537   */\n      swap1\n      pop\n        /* \"#utility.yul\":1447:1543   */\n      swap2\n      swap1\n      pop\n      jump\t// out\n        /* \"#utility.yul\":1549:1667   */\n    tag_219:\n        /* \"#utility.yul\":1636:1660   */\n      tag_267\n        /* \"#utility.yul\":1654:1659   */\n      dup2\n        /* \"#utility.yul\":1636:1660   */\n      tag_218\n      jump\t// in\n    tag_267:\n        /* \"#utility.yul\":1631:1634   */\n      dup3\n        /* \"#utility.yul\":1624:1661   */\n      mstore\n        /* \"#utility.yul\":1549:1667   */\n      pop\n      pop\n      jump\t// out\n        /* \"#utility.yul\":1673:1895   */\n    tag_25:\n        /* \"#utility.yul\":1766:1770   */\n      0x00\n        /* \"#utility.yul\":1804:1806   */\n      0x20\n        /* \"#utility.yul\":1793:1802   */\n      dup3\n        /* \"#utility.yul\":1789:1807   */\n      add\n        /* \"#utility.yul\":1781:1807   */\n      swap1\n      pop\n        /* \"#utility.yul\":1817:1888   */\n      tag_269\n        /* \"#utility.yul\":1885:1886   */\n      0x00\n        /* \"#utility.yul\":1874:1883   */\n      dup4\n        /* \"#utility.yul\":1870:1887   */\n      add\n        /* \"#utility.yul\":1861:1867   */\n      dup5\n        /* \"#utility.yul\":1817:1888   */\n      tag_219\n      jump\t// in\n    tag_269:\n        /* \"#utility.yul\":1673:1895   */\n      swap3\n      swap2\n      pop\n      pop\n      jump\t// out\n        /* \"#utility.yul\":1901:2044   */\n    tag_220:\n        /* \"#utility.yul\":1958:1963   */\n      0x00\n        /* \"#utility.yul\":1989:1995   */\n      dup2\n        /* \"#utility.yul\":1983:1996   */\n      mload\n        /* \"#utility.yul\":1974:1996   */\n      swap1\n      pop\n        /* \"#utility.yul\":2005:2038   */\n      tag_271\n        /* \"#utility.yul\":2032:2037   */\n      dup2\n        /* \"#utility.yul\":2005:2038   */\n      tag_215\n      jump\t// in\n    tag_271:\n        /* \"#utility.yul\":1901:2044   */\n      swap3\n      swap2\n      pop\n      pop\n      jump\t// out\n        /* \"#utility.yul\":2050:2401   */\n    tag_29:\n        /* \"#utility.yul\":2120:2126   */\n      0x00\n        /* \"#utility.yul\":2169:2171   */\n      0x20\n        /* \"#utility.yul\":2157:2166   */\n      dup3\n        /* \"#utility.yul\":2148:2155   */\n      dup5\n        /* \"#utility.yul\":2144:2167   */\n      sub\n        /* \"#utility.yul\":2140:2172   */\n      slt\n        /* \"#utility.yul\":2137:2256   */\n      iszero\n      tag_273\n      jumpi\n        /* \"#utility.yul\":2175:2254   */\n      tag_274\n      tag_212\n      jump\t// in\n    tag_274:\n        /* \"#utility.yul\":2137:2256   */\n    tag_273:\n        /* \"#utility.yul\":2295:2296   */\n      0x00\n        /* \"#utility.yul\":2320:2384   */\n      tag_275\n        /* \"#utility.yul\":2376:2383   */\n      dup5\n        /* \"#utility.yul\":2367:2373   */\n      dup3\n        /* \"#utility.yul\":2356:2365   */\n      dup6\n        /* \"#utility.yul\":2352:2374   */\n      add\n        /* \"#utility.yul\":2320:2384   */\n      tag_220\n      jump\t// in\n    tag_275:\n        /* \"#utility.yul\":2310:2384   */\n      swap2\n      pop\n        /* \"#utility.yul\":2266:2394   */\n      pop\n        /* \"#utility.yul\":2050:2401   */\n      swap3\n      swap2\n      pop\n      pop\n      jump\t// out\n        /* \"#utility.yul\":2407:2525   */\n    tag_221:\n        /* \"#utility.yul\":2494:2518   */\n      tag_277\n        /* \"#utility.yul\":2512:2517   */\n      dup2\n        /* \"#utility.yul\":2494:2518   */\n      tag_214\n      jump\t// in\n    tag_277:\n        /* \"#utility.yul\":2489:2492   */\n      dup3\n        /* \"#utility.yul\":2482:2519   */\n      mstore\n        /* \"#utility.yul\":2407:2525   */\n      pop\n      pop\n      jump\t// out\n        /* \"#utility.yul\":2531:2863   */\n    tag_64:\n        /* \"#utility.yul\":2652:2656   */\n      0x00\n        /* \"#utility.yul\":2690:2692   */\n      0x40\n        /* \"#utility.yul\":2679:2688   */\n      dup3\n        /* \"#utility.yul\":2675:2693   */\n      add\n        /* \"#utility.yul\":2667:2693   */\n      swap1\n      pop\n        /* \"#utility.yul\":2703:2774   */\n      tag_279\n        /* \"#utility.yul\":2771:2772   */\n      0x00\n        /* \"#utility.yul\":2760:2769   */\n      dup4\n        /* \"#utility.yul\":2756:2773   */\n      add\n        /* \"#utility.yul\":2747:2753   */\n      dup6\n        /* \"#utility.yul\":2703:2774   */\n      tag_219\n      jump\t// in\n    tag_279:\n        /* \"#utility.yul\":2784:2856   */\n      tag_280\n        /* \"#utility.yul\":2852:2854   */\n      0x20\n        /* \"#utility.yul\":2841:2850   */\n      dup4\n        /* \"#utility.yul\":2837:2855   */\n      add\n        /* \"#utility.yul\":2828:2834   */\n      dup5\n        /* \"#utility.yul\":2784:2856   */\n      tag_221\n      jump\t// in\n    tag_280:\n        /* \"#utility.yul\":2531:2863   */\n      swap4\n      swap3\n      pop\n      pop\n      pop\n      jump\t// out\n        /* \"#utility.yul\":2869:2959   */\n    tag_222:\n        /* \"#utility.yul\":2903:2910   */\n      0x00\n        /* \"#utility.yul\":2946:2951   */\n      dup2\n        /* \"#utility.yul\":2939:2952   */\n      iszero\n        /* \"#utility.yul\":2932:2953   */\n      iszero\n        /* \"#utility.yul\":2921:2953   */\n      swap1\n      pop\n        /* \"#utility.yul\":2869:2959   */\n      swap2\n      swap1\n      pop\n      jump\t// out\n        /* \"#utility.yul\":2965:3081   */\n    tag_223:\n        /* \"#utility.yul\":3035:3056   */\n      tag_283\n        /* \"#utility.yul\":3050:3055   */\n      dup2\n        /* \"#utility.yul\":3035:3056   */\n      tag_222\n      jump\t// in\n    tag_283:\n        /* \"#utility.yul\":3028:3033   */\n      dup2\n        /* \"#utility.yul\":3025:3057   */\n      eq\n        /* \"#utility.yul\":3015:3075   */\n      tag_284\n      jumpi\n        /* \"#utility.yul\":3071:3072   */\n      0x00\n        /* \"#utility.yul\":3068:3069   */\n      dup1\n        /* \"#utility.yul\":3061:3073   */\n      revert\n        /* \"#utility.yul\":3015:3075   */\n    tag_284:\n        /* \"#utility.yul\":2965:3081   */\n      pop\n      jump\t// out\n        /* \"#utility.yul\":3087:3224   */\n    tag_224:\n        /* \"#utility.yul\":3141:3146   */\n      0x00\n        /* \"#utility.yul\":3172:3178   */\n      dup2\n        /* \"#utility.yul\":3166:3179   */\n      mload\n        /* \"#utility.yul\":3157:3179   */\n      swap1\n      pop\n        /* \"#utility.yul\":3188:3218   */\n      tag_286\n        /* \"#utility.yul\":3212:3217   */\n      dup2\n        /* \"#utility.yul\":3188:3218   */\n      tag_223\n      jump\t// in\n    tag_286:\n        /* \"#utility.yul\":3087:3224   */\n      swap3\n      swap2\n      pop\n      pop\n      jump\t// out\n        /* \"#utility.yul\":3230:3575   */\n    tag_68:\n        /* \"#utility.yul\":3297:3303   */\n      0x00\n        /* \"#utility.yul\":3346:3348   */\n      0x20\n        /* \"#utility.yul\":3334:3343   */\n      dup3\n        /* \"#utility.yul\":3325:3332   */\n      dup5\n        /* \"#utility.yul\":3321:3344   */\n      sub\n        /* \"#utility.yul\":3317:3349   */\n      slt\n        /* \"#utility.yul\":3314:3433   */\n      iszero\n      tag_288\n      jumpi\n        /* \"#utility.yul\":3352:3431   */\n      tag_289\n      tag_212\n      jump\t// in\n    tag_289:\n        /* \"#utility.yul\":3314:3433   */\n    tag_288:\n        /* \"#utility.yul\":3472:3473   */\n      0x00\n        /* \"#utility.yul\":3497:3558   */\n      tag_290\n        /* \"#utility.yul\":3550:3557   */\n      dup5\n        /* \"#utility.yul\":3541:3547   */\n      dup3\n        /* \"#utility.yul\":3530:3539   */\n      dup6\n        /* \"#utility.yul\":3526:3548   */\n      add\n        /* \"#utility.yul\":3497:3558   */\n      tag_224\n      jump\t// in\n    tag_290:\n        /* \"#utility.yul\":3487:3558   */\n      swap2\n      pop\n        /* \"#utility.yul\":3443:3568   */\n      pop\n        /* \"#utility.yul\":3230:3575   */\n      swap3\n      swap2\n      pop\n      pop\n      jump\t// out\n        /* \"#utility.yul\":3581:4023   */\n    tag_78:\n        /* \"#utility.yul\":3730:3734   */\n      0x00\n        /* \"#utility.yul\":3768:3770   */\n      0x60\n        /* \"#utility.yul\":3757:3766   */\n      dup3\n        /* \"#utility.yul\":3753:3771   */\n      add\n        /* \"#utility.yul\":3745:3771   */\n      swap1\n      pop\n        /* \"#utility.yul\":3781:3852   */\n      tag_292\n        /* \"#utility.yul\":3849:3850   */\n      0x00\n        /* \"#utility.yul\":3838:3847   */\n      dup4\n        /* \"#utility.yul\":3834:3851   */\n      add\n        /* \"#utility.yul\":3825:3831   */\n      dup7\n        /* \"#utility.yul\":3781:3852   */\n      tag_219\n      jump\t// in\n    tag_292:\n        /* \"#utility.yul\":3862:3934   */\n      tag_293\n        /* \"#utility.yul\":3930:3932   */\n      0x20\n        /* \"#utility.yul\":3919:3928   */\n      dup4\n        /* \"#utility.yul\":3915:3933   */\n      add\n        /* \"#utility.yul\":3906:3912   */\n      dup6\n        /* \"#utility.yul\":3862:3934   */\n      tag_219\n      jump\t// in\n    tag_293:\n        /* \"#utility.yul\":3944:4016   */\n      tag_294\n        /* \"#utility.yul\":4012:4014   */\n      0x40\n        /* \"#utility.yul\":4001:4010   */\n      dup4\n        /* \"#utility.yul\":3997:4015   */\n      add\n        /* \"#utility.yul\":3988:3994   */\n      dup5\n        /* \"#utility.yul\":3944:4016   */\n      tag_221\n      jump\t// in\n    tag_294:\n        /* \"#utility.yul\":3581:4023   */\n      swap5\n      swap4\n      pop\n      pop\n      pop\n      pop\n      jump\t// out\n        /* \"#utility.yul\":4029:4118   */\n    tag_225:\n        /* \"#utility.yul\":4065:4072   */\n      0x00\n        /* \"#utility.yul\":4105:4111   */\n      0xffff\n        /* \"#utility.yul\":4098:4103   */\n      dup3\n        /* \"#utility.yul\":4094:4112   */\n      and\n        /* \"#utility.yul\":4083:4112   */\n      swap1\n      pop\n        /* \"#utility.yul\":4029:4118   */\n      swap2\n      swap1\n      pop\n      jump\t// out\n        /* \"#utility.yul\":4124:4239   */\n    tag_226:\n        /* \"#utility.yul\":4209:4232   */\n      tag_297\n        /* \"#utility.yul\":4226:4231   */\n      dup2\n        /* \"#utility.yul\":4209:4232   */\n      tag_225\n      jump\t// in\n    tag_297:\n        /* \"#utility.yul\":4204:4207   */\n      dup3\n        /* \"#utility.yul\":4197:4233   */\n      mstore\n        /* \"#utility.yul\":4124:4239   */\n      pop\n      pop\n      jump\t// out\n        /* \"#utility.yul\":4245:4794   */\n    tag_116:\n        /* \"#utility.yul\":4420:4424   */\n      0x00\n        /* \"#utility.yul\":4458:4461   */\n      0x80\n        /* \"#utility.yul\":4447:4456   */\n      dup3\n        /* \"#utility.yul\":4443:4462   */\n      add\n        /* \"#utility.yul\":4435:4462   */\n      swap1\n      pop\n        /* \"#utility.yul\":4472:4543   */\n      tag_299\n        /* \"#utility.yul\":4540:4541   */\n      0x00\n        /* \"#utility.yul\":4529:4538   */\n      dup4\n        /* \"#utility.yul\":4525:4542   */\n      add\n        /* \"#utility.yul\":4516:4522   */\n      dup8\n        /* \"#utility.yul\":4472:4543   */\n      tag_219\n      jump\t// in\n    tag_299:\n        /* \"#utility.yul\":4553:4625   */\n      tag_300\n        /* \"#utility.yul\":4621:4623   */\n      0x20\n        /* \"#utility.yul\":4610:4619   */\n      dup4\n        /* \"#utility.yul\":4606:4624   */\n      add\n        /* \"#utility.yul\":4597:4603   */\n      dup7\n        /* \"#utility.yul\":4553:4625   */\n      tag_221\n      jump\t// in\n    tag_300:\n        /* \"#utility.yul\":4635:4707   */\n      tag_301\n        /* \"#utility.yul\":4703:4705   */\n      0x40\n        /* \"#utility.yul\":4692:4701   */\n      dup4\n        /* \"#utility.yul\":4688:4706   */\n      add\n        /* \"#utility.yul\":4679:4685   */\n      dup6\n        /* \"#utility.yul\":4635:4707   */\n      tag_219\n      jump\t// in\n    tag_301:\n        /* \"#utility.yul\":4717:4787   */\n      tag_302\n        /* \"#utility.yul\":4783:4785   */\n      0x60\n        /* \"#utility.yul\":4772:4781   */\n      dup4\n        /* \"#utility.yul\":4768:4786   */\n      add\n        /* \"#utility.yul\":4759:4765   */\n      dup5\n        /* \"#utility.yul\":4717:4787   */\n      tag_226\n      jump\t// in\n    tag_302:\n        /* \"#utility.yul\":4245:4794   */\n      swap6\n      swap5\n      pop\n      pop\n      pop\n      pop\n      pop\n      jump\t// out\n        /* \"#utility.yul\":4800:4904   */\n    tag_227:\n        /* \"#utility.yul\":4865:4871   */\n      0x00\n        /* \"#utility.yul\":4893:4897   */\n      0x03\n        /* \"#utility.yul\":4883:4897   */\n      swap1\n      pop\n        /* \"#utility.yul\":4800:4904   */\n      swap2\n      swap1\n      pop\n      jump\t// out\n        /* \"#utility.yul\":4910:5053   */\n    tag_228:\n        /* \"#utility.yul\":5007:5018   */\n      0x00\n        /* \"#utility.yul\":5044:5047   */\n      dup2\n        /* \"#utility.yul\":5029:5047   */\n      swap1\n      pop\n        /* \"#utility.yul\":4910:5053   */\n      swap3\n      swap2\n      pop\n      pop\n      jump\t// out\n        /* \"#utility.yul\":5059:5157   */\n    tag_229:\n        /* \"#utility.yul\":5124:5128   */\n      0x00\n        /* \"#utility.yul\":5147:5150   */\n      dup2\n        /* \"#utility.yul\":5139:5150   */\n      swap1\n      pop\n        /* \"#utility.yul\":5059:5157   */\n      swap2\n      swap1\n      pop\n      jump\t// out\n        /* \"#utility.yul\":5163:5271   */\n    tag_230:\n        /* \"#utility.yul\":5240:5264   */\n      tag_307\n        /* \"#utility.yul\":5258:5263   */\n      dup2\n        /* \"#utility.yul\":5240:5264   */\n      tag_214\n      jump\t// in\n    tag_307:\n        /* \"#utility.yul\":5235:5238   */\n      dup3\n        /* \"#utility.yul\":5228:5265   */\n      mstore\n        /* \"#utility.yul\":5163:5271   */\n      pop\n      pop\n      jump\t// out\n        /* \"#utility.yul\":5277:5456   */\n    tag_231:\n        /* \"#utility.yul\":5346:5356   */\n      0x00\n        /* \"#utility.yul\":5367:5413   */\n      tag_309\n        /* \"#utility.yul\":5409:5412   */\n      dup4\n        /* \"#utility.yul\":5401:5407   */\n      dup4\n        /* \"#utility.yul\":5367:5413   */\n      tag_230\n      jump\t// in\n    tag_309:\n        /* \"#utility.yul\":5445:5449   */\n      0x20\n        /* \"#utility.yul\":5440:5443   */\n      dup4\n        /* \"#utility.yul\":5436:5450   */\n      add\n        /* \"#utility.yul\":5422:5450   */\n      swap1\n      pop\n        /* \"#utility.yul\":5277:5456   */\n      swap3\n      swap2\n      pop\n      pop\n      jump\t// out\n        /* \"#utility.yul\":5462:5573   */\n    tag_232:\n        /* \"#utility.yul\":5530:5534   */\n      0x00\n        /* \"#utility.yul\":5562:5566   */\n      0x20\n        /* \"#utility.yul\":5557:5560   */\n      dup3\n        /* \"#utility.yul\":5553:5567   */\n      add\n        /* \"#utility.yul\":5545:5567   */\n      swap1\n      pop\n        /* \"#utility.yul\":5462:5573   */\n      swap2\n      swap1\n      pop\n      jump\t// out\n        /* \"#utility.yul\":5611:6305   */\n    tag_233:\n        /* \"#utility.yul\":5747:5799   */\n      tag_312\n        /* \"#utility.yul\":5793:5798   */\n      dup2\n        /* \"#utility.yul\":5747:5799   */\n      tag_227\n      jump\t// in\n    tag_312:\n        /* \"#utility.yul\":5815:5899   */\n      tag_313\n        /* \"#utility.yul\":5892:5898   */\n      dup2\n        /* \"#utility.yul\":5887:5890   */\n      dup5\n        /* \"#utility.yul\":5815:5899   */\n      tag_228\n      jump\t// in\n    tag_313:\n        /* \"#utility.yul\":5808:5899   */\n      swap3\n      pop\n        /* \"#utility.yul\":5923:5977   */\n      tag_314\n        /* \"#utility.yul\":5971:5976   */\n      dup3\n        /* \"#utility.yul\":5923:5977   */\n      tag_229\n      jump\t// in\n    tag_314:\n        /* \"#utility.yul\":6000:6007   */\n      dup1\n        /* \"#utility.yul\":6031:6032   */\n      0x00\n        /* \"#utility.yul\":6016:6298   */\n    tag_315:\n        /* \"#utility.yul\":6041:6047   */\n      dup4\n        /* \"#utility.yul\":6038:6039   */\n      dup2\n        /* \"#utility.yul\":6035:6048   */\n      lt\n        /* \"#utility.yul\":6016:6298   */\n      iszero\n      tag_317\n      jumpi\n        /* \"#utility.yul\":6117:6123   */\n      dup2\n        /* \"#utility.yul\":6111:6124   */\n      mload\n        /* \"#utility.yul\":6144:6207   */\n      tag_318\n        /* \"#utility.yul\":6203:6206   */\n      dup8\n        /* \"#utility.yul\":6188:6201   */\n      dup3\n        /* \"#utility.yul\":6144:6207   */\n      tag_231\n      jump\t// in\n    tag_318:\n        /* \"#utility.yul\":6137:6207   */\n      swap7\n      pop\n        /* \"#utility.yul\":6230:6288   */\n      tag_319\n        /* \"#utility.yul\":6281:6287   */\n      dup4\n        /* \"#utility.yul\":6230:6288   */\n      tag_232\n      jump\t// in\n    tag_319:\n        /* \"#utility.yul\":6220:6288   */\n      swap3\n      pop\n        /* \"#utility.yul\":6076:6298   */\n      pop\n        /* \"#utility.yul\":6063:6064   */\n      0x01\n        /* \"#utility.yul\":6060:6061   */\n      dup2\n        /* \"#utility.yul\":6056:6065   */\n      add\n        /* \"#utility.yul\":6051:6065   */\n      swap1\n      pop\n        /* \"#utility.yul\":6016:6298   */\n      jump(tag_315)\n    tag_317:\n        /* \"#utility.yul\":6020:6034   */\n      pop\n        /* \"#utility.yul\":5723:6305   */\n      pop\n      pop\n      pop\n        /* \"#utility.yul\":5611:6305   */\n      pop\n      pop\n      jump\t// out\n        /* \"#utility.yul\":6311:6396   */\n    tag_234:\n        /* \"#utility.yul\":6356:6363   */\n      0x00\n        /* \"#utility.yul\":6385:6390   */\n      dup2\n        /* \"#utility.yul\":6374:6390   */\n      swap1\n      pop\n        /* \"#utility.yul\":6311:6396   */\n      swap2\n      swap1\n      pop\n      jump\t// out\n        /* \"#utility.yul\":6402:6462   */\n    tag_235:\n        /* \"#utility.yul\":6430:6433   */\n      0x00\n        /* \"#utility.yul\":6451:6456   */\n      dup2\n        /* \"#utility.yul\":6444:6456   */\n      swap1\n      pop\n        /* \"#utility.yul\":6402:6462   */\n      swap2\n      swap1\n      pop\n      jump\t// out\n        /* \"#utility.yul\":6468:6626   */\n    tag_236:\n        /* \"#utility.yul\":6526:6535   */\n      0x00\n        /* \"#utility.yul\":6559:6620   */\n      tag_323\n        /* \"#utility.yul\":6577:6619   */\n      tag_324\n        /* \"#utility.yul\":6586:6618   */\n      tag_325\n        /* \"#utility.yul\":6612:6617   */\n      dup5\n        /* \"#utility.yul\":6586:6618   */\n      tag_234\n      jump\t// in\n    tag_325:\n        /* \"#utility.yul\":6577:6619   */\n      tag_235\n      jump\t// in\n    tag_324:\n        /* \"#utility.yul\":6559:6620   */\n      tag_214\n      jump\t// in\n    tag_323:\n        /* \"#utility.yul\":6546:6620   */\n      swap1\n      pop\n        /* \"#utility.yul\":6468:6626   */\n      swap2\n      swap1\n      pop\n      jump\t// out\n        /* \"#utility.yul\":6632:6779   */\n    tag_237:\n        /* \"#utility.yul\":6727:6772   */\n      tag_327\n        /* \"#utility.yul\":6766:6771   */\n      dup2\n        /* \"#utility.yul\":6727:6772   */\n      tag_236\n      jump\t// in\n    tag_327:\n        /* \"#utility.yul\":6722:6725   */\n      dup3\n        /* \"#utility.yul\":6715:6773   */\n      mstore\n        /* \"#utility.yul\":6632:6779   */\n      pop\n      pop\n      jump\t// out\n        /* \"#utility.yul\":6785:7226   */\n    tag_130:\n        /* \"#utility.yul\":6960:6964   */\n      0x00\n        /* \"#utility.yul\":6998:7001   */\n      0x80\n        /* \"#utility.yul\":6987:6996   */\n      dup3\n        /* \"#utility.yul\":6983:7002   */\n      add\n        /* \"#utility.yul\":6975:7002   */\n      swap1\n      pop\n        /* \"#utility.yul\":7012:7129   */\n      tag_329\n        /* \"#utility.yul\":7126:7127   */\n      0x00\n        /* \"#utility.yul\":7115:7124   */\n      dup4\n        /* \"#utility.yul\":7111:7128   */\n      add\n        /* \"#utility.yul\":7102:7108   */\n      dup6\n        /* \"#utility.yul\":7012:7129   */\n      tag_233\n      jump\t// in\n    tag_329:\n        /* \"#utility.yul\":7139:7219   */\n      tag_330\n        /* \"#utility.yul\":7215:7217   */\n      0x60\n        /* \"#utility.yul\":7204:7213   */\n      dup4\n        /* \"#utility.yul\":7200:7218   */\n      add\n        /* \"#utility.yul\":7191:7197   */\n      dup5\n        /* \"#utility.yul\":7139:7219   */\n      tag_237\n      jump\t// in\n    tag_330:\n        /* \"#utility.yul\":6785:7226   */\n      swap4\n      swap3\n      pop\n      pop\n      pop\n      jump\t// out\n        /* \"#utility.yul\":7232:7564   */\n    tag_144:\n        /* \"#utility.yul\":7353:7357   */\n      0x00\n        /* \"#utility.yul\":7391:7393   */\n      0x40\n        /* \"#utility.yul\":7380:7389   */\n      dup3\n        /* \"#utility.yul\":7376:7394   */\n      add\n        /* \"#utility.yul\":7368:7394   */\n      swap1\n      pop\n        /* \"#utility.yul\":7404:7475   */\n      tag_332\n        /* \"#utility.yul\":7472:7473   */\n      0x00\n        /* \"#utility.yul\":7461:7470   */\n      dup4\n        /* \"#utility.yul\":7457:7474   */\n      add\n        /* \"#utility.yul\":7448:7454   */\n      dup6\n        /* \"#utility.yul\":7404:7475   */\n      tag_221\n      jump\t// in\n    tag_332:\n        /* \"#utility.yul\":7485:7557   */\n      tag_333\n        /* \"#utility.yul\":7553:7555   */\n      0x20\n        /* \"#utility.yul\":7542:7551   */\n      dup4\n        /* \"#utility.yul\":7538:7556   */\n      add\n        /* \"#utility.yul\":7529:7535   */\n      dup5\n        /* \"#utility.yul\":7485:7557   */\n      tag_219\n      jump\t// in\n    tag_333:\n        /* \"#utility.yul\":7232:7564   */\n      swap4\n      swap3\n      pop\n      pop\n      pop\n      jump\t// out\n        /* \"#utility.yul\":7570:7792   */\n    tag_154:\n        /* \"#utility.yul\":7663:7667   */\n      0x00\n        /* \"#utility.yul\":7701:7703   */\n      0x20\n        /* \"#utility.yul\":7690:7699   */\n      dup3\n        /* \"#utility.yul\":7686:7704   */\n      add\n        /* \"#utility.yul\":7678:7704   */\n      swap1\n      pop\n        /* \"#utility.yul\":7714:7785   */\n      tag_335\n        /* \"#utility.yul\":7782:7783   */\n      0x00\n        /* \"#utility.yul\":7771:7780   */\n      dup4\n        /* \"#utility.yul\":7767:7784   */\n      add\n        /* \"#utility.yul\":7758:7764   */\n      dup5\n        /* \"#utility.yul\":7714:7785   */\n      tag_221\n      jump\t// in\n    tag_335:\n        /* \"#utility.yul\":7570:7792   */\n      swap3\n      swap2\n      pop\n      pop\n      jump\t// out\n        /* \"#utility.yul\":7798:7890   */\n    tag_238:\n        /* \"#utility.yul\":7834:7841   */\n      0x00\n        /* \"#utility.yul\":7878:7883   */\n      dup2\n        /* \"#utility.yul\":7874:7876   */\n      0x0f\n        /* \"#utility.yul\":7863:7884   */\n      signextend\n        /* \"#utility.yul\":7852:7884   */\n      swap1\n      pop\n        /* \"#utility.yul\":7798:7890   */\n      swap2\n      swap1\n      pop\n      jump\t// out\n        /* \"#utility.yul\":7896:8052   */\n    tag_239:\n        /* \"#utility.yul\":7953:7962   */\n      0x00\n        /* \"#utility.yul\":7986:8046   */\n      tag_338\n        /* \"#utility.yul\":8003:8045   */\n      tag_339\n        /* \"#utility.yul\":8012:8044   */\n      tag_340\n        /* \"#utility.yul\":8038:8043   */\n      dup5\n        /* \"#utility.yul\":8012:8044   */\n      tag_234\n      jump\t// in\n    tag_340:\n        /* \"#utility.yul\":8003:8045   */\n      tag_235\n      jump\t// in\n    tag_339:\n        /* \"#utility.yul\":7986:8046   */\n      tag_238\n      jump\t// in\n    tag_338:\n        /* \"#utility.yul\":7973:8046   */\n      swap1\n      pop\n        /* \"#utility.yul\":7896:8052   */\n      swap2\n      swap1\n      pop\n      jump\t// out\n        /* \"#utility.yul\":8058:8203   */\n    tag_240:\n        /* \"#utility.yul\":8152:8196   */\n      tag_342\n        /* \"#utility.yul\":8190:8195   */\n      dup2\n        /* \"#utility.yul\":8152:8196   */\n      tag_239\n      jump\t// in\n    tag_342:\n        /* \"#utility.yul\":8147:8150   */\n      dup3\n        /* \"#utility.yul\":8140:8197   */\n      mstore\n        /* \"#utility.yul\":8058:8203   */\n      pop\n      pop\n      jump\t// out\n        /* \"#utility.yul\":8209:8294   */\n    tag_241:\n        /* \"#utility.yul\":8254:8261   */\n      0x00\n        /* \"#utility.yul\":8283:8288   */\n      dup2\n        /* \"#utility.yul\":8272:8288   */\n      swap1\n      pop\n        /* \"#utility.yul\":8209:8294   */\n      swap2\n      swap1\n      pop\n      jump\t// out\n        /* \"#utility.yul\":8300:8456   */\n    tag_242:\n        /* \"#utility.yul\":8357:8366   */\n      0x00\n        /* \"#utility.yul\":8390:8450   */\n      tag_345\n        /* \"#utility.yul\":8407:8449   */\n      tag_346\n        /* \"#utility.yul\":8416:8448   */\n      tag_347\n        /* \"#utility.yul\":8442:8447   */\n      dup5\n        /* \"#utility.yul\":8416:8448   */\n      tag_241\n      jump\t// in\n    tag_347:\n        /* \"#utility.yul\":8407:8449   */\n      tag_235\n      jump\t// in\n    tag_346:\n        /* \"#utility.yul\":8390:8450   */\n      tag_238\n      jump\t// in\n    tag_345:\n        /* \"#utility.yul\":8377:8450   */\n      swap1\n      pop\n        /* \"#utility.yul\":8300:8456   */\n      swap2\n      swap1\n      pop\n      jump\t// out\n        /* \"#utility.yul\":8462:8607   */\n    tag_243:\n        /* \"#utility.yul\":8556:8600   */\n      tag_349\n        /* \"#utility.yul\":8594:8599   */\n      dup2\n        /* \"#utility.yul\":8556:8600   */\n      tag_242\n      jump\t// in\n    tag_349:\n        /* \"#utility.yul\":8551:8554   */\n      dup3\n        /* \"#utility.yul\":8544:8601   */\n      mstore\n        /* \"#utility.yul\":8462:8607   */\n      pop\n      pop\n      jump\t// out\n        /* \"#utility.yul\":8613:9210   */\n    tag_170:\n        /* \"#utility.yul\":8812:8816   */\n      0x00\n        /* \"#utility.yul\":8850:8853   */\n      0x80\n        /* \"#utility.yul\":8839:8848   */\n      dup3\n        /* \"#utility.yul\":8835:8854   */\n      add\n        /* \"#utility.yul\":8827:8854   */\n      swap1\n      pop\n        /* \"#utility.yul\":8864:8942   */\n      tag_351\n        /* \"#utility.yul\":8939:8940   */\n      0x00\n        /* \"#utility.yul\":8928:8937   */\n      dup4\n        /* \"#utility.yul\":8924:8941   */\n      add\n        /* \"#utility.yul\":8915:8921   */\n      dup8\n        /* \"#utility.yul\":8864:8942   */\n      tag_240\n      jump\t// in\n    tag_351:\n        /* \"#utility.yul\":8952:9031   */\n      tag_352\n        /* \"#utility.yul\":9027:9029   */\n      0x20\n        /* \"#utility.yul\":9016:9025   */\n      dup4\n        /* \"#utility.yul\":9012:9030   */\n      add\n        /* \"#utility.yul\":9003:9009   */\n      dup7\n        /* \"#utility.yul\":8952:9031   */\n      tag_243\n      jump\t// in\n    tag_352:\n        /* \"#utility.yul\":9041:9113   */\n      tag_353\n        /* \"#utility.yul\":9109:9111   */\n      0x40\n        /* \"#utility.yul\":9098:9107   */\n      dup4\n        /* \"#utility.yul\":9094:9112   */\n      add\n        /* \"#utility.yul\":9085:9091   */\n      dup6\n        /* \"#utility.yul\":9041:9113   */\n      tag_221\n      jump\t// in\n    tag_353:\n        /* \"#utility.yul\":9123:9203   */\n      tag_354\n        /* \"#utility.yul\":9199:9201   */\n      0x60\n        /* \"#utility.yul\":9188:9197   */\n      dup4\n        /* \"#utility.yul\":9184:9202   */\n      add\n        /* \"#utility.yul\":9175:9181   */\n      dup5\n        /* \"#utility.yul\":9123:9203   */\n      tag_237\n      jump\t// in\n    tag_354:\n        /* \"#utility.yul\":8613:9210   */\n      swap6\n      swap5\n      pop\n      pop\n      pop\n      pop\n      pop\n      jump\t// out\n        /* \"#utility.yul\":9216:9641   */\n    tag_179:\n        /* \"#utility.yul\":9383:9387   */\n      0x00\n        /* \"#utility.yul\":9421:9424   */\n      0x80\n        /* \"#utility.yul\":9410:9419   */\n      dup3\n        /* \"#utility.yul\":9406:9425   */\n      add\n        /* \"#utility.yul\":9398:9425   */\n      swap1\n      pop\n        /* \"#utility.yul\":9435:9506   */\n      tag_356\n        /* \"#utility.yul\":9503:9504   */\n      0x00\n        /* \"#utility.yul\":9492:9501   */\n      dup4\n        /* \"#utility.yul\":9488:9505   */\n      add\n        /* \"#utility.yul\":9479:9485   */\n      dup6\n        /* \"#utility.yul\":9435:9506   */\n      tag_221\n      jump\t// in\n    tag_356:\n        /* \"#utility.yul\":9516:9634   */\n      tag_357\n        /* \"#utility.yul\":9630:9632   */\n      0x20\n        /* \"#utility.yul\":9619:9628   */\n      dup4\n        /* \"#utility.yul\":9615:9633   */\n      add\n        /* \"#utility.yul\":9606:9612   */\n      dup5\n        /* \"#utility.yul\":9516:9634   */\n      tag_233\n      jump\t// in\n    tag_357:\n        /* \"#utility.yul\":9216:9641   */\n      swap4\n      swap3\n      pop\n      pop\n      pop\n      jump\t// out\n        /* \"#utility.yul\":9647:10244   */\n    tag_192:\n        /* \"#utility.yul\":9846:9850   */\n      0x00\n        /* \"#utility.yul\":9884:9887   */\n      0x80\n        /* \"#utility.yul\":9873:9882   */\n      dup3\n        /* \"#utility.yul\":9869:9888   */\n      add\n        /* \"#utility.yul\":9861:9888   */\n      swap1\n      pop\n        /* \"#utility.yul\":9898:9976   */\n      tag_359\n        /* \"#utility.yul\":9973:9974   */\n      0x00\n        /* \"#utility.yul\":9962:9971   */\n      dup4\n        /* \"#utility.yul\":9958:9975   */\n      add\n        /* \"#utility.yul\":9949:9955   */\n      dup8\n        /* \"#utility.yul\":9898:9976   */\n      tag_243\n      jump\t// in\n    tag_359:\n        /* \"#utility.yul\":9986:10065   */\n      tag_360\n        /* \"#utility.yul\":10061:10063   */\n      0x20\n        /* \"#utility.yul\":10050:10059   */\n      dup4\n        /* \"#utility.yul\":10046:10064   */\n      add\n        /* \"#utility.yul\":10037:10043   */\n      dup7\n        /* \"#utility.yul\":9986:10065   */\n      tag_240\n      jump\t// in\n    tag_360:\n        /* \"#utility.yul\":10075:10147   */\n      tag_361\n        /* \"#utility.yul\":10143:10145   */\n      0x40\n        /* \"#utility.yul\":10132:10141   */\n      dup4\n        /* \"#utility.yul\":10128:10146   */\n      add\n        /* \"#utility.yul\":10119:10125   */\n      dup6\n        /* \"#utility.yul\":10075:10147   */\n      tag_221\n      jump\t// in\n    tag_361:\n        /* \"#utility.yul\":10157:10237   */\n      tag_362\n        /* \"#utility.yul\":10233:10235   */\n      0x60\n        /* \"#utility.yul\":10222:10231   */\n      dup4\n        /* \"#utility.yul\":10218:10236   */\n      add\n        /* \"#utility.yul\":10209:10215   */\n      dup5\n        /* \"#utility.yul\":10157:10237   */\n      tag_237\n      jump\t// in\n    tag_362:\n        /* \"#utility.yul\":9647:10244   */\n      swap6\n      swap5\n      pop\n      pop\n      pop\n      pop\n      pop\n      jump\t// out\n        /* \"#utility.yul\":10250:10335   */\n    tag_244:\n        /* \"#utility.yul\":10295:10302   */\n      0x00\n        /* \"#utility.yul\":10324:10329   */\n      dup2\n        /* \"#utility.yul\":10313:10329   */\n      swap1\n      pop\n        /* \"#utility.yul\":10250:10335   */\n      swap2\n      swap1\n      pop\n      jump\t// out\n        /* \"#utility.yul\":10341:10497   */\n    tag_245:\n        /* \"#utility.yul\":10398:10407   */\n      0x00\n        /* \"#utility.yul\":10431:10491   */\n      tag_365\n        /* \"#utility.yul\":10448:10490   */\n      tag_366\n        /* \"#utility.yul\":10457:10489   */\n      tag_367\n        /* \"#utility.yul\":10483:10488   */\n      dup5\n        /* \"#utility.yul\":10457:10489   */\n      tag_244\n      jump\t// in\n    tag_367:\n        /* \"#utility.yul\":10448:10490   */\n      tag_235\n      jump\t// in\n    tag_366:\n        /* \"#utility.yul\":10431:10491   */\n      tag_238\n      jump\t// in\n    tag_365:\n        /* \"#utility.yul\":10418:10491   */\n      swap1\n      pop\n        /* \"#utility.yul\":10341:10497   */\n      swap2\n      swap1\n      pop\n      jump\t// out\n        /* \"#utility.yul\":10503:10648   */\n    tag_246:\n        /* \"#utility.yul\":10597:10641   */\n      tag_369\n        /* \"#utility.yul\":10635:10640   */\n      dup2\n        /* \"#utility.yul\":10597:10641   */\n      tag_245\n      jump\t// in\n    tag_369:\n        /* \"#utility.yul\":10592:10595   */\n      dup3\n        /* \"#utility.yul\":10585:10642   */\n      mstore\n        /* \"#utility.yul\":10503:10648   */\n      pop\n      pop\n      jump\t// out\n        /* \"#utility.yul\":10654:11251   */\n    tag_197:\n        /* \"#utility.yul\":10853:10857   */\n      0x00\n        /* \"#utility.yul\":10891:10894   */\n      0x80\n        /* \"#utility.yul\":10880:10889   */\n      dup3\n        /* \"#utility.yul\":10876:10895   */\n      add\n        /* \"#utility.yul\":10868:10895   */\n      swap1\n      pop\n        /* \"#utility.yul\":10905:10983   */\n      tag_371\n        /* \"#utility.yul\":10980:10981   */\n      0x00\n        /* \"#utility.yul\":10969:10978   */\n      dup4\n        /* \"#utility.yul\":10965:10982   */\n      add\n        /* \"#utility.yul\":10956:10962   */\n      dup8\n        /* \"#utility.yul\":10905:10983   */\n      tag_246\n      jump\t// in\n    tag_371:\n        /* \"#utility.yul\":10993:11072   */\n      tag_372\n        /* \"#utility.yul\":11068:11070   */\n      0x20\n        /* \"#utility.yul\":11057:11066   */\n      dup4\n        /* \"#utility.yul\":11053:11071   */\n      add\n        /* \"#utility.yul\":11044:11050   */\n      dup7\n        /* \"#utility.yul\":10993:11072   */\n      tag_240\n      jump\t// in\n    tag_372:\n        /* \"#utility.yul\":11082:11154   */\n      tag_373\n        /* \"#utility.yul\":11150:11152   */\n      0x40\n        /* \"#utility.yul\":11139:11148   */\n      dup4\n        /* \"#utility.yul\":11135:11153   */\n      add\n        /* \"#utility.yul\":11126:11132   */\n      dup6\n        /* \"#utility.yul\":11082:11154   */\n      tag_221\n      jump\t// in\n    tag_373:\n        /* \"#utility.yul\":11164:11244   */\n      tag_374\n        /* \"#utility.yul\":11240:11242   */\n      0x60\n        /* \"#utility.yul\":11229:11238   */\n      dup4\n        /* \"#utility.yul\":11225:11243   */\n      add\n        /* \"#utility.yul\":11216:11222   */\n      dup5\n        /* \"#utility.yul\":11164:11244   */\n      tag_237\n      jump\t// in\n    tag_374:\n        /* \"#utility.yul\":10654:11251   */\n      swap6\n      swap5\n      pop\n      pop\n      pop\n      pop\n      pop\n      jump\t// out\n\n    auxdata: 0xa26469706673582212200b2c7aff254680c1e2f176dd9efe62c3a06d85332a3af1f3298d8fe9bf83cb3964736f6c63430008110033\n}\n",
				"bytecode": {
					"linkReferences": {},
					"object": "608060405273445fe580ef8d70ff569ab36e80c647af338db3516000806101000a81548173ffffffffffffffffffffffffffffffffffffffff021916908373ffffffffffffffffffffffffffffffffffffffff16021790555060008054906101000a900473ffffffffffffffffffffffffffffffffffffffff16600160006101000a81548173ffffffffffffffffffffffffffffffffffffffff021916908373ffffffffffffffffffffffffffffffffffffffff1602179055507320759f567bb3ecdb55c817c9a1d13076ab215edc600260006101000a81548173ffffffffffffffffffffffffffffffffffffffff021916908373ffffffffffffffffffffffffffffffffffffffff1602179055507320759f567bb3ecdb55c817c9a1d13076ab215edc600360006101000a81548173ffffffffffffffffffffffffffffffffffffffff021916908373ffffffffffffffffffffffffffffffffffffffff16021790555073c7c939a474cb10eb837894d1ed1a77c61b268fa7600460006101000a81548173ffffffffffffffffffffffffffffffffffffffff021916908373ffffffffffffffffffffffffffffffffffffffff160217905550600460009054906101000a900473ffffffffffffffffffffffffffffffffffffffff16600560006101000a81548173ffffffffffffffffffffffffffffffffffffffff021916908373ffffffffffffffffffffffffffffffffffffffff1602179055507392215849c439e1f8612b6646060b4e3e5ef822cc600660006101000a81548173ffffffffffffffffffffffffffffffffffffffff021916908373ffffffffffffffffffffffffffffffffffffffff160217905550600660009054906101000a900473ffffffffffffffffffffffffffffffffffffffff16600760006101000a81548173ffffffffffffffffffffffffffffffffffffffff021916908373ffffffffffffffffffffffffffffffffffffffff16021790555073e7a24ef0c5e95ffb0f6684b813a78f2a3ad7d171600860006101000a81548173ffffffffffffffffffffffffffffffffffffffff021916908373ffffffffffffffffffffffffffffffffffffffff16021790555073172370d5cd63279efa6d502dab29171933a610af600960006101000a81548173ffffffffffffffffffffffffffffffffffffffff021916908373ffffffffffffffffffffffffffffffffffffffff160217905550735c2ed810328349100a66b82b78a1791b101c9d61600a60006101000a81548173ffffffffffffffffffffffffffffffffffffffff021916908373ffffffffffffffffffffffffffffffffffffffff1602179055507328424507fefb6f7f8e9d3860f56504e4e5f5f390600b60006101000a81548173ffffffffffffffffffffffffffffffffffffffff021916908373ffffffffffffffffffffffffffffffffffffffff160217905550732791bca1f2de4661ed88a30c99a7a9449aa84174600c60006101000a81548173ffffffffffffffffffffffffffffffffffffffff021916908373ffffffffffffffffffffffffffffffffffffffff160217905550738f3cf7ad23cd3cadbd9735aff958023239c6a063600d60006101000a81548173ffffffffffffffffffffffffffffffffffffffff021916908373ffffffffffffffffffffffffffffffffffffffff16021790555073c2132d05d31c914a87c6611c10748aeb04b58e8f600e60006101000a81548173ffffffffffffffffffffffffffffffffffffffff021916908373ffffffffffffffffffffffffffffffffffffffff16021790555073794a61358d6845594f94dc1db02a252b5b4814ad600f60006101000a81548173ffffffffffffffffffffffffffffffffffffffff021916908373ffffffffffffffffffffffffffffffffffffffff16021790555073d05e3e715d945b59290df0ae8ef85c1bdb684744601060006101000a81548173ffffffffffffffffffffffffffffffffffffffff021916908373ffffffffffffffffffffffffffffffffffffffff160217905550348015620005dd57600080fd5b5060405162002809380380620028098339818101604052810190620006039190620006f7565b81601160006101000a81548173ffffffffffffffffffffffffffffffffffffffff021916908373ffffffffffffffffffffffffffffffffffffffff16021790555080601260006101000a81548173ffffffffffffffffffffffffffffffffffffffff021916908373ffffffffffffffffffffffffffffffffffffffff16021790555050506200073e565b600080fd5b600073ffffffffffffffffffffffffffffffffffffffff82169050919050565b6000620006bf8262000692565b9050919050565b620006d181620006b2565b8114620006dd57600080fd5b50565b600081519050620006f181620006c6565b92915050565b600080604083850312156200071157620007106200068d565b5b60006200072185828601620006e0565b92505060206200073485828601620006e0565b9150509250929050565b6120bb806200074e6000396000f3fe608060405234801561001057600080fd5b50600436106100405760003560e01c8062aeef8a146100455780634641257d14610061578063853828b61461006b575b600080fd5b61005f600480360381019061005a9190611b55565b610075565b005b6100696100ef565b005b610073610330565b005b601160009054906101000a900473ffffffffffffffffffffffffffffffffffffffff1673ffffffffffffffffffffffffffffffffffffffff163373ffffffffffffffffffffffffffffffffffffffff16146100cf57600080fd5b6100d76109a2565b6100e2838383610ff1565b6100ea6110b8565b505050565b601160009054906101000a900473ffffffffffffffffffffffffffffffffffffffff1673ffffffffffffffffffffffffffffffffffffffff163373ffffffffffffffffffffffffffffffffffffffff161461014957600080fd5b60007327f8d03b3a2196956ed754badc28d73be8830a6e73ffffffffffffffffffffffffffffffffffffffff166370a08231306040518263ffffffff1660e01b81526004016101989190611be9565b602060405180830381865afa1580156101b5573d6000803e3d6000fd5b505050506040513d601f19601f820116820180604052508101906101d99190611c19565b90506000731a13f4ca1d028320a707d99520abfefca3998b7f73ffffffffffffffffffffffffffffffffffffffff166370a08231306040518263ffffffff1660e01b815260040161022a9190611be9565b602060405180830381865afa158015610247573d6000803e3d6000fd5b505050506040513d601f19601f8201168201806040525081019061026b9190611c19565b905060007360d55f02a771d515e077c9c2403a1ef324885cec73ffffffffffffffffffffffffffffffffffffffff166370a08231306040518263ffffffff1660e01b81526004016102bc9190611be9565b602060405180830381865afa1580156102d9573d6000803e3d6000fd5b505050506040513d601f19601f820116820180604052508101906102fd9190611c19565b90506103076112ad565b50610310611483565b6103186119ab565b610323838383610ff1565b61032b6110b8565b505050565b601160009054906101000a900473ffffffffffffffffffffffffffffffffffffffff1673ffffffffffffffffffffffffffffffffffffffff163373ffffffffffffffffffffffffffffffffffffffff161461038a57600080fd5b6103926112ad565b5061039b611483565b6103a36119ab565b60007327f8d03b3a2196956ed754badc28d73be8830a6e73ffffffffffffffffffffffffffffffffffffffff166370a08231306040518263ffffffff1660e01b81526004016103f29190611be9565b602060405180830381865afa15801561040f573d6000803e3d6000fd5b505050506040513d601f19601f820116820180604052508101906104339190611c19565b90506000731a13f4ca1d028320a707d99520abfefca3998b7f73ffffffffffffffffffffffffffffffffffffffff166370a08231306040518263ffffffff1660e01b81526004016104849190611be9565b602060405180830381865afa1580156104a1573d6000803e3d6000fd5b505050506040513d601f19601f820116820180604052508101906104c59190611c19565b905060007360d55f02a771d515e077c9c2403a1ef324885cec73ffffffffffffffffffffffffffffffffffffffff166370a08231306040518263ffffffff1660e01b81526004016105169190611be9565b602060405180830381865afa158015610533573d6000803e3d6000fd5b505050506040513d601f19601f820116820180604052508101906105579190611c19565b90507327f8d03b3a2196956ed754badc28d73be8830a6e73ffffffffffffffffffffffffffffffffffffffff1663095ea7b3601260009054906101000a900473ffffffffffffffffffffffffffffffffffffffff16856040518363ffffffff1660e01b81526004016105ca929190611c55565b6020604051808303816000875af11580156105e9573d6000803e3d6000fd5b505050506040513d601f19601f8201168201806040525081019061060d9190611cb6565b50731a13f4ca1d028320a707d99520abfefca3998b7f73ffffffffffffffffffffffffffffffffffffffff1663095ea7b3601260009054906101000a900473ffffffffffffffffffffffffffffffffffffffff16846040518363ffffffff1660e01b815260040161067f929190611c55565b6020604051808303816000875af115801561069e573d6000803e3d6000fd5b505050506040513d601f19601f820116820180604052508101906106c29190611cb6565b507360d55f02a771d515e077c9c2403a1ef324885cec73ffffffffffffffffffffffffffffffffffffffff1663095ea7b3601260009054906101000a900473ffffffffffffffffffffffffffffffffffffffff16836040518363ffffffff1660e01b8152600401610734929190611c55565b6020604051808303816000875af1158015610753573d6000803e3d6000fd5b505050506040513d601f19601f820116820180604052508101906107779190611cb6565b507327f8d03b3a2196956ed754badc28d73be8830a6e73ffffffffffffffffffffffffffffffffffffffff166323b872dd30601260009054906101000a900473ffffffffffffffffffffffffffffffffffffffff16866040518463ffffffff1660e01b81526004016107eb93929190611ce3565b6020604051808303816000875af115801561080a573d6000803e3d6000fd5b505050506040513d601f19601f8201168201806040525081019061082e9190611cb6565b50731a13f4ca1d028320a707d99520abfefca3998b7f73ffffffffffffffffffffffffffffffffffffffff166323b872dd30601260009054906101000a900473ffffffffffffffffffffffffffffffffffffffff16856040518463ffffffff1660e01b81526004016108a293929190611ce3565b6020604051808303816000875af11580156108c1573d6000803e3d6000fd5b505050506040513d601f19601f820116820180604052508101906108e59190611cb6565b507360d55f02a771d515e077c9c2403a1ef324885cec73ffffffffffffffffffffffffffffffffffffffff166323b872dd30601260009054906101000a900473ffffffffffffffffffffffffffffffffffffffff16846040518463ffffffff1660e01b815260040161095993929190611ce3565b6020604051808303816000875af1158015610978573d6000803e3d6000fd5b505050506040513d601f19601f8201168201806040525081019061099c9190611cb6565b50505050565b600080600d60009054906101000a900473ffffffffffffffffffffffffffffffffffffffff1673ffffffffffffffffffffffffffffffffffffffff166370a08231306040518263ffffffff1660e01b8152600401610a009190611be9565b602060405180830381865afa158015610a1d573d6000803e3d6000fd5b505050506040513d601f19601f82011682018060405250810190610a419190611c19565b90506000600c60009054906101000a900473ffffffffffffffffffffffffffffffffffffffff1673ffffffffffffffffffffffffffffffffffffffff166370a08231306040518263ffffffff1660e01b8152600401610aa09190611be9565b602060405180830381865afa158015610abd573d6000803e3d6000fd5b505050506040513d601f19601f82011682018060405250810190610ae19190611c19565b90506000600e60009054906101000a900473ffffffffffffffffffffffffffffffffffffffff1673ffffffffffffffffffffffffffffffffffffffff166370a08231306040518263ffffffff1660e01b8152600401610b409190611be9565b602060405180830381865afa158015610b5d573d6000803e3d6000fd5b505050506040513d601f19601f82011682018060405250810190610b819190611c19565b9050600d60009054906101000a900473ffffffffffffffffffffffffffffffffffffffff1673ffffffffffffffffffffffffffffffffffffffff1663095ea7b3601060009054906101000a900473ffffffffffffffffffffffffffffffffffffffff16856040518363ffffffff1660e01b8152600401610c02929190611c55565b6020604051808303816000875af1158015610c21573d6000803e3d6000fd5b505050506040513d601f19601f82011682018060405250810190610c459190611cb6565b50600c60009054906101000a900473ffffffffffffffffffffffffffffffffffffffff1673ffffffffffffffffffffffffffffffffffffffff1663095ea7b3601060009054906101000a900473ffffffffffffffffffffffffffffffffffffffff16846040518363ffffffff1660e01b8152600401610cc5929190611c55565b6020604051808303816000875af1158015610ce4573d6000803e3d6000fd5b505050506040513d601f19601f82011682018060405250810190610d089190611cb6565b50600e60009054906101000a900473ffffffffffffffffffffffffffffffffffffffff1673ffffffffffffffffffffffffffffffffffffffff1663095ea7b3601060009054906101000a900473ffffffffffffffffffffffffffffffffffffffff16836040518363ffffffff1660e01b8152600401610d88929190611c55565b6020604051808303816000875af1158015610da7573d6000803e3d6000fd5b505050506040513d601f19601f82011682018060405250810190610dcb9190611cb6565b50601060009054906101000a900473ffffffffffffffffffffffffffffffffffffffff1673ffffffffffffffffffffffffffffffffffffffff1663e8eda9df600d60009054906101000a900473ffffffffffffffffffffffffffffffffffffffff168530886040518563ffffffff1660e01b8152600401610e4f9493929190611d37565b600060405180830381600087803b158015610e6957600080fd5b505af1158015610e7d573d6000803e3d6000fd5b50505050601060009054906101000a900473ffffffffffffffffffffffffffffffffffffffff1673ffffffffffffffffffffffffffffffffffffffff1663e8eda9df600c60009054906101000a900473ffffffffffffffffffffffffffffffffffffffff168430886040518563ffffffff1660e01b8152600401610f049493929190611d37565b600060405180830381600087803b158015610f1e57600080fd5b505af1158015610f32573d6000803e3d6000fd5b50505050601060009054906101000a900473ffffffffffffffffffffffffffffffffffffffff1673ffffffffffffffffffffffffffffffffffffffff1663e8eda9df600e60009054906101000a900473ffffffffffffffffffffffffffffffffffffffff168330886040518563ffffffff1660e01b8152600401610fb99493929190611d37565b600060405180830381600087803b158015610fd357600080fd5b505af1158015610fe7573d6000803e3d6000fd5b5050505050505050565b60006040518060600160405280858152602001848152602001838152509050600160009054906101000a900473ffffffffffffffffffffffffffffffffffffffff1673ffffffffffffffffffffffffffffffffffffffff16634515cef38260006040518363ffffffff1660e01b815260040161106e929190611e6c565b6020604051808303816000875af115801561108d573d6000803e3d6000fd5b505050506040513d601f19601f820116820180604052508101906110b19190611c19565b5050505050565b6000600860009054906101000a900473ffffffffffffffffffffffffffffffffffffffff1673ffffffffffffffffffffffffffffffffffffffff166370a08231306040518263ffffffff1660e01b81526004016111159190611be9565b602060405180830381865afa158015611132573d6000803e3d6000fd5b505050506040513d601f19601f820116820180604052508101906111569190611c19565b9050600860009054906101000a900473ffffffffffffffffffffffffffffffffffffffff1673ffffffffffffffffffffffffffffffffffffffff1663095ea7b3600260009054906101000a900473ffffffffffffffffffffffffffffffffffffffff16836040518363ffffffff1660e01b81526004016111d7929190611c55565b6020604051808303816000875af11580156111f6573d6000803e3d6000fd5b505050506040513d601f19601f8201168201806040525081019061121a9190611cb6565b50600360009054906101000a900473ffffffffffffffffffffffffffffffffffffffff1673ffffffffffffffffffffffffffffffffffffffff16636e553f6582306040518363ffffffff1660e01b8152600401611278929190611e95565b600060405180830381600087803b15801561129257600080fd5b505af11580156112a6573d6000803e3d6000fd5b5050505050565b600080600860009054906101000a900473ffffffffffffffffffffffffffffffffffffffff1673ffffffffffffffffffffffffffffffffffffffff166370a08231306040518263ffffffff1660e01b815260040161130b9190611be9565b602060405180830381865afa158015611328573d6000803e3d6000fd5b505050506040513d601f19601f8201168201806040525081019061134c9190611c19565b9050600360009054906101000a900473ffffffffffffffffffffffffffffffffffffffff1673ffffffffffffffffffffffffffffffffffffffff16632e1a7d4d826040518263ffffffff1660e01b81526004016113a99190611ebe565b600060405180830381600087803b1580156113c357600080fd5b505af11580156113d7573d6000803e3d6000fd5b505050506000600960009054906101000a900473ffffffffffffffffffffffffffffffffffffffff1673ffffffffffffffffffffffffffffffffffffffff166370a08231306040518263ffffffff1660e01b81526004016114389190611be9565b602060405180830381865afa158015611455573d6000803e3d6000fd5b505050506040513d601f19601f820116820180604052508101906114799190611c19565b9050809250505090565b61148b611af8565b6000600960009054906101000a900473ffffffffffffffffffffffffffffffffffffffff1673ffffffffffffffffffffffffffffffffffffffff166370a08231306040518263ffffffff1660e01b81526004016114e89190611be9565b602060405180830381865afa158015611505573d6000803e3d6000fd5b505050506040513d601f19601f820116820180604052508101906115299190611c19565b9050600560009054906101000a900473ffffffffffffffffffffffffffffffffffffffff1673ffffffffffffffffffffffffffffffffffffffff16633df02124600060018460006040518563ffffffff1660e01b815260040161158f9493929190611f52565b6020604051808303816000875af11580156115ae573d6000803e3d6000fd5b505050506040513d601f19601f820116820180604052508101906115d29190611c19565b506000600660009054906101000a900473ffffffffffffffffffffffffffffffffffffffff1673ffffffffffffffffffffffffffffffffffffffff166370a08231306040518263ffffffff1660e01b81526004016116309190611be9565b602060405180830381865afa15801561164d573d6000803e3d6000fd5b505050506040513d601f19601f820116820180604052508101906116719190611c19565b9050600760009054906101000a900473ffffffffffffffffffffffffffffffffffffffff1673ffffffffffffffffffffffffffffffffffffffff1663ecb586a582856040518363ffffffff1660e01b81526004016116d0929190611f97565b6020604051808303816000875af11580156116ef573d6000803e3d6000fd5b505050506040513d601f19601f820116820180604052508101906117139190611c19565b506000600a60009054906101000a900473ffffffffffffffffffffffffffffffffffffffff1673ffffffffffffffffffffffffffffffffffffffff166370a08231306040518263ffffffff1660e01b81526004016117719190611be9565b602060405180830381865afa15801561178e573d6000803e3d6000fd5b505050506040513d601f19601f820116820180604052508101906117b29190611c19565b90506000600b60009054906101000a900473ffffffffffffffffffffffffffffffffffffffff1673ffffffffffffffffffffffffffffffffffffffff166370a08231306040518263ffffffff1660e01b81526004016118119190611be9565b602060405180830381865afa15801561182e573d6000803e3d6000fd5b505050506040513d601f19601f820116820180604052508101906118529190611c19565b9050600760009054906101000a900473ffffffffffffffffffffffffffffffffffffffff1673ffffffffffffffffffffffffffffffffffffffff16633df02124600160008560006040518563ffffffff1660e01b81526004016118b89493929190611fc0565b6020604051808303816000875af11580156118d7573d6000803e3d6000fd5b505050506040513d601f19601f820116820180604052508101906118fb9190611c19565b50600760009054906101000a900473ffffffffffffffffffffffffffffffffffffffff1673ffffffffffffffffffffffffffffffffffffffff16633df02124600260008460006040518563ffffffff1660e01b81526004016119609493929190612040565b6020604051808303816000875af115801561197f573d6000803e3d6000fd5b505050506040513d601f19601f820116820180604052508101906119a39190611c19565b505050505050565b6000600860009054906101000a900473ffffffffffffffffffffffffffffffffffffffff1673ffffffffffffffffffffffffffffffffffffffff166370a08231306040518263ffffffff1660e01b8152600401611a089190611be9565b602060405180830381865afa158015611a25573d6000803e3d6000fd5b505050506040513d601f19601f82011682018060405250810190611a499190611c19565b9050611a53611af8565b600160009054906101000a900473ffffffffffffffffffffffffffffffffffffffff1673ffffffffffffffffffffffffffffffffffffffff1663ecb586a583836040518363ffffffff1660e01b8152600401611ab0929190611f97565b6020604051808303816000875af1158015611acf573d6000803e3d6000fd5b505050506040513d601f19601f82011682018060405250810190611af39190611c19565b505050565b6040518060600160405280600390602082028036833780820191505090505090565b600080fd5b6000819050919050565b611b3281611b1f565b8114611b3d57600080fd5b50565b600081359050611b4f81611b29565b92915050565b600080600060608486031215611b6e57611b6d611b1a565b5b6000611b7c86828701611b40565b9350506020611b8d86828701611b40565b9250506040611b9e86828701611b40565b9150509250925092565b600073ffffffffffffffffffffffffffffffffffffffff82169050919050565b6000611bd382611ba8565b9050919050565b611be381611bc8565b82525050565b6000602082019050611bfe6000830184611bda565b92915050565b600081519050611c1381611b29565b92915050565b600060208284031215611c2f57611c2e611b1a565b5b6000611c3d84828501611c04565b91505092915050565b611c4f81611b1f565b82525050565b6000604082019050611c6a6000830185611bda565b611c776020830184611c46565b9392505050565b60008115159050919050565b611c9381611c7e565b8114611c9e57600080fd5b50565b600081519050611cb081611c8a565b92915050565b600060208284031215611ccc57611ccb611b1a565b5b6000611cda84828501611ca1565b91505092915050565b6000606082019050611cf86000830186611bda565b611d056020830185611bda565b611d126040830184611c46565b949350505050565b600061ffff82169050919050565b611d3181611d1a565b82525050565b6000608082019050611d4c6000830187611bda565b611d596020830186611c46565b611d666040830185611bda565b611d736060830184611d28565b95945050505050565b600060039050919050565b600081905092915050565b6000819050919050565b611da581611b1f565b82525050565b6000611db78383611d9c565b60208301905092915050565b6000602082019050919050565b611dd981611d7c565b611de38184611d87565b9250611dee82611d92565b8060005b83811015611e1f578151611e068782611dab565b9650611e1183611dc3565b925050600181019050611df2565b505050505050565b6000819050919050565b6000819050919050565b6000611e56611e51611e4c84611e27565b611e31565b611b1f565b9050919050565b611e6681611e3b565b82525050565b6000608082019050611e816000830185611dd0565b611e8e6060830184611e5d565b9392505050565b6000604082019050611eaa6000830185611c46565b611eb76020830184611bda565b9392505050565b6000602082019050611ed36000830184611c46565b92915050565b600081600f0b9050919050565b6000611f01611efc611ef784611e27565b611e31565b611ed9565b9050919050565b611f1181611ee6565b82525050565b6000819050919050565b6000611f3c611f37611f3284611f17565b611e31565b611ed9565b9050919050565b611f4c81611f21565b82525050565b6000608082019050611f676000830187611f08565b611f746020830186611f43565b611f816040830185611c46565b611f8e6060830184611e5d565b95945050505050565b6000608082019050611fac6000830185611c46565b611fb96020830184611dd0565b9392505050565b6000608082019050611fd56000830187611f43565b611fe26020830186611f08565b611fef6040830185611c46565b611ffc6060830184611e5d565b95945050505050565b6000819050919050565b600061202a61202561202084612005565b611e31565b611ed9565b9050919050565b61203a8161200f565b82525050565b60006080820190506120556000830187612031565b6120626020830186611f08565b61206f6040830185611c46565b61207c6060830184611e5d565b9594505050505056fea26469706673582212200b2c7aff254680c1e2f176dd9efe62c3a06d85332a3af1f3298d8fe9bf83cb3964736f6c63430008110033",
					"opcodes": "PUSH1 0x80 PUSH1 0x40 MSTORE PUSH20 0x445FE580EF8D70FF569AB36E80C647AF338DB351 PUSH1 0x0 DUP1 PUSH2 0x100 EXP DUP2 SLOAD DUP2 PUSH20 0xFFFFFFFFFFFFFFFFFFFFFFFFFFFFFFFFFFFFFFFF MUL NOT AND SWAP1 DUP4 PUSH20 0xFFFFFFFFFFFFFFFFFFFFFFFFFFFFFFFFFFFFFFFF AND MUL OR SWAP1 SSTORE POP PUSH1 0x0 DUP1 SLOAD SWAP1 PUSH2 0x100 EXP SWAP1 DIV PUSH20 0xFFFFFFFFFFFFFFFFFFFFFFFFFFFFFFFFFFFFFFFF AND PUSH1 0x1 PUSH1 0x0 PUSH2 0x100 EXP DUP2 SLOAD DUP2 PUSH20 0xFFFFFFFFFFFFFFFFFFFFFFFFFFFFFFFFFFFFFFFF MUL NOT AND SWAP1 DUP4 PUSH20 0xFFFFFFFFFFFFFFFFFFFFFFFFFFFFFFFFFFFFFFFF AND MUL OR SWAP1 SSTORE POP PUSH20 0x20759F567BB3ECDB55C817C9A1D13076AB215EDC PUSH1 0x2 PUSH1 0x0 PUSH2 0x100 EXP DUP2 SLOAD DUP2 PUSH20 0xFFFFFFFFFFFFFFFFFFFFFFFFFFFFFFFFFFFFFFFF MUL NOT AND SWAP1 DUP4 PUSH20 0xFFFFFFFFFFFFFFFFFFFFFFFFFFFFFFFFFFFFFFFF AND MUL OR SWAP1 SSTORE POP PUSH20 0x20759F567BB3ECDB55C817C9A1D13076AB215EDC PUSH1 0x3 PUSH1 0x0 PUSH2 0x100 EXP DUP2 SLOAD DUP2 PUSH20 0xFFFFFFFFFFFFFFFFFFFFFFFFFFFFFFFFFFFFFFFF MUL NOT AND SWAP1 DUP4 PUSH20 0xFFFFFFFFFFFFFFFFFFFFFFFFFFFFFFFFFFFFFFFF AND MUL OR SWAP1 SSTORE POP PUSH20 0xC7C939A474CB10EB837894D1ED1A77C61B268FA7 PUSH1 0x4 PUSH1 0x0 PUSH2 0x100 EXP DUP2 SLOAD DUP2 PUSH20 0xFFFFFFFFFFFFFFFFFFFFFFFFFFFFFFFFFFFFFFFF MUL NOT AND SWAP1 DUP4 PUSH20 0xFFFFFFFFFFFFFFFFFFFFFFFFFFFFFFFFFFFFFFFF AND MUL OR SWAP1 SSTORE POP PUSH1 0x4 PUSH1 0x0 SWAP1 SLOAD SWAP1 PUSH2 0x100 EXP SWAP1 DIV PUSH20 0xFFFFFFFFFFFFFFFFFFFFFFFFFFFFFFFFFFFFFFFF AND PUSH1 0x5 PUSH1 0x0 PUSH2 0x100 EXP DUP2 SLOAD DUP2 PUSH20 0xFFFFFFFFFFFFFFFFFFFFFFFFFFFFFFFFFFFFFFFF MUL NOT AND SWAP1 DUP4 PUSH20 0xFFFFFFFFFFFFFFFFFFFFFFFFFFFFFFFFFFFFFFFF AND MUL OR SWAP1 SSTORE POP PUSH20 0x92215849C439E1F8612B6646060B4E3E5EF822CC PUSH1 0x6 PUSH1 0x0 PUSH2 0x100 EXP DUP2 SLOAD DUP2 PUSH20 0xFFFFFFFFFFFFFFFFFFFFFFFFFFFFFFFFFFFFFFFF MUL NOT AND SWAP1 DUP4 PUSH20 0xFFFFFFFFFFFFFFFFFFFFFFFFFFFFFFFFFFFFFFFF AND MUL OR SWAP1 SSTORE POP PUSH1 0x6 PUSH1 0x0 SWAP1 SLOAD SWAP1 PUSH2 0x100 EXP SWAP1 DIV PUSH20 0xFFFFFFFFFFFFFFFFFFFFFFFFFFFFFFFFFFFFFFFF AND PUSH1 0x7 PUSH1 0x0 PUSH2 0x100 EXP DUP2 SLOAD DUP2 PUSH20 0xFFFFFFFFFFFFFFFFFFFFFFFFFFFFFFFFFFFFFFFF MUL NOT AND SWAP1 DUP4 PUSH20 0xFFFFFFFFFFFFFFFFFFFFFFFFFFFFFFFFFFFFFFFF AND MUL OR SWAP1 SSTORE POP PUSH20 0xE7A24EF0C5E95FFB0F6684B813A78F2A3AD7D171 PUSH1 0x8 PUSH1 0x0 PUSH2 0x100 EXP DUP2 SLOAD DUP2 PUSH20 0xFFFFFFFFFFFFFFFFFFFFFFFFFFFFFFFFFFFFFFFF MUL NOT AND SWAP1 DUP4 PUSH20 0xFFFFFFFFFFFFFFFFFFFFFFFFFFFFFFFFFFFFFFFF AND MUL OR SWAP1 SSTORE POP PUSH20 0x172370D5CD63279EFA6D502DAB29171933A610AF PUSH1 0x9 PUSH1 0x0 PUSH2 0x100 EXP DUP2 SLOAD DUP2 PUSH20 0xFFFFFFFFFFFFFFFFFFFFFFFFFFFFFFFFFFFFFFFF MUL NOT AND SWAP1 DUP4 PUSH20 0xFFFFFFFFFFFFFFFFFFFFFFFFFFFFFFFFFFFFFFFF AND MUL OR SWAP1 SSTORE POP PUSH20 0x5C2ED810328349100A66B82B78A1791B101C9D61 PUSH1 0xA PUSH1 0x0 PUSH2 0x100 EXP DUP2 SLOAD DUP2 PUSH20 0xFFFFFFFFFFFFFFFFFFFFFFFFFFFFFFFFFFFFFFFF MUL NOT AND SWAP1 DUP4 PUSH20 0xFFFFFFFFFFFFFFFFFFFFFFFFFFFFFFFFFFFFFFFF AND MUL OR SWAP1 SSTORE POP PUSH20 0x28424507FEFB6F7F8E9D3860F56504E4E5F5F390 PUSH1 0xB PUSH1 0x0 PUSH2 0x100 EXP DUP2 SLOAD DUP2 PUSH20 0xFFFFFFFFFFFFFFFFFFFFFFFFFFFFFFFFFFFFFFFF MUL NOT AND SWAP1 DUP4 PUSH20 0xFFFFFFFFFFFFFFFFFFFFFFFFFFFFFFFFFFFFFFFF AND MUL OR SWAP1 SSTORE POP PUSH20 0x2791BCA1F2DE4661ED88A30C99A7A9449AA84174 PUSH1 0xC PUSH1 0x0 PUSH2 0x100 EXP DUP2 SLOAD DUP2 PUSH20 0xFFFFFFFFFFFFFFFFFFFFFFFFFFFFFFFFFFFFFFFF MUL NOT AND SWAP1 DUP4 PUSH20 0xFFFFFFFFFFFFFFFFFFFFFFFFFFFFFFFFFFFFFFFF AND MUL OR SWAP1 SSTORE POP PUSH20 0x8F3CF7AD23CD3CADBD9735AFF958023239C6A063 PUSH1 0xD PUSH1 0x0 PUSH2 0x100 EXP DUP2 SLOAD DUP2 PUSH20 0xFFFFFFFFFFFFFFFFFFFFFFFFFFFFFFFFFFFFFFFF MUL NOT AND SWAP1 DUP4 PUSH20 0xFFFFFFFFFFFFFFFFFFFFFFFFFFFFFFFFFFFFFFFF AND MUL OR SWAP1 SSTORE POP PUSH20 0xC2132D05D31C914A87C6611C10748AEB04B58E8F PUSH1 0xE PUSH1 0x0 PUSH2 0x100 EXP DUP2 SLOAD DUP2 PUSH20 0xFFFFFFFFFFFFFFFFFFFFFFFFFFFFFFFFFFFFFFFF MUL NOT AND SWAP1 DUP4 PUSH20 0xFFFFFFFFFFFFFFFFFFFFFFFFFFFFFFFFFFFFFFFF AND MUL OR SWAP1 SSTORE POP PUSH20 0x794A61358D6845594F94DC1DB02A252B5B4814AD PUSH1 0xF PUSH1 0x0 PUSH2 0x100 EXP DUP2 SLOAD DUP2 PUSH20 0xFFFFFFFFFFFFFFFFFFFFFFFFFFFFFFFFFFFFFFFF MUL NOT AND SWAP1 DUP4 PUSH20 0xFFFFFFFFFFFFFFFFFFFFFFFFFFFFFFFFFFFFFFFF AND MUL OR SWAP1 SSTORE POP PUSH20 0xD05E3E715D945B59290DF0AE8EF85C1BDB684744 PUSH1 0x10 PUSH1 0x0 PUSH2 0x100 EXP DUP2 SLOAD DUP2 PUSH20 0xFFFFFFFFFFFFFFFFFFFFFFFFFFFFFFFFFFFFFFFF MUL NOT AND SWAP1 DUP4 PUSH20 0xFFFFFFFFFFFFFFFFFFFFFFFFFFFFFFFFFFFFFFFF AND MUL OR SWAP1 SSTORE POP CALLVALUE DUP1 ISZERO PUSH3 0x5DD JUMPI PUSH1 0x0 DUP1 REVERT JUMPDEST POP PUSH1 0x40 MLOAD PUSH3 0x2809 CODESIZE SUB DUP1 PUSH3 0x2809 DUP4 CODECOPY DUP2 DUP2 ADD PUSH1 0x40 MSTORE DUP2 ADD SWAP1 PUSH3 0x603 SWAP2 SWAP1 PUSH3 0x6F7 JUMP JUMPDEST DUP2 PUSH1 0x11 PUSH1 0x0 PUSH2 0x100 EXP DUP2 SLOAD DUP2 PUSH20 0xFFFFFFFFFFFFFFFFFFFFFFFFFFFFFFFFFFFFFFFF MUL NOT AND SWAP1 DUP4 PUSH20 0xFFFFFFFFFFFFFFFFFFFFFFFFFFFFFFFFFFFFFFFF AND MUL OR SWAP1 SSTORE POP DUP1 PUSH1 0x12 PUSH1 0x0 PUSH2 0x100 EXP DUP2 SLOAD DUP2 PUSH20 0xFFFFFFFFFFFFFFFFFFFFFFFFFFFFFFFFFFFFFFFF MUL NOT AND SWAP1 DUP4 PUSH20 0xFFFFFFFFFFFFFFFFFFFFFFFFFFFFFFFFFFFFFFFF AND MUL OR SWAP1 SSTORE POP POP POP PUSH3 0x73E JUMP JUMPDEST PUSH1 0x0 DUP1 REVERT JUMPDEST PUSH1 0x0 PUSH20 0xFFFFFFFFFFFFFFFFFFFFFFFFFFFFFFFFFFFFFFFF DUP3 AND SWAP1 POP SWAP2 SWAP1 POP JUMP JUMPDEST PUSH1 0x0 PUSH3 0x6BF DUP3 PUSH3 0x692 JUMP JUMPDEST SWAP1 POP SWAP2 SWAP1 POP JUMP JUMPDEST PUSH3 0x6D1 DUP2 PUSH3 0x6B2 JUMP JUMPDEST DUP2 EQ PUSH3 0x6DD JUMPI PUSH1 0x0 DUP1 REVERT JUMPDEST POP JUMP JUMPDEST PUSH1 0x0 DUP2 MLOAD SWAP1 POP PUSH3 0x6F1 DUP2 PUSH3 0x6C6 JUMP JUMPDEST SWAP3 SWAP2 POP POP JUMP JUMPDEST PUSH1 0x0 DUP1 PUSH1 0x40 DUP4 DUP6 SUB SLT ISZERO PUSH3 0x711 JUMPI PUSH3 0x710 PUSH3 0x68D JUMP JUMPDEST JUMPDEST PUSH1 0x0 PUSH3 0x721 DUP6 DUP3 DUP7 ADD PUSH3 0x6E0 JUMP JUMPDEST SWAP3 POP POP PUSH1 0x20 PUSH3 0x734 DUP6 DUP3 DUP7 ADD PUSH3 0x6E0 JUMP JUMPDEST SWAP2 POP POP SWAP3 POP SWAP3 SWAP1 POP JUMP JUMPDEST PUSH2 0x20BB DUP1 PUSH3 0x74E PUSH1 0x0 CODECOPY PUSH1 0x0 RETURN INVALID PUSH1 0x80 PUSH1 0x40 MSTORE CALLVALUE DUP1 ISZERO PUSH2 0x10 JUMPI PUSH1 0x0 DUP1 REVERT JUMPDEST POP PUSH1 0x4 CALLDATASIZE LT PUSH2 0x40 JUMPI PUSH1 0x0 CALLDATALOAD PUSH1 0xE0 SHR DUP1 PUSH3 0xAEEF8A EQ PUSH2 0x45 JUMPI DUP1 PUSH4 0x4641257D EQ PUSH2 0x61 JUMPI DUP1 PUSH4 0x853828B6 EQ PUSH2 0x6B JUMPI JUMPDEST PUSH1 0x0 DUP1 REVERT JUMPDEST PUSH2 0x5F PUSH1 0x4 DUP1 CALLDATASIZE SUB DUP2 ADD SWAP1 PUSH2 0x5A SWAP2 SWAP1 PUSH2 0x1B55 JUMP JUMPDEST PUSH2 0x75 JUMP JUMPDEST STOP JUMPDEST PUSH2 0x69 PUSH2 0xEF JUMP JUMPDEST STOP JUMPDEST PUSH2 0x73 PUSH2 0x330 JUMP JUMPDEST STOP JUMPDEST PUSH1 0x11 PUSH1 0x0 SWAP1 SLOAD SWAP1 PUSH2 0x100 EXP SWAP1 DIV PUSH20 0xFFFFFFFFFFFFFFFFFFFFFFFFFFFFFFFFFFFFFFFF AND PUSH20 0xFFFFFFFFFFFFFFFFFFFFFFFFFFFFFFFFFFFFFFFF AND CALLER PUSH20 0xFFFFFFFFFFFFFFFFFFFFFFFFFFFFFFFFFFFFFFFF AND EQ PUSH2 0xCF JUMPI PUSH1 0x0 DUP1 REVERT JUMPDEST PUSH2 0xD7 PUSH2 0x9A2 JUMP JUMPDEST PUSH2 0xE2 DUP4 DUP4 DUP4 PUSH2 0xFF1 JUMP JUMPDEST PUSH2 0xEA PUSH2 0x10B8 JUMP JUMPDEST POP POP POP JUMP JUMPDEST PUSH1 0x11 PUSH1 0x0 SWAP1 SLOAD SWAP1 PUSH2 0x100 EXP SWAP1 DIV PUSH20 0xFFFFFFFFFFFFFFFFFFFFFFFFFFFFFFFFFFFFFFFF AND PUSH20 0xFFFFFFFFFFFFFFFFFFFFFFFFFFFFFFFFFFFFFFFF AND CALLER PUSH20 0xFFFFFFFFFFFFFFFFFFFFFFFFFFFFFFFFFFFFFFFF AND EQ PUSH2 0x149 JUMPI PUSH1 0x0 DUP1 REVERT JUMPDEST PUSH1 0x0 PUSH20 0x27F8D03B3A2196956ED754BADC28D73BE8830A6E PUSH20 0xFFFFFFFFFFFFFFFFFFFFFFFFFFFFFFFFFFFFFFFF AND PUSH4 0x70A08231 ADDRESS PUSH1 0x40 MLOAD DUP3 PUSH4 0xFFFFFFFF AND PUSH1 0xE0 SHL DUP2 MSTORE PUSH1 0x4 ADD PUSH2 0x198 SWAP2 SWAP1 PUSH2 0x1BE9 JUMP JUMPDEST PUSH1 0x20 PUSH1 0x40 MLOAD DUP1 DUP4 SUB DUP2 DUP7 GAS STATICCALL ISZERO DUP1 ISZERO PUSH2 0x1B5 JUMPI RETURNDATASIZE PUSH1 0x0 DUP1 RETURNDATACOPY RETURNDATASIZE PUSH1 0x0 REVERT JUMPDEST POP POP POP POP PUSH1 0x40 MLOAD RETURNDATASIZE PUSH1 0x1F NOT PUSH1 0x1F DUP3 ADD AND DUP3 ADD DUP1 PUSH1 0x40 MSTORE POP DUP2 ADD SWAP1 PUSH2 0x1D9 SWAP2 SWAP1 PUSH2 0x1C19 JUMP JUMPDEST SWAP1 POP PUSH1 0x0 PUSH20 0x1A13F4CA1D028320A707D99520ABFEFCA3998B7F PUSH20 0xFFFFFFFFFFFFFFFFFFFFFFFFFFFFFFFFFFFFFFFF AND PUSH4 0x70A08231 ADDRESS PUSH1 0x40 MLOAD DUP3 PUSH4 0xFFFFFFFF AND PUSH1 0xE0 SHL DUP2 MSTORE PUSH1 0x4 ADD PUSH2 0x22A SWAP2 SWAP1 PUSH2 0x1BE9 JUMP JUMPDEST PUSH1 0x20 PUSH1 0x40 MLOAD DUP1 DUP4 SUB DUP2 DUP7 GAS STATICCALL ISZERO DUP1 ISZERO PUSH2 0x247 JUMPI RETURNDATASIZE PUSH1 0x0 DUP1 RETURNDATACOPY RETURNDATASIZE PUSH1 0x0 REVERT JUMPDEST POP POP POP POP PUSH1 0x40 MLOAD RETURNDATASIZE PUSH1 0x1F NOT PUSH1 0x1F DUP3 ADD AND DUP3 ADD DUP1 PUSH1 0x40 MSTORE POP DUP2 ADD SWAP1 PUSH2 0x26B SWAP2 SWAP1 PUSH2 0x1C19 JUMP JUMPDEST SWAP1 POP PUSH1 0x0 PUSH20 0x60D55F02A771D515E077C9C2403A1EF324885CEC PUSH20 0xFFFFFFFFFFFFFFFFFFFFFFFFFFFFFFFFFFFFFFFF AND PUSH4 0x70A08231 ADDRESS PUSH1 0x40 MLOAD DUP3 PUSH4 0xFFFFFFFF AND PUSH1 0xE0 SHL DUP2 MSTORE PUSH1 0x4 ADD PUSH2 0x2BC SWAP2 SWAP1 PUSH2 0x1BE9 JUMP JUMPDEST PUSH1 0x20 PUSH1 0x40 MLOAD DUP1 DUP4 SUB DUP2 DUP7 GAS STATICCALL ISZERO DUP1 ISZERO PUSH2 0x2D9 JUMPI RETURNDATASIZE PUSH1 0x0 DUP1 RETURNDATACOPY RETURNDATASIZE PUSH1 0x0 REVERT JUMPDEST POP POP POP POP PUSH1 0x40 MLOAD RETURNDATASIZE PUSH1 0x1F NOT PUSH1 0x1F DUP3 ADD AND DUP3 ADD DUP1 PUSH1 0x40 MSTORE POP DUP2 ADD SWAP1 PUSH2 0x2FD SWAP2 SWAP1 PUSH2 0x1C19 JUMP JUMPDEST SWAP1 POP PUSH2 0x307 PUSH2 0x12AD JUMP JUMPDEST POP PUSH2 0x310 PUSH2 0x1483 JUMP JUMPDEST PUSH2 0x318 PUSH2 0x19AB JUMP JUMPDEST PUSH2 0x323 DUP4 DUP4 DUP4 PUSH2 0xFF1 JUMP JUMPDEST PUSH2 0x32B PUSH2 0x10B8 JUMP JUMPDEST POP POP POP JUMP JUMPDEST PUSH1 0x11 PUSH1 0x0 SWAP1 SLOAD SWAP1 PUSH2 0x100 EXP SWAP1 DIV PUSH20 0xFFFFFFFFFFFFFFFFFFFFFFFFFFFFFFFFFFFFFFFF AND PUSH20 0xFFFFFFFFFFFFFFFFFFFFFFFFFFFFFFFFFFFFFFFF AND CALLER PUSH20 0xFFFFFFFFFFFFFFFFFFFFFFFFFFFFFFFFFFFFFFFF AND EQ PUSH2 0x38A JUMPI PUSH1 0x0 DUP1 REVERT JUMPDEST PUSH2 0x392 PUSH2 0x12AD JUMP JUMPDEST POP PUSH2 0x39B PUSH2 0x1483 JUMP JUMPDEST PUSH2 0x3A3 PUSH2 0x19AB JUMP JUMPDEST PUSH1 0x0 PUSH20 0x27F8D03B3A2196956ED754BADC28D73BE8830A6E PUSH20 0xFFFFFFFFFFFFFFFFFFFFFFFFFFFFFFFFFFFFFFFF AND PUSH4 0x70A08231 ADDRESS PUSH1 0x40 MLOAD DUP3 PUSH4 0xFFFFFFFF AND PUSH1 0xE0 SHL DUP2 MSTORE PUSH1 0x4 ADD PUSH2 0x3F2 SWAP2 SWAP1 PUSH2 0x1BE9 JUMP JUMPDEST PUSH1 0x20 PUSH1 0x40 MLOAD DUP1 DUP4 SUB DUP2 DUP7 GAS STATICCALL ISZERO DUP1 ISZERO PUSH2 0x40F JUMPI RETURNDATASIZE PUSH1 0x0 DUP1 RETURNDATACOPY RETURNDATASIZE PUSH1 0x0 REVERT JUMPDEST POP POP POP POP PUSH1 0x40 MLOAD RETURNDATASIZE PUSH1 0x1F NOT PUSH1 0x1F DUP3 ADD AND DUP3 ADD DUP1 PUSH1 0x40 MSTORE POP DUP2 ADD SWAP1 PUSH2 0x433 SWAP2 SWAP1 PUSH2 0x1C19 JUMP JUMPDEST SWAP1 POP PUSH1 0x0 PUSH20 0x1A13F4CA1D028320A707D99520ABFEFCA3998B7F PUSH20 0xFFFFFFFFFFFFFFFFFFFFFFFFFFFFFFFFFFFFFFFF AND PUSH4 0x70A08231 ADDRESS PUSH1 0x40 MLOAD DUP3 PUSH4 0xFFFFFFFF AND PUSH1 0xE0 SHL DUP2 MSTORE PUSH1 0x4 ADD PUSH2 0x484 SWAP2 SWAP1 PUSH2 0x1BE9 JUMP JUMPDEST PUSH1 0x20 PUSH1 0x40 MLOAD DUP1 DUP4 SUB DUP2 DUP7 GAS STATICCALL ISZERO DUP1 ISZERO PUSH2 0x4A1 JUMPI RETURNDATASIZE PUSH1 0x0 DUP1 RETURNDATACOPY RETURNDATASIZE PUSH1 0x0 REVERT JUMPDEST POP POP POP POP PUSH1 0x40 MLOAD RETURNDATASIZE PUSH1 0x1F NOT PUSH1 0x1F DUP3 ADD AND DUP3 ADD DUP1 PUSH1 0x40 MSTORE POP DUP2 ADD SWAP1 PUSH2 0x4C5 SWAP2 SWAP1 PUSH2 0x1C19 JUMP JUMPDEST SWAP1 POP PUSH1 0x0 PUSH20 0x60D55F02A771D515E077C9C2403A1EF324885CEC PUSH20 0xFFFFFFFFFFFFFFFFFFFFFFFFFFFFFFFFFFFFFFFF AND PUSH4 0x70A08231 ADDRESS PUSH1 0x40 MLOAD DUP3 PUSH4 0xFFFFFFFF AND PUSH1 0xE0 SHL DUP2 MSTORE PUSH1 0x4 ADD PUSH2 0x516 SWAP2 SWAP1 PUSH2 0x1BE9 JUMP JUMPDEST PUSH1 0x20 PUSH1 0x40 MLOAD DUP1 DUP4 SUB DUP2 DUP7 GAS STATICCALL ISZERO DUP1 ISZERO PUSH2 0x533 JUMPI RETURNDATASIZE PUSH1 0x0 DUP1 RETURNDATACOPY RETURNDATASIZE PUSH1 0x0 REVERT JUMPDEST POP POP POP POP PUSH1 0x40 MLOAD RETURNDATASIZE PUSH1 0x1F NOT PUSH1 0x1F DUP3 ADD AND DUP3 ADD DUP1 PUSH1 0x40 MSTORE POP DUP2 ADD SWAP1 PUSH2 0x557 SWAP2 SWAP1 PUSH2 0x1C19 JUMP JUMPDEST SWAP1 POP PUSH20 0x27F8D03B3A2196956ED754BADC28D73BE8830A6E PUSH20 0xFFFFFFFFFFFFFFFFFFFFFFFFFFFFFFFFFFFFFFFF AND PUSH4 0x95EA7B3 PUSH1 0x12 PUSH1 0x0 SWAP1 SLOAD SWAP1 PUSH2 0x100 EXP SWAP1 DIV PUSH20 0xFFFFFFFFFFFFFFFFFFFFFFFFFFFFFFFFFFFFFFFF AND DUP6 PUSH1 0x40 MLOAD DUP4 PUSH4 0xFFFFFFFF AND PUSH1 0xE0 SHL DUP2 MSTORE PUSH1 0x4 ADD PUSH2 0x5CA SWAP3 SWAP2 SWAP1 PUSH2 0x1C55 JUMP JUMPDEST PUSH1 0x20 PUSH1 0x40 MLOAD DUP1 DUP4 SUB DUP2 PUSH1 0x0 DUP8 GAS CALL ISZERO DUP1 ISZERO PUSH2 0x5E9 JUMPI RETURNDATASIZE PUSH1 0x0 DUP1 RETURNDATACOPY RETURNDATASIZE PUSH1 0x0 REVERT JUMPDEST POP POP POP POP PUSH1 0x40 MLOAD RETURNDATASIZE PUSH1 0x1F NOT PUSH1 0x1F DUP3 ADD AND DUP3 ADD DUP1 PUSH1 0x40 MSTORE POP DUP2 ADD SWAP1 PUSH2 0x60D SWAP2 SWAP1 PUSH2 0x1CB6 JUMP JUMPDEST POP PUSH20 0x1A13F4CA1D028320A707D99520ABFEFCA3998B7F PUSH20 0xFFFFFFFFFFFFFFFFFFFFFFFFFFFFFFFFFFFFFFFF AND PUSH4 0x95EA7B3 PUSH1 0x12 PUSH1 0x0 SWAP1 SLOAD SWAP1 PUSH2 0x100 EXP SWAP1 DIV PUSH20 0xFFFFFFFFFFFFFFFFFFFFFFFFFFFFFFFFFFFFFFFF AND DUP5 PUSH1 0x40 MLOAD DUP4 PUSH4 0xFFFFFFFF AND PUSH1 0xE0 SHL DUP2 MSTORE PUSH1 0x4 ADD PUSH2 0x67F SWAP3 SWAP2 SWAP1 PUSH2 0x1C55 JUMP JUMPDEST PUSH1 0x20 PUSH1 0x40 MLOAD DUP1 DUP4 SUB DUP2 PUSH1 0x0 DUP8 GAS CALL ISZERO DUP1 ISZERO PUSH2 0x69E JUMPI RETURNDATASIZE PUSH1 0x0 DUP1 RETURNDATACOPY RETURNDATASIZE PUSH1 0x0 REVERT JUMPDEST POP POP POP POP PUSH1 0x40 MLOAD RETURNDATASIZE PUSH1 0x1F NOT PUSH1 0x1F DUP3 ADD AND DUP3 ADD DUP1 PUSH1 0x40 MSTORE POP DUP2 ADD SWAP1 PUSH2 0x6C2 SWAP2 SWAP1 PUSH2 0x1CB6 JUMP JUMPDEST POP PUSH20 0x60D55F02A771D515E077C9C2403A1EF324885CEC PUSH20 0xFFFFFFFFFFFFFFFFFFFFFFFFFFFFFFFFFFFFFFFF AND PUSH4 0x95EA7B3 PUSH1 0x12 PUSH1 0x0 SWAP1 SLOAD SWAP1 PUSH2 0x100 EXP SWAP1 DIV PUSH20 0xFFFFFFFFFFFFFFFFFFFFFFFFFFFFFFFFFFFFFFFF AND DUP4 PUSH1 0x40 MLOAD DUP4 PUSH4 0xFFFFFFFF AND PUSH1 0xE0 SHL DUP2 MSTORE PUSH1 0x4 ADD PUSH2 0x734 SWAP3 SWAP2 SWAP1 PUSH2 0x1C55 JUMP JUMPDEST PUSH1 0x20 PUSH1 0x40 MLOAD DUP1 DUP4 SUB DUP2 PUSH1 0x0 DUP8 GAS CALL ISZERO DUP1 ISZERO PUSH2 0x753 JUMPI RETURNDATASIZE PUSH1 0x0 DUP1 RETURNDATACOPY RETURNDATASIZE PUSH1 0x0 REVERT JUMPDEST POP POP POP POP PUSH1 0x40 MLOAD RETURNDATASIZE PUSH1 0x1F NOT PUSH1 0x1F DUP3 ADD AND DUP3 ADD DUP1 PUSH1 0x40 MSTORE POP DUP2 ADD SWAP1 PUSH2 0x777 SWAP2 SWAP1 PUSH2 0x1CB6 JUMP JUMPDEST POP PUSH20 0x27F8D03B3A2196956ED754BADC28D73BE8830A6E PUSH20 0xFFFFFFFFFFFFFFFFFFFFFFFFFFFFFFFFFFFFFFFF AND PUSH4 0x23B872DD ADDRESS PUSH1 0x12 PUSH1 0x0 SWAP1 SLOAD SWAP1 PUSH2 0x100 EXP SWAP1 DIV PUSH20 0xFFFFFFFFFFFFFFFFFFFFFFFFFFFFFFFFFFFFFFFF AND DUP7 PUSH1 0x40 MLOAD DUP5 PUSH4 0xFFFFFFFF AND PUSH1 0xE0 SHL DUP2 MSTORE PUSH1 0x4 ADD PUSH2 0x7EB SWAP4 SWAP3 SWAP2 SWAP1 PUSH2 0x1CE3 JUMP JUMPDEST PUSH1 0x20 PUSH1 0x40 MLOAD DUP1 DUP4 SUB DUP2 PUSH1 0x0 DUP8 GAS CALL ISZERO DUP1 ISZERO PUSH2 0x80A JUMPI RETURNDATASIZE PUSH1 0x0 DUP1 RETURNDATACOPY RETURNDATASIZE PUSH1 0x0 REVERT JUMPDEST POP POP POP POP PUSH1 0x40 MLOAD RETURNDATASIZE PUSH1 0x1F NOT PUSH1 0x1F DUP3 ADD AND DUP3 ADD DUP1 PUSH1 0x40 MSTORE POP DUP2 ADD SWAP1 PUSH2 0x82E SWAP2 SWAP1 PUSH2 0x1CB6 JUMP JUMPDEST POP PUSH20 0x1A13F4CA1D028320A707D99520ABFEFCA3998B7F PUSH20 0xFFFFFFFFFFFFFFFFFFFFFFFFFFFFFFFFFFFFFFFF AND PUSH4 0x23B872DD ADDRESS PUSH1 0x12 PUSH1 0x0 SWAP1 SLOAD SWAP1 PUSH2 0x100 EXP SWAP1 DIV PUSH20 0xFFFFFFFFFFFFFFFFFFFFFFFFFFFFFFFFFFFFFFFF AND DUP6 PUSH1 0x40 MLOAD DUP5 PUSH4 0xFFFFFFFF AND PUSH1 0xE0 SHL DUP2 MSTORE PUSH1 0x4 ADD PUSH2 0x8A2 SWAP4 SWAP3 SWAP2 SWAP1 PUSH2 0x1CE3 JUMP JUMPDEST PUSH1 0x20 PUSH1 0x40 MLOAD DUP1 DUP4 SUB DUP2 PUSH1 0x0 DUP8 GAS CALL ISZERO DUP1 ISZERO PUSH2 0x8C1 JUMPI RETURNDATASIZE PUSH1 0x0 DUP1 RETURNDATACOPY RETURNDATASIZE PUSH1 0x0 REVERT JUMPDEST POP POP POP POP PUSH1 0x40 MLOAD RETURNDATASIZE PUSH1 0x1F NOT PUSH1 0x1F DUP3 ADD AND DUP3 ADD DUP1 PUSH1 0x40 MSTORE POP DUP2 ADD SWAP1 PUSH2 0x8E5 SWAP2 SWAP1 PUSH2 0x1CB6 JUMP JUMPDEST POP PUSH20 0x60D55F02A771D515E077C9C2403A1EF324885CEC PUSH20 0xFFFFFFFFFFFFFFFFFFFFFFFFFFFFFFFFFFFFFFFF AND PUSH4 0x23B872DD ADDRESS PUSH1 0x12 PUSH1 0x0 SWAP1 SLOAD SWAP1 PUSH2 0x100 EXP SWAP1 DIV PUSH20 0xFFFFFFFFFFFFFFFFFFFFFFFFFFFFFFFFFFFFFFFF AND DUP5 PUSH1 0x40 MLOAD DUP5 PUSH4 0xFFFFFFFF AND PUSH1 0xE0 SHL DUP2 MSTORE PUSH1 0x4 ADD PUSH2 0x959 SWAP4 SWAP3 SWAP2 SWAP1 PUSH2 0x1CE3 JUMP JUMPDEST PUSH1 0x20 PUSH1 0x40 MLOAD DUP1 DUP4 SUB DUP2 PUSH1 0x0 DUP8 GAS CALL ISZERO DUP1 ISZERO PUSH2 0x978 JUMPI RETURNDATASIZE PUSH1 0x0 DUP1 RETURNDATACOPY RETURNDATASIZE PUSH1 0x0 REVERT JUMPDEST POP POP POP POP PUSH1 0x40 MLOAD RETURNDATASIZE PUSH1 0x1F NOT PUSH1 0x1F DUP3 ADD AND DUP3 ADD DUP1 PUSH1 0x40 MSTORE POP DUP2 ADD SWAP1 PUSH2 0x99C SWAP2 SWAP1 PUSH2 0x1CB6 JUMP JUMPDEST POP POP POP POP JUMP JUMPDEST PUSH1 0x0 DUP1 PUSH1 0xD PUSH1 0x0 SWAP1 SLOAD SWAP1 PUSH2 0x100 EXP SWAP1 DIV PUSH20 0xFFFFFFFFFFFFFFFFFFFFFFFFFFFFFFFFFFFFFFFF AND PUSH20 0xFFFFFFFFFFFFFFFFFFFFFFFFFFFFFFFFFFFFFFFF AND PUSH4 0x70A08231 ADDRESS PUSH1 0x40 MLOAD DUP3 PUSH4 0xFFFFFFFF AND PUSH1 0xE0 SHL DUP2 MSTORE PUSH1 0x4 ADD PUSH2 0xA00 SWAP2 SWAP1 PUSH2 0x1BE9 JUMP JUMPDEST PUSH1 0x20 PUSH1 0x40 MLOAD DUP1 DUP4 SUB DUP2 DUP7 GAS STATICCALL ISZERO DUP1 ISZERO PUSH2 0xA1D JUMPI RETURNDATASIZE PUSH1 0x0 DUP1 RETURNDATACOPY RETURNDATASIZE PUSH1 0x0 REVERT JUMPDEST POP POP POP POP PUSH1 0x40 MLOAD RETURNDATASIZE PUSH1 0x1F NOT PUSH1 0x1F DUP3 ADD AND DUP3 ADD DUP1 PUSH1 0x40 MSTORE POP DUP2 ADD SWAP1 PUSH2 0xA41 SWAP2 SWAP1 PUSH2 0x1C19 JUMP JUMPDEST SWAP1 POP PUSH1 0x0 PUSH1 0xC PUSH1 0x0 SWAP1 SLOAD SWAP1 PUSH2 0x100 EXP SWAP1 DIV PUSH20 0xFFFFFFFFFFFFFFFFFFFFFFFFFFFFFFFFFFFFFFFF AND PUSH20 0xFFFFFFFFFFFFFFFFFFFFFFFFFFFFFFFFFFFFFFFF AND PUSH4 0x70A08231 ADDRESS PUSH1 0x40 MLOAD DUP3 PUSH4 0xFFFFFFFF AND PUSH1 0xE0 SHL DUP2 MSTORE PUSH1 0x4 ADD PUSH2 0xAA0 SWAP2 SWAP1 PUSH2 0x1BE9 JUMP JUMPDEST PUSH1 0x20 PUSH1 0x40 MLOAD DUP1 DUP4 SUB DUP2 DUP7 GAS STATICCALL ISZERO DUP1 ISZERO PUSH2 0xABD JUMPI RETURNDATASIZE PUSH1 0x0 DUP1 RETURNDATACOPY RETURNDATASIZE PUSH1 0x0 REVERT JUMPDEST POP POP POP POP PUSH1 0x40 MLOAD RETURNDATASIZE PUSH1 0x1F NOT PUSH1 0x1F DUP3 ADD AND DUP3 ADD DUP1 PUSH1 0x40 MSTORE POP DUP2 ADD SWAP1 PUSH2 0xAE1 SWAP2 SWAP1 PUSH2 0x1C19 JUMP JUMPDEST SWAP1 POP PUSH1 0x0 PUSH1 0xE PUSH1 0x0 SWAP1 SLOAD SWAP1 PUSH2 0x100 EXP SWAP1 DIV PUSH20 0xFFFFFFFFFFFFFFFFFFFFFFFFFFFFFFFFFFFFFFFF AND PUSH20 0xFFFFFFFFFFFFFFFFFFFFFFFFFFFFFFFFFFFFFFFF AND PUSH4 0x70A08231 ADDRESS PUSH1 0x40 MLOAD DUP3 PUSH4 0xFFFFFFFF AND PUSH1 0xE0 SHL DUP2 MSTORE PUSH1 0x4 ADD PUSH2 0xB40 SWAP2 SWAP1 PUSH2 0x1BE9 JUMP JUMPDEST PUSH1 0x20 PUSH1 0x40 MLOAD DUP1 DUP4 SUB DUP2 DUP7 GAS STATICCALL ISZERO DUP1 ISZERO PUSH2 0xB5D JUMPI RETURNDATASIZE PUSH1 0x0 DUP1 RETURNDATACOPY RETURNDATASIZE PUSH1 0x0 REVERT JUMPDEST POP POP POP POP PUSH1 0x40 MLOAD RETURNDATASIZE PUSH1 0x1F NOT PUSH1 0x1F DUP3 ADD AND DUP3 ADD DUP1 PUSH1 0x40 MSTORE POP DUP2 ADD SWAP1 PUSH2 0xB81 SWAP2 SWAP1 PUSH2 0x1C19 JUMP JUMPDEST SWAP1 POP PUSH1 0xD PUSH1 0x0 SWAP1 SLOAD SWAP1 PUSH2 0x100 EXP SWAP1 DIV PUSH20 0xFFFFFFFFFFFFFFFFFFFFFFFFFFFFFFFFFFFFFFFF AND PUSH20 0xFFFFFFFFFFFFFFFFFFFFFFFFFFFFFFFFFFFFFFFF AND PUSH4 0x95EA7B3 PUSH1 0x10 PUSH1 0x0 SWAP1 SLOAD SWAP1 PUSH2 0x100 EXP SWAP1 DIV PUSH20 0xFFFFFFFFFFFFFFFFFFFFFFFFFFFFFFFFFFFFFFFF AND DUP6 PUSH1 0x40 MLOAD DUP4 PUSH4 0xFFFFFFFF AND PUSH1 0xE0 SHL DUP2 MSTORE PUSH1 0x4 ADD PUSH2 0xC02 SWAP3 SWAP2 SWAP1 PUSH2 0x1C55 JUMP JUMPDEST PUSH1 0x20 PUSH1 0x40 MLOAD DUP1 DUP4 SUB DUP2 PUSH1 0x0 DUP8 GAS CALL ISZERO DUP1 ISZERO PUSH2 0xC21 JUMPI RETURNDATASIZE PUSH1 0x0 DUP1 RETURNDATACOPY RETURNDATASIZE PUSH1 0x0 REVERT JUMPDEST POP POP POP POP PUSH1 0x40 MLOAD RETURNDATASIZE PUSH1 0x1F NOT PUSH1 0x1F DUP3 ADD AND DUP3 ADD DUP1 PUSH1 0x40 MSTORE POP DUP2 ADD SWAP1 PUSH2 0xC45 SWAP2 SWAP1 PUSH2 0x1CB6 JUMP JUMPDEST POP PUSH1 0xC PUSH1 0x0 SWAP1 SLOAD SWAP1 PUSH2 0x100 EXP SWAP1 DIV PUSH20 0xFFFFFFFFFFFFFFFFFFFFFFFFFFFFFFFFFFFFFFFF AND PUSH20 0xFFFFFFFFFFFFFFFFFFFFFFFFFFFFFFFFFFFFFFFF AND PUSH4 0x95EA7B3 PUSH1 0x10 PUSH1 0x0 SWAP1 SLOAD SWAP1 PUSH2 0x100 EXP SWAP1 DIV PUSH20 0xFFFFFFFFFFFFFFFFFFFFFFFFFFFFFFFFFFFFFFFF AND DUP5 PUSH1 0x40 MLOAD DUP4 PUSH4 0xFFFFFFFF AND PUSH1 0xE0 SHL DUP2 MSTORE PUSH1 0x4 ADD PUSH2 0xCC5 SWAP3 SWAP2 SWAP1 PUSH2 0x1C55 JUMP JUMPDEST PUSH1 0x20 PUSH1 0x40 MLOAD DUP1 DUP4 SUB DUP2 PUSH1 0x0 DUP8 GAS CALL ISZERO DUP1 ISZERO PUSH2 0xCE4 JUMPI RETURNDATASIZE PUSH1 0x0 DUP1 RETURNDATACOPY RETURNDATASIZE PUSH1 0x0 REVERT JUMPDEST POP POP POP POP PUSH1 0x40 MLOAD RETURNDATASIZE PUSH1 0x1F NOT PUSH1 0x1F DUP3 ADD AND DUP3 ADD DUP1 PUSH1 0x40 MSTORE POP DUP2 ADD SWAP1 PUSH2 0xD08 SWAP2 SWAP1 PUSH2 0x1CB6 JUMP JUMPDEST POP PUSH1 0xE PUSH1 0x0 SWAP1 SLOAD SWAP1 PUSH2 0x100 EXP SWAP1 DIV PUSH20 0xFFFFFFFFFFFFFFFFFFFFFFFFFFFFFFFFFFFFFFFF AND PUSH20 0xFFFFFFFFFFFFFFFFFFFFFFFFFFFFFFFFFFFFFFFF AND PUSH4 0x95EA7B3 PUSH1 0x10 PUSH1 0x0 SWAP1 SLOAD SWAP1 PUSH2 0x100 EXP SWAP1 DIV PUSH20 0xFFFFFFFFFFFFFFFFFFFFFFFFFFFFFFFFFFFFFFFF AND DUP4 PUSH1 0x40 MLOAD DUP4 PUSH4 0xFFFFFFFF AND PUSH1 0xE0 SHL DUP2 MSTORE PUSH1 0x4 ADD PUSH2 0xD88 SWAP3 SWAP2 SWAP1 PUSH2 0x1C55 JUMP JUMPDEST PUSH1 0x20 PUSH1 0x40 MLOAD DUP1 DUP4 SUB DUP2 PUSH1 0x0 DUP8 GAS CALL ISZERO DUP1 ISZERO PUSH2 0xDA7 JUMPI RETURNDATASIZE PUSH1 0x0 DUP1 RETURNDATACOPY RETURNDATASIZE PUSH1 0x0 REVERT JUMPDEST POP POP POP POP PUSH1 0x40 MLOAD RETURNDATASIZE PUSH1 0x1F NOT PUSH1 0x1F DUP3 ADD AND DUP3 ADD DUP1 PUSH1 0x40 MSTORE POP DUP2 ADD SWAP1 PUSH2 0xDCB SWAP2 SWAP1 PUSH2 0x1CB6 JUMP JUMPDEST POP PUSH1 0x10 PUSH1 0x0 SWAP1 SLOAD SWAP1 PUSH2 0x100 EXP SWAP1 DIV PUSH20 0xFFFFFFFFFFFFFFFFFFFFFFFFFFFFFFFFFFFFFFFF AND PUSH20 0xFFFFFFFFFFFFFFFFFFFFFFFFFFFFFFFFFFFFFFFF AND PUSH4 0xE8EDA9DF PUSH1 0xD PUSH1 0x0 SWAP1 SLOAD SWAP1 PUSH2 0x100 EXP SWAP1 DIV PUSH20 0xFFFFFFFFFFFFFFFFFFFFFFFFFFFFFFFFFFFFFFFF AND DUP6 ADDRESS DUP9 PUSH1 0x40 MLOAD DUP6 PUSH4 0xFFFFFFFF AND PUSH1 0xE0 SHL DUP2 MSTORE PUSH1 0x4 ADD PUSH2 0xE4F SWAP5 SWAP4 SWAP3 SWAP2 SWAP1 PUSH2 0x1D37 JUMP JUMPDEST PUSH1 0x0 PUSH1 0x40 MLOAD DUP1 DUP4 SUB DUP2 PUSH1 0x0 DUP8 DUP1 EXTCODESIZE ISZERO DUP1 ISZERO PUSH2 0xE69 JUMPI PUSH1 0x0 DUP1 REVERT JUMPDEST POP GAS CALL ISZERO DUP1 ISZERO PUSH2 0xE7D JUMPI RETURNDATASIZE PUSH1 0x0 DUP1 RETURNDATACOPY RETURNDATASIZE PUSH1 0x0 REVERT JUMPDEST POP POP POP POP PUSH1 0x10 PUSH1 0x0 SWAP1 SLOAD SWAP1 PUSH2 0x100 EXP SWAP1 DIV PUSH20 0xFFFFFFFFFFFFFFFFFFFFFFFFFFFFFFFFFFFFFFFF AND PUSH20 0xFFFFFFFFFFFFFFFFFFFFFFFFFFFFFFFFFFFFFFFF AND PUSH4 0xE8EDA9DF PUSH1 0xC PUSH1 0x0 SWAP1 SLOAD SWAP1 PUSH2 0x100 EXP SWAP1 DIV PUSH20 0xFFFFFFFFFFFFFFFFFFFFFFFFFFFFFFFFFFFFFFFF AND DUP5 ADDRESS DUP9 PUSH1 0x40 MLOAD DUP6 PUSH4 0xFFFFFFFF AND PUSH1 0xE0 SHL DUP2 MSTORE PUSH1 0x4 ADD PUSH2 0xF04 SWAP5 SWAP4 SWAP3 SWAP2 SWAP1 PUSH2 0x1D37 JUMP JUMPDEST PUSH1 0x0 PUSH1 0x40 MLOAD DUP1 DUP4 SUB DUP2 PUSH1 0x0 DUP8 DUP1 EXTCODESIZE ISZERO DUP1 ISZERO PUSH2 0xF1E JUMPI PUSH1 0x0 DUP1 REVERT JUMPDEST POP GAS CALL ISZERO DUP1 ISZERO PUSH2 0xF32 JUMPI RETURNDATASIZE PUSH1 0x0 DUP1 RETURNDATACOPY RETURNDATASIZE PUSH1 0x0 REVERT JUMPDEST POP POP POP POP PUSH1 0x10 PUSH1 0x0 SWAP1 SLOAD SWAP1 PUSH2 0x100 EXP SWAP1 DIV PUSH20 0xFFFFFFFFFFFFFFFFFFFFFFFFFFFFFFFFFFFFFFFF AND PUSH20 0xFFFFFFFFFFFFFFFFFFFFFFFFFFFFFFFFFFFFFFFF AND PUSH4 0xE8EDA9DF PUSH1 0xE PUSH1 0x0 SWAP1 SLOAD SWAP1 PUSH2 0x100 EXP SWAP1 DIV PUSH20 0xFFFFFFFFFFFFFFFFFFFFFFFFFFFFFFFFFFFFFFFF AND DUP4 ADDRESS DUP9 PUSH1 0x40 MLOAD DUP6 PUSH4 0xFFFFFFFF AND PUSH1 0xE0 SHL DUP2 MSTORE PUSH1 0x4 ADD PUSH2 0xFB9 SWAP5 SWAP4 SWAP3 SWAP2 SWAP1 PUSH2 0x1D37 JUMP JUMPDEST PUSH1 0x0 PUSH1 0x40 MLOAD DUP1 DUP4 SUB DUP2 PUSH1 0x0 DUP8 DUP1 EXTCODESIZE ISZERO DUP1 ISZERO PUSH2 0xFD3 JUMPI PUSH1 0x0 DUP1 REVERT JUMPDEST POP GAS CALL ISZERO DUP1 ISZERO PUSH2 0xFE7 JUMPI RETURNDATASIZE PUSH1 0x0 DUP1 RETURNDATACOPY RETURNDATASIZE PUSH1 0x0 REVERT JUMPDEST POP POP POP POP POP POP POP POP JUMP JUMPDEST PUSH1 0x0 PUSH1 0x40 MLOAD DUP1 PUSH1 0x60 ADD PUSH1 0x40 MSTORE DUP1 DUP6 DUP2 MSTORE PUSH1 0x20 ADD DUP5 DUP2 MSTORE PUSH1 0x20 ADD DUP4 DUP2 MSTORE POP SWAP1 POP PUSH1 0x1 PUSH1 0x0 SWAP1 SLOAD SWAP1 PUSH2 0x100 EXP SWAP1 DIV PUSH20 0xFFFFFFFFFFFFFFFFFFFFFFFFFFFFFFFFFFFFFFFF AND PUSH20 0xFFFFFFFFFFFFFFFFFFFFFFFFFFFFFFFFFFFFFFFF AND PUSH4 0x4515CEF3 DUP3 PUSH1 0x0 PUSH1 0x40 MLOAD DUP4 PUSH4 0xFFFFFFFF AND PUSH1 0xE0 SHL DUP2 MSTORE PUSH1 0x4 ADD PUSH2 0x106E SWAP3 SWAP2 SWAP1 PUSH2 0x1E6C JUMP JUMPDEST PUSH1 0x20 PUSH1 0x40 MLOAD DUP1 DUP4 SUB DUP2 PUSH1 0x0 DUP8 GAS CALL ISZERO DUP1 ISZERO PUSH2 0x108D JUMPI RETURNDATASIZE PUSH1 0x0 DUP1 RETURNDATACOPY RETURNDATASIZE PUSH1 0x0 REVERT JUMPDEST POP POP POP POP PUSH1 0x40 MLOAD RETURNDATASIZE PUSH1 0x1F NOT PUSH1 0x1F DUP3 ADD AND DUP3 ADD DUP1 PUSH1 0x40 MSTORE POP DUP2 ADD SWAP1 PUSH2 0x10B1 SWAP2 SWAP1 PUSH2 0x1C19 JUMP JUMPDEST POP POP POP POP POP JUMP JUMPDEST PUSH1 0x0 PUSH1 0x8 PUSH1 0x0 SWAP1 SLOAD SWAP1 PUSH2 0x100 EXP SWAP1 DIV PUSH20 0xFFFFFFFFFFFFFFFFFFFFFFFFFFFFFFFFFFFFFFFF AND PUSH20 0xFFFFFFFFFFFFFFFFFFFFFFFFFFFFFFFFFFFFFFFF AND PUSH4 0x70A08231 ADDRESS PUSH1 0x40 MLOAD DUP3 PUSH4 0xFFFFFFFF AND PUSH1 0xE0 SHL DUP2 MSTORE PUSH1 0x4 ADD PUSH2 0x1115 SWAP2 SWAP1 PUSH2 0x1BE9 JUMP JUMPDEST PUSH1 0x20 PUSH1 0x40 MLOAD DUP1 DUP4 SUB DUP2 DUP7 GAS STATICCALL ISZERO DUP1 ISZERO PUSH2 0x1132 JUMPI RETURNDATASIZE PUSH1 0x0 DUP1 RETURNDATACOPY RETURNDATASIZE PUSH1 0x0 REVERT JUMPDEST POP POP POP POP PUSH1 0x40 MLOAD RETURNDATASIZE PUSH1 0x1F NOT PUSH1 0x1F DUP3 ADD AND DUP3 ADD DUP1 PUSH1 0x40 MSTORE POP DUP2 ADD SWAP1 PUSH2 0x1156 SWAP2 SWAP1 PUSH2 0x1C19 JUMP JUMPDEST SWAP1 POP PUSH1 0x8 PUSH1 0x0 SWAP1 SLOAD SWAP1 PUSH2 0x100 EXP SWAP1 DIV PUSH20 0xFFFFFFFFFFFFFFFFFFFFFFFFFFFFFFFFFFFFFFFF AND PUSH20 0xFFFFFFFFFFFFFFFFFFFFFFFFFFFFFFFFFFFFFFFF AND PUSH4 0x95EA7B3 PUSH1 0x2 PUSH1 0x0 SWAP1 SLOAD SWAP1 PUSH2 0x100 EXP SWAP1 DIV PUSH20 0xFFFFFFFFFFFFFFFFFFFFFFFFFFFFFFFFFFFFFFFF AND DUP4 PUSH1 0x40 MLOAD DUP4 PUSH4 0xFFFFFFFF AND PUSH1 0xE0 SHL DUP2 MSTORE PUSH1 0x4 ADD PUSH2 0x11D7 SWAP3 SWAP2 SWAP1 PUSH2 0x1C55 JUMP JUMPDEST PUSH1 0x20 PUSH1 0x40 MLOAD DUP1 DUP4 SUB DUP2 PUSH1 0x0 DUP8 GAS CALL ISZERO DUP1 ISZERO PUSH2 0x11F6 JUMPI RETURNDATASIZE PUSH1 0x0 DUP1 RETURNDATACOPY RETURNDATASIZE PUSH1 0x0 REVERT JUMPDEST POP POP POP POP PUSH1 0x40 MLOAD RETURNDATASIZE PUSH1 0x1F NOT PUSH1 0x1F DUP3 ADD AND DUP3 ADD DUP1 PUSH1 0x40 MSTORE POP DUP2 ADD SWAP1 PUSH2 0x121A SWAP2 SWAP1 PUSH2 0x1CB6 JUMP JUMPDEST POP PUSH1 0x3 PUSH1 0x0 SWAP1 SLOAD SWAP1 PUSH2 0x100 EXP SWAP1 DIV PUSH20 0xFFFFFFFFFFFFFFFFFFFFFFFFFFFFFFFFFFFFFFFF AND PUSH20 0xFFFFFFFFFFFFFFFFFFFFFFFFFFFFFFFFFFFFFFFF AND PUSH4 0x6E553F65 DUP3 ADDRESS PUSH1 0x40 MLOAD DUP4 PUSH4 0xFFFFFFFF AND PUSH1 0xE0 SHL DUP2 MSTORE PUSH1 0x4 ADD PUSH2 0x1278 SWAP3 SWAP2 SWAP1 PUSH2 0x1E95 JUMP JUMPDEST PUSH1 0x0 PUSH1 0x40 MLOAD DUP1 DUP4 SUB DUP2 PUSH1 0x0 DUP8 DUP1 EXTCODESIZE ISZERO DUP1 ISZERO PUSH2 0x1292 JUMPI PUSH1 0x0 DUP1 REVERT JUMPDEST POP GAS CALL ISZERO DUP1 ISZERO PUSH2 0x12A6 JUMPI RETURNDATASIZE PUSH1 0x0 DUP1 RETURNDATACOPY RETURNDATASIZE PUSH1 0x0 REVERT JUMPDEST POP POP POP POP POP JUMP JUMPDEST PUSH1 0x0 DUP1 PUSH1 0x8 PUSH1 0x0 SWAP1 SLOAD SWAP1 PUSH2 0x100 EXP SWAP1 DIV PUSH20 0xFFFFFFFFFFFFFFFFFFFFFFFFFFFFFFFFFFFFFFFF AND PUSH20 0xFFFFFFFFFFFFFFFFFFFFFFFFFFFFFFFFFFFFFFFF AND PUSH4 0x70A08231 ADDRESS PUSH1 0x40 MLOAD DUP3 PUSH4 0xFFFFFFFF AND PUSH1 0xE0 SHL DUP2 MSTORE PUSH1 0x4 ADD PUSH2 0x130B SWAP2 SWAP1 PUSH2 0x1BE9 JUMP JUMPDEST PUSH1 0x20 PUSH1 0x40 MLOAD DUP1 DUP4 SUB DUP2 DUP7 GAS STATICCALL ISZERO DUP1 ISZERO PUSH2 0x1328 JUMPI RETURNDATASIZE PUSH1 0x0 DUP1 RETURNDATACOPY RETURNDATASIZE PUSH1 0x0 REVERT JUMPDEST POP POP POP POP PUSH1 0x40 MLOAD RETURNDATASIZE PUSH1 0x1F NOT PUSH1 0x1F DUP3 ADD AND DUP3 ADD DUP1 PUSH1 0x40 MSTORE POP DUP2 ADD SWAP1 PUSH2 0x134C SWAP2 SWAP1 PUSH2 0x1C19 JUMP JUMPDEST SWAP1 POP PUSH1 0x3 PUSH1 0x0 SWAP1 SLOAD SWAP1 PUSH2 0x100 EXP SWAP1 DIV PUSH20 0xFFFFFFFFFFFFFFFFFFFFFFFFFFFFFFFFFFFFFFFF AND PUSH20 0xFFFFFFFFFFFFFFFFFFFFFFFFFFFFFFFFFFFFFFFF AND PUSH4 0x2E1A7D4D DUP3 PUSH1 0x40 MLOAD DUP3 PUSH4 0xFFFFFFFF AND PUSH1 0xE0 SHL DUP2 MSTORE PUSH1 0x4 ADD PUSH2 0x13A9 SWAP2 SWAP1 PUSH2 0x1EBE JUMP JUMPDEST PUSH1 0x0 PUSH1 0x40 MLOAD DUP1 DUP4 SUB DUP2 PUSH1 0x0 DUP8 DUP1 EXTCODESIZE ISZERO DUP1 ISZERO PUSH2 0x13C3 JUMPI PUSH1 0x0 DUP1 REVERT JUMPDEST POP GAS CALL ISZERO DUP1 ISZERO PUSH2 0x13D7 JUMPI RETURNDATASIZE PUSH1 0x0 DUP1 RETURNDATACOPY RETURNDATASIZE PUSH1 0x0 REVERT JUMPDEST POP POP POP POP PUSH1 0x0 PUSH1 0x9 PUSH1 0x0 SWAP1 SLOAD SWAP1 PUSH2 0x100 EXP SWAP1 DIV PUSH20 0xFFFFFFFFFFFFFFFFFFFFFFFFFFFFFFFFFFFFFFFF AND PUSH20 0xFFFFFFFFFFFFFFFFFFFFFFFFFFFFFFFFFFFFFFFF AND PUSH4 0x70A08231 ADDRESS PUSH1 0x40 MLOAD DUP3 PUSH4 0xFFFFFFFF AND PUSH1 0xE0 SHL DUP2 MSTORE PUSH1 0x4 ADD PUSH2 0x1438 SWAP2 SWAP1 PUSH2 0x1BE9 JUMP JUMPDEST PUSH1 0x20 PUSH1 0x40 MLOAD DUP1 DUP4 SUB DUP2 DUP7 GAS STATICCALL ISZERO DUP1 ISZERO PUSH2 0x1455 JUMPI RETURNDATASIZE PUSH1 0x0 DUP1 RETURNDATACOPY RETURNDATASIZE PUSH1 0x0 REVERT JUMPDEST POP POP POP POP PUSH1 0x40 MLOAD RETURNDATASIZE PUSH1 0x1F NOT PUSH1 0x1F DUP3 ADD AND DUP3 ADD DUP1 PUSH1 0x40 MSTORE POP DUP2 ADD SWAP1 PUSH2 0x1479 SWAP2 SWAP1 PUSH2 0x1C19 JUMP JUMPDEST SWAP1 POP DUP1 SWAP3 POP POP POP SWAP1 JUMP JUMPDEST PUSH2 0x148B PUSH2 0x1AF8 JUMP JUMPDEST PUSH1 0x0 PUSH1 0x9 PUSH1 0x0 SWAP1 SLOAD SWAP1 PUSH2 0x100 EXP SWAP1 DIV PUSH20 0xFFFFFFFFFFFFFFFFFFFFFFFFFFFFFFFFFFFFFFFF AND PUSH20 0xFFFFFFFFFFFFFFFFFFFFFFFFFFFFFFFFFFFFFFFF AND PUSH4 0x70A08231 ADDRESS PUSH1 0x40 MLOAD DUP3 PUSH4 0xFFFFFFFF AND PUSH1 0xE0 SHL DUP2 MSTORE PUSH1 0x4 ADD PUSH2 0x14E8 SWAP2 SWAP1 PUSH2 0x1BE9 JUMP JUMPDEST PUSH1 0x20 PUSH1 0x40 MLOAD DUP1 DUP4 SUB DUP2 DUP7 GAS STATICCALL ISZERO DUP1 ISZERO PUSH2 0x1505 JUMPI RETURNDATASIZE PUSH1 0x0 DUP1 RETURNDATACOPY RETURNDATASIZE PUSH1 0x0 REVERT JUMPDEST POP POP POP POP PUSH1 0x40 MLOAD RETURNDATASIZE PUSH1 0x1F NOT PUSH1 0x1F DUP3 ADD AND DUP3 ADD DUP1 PUSH1 0x40 MSTORE POP DUP2 ADD SWAP1 PUSH2 0x1529 SWAP2 SWAP1 PUSH2 0x1C19 JUMP JUMPDEST SWAP1 POP PUSH1 0x5 PUSH1 0x0 SWAP1 SLOAD SWAP1 PUSH2 0x100 EXP SWAP1 DIV PUSH20 0xFFFFFFFFFFFFFFFFFFFFFFFFFFFFFFFFFFFFFFFF AND PUSH20 0xFFFFFFFFFFFFFFFFFFFFFFFFFFFFFFFFFFFFFFFF AND PUSH4 0x3DF02124 PUSH1 0x0 PUSH1 0x1 DUP5 PUSH1 0x0 PUSH1 0x40 MLOAD DUP6 PUSH4 0xFFFFFFFF AND PUSH1 0xE0 SHL DUP2 MSTORE PUSH1 0x4 ADD PUSH2 0x158F SWAP5 SWAP4 SWAP3 SWAP2 SWAP1 PUSH2 0x1F52 JUMP JUMPDEST PUSH1 0x20 PUSH1 0x40 MLOAD DUP1 DUP4 SUB DUP2 PUSH1 0x0 DUP8 GAS CALL ISZERO DUP1 ISZERO PUSH2 0x15AE JUMPI RETURNDATASIZE PUSH1 0x0 DUP1 RETURNDATACOPY RETURNDATASIZE PUSH1 0x0 REVERT JUMPDEST POP POP POP POP PUSH1 0x40 MLOAD RETURNDATASIZE PUSH1 0x1F NOT PUSH1 0x1F DUP3 ADD AND DUP3 ADD DUP1 PUSH1 0x40 MSTORE POP DUP2 ADD SWAP1 PUSH2 0x15D2 SWAP2 SWAP1 PUSH2 0x1C19 JUMP JUMPDEST POP PUSH1 0x0 PUSH1 0x6 PUSH1 0x0 SWAP1 SLOAD SWAP1 PUSH2 0x100 EXP SWAP1 DIV PUSH20 0xFFFFFFFFFFFFFFFFFFFFFFFFFFFFFFFFFFFFFFFF AND PUSH20 0xFFFFFFFFFFFFFFFFFFFFFFFFFFFFFFFFFFFFFFFF AND PUSH4 0x70A08231 ADDRESS PUSH1 0x40 MLOAD DUP3 PUSH4 0xFFFFFFFF AND PUSH1 0xE0 SHL DUP2 MSTORE PUSH1 0x4 ADD PUSH2 0x1630 SWAP2 SWAP1 PUSH2 0x1BE9 JUMP JUMPDEST PUSH1 0x20 PUSH1 0x40 MLOAD DUP1 DUP4 SUB DUP2 DUP7 GAS STATICCALL ISZERO DUP1 ISZERO PUSH2 0x164D JUMPI RETURNDATASIZE PUSH1 0x0 DUP1 RETURNDATACOPY RETURNDATASIZE PUSH1 0x0 REVERT JUMPDEST POP POP POP POP PUSH1 0x40 MLOAD RETURNDATASIZE PUSH1 0x1F NOT PUSH1 0x1F DUP3 ADD AND DUP3 ADD DUP1 PUSH1 0x40 MSTORE POP DUP2 ADD SWAP1 PUSH2 0x1671 SWAP2 SWAP1 PUSH2 0x1C19 JUMP JUMPDEST SWAP1 POP PUSH1 0x7 PUSH1 0x0 SWAP1 SLOAD SWAP1 PUSH2 0x100 EXP SWAP1 DIV PUSH20 0xFFFFFFFFFFFFFFFFFFFFFFFFFFFFFFFFFFFFFFFF AND PUSH20 0xFFFFFFFFFFFFFFFFFFFFFFFFFFFFFFFFFFFFFFFF AND PUSH4 0xECB586A5 DUP3 DUP6 PUSH1 0x40 MLOAD DUP4 PUSH4 0xFFFFFFFF AND PUSH1 0xE0 SHL DUP2 MSTORE PUSH1 0x4 ADD PUSH2 0x16D0 SWAP3 SWAP2 SWAP1 PUSH2 0x1F97 JUMP JUMPDEST PUSH1 0x20 PUSH1 0x40 MLOAD DUP1 DUP4 SUB DUP2 PUSH1 0x0 DUP8 GAS CALL ISZERO DUP1 ISZERO PUSH2 0x16EF JUMPI RETURNDATASIZE PUSH1 0x0 DUP1 RETURNDATACOPY RETURNDATASIZE PUSH1 0x0 REVERT JUMPDEST POP POP POP POP PUSH1 0x40 MLOAD RETURNDATASIZE PUSH1 0x1F NOT PUSH1 0x1F DUP3 ADD AND DUP3 ADD DUP1 PUSH1 0x40 MSTORE POP DUP2 ADD SWAP1 PUSH2 0x1713 SWAP2 SWAP1 PUSH2 0x1C19 JUMP JUMPDEST POP PUSH1 0x0 PUSH1 0xA PUSH1 0x0 SWAP1 SLOAD SWAP1 PUSH2 0x100 EXP SWAP1 DIV PUSH20 0xFFFFFFFFFFFFFFFFFFFFFFFFFFFFFFFFFFFFFFFF AND PUSH20 0xFFFFFFFFFFFFFFFFFFFFFFFFFFFFFFFFFFFFFFFF AND PUSH4 0x70A08231 ADDRESS PUSH1 0x40 MLOAD DUP3 PUSH4 0xFFFFFFFF AND PUSH1 0xE0 SHL DUP2 MSTORE PUSH1 0x4 ADD PUSH2 0x1771 SWAP2 SWAP1 PUSH2 0x1BE9 JUMP JUMPDEST PUSH1 0x20 PUSH1 0x40 MLOAD DUP1 DUP4 SUB DUP2 DUP7 GAS STATICCALL ISZERO DUP1 ISZERO PUSH2 0x178E JUMPI RETURNDATASIZE PUSH1 0x0 DUP1 RETURNDATACOPY RETURNDATASIZE PUSH1 0x0 REVERT JUMPDEST POP POP POP POP PUSH1 0x40 MLOAD RETURNDATASIZE PUSH1 0x1F NOT PUSH1 0x1F DUP3 ADD AND DUP3 ADD DUP1 PUSH1 0x40 MSTORE POP DUP2 ADD SWAP1 PUSH2 0x17B2 SWAP2 SWAP1 PUSH2 0x1C19 JUMP JUMPDEST SWAP1 POP PUSH1 0x0 PUSH1 0xB PUSH1 0x0 SWAP1 SLOAD SWAP1 PUSH2 0x100 EXP SWAP1 DIV PUSH20 0xFFFFFFFFFFFFFFFFFFFFFFFFFFFFFFFFFFFFFFFF AND PUSH20 0xFFFFFFFFFFFFFFFFFFFFFFFFFFFFFFFFFFFFFFFF AND PUSH4 0x70A08231 ADDRESS PUSH1 0x40 MLOAD DUP3 PUSH4 0xFFFFFFFF AND PUSH1 0xE0 SHL DUP2 MSTORE PUSH1 0x4 ADD PUSH2 0x1811 SWAP2 SWAP1 PUSH2 0x1BE9 JUMP JUMPDEST PUSH1 0x20 PUSH1 0x40 MLOAD DUP1 DUP4 SUB DUP2 DUP7 GAS STATICCALL ISZERO DUP1 ISZERO PUSH2 0x182E JUMPI RETURNDATASIZE PUSH1 0x0 DUP1 RETURNDATACOPY RETURNDATASIZE PUSH1 0x0 REVERT JUMPDEST POP POP POP POP PUSH1 0x40 MLOAD RETURNDATASIZE PUSH1 0x1F NOT PUSH1 0x1F DUP3 ADD AND DUP3 ADD DUP1 PUSH1 0x40 MSTORE POP DUP2 ADD SWAP1 PUSH2 0x1852 SWAP2 SWAP1 PUSH2 0x1C19 JUMP JUMPDEST SWAP1 POP PUSH1 0x7 PUSH1 0x0 SWAP1 SLOAD SWAP1 PUSH2 0x100 EXP SWAP1 DIV PUSH20 0xFFFFFFFFFFFFFFFFFFFFFFFFFFFFFFFFFFFFFFFF AND PUSH20 0xFFFFFFFFFFFFFFFFFFFFFFFFFFFFFFFFFFFFFFFF AND PUSH4 0x3DF02124 PUSH1 0x1 PUSH1 0x0 DUP6 PUSH1 0x0 PUSH1 0x40 MLOAD DUP6 PUSH4 0xFFFFFFFF AND PUSH1 0xE0 SHL DUP2 MSTORE PUSH1 0x4 ADD PUSH2 0x18B8 SWAP5 SWAP4 SWAP3 SWAP2 SWAP1 PUSH2 0x1FC0 JUMP JUMPDEST PUSH1 0x20 PUSH1 0x40 MLOAD DUP1 DUP4 SUB DUP2 PUSH1 0x0 DUP8 GAS CALL ISZERO DUP1 ISZERO PUSH2 0x18D7 JUMPI RETURNDATASIZE PUSH1 0x0 DUP1 RETURNDATACOPY RETURNDATASIZE PUSH1 0x0 REVERT JUMPDEST POP POP POP POP PUSH1 0x40 MLOAD RETURNDATASIZE PUSH1 0x1F NOT PUSH1 0x1F DUP3 ADD AND DUP3 ADD DUP1 PUSH1 0x40 MSTORE POP DUP2 ADD SWAP1 PUSH2 0x18FB SWAP2 SWAP1 PUSH2 0x1C19 JUMP JUMPDEST POP PUSH1 0x7 PUSH1 0x0 SWAP1 SLOAD SWAP1 PUSH2 0x100 EXP SWAP1 DIV PUSH20 0xFFFFFFFFFFFFFFFFFFFFFFFFFFFFFFFFFFFFFFFF AND PUSH20 0xFFFFFFFFFFFFFFFFFFFFFFFFFFFFFFFFFFFFFFFF AND PUSH4 0x3DF02124 PUSH1 0x2 PUSH1 0x0 DUP5 PUSH1 0x0 PUSH1 0x40 MLOAD DUP6 PUSH4 0xFFFFFFFF AND PUSH1 0xE0 SHL DUP2 MSTORE PUSH1 0x4 ADD PUSH2 0x1960 SWAP5 SWAP4 SWAP3 SWAP2 SWAP1 PUSH2 0x2040 JUMP JUMPDEST PUSH1 0x20 PUSH1 0x40 MLOAD DUP1 DUP4 SUB DUP2 PUSH1 0x0 DUP8 GAS CALL ISZERO DUP1 ISZERO PUSH2 0x197F JUMPI RETURNDATASIZE PUSH1 0x0 DUP1 RETURNDATACOPY RETURNDATASIZE PUSH1 0x0 REVERT JUMPDEST POP POP POP POP PUSH1 0x40 MLOAD RETURNDATASIZE PUSH1 0x1F NOT PUSH1 0x1F DUP3 ADD AND DUP3 ADD DUP1 PUSH1 0x40 MSTORE POP DUP2 ADD SWAP1 PUSH2 0x19A3 SWAP2 SWAP1 PUSH2 0x1C19 JUMP JUMPDEST POP POP POP POP POP POP JUMP JUMPDEST PUSH1 0x0 PUSH1 0x8 PUSH1 0x0 SWAP1 SLOAD SWAP1 PUSH2 0x100 EXP SWAP1 DIV PUSH20 0xFFFFFFFFFFFFFFFFFFFFFFFFFFFFFFFFFFFFFFFF AND PUSH20 0xFFFFFFFFFFFFFFFFFFFFFFFFFFFFFFFFFFFFFFFF AND PUSH4 0x70A08231 ADDRESS PUSH1 0x40 MLOAD DUP3 PUSH4 0xFFFFFFFF AND PUSH1 0xE0 SHL DUP2 MSTORE PUSH1 0x4 ADD PUSH2 0x1A08 SWAP2 SWAP1 PUSH2 0x1BE9 JUMP JUMPDEST PUSH1 0x20 PUSH1 0x40 MLOAD DUP1 DUP4 SUB DUP2 DUP7 GAS STATICCALL ISZERO DUP1 ISZERO PUSH2 0x1A25 JUMPI RETURNDATASIZE PUSH1 0x0 DUP1 RETURNDATACOPY RETURNDATASIZE PUSH1 0x0 REVERT JUMPDEST POP POP POP POP PUSH1 0x40 MLOAD RETURNDATASIZE PUSH1 0x1F NOT PUSH1 0x1F DUP3 ADD AND DUP3 ADD DUP1 PUSH1 0x40 MSTORE POP DUP2 ADD SWAP1 PUSH2 0x1A49 SWAP2 SWAP1 PUSH2 0x1C19 JUMP JUMPDEST SWAP1 POP PUSH2 0x1A53 PUSH2 0x1AF8 JUMP JUMPDEST PUSH1 0x1 PUSH1 0x0 SWAP1 SLOAD SWAP1 PUSH2 0x100 EXP SWAP1 DIV PUSH20 0xFFFFFFFFFFFFFFFFFFFFFFFFFFFFFFFFFFFFFFFF AND PUSH20 0xFFFFFFFFFFFFFFFFFFFFFFFFFFFFFFFFFFFFFFFF AND PUSH4 0xECB586A5 DUP4 DUP4 PUSH1 0x40 MLOAD DUP4 PUSH4 0xFFFFFFFF AND PUSH1 0xE0 SHL DUP2 MSTORE PUSH1 0x4 ADD PUSH2 0x1AB0 SWAP3 SWAP2 SWAP1 PUSH2 0x1F97 JUMP JUMPDEST PUSH1 0x20 PUSH1 0x40 MLOAD DUP1 DUP4 SUB DUP2 PUSH1 0x0 DUP8 GAS CALL ISZERO DUP1 ISZERO PUSH2 0x1ACF JUMPI RETURNDATASIZE PUSH1 0x0 DUP1 RETURNDATACOPY RETURNDATASIZE PUSH1 0x0 REVERT JUMPDEST POP POP POP POP PUSH1 0x40 MLOAD RETURNDATASIZE PUSH1 0x1F NOT PUSH1 0x1F DUP3 ADD AND DUP3 ADD DUP1 PUSH1 0x40 MSTORE POP DUP2 ADD SWAP1 PUSH2 0x1AF3 SWAP2 SWAP1 PUSH2 0x1C19 JUMP JUMPDEST POP POP POP JUMP JUMPDEST PUSH1 0x40 MLOAD DUP1 PUSH1 0x60 ADD PUSH1 0x40 MSTORE DUP1 PUSH1 0x3 SWAP1 PUSH1 0x20 DUP3 MUL DUP1 CALLDATASIZE DUP4 CALLDATACOPY DUP1 DUP3 ADD SWAP2 POP POP SWAP1 POP POP SWAP1 JUMP JUMPDEST PUSH1 0x0 DUP1 REVERT JUMPDEST PUSH1 0x0 DUP2 SWAP1 POP SWAP2 SWAP1 POP JUMP JUMPDEST PUSH2 0x1B32 DUP2 PUSH2 0x1B1F JUMP JUMPDEST DUP2 EQ PUSH2 0x1B3D JUMPI PUSH1 0x0 DUP1 REVERT JUMPDEST POP JUMP JUMPDEST PUSH1 0x0 DUP2 CALLDATALOAD SWAP1 POP PUSH2 0x1B4F DUP2 PUSH2 0x1B29 JUMP JUMPDEST SWAP3 SWAP2 POP POP JUMP JUMPDEST PUSH1 0x0 DUP1 PUSH1 0x0 PUSH1 0x60 DUP5 DUP7 SUB SLT ISZERO PUSH2 0x1B6E JUMPI PUSH2 0x1B6D PUSH2 0x1B1A JUMP JUMPDEST JUMPDEST PUSH1 0x0 PUSH2 0x1B7C DUP7 DUP3 DUP8 ADD PUSH2 0x1B40 JUMP JUMPDEST SWAP4 POP POP PUSH1 0x20 PUSH2 0x1B8D DUP7 DUP3 DUP8 ADD PUSH2 0x1B40 JUMP JUMPDEST SWAP3 POP POP PUSH1 0x40 PUSH2 0x1B9E DUP7 DUP3 DUP8 ADD PUSH2 0x1B40 JUMP JUMPDEST SWAP2 POP POP SWAP3 POP SWAP3 POP SWAP3 JUMP JUMPDEST PUSH1 0x0 PUSH20 0xFFFFFFFFFFFFFFFFFFFFFFFFFFFFFFFFFFFFFFFF DUP3 AND SWAP1 POP SWAP2 SWAP1 POP JUMP JUMPDEST PUSH1 0x0 PUSH2 0x1BD3 DUP3 PUSH2 0x1BA8 JUMP JUMPDEST SWAP1 POP SWAP2 SWAP1 POP JUMP JUMPDEST PUSH2 0x1BE3 DUP2 PUSH2 0x1BC8 JUMP JUMPDEST DUP3 MSTORE POP POP JUMP JUMPDEST PUSH1 0x0 PUSH1 0x20 DUP3 ADD SWAP1 POP PUSH2 0x1BFE PUSH1 0x0 DUP4 ADD DUP5 PUSH2 0x1BDA JUMP JUMPDEST SWAP3 SWAP2 POP POP JUMP JUMPDEST PUSH1 0x0 DUP2 MLOAD SWAP1 POP PUSH2 0x1C13 DUP2 PUSH2 0x1B29 JUMP JUMPDEST SWAP3 SWAP2 POP POP JUMP JUMPDEST PUSH1 0x0 PUSH1 0x20 DUP3 DUP5 SUB SLT ISZERO PUSH2 0x1C2F JUMPI PUSH2 0x1C2E PUSH2 0x1B1A JUMP JUMPDEST JUMPDEST PUSH1 0x0 PUSH2 0x1C3D DUP5 DUP3 DUP6 ADD PUSH2 0x1C04 JUMP JUMPDEST SWAP2 POP POP SWAP3 SWAP2 POP POP JUMP JUMPDEST PUSH2 0x1C4F DUP2 PUSH2 0x1B1F JUMP JUMPDEST DUP3 MSTORE POP POP JUMP JUMPDEST PUSH1 0x0 PUSH1 0x40 DUP3 ADD SWAP1 POP PUSH2 0x1C6A PUSH1 0x0 DUP4 ADD DUP6 PUSH2 0x1BDA JUMP JUMPDEST PUSH2 0x1C77 PUSH1 0x20 DUP4 ADD DUP5 PUSH2 0x1C46 JUMP JUMPDEST SWAP4 SWAP3 POP POP POP JUMP JUMPDEST PUSH1 0x0 DUP2 ISZERO ISZERO SWAP1 POP SWAP2 SWAP1 POP JUMP JUMPDEST PUSH2 0x1C93 DUP2 PUSH2 0x1C7E JUMP JUMPDEST DUP2 EQ PUSH2 0x1C9E JUMPI PUSH1 0x0 DUP1 REVERT JUMPDEST POP JUMP JUMPDEST PUSH1 0x0 DUP2 MLOAD SWAP1 POP PUSH2 0x1CB0 DUP2 PUSH2 0x1C8A JUMP JUMPDEST SWAP3 SWAP2 POP POP JUMP JUMPDEST PUSH1 0x0 PUSH1 0x20 DUP3 DUP5 SUB SLT ISZERO PUSH2 0x1CCC JUMPI PUSH2 0x1CCB PUSH2 0x1B1A JUMP JUMPDEST JUMPDEST PUSH1 0x0 PUSH2 0x1CDA DUP5 DUP3 DUP6 ADD PUSH2 0x1CA1 JUMP JUMPDEST SWAP2 POP POP SWAP3 SWAP2 POP POP JUMP JUMPDEST PUSH1 0x0 PUSH1 0x60 DUP3 ADD SWAP1 POP PUSH2 0x1CF8 PUSH1 0x0 DUP4 ADD DUP7 PUSH2 0x1BDA JUMP JUMPDEST PUSH2 0x1D05 PUSH1 0x20 DUP4 ADD DUP6 PUSH2 0x1BDA JUMP JUMPDEST PUSH2 0x1D12 PUSH1 0x40 DUP4 ADD DUP5 PUSH2 0x1C46 JUMP JUMPDEST SWAP5 SWAP4 POP POP POP POP JUMP JUMPDEST PUSH1 0x0 PUSH2 0xFFFF DUP3 AND SWAP1 POP SWAP2 SWAP1 POP JUMP JUMPDEST PUSH2 0x1D31 DUP2 PUSH2 0x1D1A JUMP JUMPDEST DUP3 MSTORE POP POP JUMP JUMPDEST PUSH1 0x0 PUSH1 0x80 DUP3 ADD SWAP1 POP PUSH2 0x1D4C PUSH1 0x0 DUP4 ADD DUP8 PUSH2 0x1BDA JUMP JUMPDEST PUSH2 0x1D59 PUSH1 0x20 DUP4 ADD DUP7 PUSH2 0x1C46 JUMP JUMPDEST PUSH2 0x1D66 PUSH1 0x40 DUP4 ADD DUP6 PUSH2 0x1BDA JUMP JUMPDEST PUSH2 0x1D73 PUSH1 0x60 DUP4 ADD DUP5 PUSH2 0x1D28 JUMP JUMPDEST SWAP6 SWAP5 POP POP POP POP POP JUMP JUMPDEST PUSH1 0x0 PUSH1 0x3 SWAP1 POP SWAP2 SWAP1 POP JUMP JUMPDEST PUSH1 0x0 DUP2 SWAP1 POP SWAP3 SWAP2 POP POP JUMP JUMPDEST PUSH1 0x0 DUP2 SWAP1 POP SWAP2 SWAP1 POP JUMP JUMPDEST PUSH2 0x1DA5 DUP2 PUSH2 0x1B1F JUMP JUMPDEST DUP3 MSTORE POP POP JUMP JUMPDEST PUSH1 0x0 PUSH2 0x1DB7 DUP4 DUP4 PUSH2 0x1D9C JUMP JUMPDEST PUSH1 0x20 DUP4 ADD SWAP1 POP SWAP3 SWAP2 POP POP JUMP JUMPDEST PUSH1 0x0 PUSH1 0x20 DUP3 ADD SWAP1 POP SWAP2 SWAP1 POP JUMP JUMPDEST PUSH2 0x1DD9 DUP2 PUSH2 0x1D7C JUMP JUMPDEST PUSH2 0x1DE3 DUP2 DUP5 PUSH2 0x1D87 JUMP JUMPDEST SWAP3 POP PUSH2 0x1DEE DUP3 PUSH2 0x1D92 JUMP JUMPDEST DUP1 PUSH1 0x0 JUMPDEST DUP4 DUP2 LT ISZERO PUSH2 0x1E1F JUMPI DUP2 MLOAD PUSH2 0x1E06 DUP8 DUP3 PUSH2 0x1DAB JUMP JUMPDEST SWAP7 POP PUSH2 0x1E11 DUP4 PUSH2 0x1DC3 JUMP JUMPDEST SWAP3 POP POP PUSH1 0x1 DUP2 ADD SWAP1 POP PUSH2 0x1DF2 JUMP JUMPDEST POP POP POP POP POP POP JUMP JUMPDEST PUSH1 0x0 DUP2 SWAP1 POP SWAP2 SWAP1 POP JUMP JUMPDEST PUSH1 0x0 DUP2 SWAP1 POP SWAP2 SWAP1 POP JUMP JUMPDEST PUSH1 0x0 PUSH2 0x1E56 PUSH2 0x1E51 PUSH2 0x1E4C DUP5 PUSH2 0x1E27 JUMP JUMPDEST PUSH2 0x1E31 JUMP JUMPDEST PUSH2 0x1B1F JUMP JUMPDEST SWAP1 POP SWAP2 SWAP1 POP JUMP JUMPDEST PUSH2 0x1E66 DUP2 PUSH2 0x1E3B JUMP JUMPDEST DUP3 MSTORE POP POP JUMP JUMPDEST PUSH1 0x0 PUSH1 0x80 DUP3 ADD SWAP1 POP PUSH2 0x1E81 PUSH1 0x0 DUP4 ADD DUP6 PUSH2 0x1DD0 JUMP JUMPDEST PUSH2 0x1E8E PUSH1 0x60 DUP4 ADD DUP5 PUSH2 0x1E5D JUMP JUMPDEST SWAP4 SWAP3 POP POP POP JUMP JUMPDEST PUSH1 0x0 PUSH1 0x40 DUP3 ADD SWAP1 POP PUSH2 0x1EAA PUSH1 0x0 DUP4 ADD DUP6 PUSH2 0x1C46 JUMP JUMPDEST PUSH2 0x1EB7 PUSH1 0x20 DUP4 ADD DUP5 PUSH2 0x1BDA JUMP JUMPDEST SWAP4 SWAP3 POP POP POP JUMP JUMPDEST PUSH1 0x0 PUSH1 0x20 DUP3 ADD SWAP1 POP PUSH2 0x1ED3 PUSH1 0x0 DUP4 ADD DUP5 PUSH2 0x1C46 JUMP JUMPDEST SWAP3 SWAP2 POP POP JUMP JUMPDEST PUSH1 0x0 DUP2 PUSH1 0xF SIGNEXTEND SWAP1 POP SWAP2 SWAP1 POP JUMP JUMPDEST PUSH1 0x0 PUSH2 0x1F01 PUSH2 0x1EFC PUSH2 0x1EF7 DUP5 PUSH2 0x1E27 JUMP JUMPDEST PUSH2 0x1E31 JUMP JUMPDEST PUSH2 0x1ED9 JUMP JUMPDEST SWAP1 POP SWAP2 SWAP1 POP JUMP JUMPDEST PUSH2 0x1F11 DUP2 PUSH2 0x1EE6 JUMP JUMPDEST DUP3 MSTORE POP POP JUMP JUMPDEST PUSH1 0x0 DUP2 SWAP1 POP SWAP2 SWAP1 POP JUMP JUMPDEST PUSH1 0x0 PUSH2 0x1F3C PUSH2 0x1F37 PUSH2 0x1F32 DUP5 PUSH2 0x1F17 JUMP JUMPDEST PUSH2 0x1E31 JUMP JUMPDEST PUSH2 0x1ED9 JUMP JUMPDEST SWAP1 POP SWAP2 SWAP1 POP JUMP JUMPDEST PUSH2 0x1F4C DUP2 PUSH2 0x1F21 JUMP JUMPDEST DUP3 MSTORE POP POP JUMP JUMPDEST PUSH1 0x0 PUSH1 0x80 DUP3 ADD SWAP1 POP PUSH2 0x1F67 PUSH1 0x0 DUP4 ADD DUP8 PUSH2 0x1F08 JUMP JUMPDEST PUSH2 0x1F74 PUSH1 0x20 DUP4 ADD DUP7 PUSH2 0x1F43 JUMP JUMPDEST PUSH2 0x1F81 PUSH1 0x40 DUP4 ADD DUP6 PUSH2 0x1C46 JUMP JUMPDEST PUSH2 0x1F8E PUSH1 0x60 DUP4 ADD DUP5 PUSH2 0x1E5D JUMP JUMPDEST SWAP6 SWAP5 POP POP POP POP POP JUMP JUMPDEST PUSH1 0x0 PUSH1 0x80 DUP3 ADD SWAP1 POP PUSH2 0x1FAC PUSH1 0x0 DUP4 ADD DUP6 PUSH2 0x1C46 JUMP JUMPDEST PUSH2 0x1FB9 PUSH1 0x20 DUP4 ADD DUP5 PUSH2 0x1DD0 JUMP JUMPDEST SWAP4 SWAP3 POP POP POP JUMP JUMPDEST PUSH1 0x0 PUSH1 0x80 DUP3 ADD SWAP1 POP PUSH2 0x1FD5 PUSH1 0x0 DUP4 ADD DUP8 PUSH2 0x1F43 JUMP JUMPDEST PUSH2 0x1FE2 PUSH1 0x20 DUP4 ADD DUP7 PUSH2 0x1F08 JUMP JUMPDEST PUSH2 0x1FEF PUSH1 0x40 DUP4 ADD DUP6 PUSH2 0x1C46 JUMP JUMPDEST PUSH2 0x1FFC PUSH1 0x60 DUP4 ADD DUP5 PUSH2 0x1E5D JUMP JUMPDEST SWAP6 SWAP5 POP POP POP POP POP JUMP JUMPDEST PUSH1 0x0 DUP2 SWAP1 POP SWAP2 SWAP1 POP JUMP JUMPDEST PUSH1 0x0 PUSH2 0x202A PUSH2 0x2025 PUSH2 0x2020 DUP5 PUSH2 0x2005 JUMP JUMPDEST PUSH2 0x1E31 JUMP JUMPDEST PUSH2 0x1ED9 JUMP JUMPDEST SWAP1 POP SWAP2 SWAP1 POP JUMP JUMPDEST PUSH2 0x203A DUP2 PUSH2 0x200F JUMP JUMPDEST DUP3 MSTORE POP POP JUMP JUMPDEST PUSH1 0x0 PUSH1 0x80 DUP3 ADD SWAP1 POP PUSH2 0x2055 PUSH1 0x0 DUP4 ADD DUP8 PUSH2 0x2031 JUMP JUMPDEST PUSH2 0x2062 PUSH1 0x20 DUP4 ADD DUP7 PUSH2 0x1F08 JUMP JUMPDEST PUSH2 0x206F PUSH1 0x40 DUP4 ADD DUP6 PUSH2 0x1C46 JUMP JUMPDEST PUSH2 0x207C PUSH1 0x60 DUP4 ADD DUP5 PUSH2 0x1E5D JUMP JUMPDEST SWAP6 SWAP5 POP POP POP POP POP JUMP INVALID LOG2 PUSH5 0x6970667358 0x22 SLT KECCAK256 SIGNEXTEND 0x2C PUSH27 0xFF254680C1E2F176DD9EFE62C3A06D85332A3AF1F3298D8FE9BF83 0xCB CODECOPY PUSH5 0x736F6C6343 STOP ADDMOD GT STOP CALLER "
				},
				"gasEstimates": {
					"creation": {
						"codeDepositCost": "1675800",
						"executionCost": "infinite",
						"totalCost": "infinite"
					},
					"external": {
						"deposit(uint256,uint256,uint256)": "infinite",
						"harvest()": "infinite",
						"withdrawAll()": "infinite"
					}
				},
				"methodIdentifiers": {
					"deposit(uint256,uint256,uint256)": "00aeef8a",
					"harvest()": "4641257d",
					"withdrawAll()": "853828b6"
				}
			},
			"storageLayout": {
				"storage": [
					{
						"astId": 407,
						"contract": "contracts/SAAVE_Receiver.sol:SAAVE_Receiver",
						"label": "AAVECurvePoolAddr",
						"offset": 0,
						"slot": "0",
						"type": "t_address"
					},
					{
						"astId": 413,
						"contract": "contracts/SAAVE_Receiver.sol:SAAVE_Receiver",
						"label": "AAVECurvePool",
						"offset": 0,
						"slot": "1",
						"type": "t_contract(ICurve_Pool)1526"
					},
					{
						"astId": 416,
						"contract": "contracts/SAAVE_Receiver.sol:SAAVE_Receiver",
						"label": "am3CRVGaugePoolAddr",
						"offset": 0,
						"slot": "2",
						"type": "t_address"
					},
					{
						"astId": 422,
						"contract": "contracts/SAAVE_Receiver.sol:SAAVE_Receiver",
						"label": "gaugePool",
						"offset": 0,
						"slot": "3",
						"type": "t_contract(ILiquidityGaugeV3)1477"
					},
					{
						"astId": 425,
						"contract": "contracts/SAAVE_Receiver.sol:SAAVE_Receiver",
						"label": "CRVTricryptoPoolAddr",
						"offset": 0,
						"slot": "4",
						"type": "t_address"
					},
					{
						"astId": 431,
						"contract": "contracts/SAAVE_Receiver.sol:SAAVE_Receiver",
						"label": "CRVTriPool",
						"offset": 0,
						"slot": "5",
						"type": "t_contract(ICurve_Pool)1526"
					},
					{
						"astId": 434,
						"contract": "contracts/SAAVE_Receiver.sol:SAAVE_Receiver",
						"label": "TricryptoPoolAddr",
						"offset": 0,
						"slot": "6",
						"type": "t_address"
					},
					{
						"astId": 440,
						"contract": "contracts/SAAVE_Receiver.sol:SAAVE_Receiver",
						"label": "TricryptoPool",
						"offset": 0,
						"slot": "7",
						"type": "t_contract(ICurve_Pool)1526"
					},
					{
						"astId": 443,
						"contract": "contracts/SAAVE_Receiver.sol:SAAVE_Receiver",
						"label": "am3CRV_LP",
						"offset": 0,
						"slot": "8",
						"type": "t_address"
					},
					{
						"astId": 446,
						"contract": "contracts/SAAVE_Receiver.sol:SAAVE_Receiver",
						"label": "CRVAddr",
						"offset": 0,
						"slot": "9",
						"type": "t_address"
					},
					{
						"astId": 449,
						"contract": "contracts/SAAVE_Receiver.sol:SAAVE_Receiver",
						"label": "amWBTC",
						"offset": 0,
						"slot": "10",
						"type": "t_address"
					},
					{
						"astId": 452,
						"contract": "contracts/SAAVE_Receiver.sol:SAAVE_Receiver",
						"label": "amWETH",
						"offset": 0,
						"slot": "11",
						"type": "t_address"
					},
					{
						"astId": 9,
						"contract": "contracts/SAAVE_Receiver.sol:SAAVE_Receiver",
						"label": "USDC",
						"offset": 0,
						"slot": "12",
						"type": "t_contract(IERC20)1595"
					},
					{
						"astId": 15,
						"contract": "contracts/SAAVE_Receiver.sol:SAAVE_Receiver",
						"label": "DAI",
						"offset": 0,
						"slot": "13",
						"type": "t_contract(IERC20)1595"
					},
					{
						"astId": 21,
						"contract": "contracts/SAAVE_Receiver.sol:SAAVE_Receiver",
						"label": "USDT",
						"offset": 0,
						"slot": "14",
						"type": "t_contract(IERC20)1595"
					},
					{
						"astId": 24,
						"contract": "contracts/SAAVE_Receiver.sol:SAAVE_Receiver",
						"label": "AAVEPool",
						"offset": 0,
						"slot": "15",
						"type": "t_address"
					},
					{
						"astId": 30,
						"contract": "contracts/SAAVE_Receiver.sol:SAAVE_Receiver",
						"label": "LendingPool",
						"offset": 0,
						"slot": "16",
						"type": "t_contract(IPool)1237"
					},
					{
						"astId": 170,
						"contract": "contracts/SAAVE_Receiver.sol:SAAVE_Receiver",
						"label": "factory",
						"offset": 0,
						"slot": "17",
						"type": "t_address"
					},
					{
						"astId": 172,
						"contract": "contracts/SAAVE_Receiver.sol:SAAVE_Receiver",
						"label": "owner",
						"offset": 0,
						"slot": "18",
						"type": "t_address"
					}
				],
				"types": {
					"t_address": {
						"encoding": "inplace",
						"label": "address",
						"numberOfBytes": "20"
					},
					"t_contract(ICurve_Pool)1526": {
						"encoding": "inplace",
						"label": "contract ICurve_Pool",
						"numberOfBytes": "20"
					},
					"t_contract(IERC20)1595": {
						"encoding": "inplace",
						"label": "contract IERC20",
						"numberOfBytes": "20"
					},
					"t_contract(ILiquidityGaugeV3)1477": {
						"encoding": "inplace",
						"label": "contract ILiquidityGaugeV3",
						"numberOfBytes": "20"
					},
					"t_contract(IPool)1237": {
						"encoding": "inplace",
						"label": "contract IPool",
						"numberOfBytes": "20"
					}
				}
			},
			"userdoc": {
				"kind": "user",
				"methods": {},
				"version": 1
			}
		}
	}
}